{
  "_format": "hh-sol-artifact-1",
  "contractName": "Book",
  "sourceName": "contracts/v3/Book.sol",
  "abi": [
    {
      "anonymous": false,
      "inputs": [
        {
          "indexed": false,
          "internalType": "uint256",
          "name": "copyUid",
          "type": "uint256"
        },
        {
          "indexed": true,
          "internalType": "address",
          "name": "buyer",
          "type": "address"
        },
        {
          "indexed": false,
          "internalType": "uint256",
          "name": "price",
          "type": "uint256"
        }
      ],
      "name": "BookBought",
      "type": "event"
    },
    {
      "anonymous": false,
      "inputs": [
        {
          "indexed": false,
          "internalType": "uint256",
          "name": "copyUid",
          "type": "uint256"
        },
        {
          "indexed": true,
          "internalType": "address",
          "name": "to",
          "type": "address"
        }
      ],
      "name": "BookLocked",
      "type": "event"
    },
    {
      "anonymous": false,
      "inputs": [
        {
          "indexed": false,
          "internalType": "uint256",
          "name": "distributedCopyUid",
          "type": "uint256"
        },
        {
          "indexed": false,
          "internalType": "uint256",
          "name": "price",
          "type": "uint256"
        },
        {
          "indexed": true,
          "internalType": "address",
          "name": "receiver",
          "type": "address"
        }
      ],
      "name": "BookRedeemed",
      "type": "event"
    },
    {
      "anonymous": false,
      "inputs": [
        {
          "indexed": false,
          "internalType": "uint256",
          "name": "copyUid",
          "type": "uint256"
        },
        {
          "indexed": true,
          "internalType": "address",
          "name": "to",
          "type": "address"
        }
      ],
      "name": "BookTransferred",
      "type": "event"
    },
    {
      "anonymous": false,
      "inputs": [
        {
          "indexed": false,
          "internalType": "uint256",
          "name": "copyUid",
          "type": "uint256"
        }
      ],
      "name": "BookUnlocked",
      "type": "event"
    },
    {
      "anonymous": false,
      "inputs": [
        {
          "indexed": true,
          "internalType": "address",
          "name": "contributorAddress",
          "type": "address"
        },
        {
          "indexed": false,
          "internalType": "uint96",
          "name": "share",
          "type": "uint96"
        }
      ],
      "name": "ContributorAdded",
      "type": "event"
    },
    {
      "anonymous": false,
      "inputs": [
        {
          "indexed": true,
          "internalType": "address",
          "name": "contributorAddress",
          "type": "address"
        }
      ],
      "name": "ContributorRemoved",
      "type": "event"
    },
    {
      "anonymous": false,
      "inputs": [
        {
          "indexed": true,
          "internalType": "address",
          "name": "contributorAddress",
          "type": "address"
        },
        {
          "indexed": false,
          "internalType": "uint96",
          "name": "share",
          "type": "uint96"
        }
      ],
      "name": "ContributorUpdated",
      "type": "event"
    },
    {
      "anonymous": false,
      "inputs": [
        {
          "indexed": false,
          "internalType": "string",
          "name": "newCoverPageUri",
          "type": "string"
        }
      ],
      "name": "CoverPageUpdated",
      "type": "event"
    },
    {
      "anonymous": false,
      "inputs": [
        {
          "indexed": false,
          "internalType": "uint256",
          "name": "newPricedBookSupplyLimit",
          "type": "uint256"
        }
      ],
      "name": "MarketSupplyIncreased",
      "type": "event"
    },
    {
      "anonymous": false,
      "inputs": [
        {
          "indexed": false,
          "internalType": "uint256",
          "name": "newPrice",
          "type": "uint256"
        }
      ],
      "name": "PriceUpdated",
      "type": "event"
    },
    {
      "anonymous": false,
      "inputs": [
        {
          "indexed": false,
          "internalType": "uint256",
          "name": "withdrawableRevenue",
          "type": "uint256"
        }
      ],
      "name": "RevenueWithdrawn",
      "type": "event"
    },
    {
      "anonymous": false,
      "inputs": [
        {
          "indexed": false,
          "internalType": "uint256",
          "name": "newRoyalty",
          "type": "uint256"
        }
      ],
      "name": "RoyaltyUpdated",
      "type": "event"
    },
    {
      "anonymous": false,
      "inputs": [],
      "name": "SupplyLimited",
      "type": "event"
    },
    {
      "anonymous": false,
      "inputs": [],
      "name": "SupplyUnlimited",
      "type": "event"
    },
    {
      "anonymous": false,
      "inputs": [
        {
          "indexed": true,
          "internalType": "address",
          "name": "implementation",
          "type": "address"
        }
      ],
      "name": "Upgraded",
      "type": "event"
    },
    {
      "inputs": [],
      "name": "_bookId",
      "outputs": [
        {
          "internalType": "uint256",
          "name": "",
          "type": "uint256"
        }
      ],
      "stateMutability": "view",
      "type": "function"
    },
    {
      "inputs": [
        {
          "components": [
            {
              "internalType": "address",
              "name": "contributorAddress",
              "type": "address"
            },
            {
              "internalType": "uint96",
              "name": "share",
              "type": "uint96"
            }
          ],
          "internalType": "struct Book.Contributor",
          "name": "newContributor",
          "type": "tuple"
        }
      ],
      "name": "addContributor",
      "outputs": [],
      "stateMutability": "nonpayable",
      "type": "function"
    },
    {
      "inputs": [],
      "name": "buy",
      "outputs": [],
      "stateMutability": "payable",
      "type": "function"
    },
    {
      "inputs": [],
      "name": "delimitSupply",
      "outputs": [],
      "stateMutability": "nonpayable",
      "type": "function"
    },
    {
      "inputs": [],
      "name": "getChainID",
      "outputs": [
        {
          "internalType": "uint256",
          "name": "id",
          "type": "uint256"
        }
      ],
      "stateMutability": "view",
      "type": "function"
    },
    {
      "inputs": [
        {
          "internalType": "uint256",
          "name": "copyUid",
          "type": "uint256"
        }
      ],
      "name": "getPreviousOwner",
      "outputs": [
        {
          "internalType": "address",
          "name": "",
          "type": "address"
        }
      ],
      "stateMutability": "view",
      "type": "function"
    },
    {
      "inputs": [],
      "name": "getWithdrawableRevenue",
      "outputs": [
        {
          "internalType": "uint256",
          "name": "",
          "type": "uint256"
        }
      ],
      "stateMutability": "view",
      "type": "function"
    },
    {
      "inputs": [
        {
          "components": [
            {
              "internalType": "uint256",
              "name": "bookID",
              "type": "uint256"
            },
            {
              "internalType": "address",
              "name": "receiver",
              "type": "address"
            },
            {
              "internalType": "uint256",
              "name": "price",
              "type": "uint256"
            },
            {
              "internalType": "bytes",
              "name": "signature",
              "type": "bytes"
            }
          ],
          "internalType": "struct Book.BookVoucher",
          "name": "voucher",
          "type": "tuple"
        }
      ],
      "name": "hash",
      "outputs": [
        {
          "internalType": "bytes32",
          "name": "",
          "type": "bytes32"
        }
      ],
      "stateMutability": "view",
      "type": "function"
    },
    {
      "inputs": [
        {
          "internalType": "uint256",
          "name": "incrementSupplyBy",
          "type": "uint256"
        }
      ],
      "name": "increaseMarketSupply",
      "outputs": [],
      "stateMutability": "nonpayable",
      "type": "function"
    },
    {
      "inputs": [
        {
          "internalType": "uint256",
          "name": "bookId",
          "type": "uint256"
        },
        {
          "internalType": "string",
          "name": "bookUri",
          "type": "string"
        },
        {
          "internalType": "string",
          "name": "coverPageUri",
          "type": "string"
        },
        {
          "internalType": "uint256",
          "name": "price",
          "type": "uint256"
        },
        {
          "internalType": "uint256",
          "name": "royalty",
          "type": "uint256"
        },
        {
          "internalType": "uint256",
          "name": "pricedBookSupplyLimit",
          "type": "uint256"
        },
        {
          "internalType": "bool",
          "name": "supplyLimited",
          "type": "bool"
        },
        {
          "internalType": "address",
          "name": "publisher",
          "type": "address"
        }
      ],
      "name": "initialize",
      "outputs": [],
      "stateMutability": "nonpayable",
      "type": "function"
    },
    {
      "inputs": [],
      "name": "limitSupply",
      "outputs": [],
      "stateMutability": "nonpayable",
      "type": "function"
    },
    {
      "inputs": [
        {
          "internalType": "address",
          "name": "to",
          "type": "address"
        },
        {
          "internalType": "uint256",
          "name": "copyUid",
          "type": "uint256"
        }
      ],
      "name": "lockWith",
      "outputs": [],
      "stateMutability": "nonpayable",
      "type": "function"
    },
    {
      "inputs": [],
      "name": "proxiableUUID",
      "outputs": [
        {
          "internalType": "bytes32",
          "name": "",
          "type": "bytes32"
        }
      ],
      "stateMutability": "view",
      "type": "function"
    },
    {
      "inputs": [
        {
          "components": [
            {
              "internalType": "uint256",
              "name": "bookID",
              "type": "uint256"
            },
            {
              "internalType": "address",
              "name": "receiver",
              "type": "address"
            },
            {
              "internalType": "uint256",
              "name": "price",
              "type": "uint256"
            },
            {
              "internalType": "bytes",
              "name": "signature",
              "type": "bytes"
            }
          ],
          "internalType": "struct Book.BookVoucher",
          "name": "voucher",
          "type": "tuple"
        }
      ],
      "name": "redeem",
      "outputs": [],
      "stateMutability": "payable",
      "type": "function"
    },
    {
      "inputs": [
        {
          "internalType": "address",
          "name": "contributor",
          "type": "address"
        }
      ],
      "name": "removeContributor",
      "outputs": [],
      "stateMutability": "nonpayable",
      "type": "function"
    },
    {
      "inputs": [
        {
          "internalType": "address",
          "name": "to",
          "type": "address"
        },
        {
          "internalType": "uint256",
          "name": "copyUid",
          "type": "uint256"
        }
      ],
      "name": "transfer",
      "outputs": [],
      "stateMutability": "payable",
      "type": "function"
    },
    {
      "inputs": [
        {
          "internalType": "uint256",
          "name": "copyUid",
          "type": "uint256"
        }
      ],
      "name": "unlock",
      "outputs": [],
      "stateMutability": "nonpayable",
      "type": "function"
    },
    {
      "inputs": [
        {
          "internalType": "address",
          "name": "contributor",
          "type": "address"
        },
        {
          "internalType": "uint96",
          "name": "share",
          "type": "uint96"
        }
      ],
      "name": "updateContributorShares",
      "outputs": [],
      "stateMutability": "nonpayable",
      "type": "function"
    },
    {
      "inputs": [
        {
          "internalType": "string",
          "name": "newCoverPageUri",
          "type": "string"
        }
      ],
      "name": "updateCoverPageUri",
      "outputs": [],
      "stateMutability": "nonpayable",
      "type": "function"
    },
    {
      "inputs": [
        {
          "internalType": "uint256",
          "name": "newPrice",
          "type": "uint256"
        }
      ],
      "name": "updatePrice",
      "outputs": [],
      "stateMutability": "nonpayable",
      "type": "function"
    },
    {
      "inputs": [
        {
          "internalType": "uint256",
          "name": "newRoyalty",
          "type": "uint256"
        }
      ],
      "name": "updateRoyalty",
      "outputs": [],
      "stateMutability": "nonpayable",
      "type": "function"
    },
    {
      "inputs": [
        {
          "internalType": "address",
          "name": "newImplementation",
          "type": "address"
        }
      ],
      "name": "upgradeTo",
      "outputs": [],
      "stateMutability": "nonpayable",
      "type": "function"
    },
    {
      "inputs": [
        {
          "internalType": "address",
          "name": "newImplementation",
          "type": "address"
        },
        {
          "internalType": "bytes",
          "name": "data",
          "type": "bytes"
        }
      ],
      "name": "upgradeToAndCall",
      "outputs": [],
      "stateMutability": "payable",
      "type": "function"
    },
    {
      "inputs": [
        {
          "internalType": "uint256",
          "name": "copyUid",
          "type": "uint256"
        }
      ],
      "name": "uri",
      "outputs": [
        {
          "internalType": "string",
          "name": "",
          "type": "string"
        }
      ],
      "stateMutability": "view",
      "type": "function"
    },
    {
      "inputs": [
        {
          "internalType": "address",
          "name": "to",
          "type": "address"
        },
        {
          "internalType": "uint256",
          "name": "copyUid",
          "type": "uint256"
        }
      ],
      "name": "verifyLockedWith",
      "outputs": [
        {
          "internalType": "bool",
          "name": "",
          "type": "bool"
        }
      ],
      "stateMutability": "view",
      "type": "function"
    },
    {
      "inputs": [
        {
          "internalType": "address",
          "name": "owner",
          "type": "address"
        },
        {
          "internalType": "uint256",
          "name": "copyUid",
          "type": "uint256"
        },
        {
          "internalType": "bool",
          "name": "distributed",
          "type": "bool"
        }
      ],
      "name": "verifyOwnership",
      "outputs": [
        {
          "internalType": "bool",
          "name": "",
          "type": "bool"
        }
      ],
      "stateMutability": "view",
      "type": "function"
    },
    {
      "inputs": [],
      "name": "withdrawRevenue",
      "outputs": [],
      "stateMutability": "payable",
      "type": "function"
    }
  ],
  "bytecode": "0x60a06040523073ffffffffffffffffffffffffffffffffffffffff1660809073ffffffffffffffffffffffffffffffffffffffff1660601b81525034801561004657600080fd5b5060805160601c6155956200008260003960008181610b1d01528181610bac01528181611153015281816111e201526115fc01526155956000f3fe60806040526004361061019b5760003560e01c806352d1902d116100ec578063b3f3ab5c1161008a578063e7dee62211610064578063e7dee6221461050a578063ea8feae114610533578063f8fbea341461055c578063fa123172146105995761019b565b8063b3f3ab5c1461048f578063de50d399146104b8578063e44b3cf4146104e15761019b565b80638d6cc56d116100c65780638d6cc56d146104175780638fffd8b514610440578063a6f2ae3a14610469578063a9059cbb146104735761019b565b806352d1902d14610398578063564b81ef146103c35780636198e339146103ee5761019b565b806333b582c4116101595780634630dd44116101335780634630dd441461032d5780634f1ef286146103495780634f573cb2146103655780635291fcd51461036f5761019b565b806333b582c4146102b05780633659cfe6146102db5780633b8ceba3146103045761019b565b806256856a146101a05780630711a921146101dd5780630c0907bd1461021a5780630e89341c1461024557806321caea25146102825780632ddcb21f14610299575b600080fd5b3480156101ac57600080fd5b506101c760048036038101906101c29190613cb5565b6105d6565b6040516101d49190614334565b60405180910390f35b3480156101e957600080fd5b5061020460048036038101906101ff9190613c3f565b610616565b604051610211919061436a565b60405180910390f35b34801561022657600080fd5b5061022f61068e565b60405161023c91906147a8565b60405180910390f35b34801561025157600080fd5b5061026c60048036038101906102679190613cb5565b610694565b6040516102799190614486565b60405180910390f35b34801561028e57600080fd5b5061029761090f565b005b3480156102a557600080fd5b506102ae6109fd565b005b3480156102bc57600080fd5b506102c5610b08565b6040516102d291906147a8565b60405180910390f35b3480156102e757600080fd5b5061030260048036038101906102fd9190613a69565b610b1b565b005b34801561031057600080fd5b5061032b60048036038101906103269190613b85565b610ca4565b005b61034760048036038101906103429190613c3f565b610e43565b005b610363600480360381019061035e9190613a96565b611151565b005b61036d61128e565b005b34801561037b57600080fd5b5061039660048036038101906103919190613af2565b6114e8565b005b3480156103a457600080fd5b506103ad6115f8565b6040516103ba919061436a565b60405180910390f35b3480156103cf57600080fd5b506103d86116b1565b6040516103e591906147a8565b60405180910390f35b3480156103fa57600080fd5b5061041560048036038101906104109190613cb5565b6116b9565b005b34801561042357600080fd5b5061043e60048036038101906104399190613cb5565b611843565b005b34801561044c57600080fd5b5061046760048036038101906104629190613cb5565b6118e3565b005b610471611983565b005b61048d60048036038101906104889190613af2565b611cdb565b005b34801561049b57600080fd5b506104b660048036038101906104b19190613a69565b611eeb565b005b3480156104c457600080fd5b506104df60048036038101906104da9190613bf2565b6121ac565b005b3480156104ed57600080fd5b5061050860048036038101906105039190613d0f565b61225a565b005b34801561051657600080fd5b50610531600480360381019061052c9190613c88565b612483565b005b34801561053f57600080fd5b5061055a60048036038101906105559190613cb5565b612604565b005b34801561056857600080fd5b50610583600480360381019061057e9190613b32565b612707565b604051610590919061434f565b60405180910390f35b3480156105a557600080fd5b506105c060048036038101906105bb9190613af2565b6127e7565b6040516105cd919061434f565b60405180910390f35b600060d7600083815260200190815260200160002060010160009054906101000a900473ffffffffffffffffffffffffffffffffffffffff169050919050565b60006106877f134298cc09dce2d2d7b546d1489fda5aa6e53acbdf51e00731238ff4f4624d4d836000013584604001358560200160208101906106599190613a69565b60405160200161066c94939291906143d8565b60405160208183030381529060405280519060200120612856565b9050919050565b60cd5481565b6060600073ffffffffffffffffffffffffffffffffffffffff1660d7600084815260200190815260200160002060020160009054906101000a900473ffffffffffffffffffffffffffffffffffffffff1673ffffffffffffffffffffffffffffffffffffffff1614801561076957503373ffffffffffffffffffffffffffffffffffffffff1660d7600084815260200190815260200160002060000160009054906101000a900473ffffffffffffffffffffffffffffffffffffffff1673ffffffffffffffffffffffffffffffffffffffff16145b806107d557503373ffffffffffffffffffffffffffffffffffffffff1660d7600084815260200190815260200160002060020160009054906101000a900473ffffffffffffffffffffffffffffffffffffffff1673ffffffffffffffffffffffffffffffffffffffff16145b8061083e57503373ffffffffffffffffffffffffffffffffffffffff1660d8600084815260200190815260200160002060009054906101000a900473ffffffffffffffffffffffffffffffffffffffff1673ffffffffffffffffffffffffffffffffffffffff16145b61087d576040517f08c379a000000000000000000000000000000000000000000000000000000000815260040161087490614748565b60405180910390fd5b60ce805461088a90614bbe565b80601f01602080910402602001604051908101604052809291908181526020018280546108b690614bbe565b80156109035780601f106108d857610100808354040283529160200191610903565b820191906000526020600020905b8154815290600101906020018083116108e657829003601f168201915b50505050509050919050565b60026099541415610955576040517f08c379a000000000000000000000000000000000000000000000000000000000815260040161094c90614768565b60405180910390fd5b600260998190555060d560009054906101000a900460ff166109ac576040517f08c379a00000000000000000000000000000000000000000000000000000000081526004016109a3906146c8565b60405180910390fd5b600060d560006101000a81548160ff0219169083151502179055507f4fa2ac1dbc3675e431edc4b7ed4ffca41ca041dc9c1f2e0628ba2abb9169af2f60405160405180910390a16001609981905550565b60026099541415610a43576040517f08c379a0000000000000000000000000000000000000000000000000000000008152600401610a3a90614768565b60405180910390fd5b600260998190555060d560009054906101000a900460ff1615610a9b576040517f08c379a0000000000000000000000000000000000000000000000000000000008152600401610a9290614548565b60405180910390fd5b600160d560006101000a81548160ff0219169083151502179055506001610ac260cb612870565b610acc9190614a0f565b60d4819055507f9315093715d20e383de0fda01168dc80aeea065ffbf08dd364d8e8bc59735f6d60405160405180910390a16001609981905550565b6000610b133361287e565b60d354905090565b7f000000000000000000000000000000000000000000000000000000000000000073ffffffffffffffffffffffffffffffffffffffff163073ffffffffffffffffffffffffffffffffffffffff161415610baa576040517f08c379a0000000000000000000000000000000000000000000000000000000008152600401610ba190614528565b60405180910390fd5b7f000000000000000000000000000000000000000000000000000000000000000073ffffffffffffffffffffffffffffffffffffffff16610be9612911565b73ffffffffffffffffffffffffffffffffffffffff1614610c3f576040517f08c379a0000000000000000000000000000000000000000000000000000000008152600401610c36906145a8565b60405180910390fd5b610c4881612968565b610ca181600067ffffffffffffffff811115610c6757610c66614d61565b5b6040519080825280601f01601f191660200182016040528015610c995781602001600182028036833780820191505090505b506000612a35565b50565b60026099541415610cea576040517f08c379a0000000000000000000000000000000000000000000000000000000008152600401610ce190614768565b60405180910390fd5b6002609981905550610cfb3361287e565b60005b60d680549050811015610de8578273ffffffffffffffffffffffffffffffffffffffff1660d68281548110610d3657610d35614d32565b5b9060005260206000200160000160009054906101000a900473ffffffffffffffffffffffffffffffffffffffff1673ffffffffffffffffffffffffffffffffffffffff161415610dd5578160d68281548110610d9557610d94614d32565b5b9060005260206000200160000160146101000a8154816bffffffffffffffffffffffff02191690836bffffffffffffffffffffffff160217905550610de8565b8080610de090614c21565b915050610cfe565b508173ffffffffffffffffffffffffffffffffffffffff167fc09cb1458301853977091ab3924778c28e7865fa86acb4bac2bacecc4918fdc682604051610e2f91906147ec565b60405180910390a260016099819055505050565b60026099541415610e89576040517f08c379a0000000000000000000000000000000000000000000000000000000008152600401610e8090614768565b60405180910390fd5b60026099819055508060400135341015610ed8576040517f08c379a0000000000000000000000000000000000000000000000000000000008152600401610ecf90614568565b60405180910390fd5b6000610ee382612bb2565b90508073ffffffffffffffffffffffffffffffffffffffff1660d560019054906101000a900473ffffffffffffffffffffffffffffffffffffffff1673ffffffffffffffffffffffffffffffffffffffff1614610f75576040517f08c379a0000000000000000000000000000000000000000000000000000000008152600401610f6c906146a8565b60405180910390fd5b3373ffffffffffffffffffffffffffffffffffffffff16826020016020810190610f9f9190613a69565b73ffffffffffffffffffffffffffffffffffffffff1614610ff5576040517f08c379a0000000000000000000000000000000000000000000000000000000008152600401610fec90614668565b60405180910390fd5b8160200160208101906110089190613a69565b60d8600061101660cc612870565b815260200190815260200160002060006101000a81548173ffffffffffffffffffffffffffffffffffffffff021916908373ffffffffffffffffffffffffffffffffffffffff16021790555061106c60cc612c24565b6110798260400135612c3a565b3373ffffffffffffffffffffffffffffffffffffffff166108fc6110aa846040013534612c7390919063ffffffff16565b9081150290604051600060405180830381858888f193505050501580156110d5573d6000803e3d6000fd5b508160200160208101906110e99190613a69565b73ffffffffffffffffffffffffffffffffffffffff167f3f4eb6c3c81657d4e0f5c31e40ceb4ad413ab88ce6bdac4abc25bf9de59a994a61112a60cc612870565b846040013560405161113d9291906147c3565b60405180910390a250600160998190555050565b7f000000000000000000000000000000000000000000000000000000000000000073ffffffffffffffffffffffffffffffffffffffff163073ffffffffffffffffffffffffffffffffffffffff1614156111e0576040517f08c379a00000000000000000000000000000000000000000000000000000000081526004016111d790614528565b60405180910390fd5b7f000000000000000000000000000000000000000000000000000000000000000073ffffffffffffffffffffffffffffffffffffffff1661121f612911565b73ffffffffffffffffffffffffffffffffffffffff1614611275576040517f08c379a000000000000000000000000000000000000000000000000000000000815260040161126c906145a8565b60405180910390fd5b61127e82612968565b61128a82826001612a35565b5050565b600260995414156112d4576040517f08c379a00000000000000000000000000000000000000000000000000000000081526004016112cb90614768565b60405180910390fd5b60026099819055506112e53361287e565b600080600090505b60d6805490508110156113695761135460d6828154811061131157611310614d32565b5b9060005260206000200160000160149054906101000a90046bffffffffffffffffffffffff166bffffffffffffffffffffffff1683612c8990919063ffffffff16565b9150808061136190614c21565b9150506112ed565b5060006113818260d354612c9f90919063ffffffff16565b90506113988260d354612cb590919063ffffffff16565b60d38190555060005b60d6805490508110156114a25760d681815481106113c2576113c1614d32565b5b9060005260206000200160000160009054906101000a900473ffffffffffffffffffffffffffffffffffffffff1673ffffffffffffffffffffffffffffffffffffffff166108fc61146360d684815481106114205761141f614d32565b5b9060005260206000200160000160149054906101000a90046bffffffffffffffffffffffff166bffffffffffffffffffffffff1685612ccb90919063ffffffff16565b9081150290604051600060405180830381858888f1935050505015801561148e573d6000803e3d6000fd5b50808061149a90614c21565b9150506113a1565b507f7254ffd29ae20f1712bea29277015e5953493e93a264d860cdba0840857ec86160d3546040516114d491906147a8565b60405180910390a150506001609981905550565b6002609954141561152e576040517f08c379a000000000000000000000000000000000000000000000000000000000815260040161152590614768565b60405180910390fd5b60026099819055506115403382612ce1565b61154981612d89565b8160d7600083815260200190815260200160002060020160006101000a81548173ffffffffffffffffffffffffffffffffffffffff021916908373ffffffffffffffffffffffffffffffffffffffff1602179055508173ffffffffffffffffffffffffffffffffffffffff167f06f76e0da7be64239656a001b94c1c4e1893465df2f1ef90edb1e088b0852e69826040516115e491906147a8565b60405180910390a260016099819055505050565b60007f000000000000000000000000000000000000000000000000000000000000000073ffffffffffffffffffffffffffffffffffffffff163073ffffffffffffffffffffffffffffffffffffffff1614611688576040517f08c379a000000000000000000000000000000000000000000000000000000000815260040161167f906145c8565b60405180910390fd5b7f360894a13ba1a3210667c828492db98dca3e2076cc3735a920a3ca505d382bbc60001b905090565b600046905090565b600260995414156116ff576040517f08c379a00000000000000000000000000000000000000000000000000000000081526004016116f690614768565b60405180910390fd5b60026099819055503373ffffffffffffffffffffffffffffffffffffffff1660d7600083815260200190815260200160002060020160009054906101000a900473ffffffffffffffffffffffffffffffffffffffff1673ffffffffffffffffffffffffffffffffffffffff16146117ab576040517f08c379a00000000000000000000000000000000000000000000000000000000081526004016117a290614748565b60405180910390fd5b600060d7600083815260200190815260200160002060020160006101000a81548173ffffffffffffffffffffffffffffffffffffffff021916908373ffffffffffffffffffffffffffffffffffffffff1602179055507f3a7c2a55ffa9ac00869f1a3eb5e3209a949c0690416cad3ca8536b026908a0658160405161183091906147a8565b60405180910390a1600160998190555050565b60026099541415611889576040517f08c379a000000000000000000000000000000000000000000000000000000000815260040161188090614768565b60405180910390fd5b600260998190555061189a3361287e565b8060d0819055507f66cbca4f3c64fecf1dcb9ce094abcf7f68c3450a1d4e3a8e917dd621edb4ebe0816040516118d091906147a8565b60405180910390a1600160998190555050565b60026099541415611929576040517f08c379a000000000000000000000000000000000000000000000000000000000815260040161192090614768565b60405180910390fd5b600260998190555061193a3361287e565b8060d1819055507f244ea8d7627f5a08f4299862bd5a45752842c183aee5b0fb0d1e4887bfa605b38160405161197091906147a8565b60405180910390a1600160998190555050565b600260995414156119c9576040517f08c379a00000000000000000000000000000000000000000000000000000000081526004016119c090614768565b60405180910390fd5b600260998190555060d054341015611a16576040517f08c379a0000000000000000000000000000000000000000000000000000000008152600401611a0d90614568565b60405180910390fd5b60d560009054906101000a900460ff1615611a8c57611a486001611a3a60cb612870565b612c7390919063ffffffff16565b60d45411611a8b576040517f08c379a0000000000000000000000000000000000000000000000000000000008152600401611a8290614708565b60405180910390fd5b5b600060405180606001604052803373ffffffffffffffffffffffffffffffffffffffff16815260200160d560019054906101000a900473ffffffffffffffffffffffffffffffffffffffff1673ffffffffffffffffffffffffffffffffffffffff168152602001600073ffffffffffffffffffffffffffffffffffffffff1681525090508060d76000611b1f60cb612870565b815260200190815260200160002060008201518160000160006101000a81548173ffffffffffffffffffffffffffffffffffffffff021916908373ffffffffffffffffffffffffffffffffffffffff16021790555060208201518160010160006101000a81548173ffffffffffffffffffffffffffffffffffffffff021916908373ffffffffffffffffffffffffffffffffffffffff16021790555060408201518160020160006101000a81548173ffffffffffffffffffffffffffffffffffffffff021916908373ffffffffffffffffffffffffffffffffffffffff160217905550905050611c0f60cb612c24565b611c1a60d054612c3a565b3373ffffffffffffffffffffffffffffffffffffffff166108fc611c4960d05434612c7390919063ffffffff16565b9081150290604051600060405180830381858888f19350505050158015611c74573d6000803e3d6000fd5b503373ffffffffffffffffffffffffffffffffffffffff167f0a61a5bc4d97f46f5320375498e59af4d35ef1f6f31c51b9fc03c0134dd46817611cb760cb612870565b60d054604051611cc89291906147c3565b60405180910390a2506001609981905550565b60026099541415611d21576040517f08c379a0000000000000000000000000000000000000000000000000000000008152600401611d1890614768565b60405180910390fd5b6002609981905550611d333382612ce1565b611d3c81612d89565b60d154341015611d81576040517f08c379a0000000000000000000000000000000000000000000000000000000008152600401611d7890614568565b60405180910390fd5b3360d7600083815260200190815260200160002060010160006101000a81548173ffffffffffffffffffffffffffffffffffffffff021916908373ffffffffffffffffffffffffffffffffffffffff1602179055508160d7600083815260200190815260200160002060000160006101000a81548173ffffffffffffffffffffffffffffffffffffffff021916908373ffffffffffffffffffffffffffffffffffffffff160217905550611e3660d154612c3a565b3373ffffffffffffffffffffffffffffffffffffffff166108fc611e6560d15434612c7390919063ffffffff16565b9081150290604051600060405180830381858888f19350505050158015611e90573d6000803e3d6000fd5b508173ffffffffffffffffffffffffffffffffffffffff167f0ff0cdfdec8286eb9990d56a9dd0bbacd1f2631624f021b9ef8051cae989c86082604051611ed791906147a8565b60405180910390a260016099819055505050565b60026099541415611f31576040517f08c379a0000000000000000000000000000000000000000000000000000000008152600401611f2890614768565b60405180910390fd5b6002609981905550611f423361287e565b60005b60d68054905081101561215d578173ffffffffffffffffffffffffffffffffffffffff1660d68281548110611f7d57611f7c614d32565b5b9060005260206000200160000160009054906101000a900473ffffffffffffffffffffffffffffffffffffffff1673ffffffffffffffffffffffffffffffffffffffff16141561214a5760d6600160d680549050611fdb9190614a0f565b81548110611fec57611feb614d32565b5b9060005260206000200160d6828154811061200a57612009614d32565b5b906000526020600020016000820160009054906101000a900473ffffffffffffffffffffffffffffffffffffffff168160000160006101000a81548173ffffffffffffffffffffffffffffffffffffffff021916908373ffffffffffffffffffffffffffffffffffffffff1602179055506000820160149054906101000a90046bffffffffffffffffffffffff168160000160146101000a8154816bffffffffffffffffffffffff02191690836bffffffffffffffffffffffff16021790555090505060d6600160d6805490506120e19190614a0f565b815481106120f2576120f1614d32565b5b90600052602060002001600080820160006101000a81549073ffffffffffffffffffffffffffffffffffffffff02191690556000820160146101000a8154906bffffffffffffffffffffffff0219169055505061215d565b808061215590614c21565b915050611f45565b508073ffffffffffffffffffffffffffffffffffffffff167f665b9b7911d6a3e5a789e2be1ed4f9ffa84c1259e3b89675234719521112219160405160405180910390a2600160998190555050565b600260995414156121f2576040517f08c379a00000000000000000000000000000000000000000000000000000000081526004016121e990614768565b60405180910390fd5b60026099819055506122033361287e565b818160cf919061221492919061374e565b507f3619b3c18f1e17722575b9d37edf858c0a5655930f4082152947d4b88c14b54e8282604051612246929190614462565b60405180910390a160016099819055505050565b600060019054906101000a900460ff166122825760008054906101000a900460ff161561228b565b61228a612e31565b5b6122ca576040517f08c379a00000000000000000000000000000000000000000000000000000000081526004016122c190614608565b60405180910390fd5b60008060019054906101000a900460ff16159050801561231a576001600060016101000a81548160ff02191690831515021790555060016000806101000a81548160ff0219169083151502179055505b61238e6040518060400160405280600c81526020017f424f4f4b2d564f554348455200000000000000000000000000000000000000008152506040518060400160405280600181526020017f3100000000000000000000000000000000000000000000000000000000000000815250612e42565b612396612e9f565b61239e612ef8565b8860cd819055508760ce90805190602001906123bb9291906137d4565b508660cf90805190602001906123d29291906137d4565b508560d0819055508460d1819055508360d4819055508260d560006101000a81548160ff0219169083151502179055508160d560016101000a81548173ffffffffffffffffffffffffffffffffffffffff021916908373ffffffffffffffffffffffffffffffffffffffff16021790555061244d60cb612c24565b61245760cc612c24565b80156124785760008060016101000a81548160ff0219169083151502179055505b505050505050505050565b600260995414156124c9576040517f08c379a00000000000000000000000000000000000000000000000000000000081526004016124c090614768565b60405180910390fd5b60026099819055506124da3361287e565b60d68190806001815401808255809150506001900390600052602060002001600090919091909150818161250e9190615494565b50508060000160208101906125239190613a69565b60d8600061253160cc612870565b815260200190815260200160002060006101000a81548173ffffffffffffffffffffffffffffffffffffffff021916908373ffffffffffffffffffffffffffffffffffffffff16021790555061258760cc612c24565b80600001602081019061259a9190613a69565b73ffffffffffffffffffffffffffffffffffffffff167fd554fd0f15c16acff1f1515b38bd29c601f66ed7d68e0a08f065cae6ed4217858260200160208101906125e49190613dfd565b6040516125f191906147ec565b60405180910390a2600160998190555050565b6002609954141561264a576040517f08c379a000000000000000000000000000000000000000000000000000000000815260040161264190614768565b60405180910390fd5b600260998190555061265b3361287e565b60d560009054906101000a900460ff166126aa576040517f08c379a00000000000000000000000000000000000000000000000000000000081526004016126a190614508565b60405180910390fd5b8060d460008282546126bc919061492e565b925050819055507f2997f475d409a7cba16d31bb0e76cd7bf156ffe8a8a1205a9a75c199d0c82dd460d4546040516126f491906147a8565b60405180910390a1600160998190555050565b60008115612778578373ffffffffffffffffffffffffffffffffffffffff1660d8600085815260200190815260200160002060009054906101000a900473ffffffffffffffffffffffffffffffffffffffff1673ffffffffffffffffffffffffffffffffffffffff161490506127e0565b8373ffffffffffffffffffffffffffffffffffffffff1660d7600085815260200190815260200160002060000160009054906101000a900473ffffffffffffffffffffffffffffffffffffffff1673ffffffffffffffffffffffffffffffffffffffff161490505b9392505050565b60008273ffffffffffffffffffffffffffffffffffffffff1660d7600084815260200190815260200160002060020160009054906101000a900473ffffffffffffffffffffffffffffffffffffffff1673ffffffffffffffffffffffffffffffffffffffff1614905092915050565b6000612869612863612f59565b83612f99565b9050919050565b600081600001549050919050565b60d560019054906101000a900473ffffffffffffffffffffffffffffffffffffffff1673ffffffffffffffffffffffffffffffffffffffff168173ffffffffffffffffffffffffffffffffffffffff161461290e576040517f08c379a000000000000000000000000000000000000000000000000000000000815260040161290590614748565b60405180910390fd5b50565b600061293f7f360894a13ba1a3210667c828492db98dca3e2076cc3735a920a3ca505d382bbc60001b612fcc565b60000160009054906101000a900473ffffffffffffffffffffffffffffffffffffffff16905090565b6129713361287e565b60cd548173ffffffffffffffffffffffffffffffffffffffff16630c0907bd6040518163ffffffff1660e01b815260040160206040518083038186803b1580156129ba57600080fd5b505afa1580156129ce573d6000803e3d6000fd5b505050506040513d601f19601f820116820180604052508101906129f29190613ce2565b14612a32576040517f08c379a0000000000000000000000000000000000000000000000000000000008152600401612a29906144c8565b60405180910390fd5b50565b612a617f4910fdfa16fed3260ed0e7147f7cc6da11a60208b5b9406d12a635614ffd914360001b612fd6565b60000160009054906101000a900460ff1615612a8557612a8083612fe0565b612bad565b8273ffffffffffffffffffffffffffffffffffffffff166352d1902d6040518163ffffffff1660e01b815260040160206040518083038186803b158015612acb57600080fd5b505afa925050508015612afc57506040513d601f19601f82011682018060405250810190612af99190613bc5565b60015b612b3b576040517f08c379a0000000000000000000000000000000000000000000000000000000008152600401612b3290614648565b60405180910390fd5b7f360894a13ba1a3210667c828492db98dca3e2076cc3735a920a3ca505d382bbc60001b8114612ba0576040517f08c379a0000000000000000000000000000000000000000000000000000000008152600401612b97906145e8565b60405180910390fd5b50612bac838383613099565b5b505050565b600080612bbe83610616565b9050612c1c81848060600190612bd49190614807565b8080601f016020809104026020016040519081016040528093929190818152602001838380828437600081840152601f19601f820116905080830192505050505050506130c5565b915050919050565b6001816000016000828254019250508190555050565b612c4f8160d254612c8990919063ffffffff16565b60d281905550612c6a8160d354612c8990919063ffffffff16565b60d38190555050565b60008183612c819190614a0f565b905092915050565b60008183612c97919061492e565b905092915050565b60008183612cad9190614984565b905092915050565b60008183612cc39190614c74565b905092915050565b60008183612cd991906149b5565b905092915050565b8173ffffffffffffffffffffffffffffffffffffffff1660d7600083815260200190815260200160002060000160009054906101000a900473ffffffffffffffffffffffffffffffffffffffff1673ffffffffffffffffffffffffffffffffffffffff1614612d85576040517f08c379a0000000000000000000000000000000000000000000000000000000008152600401612d7c90614748565b60405180910390fd5b5050565b600073ffffffffffffffffffffffffffffffffffffffff1660d7600083815260200190815260200160002060020160009054906101000a900473ffffffffffffffffffffffffffffffffffffffff1673ffffffffffffffffffffffffffffffffffffffff1614612e2e576040517f08c379a0000000000000000000000000000000000000000000000000000000008152600401612e2590614788565b60405180910390fd5b50565b6000612e3c3061313f565b15905090565b600060019054906101000a900460ff16612e91576040517f08c379a0000000000000000000000000000000000000000000000000000000008152600401612e8890614728565b60405180910390fd5b612e9b8282613152565b5050565b600060019054906101000a900460ff16612eee576040517f08c379a0000000000000000000000000000000000000000000000000000000008152600401612ee590614728565b60405180910390fd5b612ef66131cd565b565b600060019054906101000a900460ff16612f47576040517f08c379a0000000000000000000000000000000000000000000000000000000008152600401612f3e90614728565b60405180910390fd5b612f4f613226565b612f57613277565b565b6000612f947f8b73c3c69bb8fe3d512ecc4cf759cc79239f7b179b0ffacaa9a75d522b39400f612f876132c8565b612f8f6132d2565b6132dc565b905090565b60008282604051602001612fae9291906142fd565b60405160208183030381529060405280519060200120905092915050565b6000819050919050565b6000819050919050565b612fe98161313f565b613028576040517f08c379a000000000000000000000000000000000000000000000000000000000815260040161301f90614688565b60405180910390fd5b806130557f360894a13ba1a3210667c828492db98dca3e2076cc3735a920a3ca505d382bbc60001b612fcc565b60000160006101000a81548173ffffffffffffffffffffffffffffffffffffffff021916908373ffffffffffffffffffffffffffffffffffffffff16021790555050565b6130a283613316565b6000825111806130af5750805b156130c0576130be8383613365565b505b505050565b6000604182511461310b576040517f08c379a0000000000000000000000000000000000000000000000000000000008152600401613102906144e8565b60405180910390fd5b60008060006020850151925060408501519150606085015160001a905061313486828585613449565b935050505092915050565b600080823b905060008111915050919050565b600060019054906101000a900460ff166131a1576040517f08c379a000000000000000000000000000000000000000000000000000000000815260040161319890614728565b60405180910390fd5b600082805190602001209050600082805190602001209050816065819055508060668190555050505050565b600060019054906101000a900460ff1661321c576040517f08c379a000000000000000000000000000000000000000000000000000000000815260040161321390614728565b60405180910390fd5b6001609981905550565b600060019054906101000a900460ff16613275576040517f08c379a000000000000000000000000000000000000000000000000000000000815260040161326c90614728565b60405180910390fd5b565b600060019054906101000a900460ff166132c6576040517f08c379a00000000000000000000000000000000000000000000000000000000081526004016132bd90614728565b60405180910390fd5b565b6000606554905090565b6000606654905090565b600083838346306040516020016132f7959493929190614385565b6040516020818303038152906040528051906020012090509392505050565b61331f81612fe0565b8073ffffffffffffffffffffffffffffffffffffffff167fbc7cd75a20ee27fd9adebab32041f755214dbc6bffa90cc0225b39da2e5c2d3b60405160405180910390a250565b60606133708361313f565b6133af576040517f08c379a00000000000000000000000000000000000000000000000000000000081526004016133a6906146e8565b60405180910390fd5b6000808473ffffffffffffffffffffffffffffffffffffffff16846040516133d791906142c0565b600060405180830381855af49150503d8060008114613412576040519150601f19603f3d011682016040523d82523d6000602084013e613417565b606091505b509150915061343f8282604051806060016040528060278152602001615539602791396136b7565b9250505092915050565b60007f7fffffffffffffffffffffffffffffff5d576e7357a4501ddfe92f46681b20a08260001c11156134b1576040517f08c379a00000000000000000000000000000000000000000000000000000000081526004016134a890614588565b60405180910390fd5b6000601e8560ff16111561359557601b6004866134ce9190614a43565b60ff1614806134ec5750601c6004866134e79190614a43565b60ff16145b61352b576040517f08c379a000000000000000000000000000000000000000000000000000000000815260040161352290614628565b60405180910390fd5b60016135368761371e565b6004876135439190614a43565b868660405160008152602001604052604051613562949392919061441d565b6020604051602081039080840390855afa158015613584573d6000803e3d6000fd5b50505060206040510351905061363b565b601b8560ff1614806135aa5750601c8560ff16145b6135e9576040517f08c379a00000000000000000000000000000000000000000000000000000000081526004016135e090614628565b60405180910390fd5b6001868686866040516000815260200160405260405161360c949392919061441d565b6020604051602081039080840390855afa15801561362e573d6000803e3d6000fd5b5050506020604051035190505b600073ffffffffffffffffffffffffffffffffffffffff168173ffffffffffffffffffffffffffffffffffffffff1614156136ab576040517f08c379a00000000000000000000000000000000000000000000000000000000081526004016136a2906144a8565b60405180910390fd5b80915050949350505050565b606083156136c757829050613717565b6000835111156136da5782518084602001fd5b816040517f08c379a000000000000000000000000000000000000000000000000000000000815260040161370e9190614486565b60405180910390fd5b9392505050565b60008160405160200161373191906142d7565b604051602081830303815290604052805190602001209050919050565b82805461375a90614bbe565b90600052602060002090601f01602090048101928261377c57600085556137c3565b82601f1061379557803560ff19168380011785556137c3565b828001600101855582156137c3579182015b828111156137c25782358255916020019190600101906137a7565b5b5090506137d0919061385a565b5090565b8280546137e090614bbe565b90600052602060002090601f0160209004810192826138025760008555613849565b82601f1061381b57805160ff1916838001178555613849565b82800160010185558215613849579182015b8281111561384857825182559160200191906001019061382d565b5b509050613856919061385a565b5090565b5b8082111561387357600081600090555060010161385b565b5090565b600061388a6138858461488f565b61486a565b9050828152602081018484840111156138a6576138a5614df3565b5b6138b1848285614b36565b509392505050565b60006138cc6138c7846148c0565b61486a565b9050828152602081018484840111156138e8576138e7614df3565b5b6138f3848285614b36565b509392505050565b60008135905061390a816154c5565b92915050565b60008135905061391f816154dc565b92915050565b600081519050613934816154f3565b92915050565b600082601f83011261394f5761394e614dd5565b5b813561395f848260208601613877565b91505092915050565b60008083601f84011261397e5761397d614dd5565b5b8235905067ffffffffffffffff81111561399b5761399a614dd0565b5b6020830191508360018202830111156139b7576139b6614de9565b5b9250929050565b600082601f8301126139d3576139d2614dd5565b5b81356139e38482602086016138b9565b91505092915050565b600060808284031215613a0257613a01614ddf565b5b81905092915050565b600060408284031215613a2157613a20614ddf565b5b81905092915050565b600081359050613a398161550a565b92915050565b600081519050613a4e8161550a565b92915050565b600081359050613a6381615521565b92915050565b600060208284031215613a7f57613a7e614dfd565b5b6000613a8d848285016138fb565b91505092915050565b60008060408385031215613aad57613aac614dfd565b5b6000613abb858286016138fb565b925050602083013567ffffffffffffffff811115613adc57613adb614df8565b5b613ae88582860161393a565b9150509250929050565b60008060408385031215613b0957613b08614dfd565b5b6000613b17858286016138fb565b9250506020613b2885828601613a2a565b9150509250929050565b600080600060608486031215613b4b57613b4a614dfd565b5b6000613b59868287016138fb565b9350506020613b6a86828701613a2a565b9250506040613b7b86828701613910565b9150509250925092565b60008060408385031215613b9c57613b9b614dfd565b5b6000613baa858286016138fb565b9250506020613bbb85828601613a54565b9150509250929050565b600060208284031215613bdb57613bda614dfd565b5b6000613be984828501613925565b91505092915050565b60008060208385031215613c0957613c08614dfd565b5b600083013567ffffffffffffffff811115613c2757613c26614df8565b5b613c3385828601613968565b92509250509250929050565b600060208284031215613c5557613c54614dfd565b5b600082013567ffffffffffffffff811115613c7357613c72614df8565b5b613c7f848285016139ec565b91505092915050565b600060408284031215613c9e57613c9d614dfd565b5b6000613cac84828501613a0b565b91505092915050565b600060208284031215613ccb57613cca614dfd565b5b6000613cd984828501613a2a565b91505092915050565b600060208284031215613cf857613cf7614dfd565b5b6000613d0684828501613a3f565b91505092915050565b600080600080600080600080610100898b031215613d3057613d2f614dfd565b5b6000613d3e8b828c01613a2a565b985050602089013567ffffffffffffffff811115613d5f57613d5e614df8565b5b613d6b8b828c016139be565b975050604089013567ffffffffffffffff811115613d8c57613d8b614df8565b5b613d988b828c016139be565b9650506060613da98b828c01613a2a565b9550506080613dba8b828c01613a2a565b94505060a0613dcb8b828c01613a2a565b93505060c0613ddc8b828c01613910565b92505060e0613ded8b828c016138fb565b9150509295985092959890939650565b600060208284031215613e1357613e12614dfd565b5b6000613e2184828501613a54565b91505092915050565b613e3381614a77565b82525050565b613e4281614a89565b82525050565b613e5181614a95565b82525050565b613e68613e6382614a95565b614c6a565b82525050565b6000613e79826148f1565b613e838185614907565b9350613e93818560208601614b45565b80840191505092915050565b6000613eab8385614912565b9350613eb8838584614b36565b613ec183614e02565b840190509392505050565b6000613ed7826148fc565b613ee18185614912565b9350613ef1818560208601614b45565b613efa81614e02565b840191505092915050565b6000613f12601883614912565b9150613f1d82614e2d565b602082019050919050565b6000613f35601683614912565b9150613f4082614e56565b602082019050919050565b6000613f58601f83614912565b9150613f6382614e7f565b602082019050919050565b6000613f7b601c83614923565b9150613f8682614ea8565b601c82019050919050565b6000613f9e600283614923565b9150613fa982614ed1565b600282019050919050565b6000613fc1601283614912565b9150613fcc82614efa565b602082019050919050565b6000613fe4602c83614912565b9150613fef82614f23565b604082019050919050565b6000614007601683614912565b915061401282614f72565b602082019050919050565b600061402a601283614912565b915061403582614f9b565b602082019050919050565b600061404d602283614912565b915061405882614fc4565b604082019050919050565b6000614070602c83614912565b915061407b82615013565b604082019050919050565b6000614093603883614912565b915061409e82615062565b604082019050919050565b60006140b6602983614912565b91506140c1826150b1565b604082019050919050565b60006140d9602e83614912565b91506140e482615100565b604082019050919050565b60006140fc602283614912565b91506141078261514f565b604082019050919050565b600061411f602e83614912565b915061412a8261519e565b604082019050919050565b6000614142600f83614912565b915061414d826151ed565b602082019050919050565b6000614165602d83614912565b915061417082615216565b604082019050919050565b6000614188601183614912565b915061419382615265565b602082019050919050565b60006141ab601883614912565b91506141b68261528e565b602082019050919050565b60006141ce602683614912565b91506141d9826152b7565b604082019050919050565b60006141f1601483614912565b91506141fc82615306565b602082019050919050565b6000614214602b83614912565b915061421f8261532f565b604082019050919050565b6000614237601583614912565b91506142428261537e565b602082019050919050565b600061425a601f83614912565b9150614265826153a7565b602082019050919050565b600061427d600b83614912565b9150614288826153d0565b602082019050919050565b61429c81614abf565b82525050565b6142ab81614ac9565b82525050565b6142ba81614ad6565b82525050565b60006142cc8284613e6e565b915081905092915050565b60006142e282613f6e565b91506142ee8284613e57565b60208201915081905092915050565b600061430882613f91565b91506143148285613e57565b6020820191506143248284613e57565b6020820191508190509392505050565b60006020820190506143496000830184613e2a565b92915050565b60006020820190506143646000830184613e39565b92915050565b600060208201905061437f6000830184613e48565b92915050565b600060a08201905061439a6000830188613e48565b6143a76020830187613e48565b6143b46040830186613e48565b6143c16060830185614293565b6143ce6080830184613e2a565b9695505050505050565b60006080820190506143ed6000830187613e48565b6143fa6020830186614293565b6144076040830185614293565b6144146060830184613e2a565b95945050505050565b60006080820190506144326000830187613e48565b61443f60208301866142a2565b61444c6040830185613e48565b6144596060830184613e48565b95945050505050565b6000602082019050818103600083015261447d818486613e9f565b90509392505050565b600060208201905081810360008301526144a08184613ecc565b905092915050565b600060208201905081810360008301526144c181613f05565b9050919050565b600060208201905081810360008301526144e181613f28565b9050919050565b6000602082019050818103600083015261450181613f4b565b9050919050565b6000602082019050818103600083015261452181613fb4565b9050919050565b6000602082019050818103600083015261454181613fd7565b9050919050565b6000602082019050818103600083015261456181613ffa565b9050919050565b600060208201905081810360008301526145818161401d565b9050919050565b600060208201905081810360008301526145a181614040565b9050919050565b600060208201905081810360008301526145c181614063565b9050919050565b600060208201905081810360008301526145e181614086565b9050919050565b60006020820190508181036000830152614601816140a9565b9050919050565b60006020820190508181036000830152614621816140cc565b9050919050565b60006020820190508181036000830152614641816140ef565b9050919050565b6000602082019050818103600083015261466181614112565b9050919050565b6000602082019050818103600083015261468181614135565b9050919050565b600060208201905081810360008301526146a181614158565b9050919050565b600060208201905081810360008301526146c18161417b565b9050919050565b600060208201905081810360008301526146e18161419e565b9050919050565b60006020820190508181036000830152614701816141c1565b9050919050565b60006020820190508181036000830152614721816141e4565b9050919050565b6000602082019050818103600083015261474181614207565b9050919050565b600060208201905081810360008301526147618161422a565b9050919050565b600060208201905081810360008301526147818161424d565b9050919050565b600060208201905081810360008301526147a181614270565b9050919050565b60006020820190506147bd6000830184614293565b92915050565b60006040820190506147d86000830185614293565b6147e56020830184614293565b9392505050565b600060208201905061480160008301846142b1565b92915050565b6000808335600160200384360303811261482457614823614de4565b5b80840192508235915067ffffffffffffffff82111561484657614845614dda565b5b60208301925060018202360383131561486257614861614dee565b5b509250929050565b6000614874614885565b90506148808282614bf0565b919050565b6000604051905090565b600067ffffffffffffffff8211156148aa576148a9614d61565b5b6148b382614e02565b9050602081019050919050565b600067ffffffffffffffff8211156148db576148da614d61565b5b6148e482614e02565b9050602081019050919050565b600081519050919050565b600081519050919050565b600081905092915050565b600082825260208201905092915050565b600081905092915050565b600061493982614abf565b915061494483614abf565b9250827fffffffffffffffffffffffffffffffffffffffffffffffffffffffffffffffff0382111561497957614978614ca5565b5b828201905092915050565b600061498f82614abf565b915061499a83614abf565b9250826149aa576149a9614cd4565b5b828204905092915050565b60006149c082614abf565b91506149cb83614abf565b9250817fffffffffffffffffffffffffffffffffffffffffffffffffffffffffffffffff0483118215151615614a0457614a03614ca5565b5b828202905092915050565b6000614a1a82614abf565b9150614a2583614abf565b925082821015614a3857614a37614ca5565b5b828203905092915050565b6000614a4e82614ac9565b9150614a5983614ac9565b925082821015614a6c57614a6b614ca5565b5b828203905092915050565b6000614a8282614a9f565b9050919050565b60008115159050919050565b6000819050919050565b600073ffffffffffffffffffffffffffffffffffffffff82169050919050565b6000819050919050565b600060ff82169050919050565b60006bffffffffffffffffffffffff82169050919050565b6000614af982614b00565b9050919050565b6000614b0b82614b12565b9050919050565b6000614b1d82614a9f565b9050919050565b6000614b2f82614ad6565b9050919050565b82818337600083830152505050565b60005b83811015614b63578082015181840152602081019050614b48565b83811115614b72576000848401525b50505050565b600081016000830180614b8a81614da4565b9050614b968184615471565b505050600081016020830180614bab81614dba565b9050614bb781846154a2565b5050505050565b60006002820490506001821680614bd657607f821691505b60208210811415614bea57614be9614d03565b5b50919050565b614bf982614e02565b810181811067ffffffffffffffff82111715614c1857614c17614d61565b5b80604052505050565b6000614c2c82614abf565b91507fffffffffffffffffffffffffffffffffffffffffffffffffffffffffffffffff821415614c5f57614c5e614ca5565b5b600182019050919050565b6000819050919050565b6000614c7f82614abf565b9150614c8a83614abf565b925082614c9a57614c99614cd4565b5b828206905092915050565b7f4e487b7100000000000000000000000000000000000000000000000000000000600052601160045260246000fd5b7f4e487b7100000000000000000000000000000000000000000000000000000000600052601260045260246000fd5b7f4e487b7100000000000000000000000000000000000000000000000000000000600052602260045260246000fd5b7f4e487b7100000000000000000000000000000000000000000000000000000000600052603260045260246000fd5b7f4e487b7100000000000000000000000000000000000000000000000000000000600052604160045260246000fd5b6000819050919050565b6000819050919050565b60008135614db1816154c5565b80915050919050565b60008135614dc781615521565b80915050919050565b600080fd5b600080fd5b600080fd5b600080fd5b600080fd5b600080fd5b600080fd5b600080fd5b600080fd5b600080fd5b6000601f19601f8301169050919050565b60008160001b9050919050565b60008160a01b9050919050565b7f45434453413a20696e76616c6964207369676e61747572650000000000000000600082015250565b7f496e76616c696420496d706c656d656e746174696f6e00000000000000000000600082015250565b7f45434453413a20696e76616c6964207369676e6174757265206c656e67746800600082015250565b7f19457468657265756d205369676e6564204d6573736167653a0a333200000000600082015250565b7f1901000000000000000000000000000000000000000000000000000000000000600082015250565b7f537570706c79204e6f74204c696d697465640000000000000000000000000000600082015250565b7f46756e6374696f6e206d7573742062652063616c6c6564207468726f7567682060008201527f64656c656761746563616c6c0000000000000000000000000000000000000000602082015250565b7f537570706c7920416c7265616479204c696d6974656400000000000000000000600082015250565b7f496e73756666696369656e742046756e64730000000000000000000000000000600082015250565b7f45434453413a20696e76616c6964207369676e6174757265202773272076616c60008201527f7565000000000000000000000000000000000000000000000000000000000000602082015250565b7f46756e6374696f6e206d7573742062652063616c6c6564207468726f7567682060008201527f6163746976652070726f78790000000000000000000000000000000000000000602082015250565b7f555550535570677261646561626c653a206d757374206e6f742062652063616c60008201527f6c6564207468726f7567682064656c656761746563616c6c0000000000000000602082015250565b7f45524331393637557067726164653a20756e737570706f727465642070726f7860008201527f6961626c65555549440000000000000000000000000000000000000000000000602082015250565b7f496e697469616c697a61626c653a20636f6e747261637420697320616c72656160008201527f647920696e697469616c697a6564000000000000000000000000000000000000602082015250565b7f45434453413a20696e76616c6964207369676e6174757265202776272076616c60008201527f7565000000000000000000000000000000000000000000000000000000000000602082015250565b7f45524331393637557067726164653a206e657720696d706c656d656e7461746960008201527f6f6e206973206e6f742055555053000000000000000000000000000000000000602082015250565b7f496e76616c696420526571756573740000000000000000000000000000000000600082015250565b7f455243313936373a206e657720696d706c656d656e746174696f6e206973206e60008201527f6f74206120636f6e747261637400000000000000000000000000000000000000602082015250565b7f496e76616c6964205369676e6174757265000000000000000000000000000000600082015250565b7f537570706c7920416c726561647920556e6c696d697465640000000000000000600082015250565b7f416464726573733a2064656c65676174652063616c6c20746f206e6f6e2d636f60008201527f6e74726163740000000000000000000000000000000000000000000000000000602082015250565b7f537570706c79204c696d69742052656163686564000000000000000000000000600082015250565b7f496e697469616c697a61626c653a20636f6e7472616374206973206e6f74206960008201527f6e697469616c697a696e67000000000000000000000000000000000000000000602082015250565b7f556e2d617574686f72697a656420526571756573740000000000000000000000600082015250565b7f5265656e7472616e637947756172643a207265656e7472616e742063616c6c00600082015250565b7f426f6f6b204c6f636b6564000000000000000000000000000000000000000000600082015250565b60007fffffffffffffffffffffffff000000000000000000000000000000000000000061542584614e20565b9350801983169250808416831791505092915050565b600073ffffffffffffffffffffffffffffffffffffffff61545b84614e13565b9350801983169250808416831791505092915050565b61547a82614aee565b61548d61548682614d90565b835461543b565b8255505050565b61549e8282614b78565b5050565b6154ab82614b24565b6154be6154b782614d9a565b83546153f9565b8255505050565b6154ce81614a77565b81146154d957600080fd5b50565b6154e581614a89565b81146154f057600080fd5b50565b6154fc81614a95565b811461550757600080fd5b50565b61551381614abf565b811461551e57600080fd5b50565b61552a81614ad6565b811461553557600080fd5b5056fe416464726573733a206c6f772d6c6576656c2064656c65676174652063616c6c206661696c6564a2646970667358221220e0c6f88c5dc3bb3465efe15e011586ac63b6954bf0cd3cfb3e240ecdc7ba162d64736f6c63430008070033",
  "linkReferences": {},
  "deployedLinkReferences": {}
}