{
  "_format": "hh-sol-artifact-1",
  "contractName": "Edition",
  "sourceName": "contracts/v3/Edition.sol",
  "abi": [
    {
      "anonymous": false,
      "inputs": [
        {
          "indexed": false,
          "internalType": "uint256",
          "name": "copyUid",
          "type": "uint256"
        },
        {
          "indexed": true,
          "internalType": "address",
          "name": "buyer",
          "type": "address"
        },
        {
          "indexed": false,
          "internalType": "uint256",
          "name": "price",
          "type": "uint256"
        }
      ],
      "name": "BookBought",
      "type": "event"
    },
    {
      "anonymous": false,
      "inputs": [
        {
          "indexed": false,
          "internalType": "uint256",
          "name": "copyUid",
          "type": "uint256"
        },
        {
          "indexed": true,
          "internalType": "address",
          "name": "to",
          "type": "address"
        }
      ],
      "name": "BookLocked",
      "type": "event"
    },
    {
      "anonymous": false,
      "inputs": [
        {
          "indexed": false,
          "internalType": "uint256",
          "name": "distributedCopyUid",
          "type": "uint256"
        },
        {
          "indexed": false,
          "internalType": "uint256",
          "name": "price",
          "type": "uint256"
        },
        {
          "indexed": true,
          "internalType": "address",
          "name": "receiver",
          "type": "address"
        }
      ],
      "name": "BookRedeemed",
      "type": "event"
    },
    {
      "anonymous": false,
      "inputs": [
        {
          "indexed": false,
          "internalType": "uint256",
          "name": "copyUid",
          "type": "uint256"
        },
        {
          "indexed": true,
          "internalType": "address",
          "name": "to",
          "type": "address"
        }
      ],
      "name": "BookTransferred",
      "type": "event"
    },
    {
      "anonymous": false,
      "inputs": [
        {
          "indexed": false,
          "internalType": "uint256",
          "name": "copyUid",
          "type": "uint256"
        }
      ],
      "name": "BookUnlocked",
      "type": "event"
    },
    {
      "anonymous": false,
      "inputs": [
        {
          "indexed": true,
          "internalType": "address",
          "name": "contributorAddress",
          "type": "address"
        },
        {
          "indexed": false,
          "internalType": "uint96",
          "name": "share",
          "type": "uint96"
        },
        {
          "indexed": false,
          "internalType": "string",
          "name": "role",
          "type": "string"
        },
        {
          "indexed": false,
          "internalType": "uint256",
          "name": "distributedCopyUid",
          "type": "uint256"
        }
      ],
      "name": "ContributorAdded",
      "type": "event"
    },
    {
      "anonymous": false,
      "inputs": [
        {
          "indexed": false,
          "internalType": "uint256",
          "name": "newPricedBookSupplyLimit",
          "type": "uint256"
        }
      ],
      "name": "MarketSupplyIncreased",
      "type": "event"
    },
    {
      "anonymous": false,
      "inputs": [
        {
          "indexed": false,
          "internalType": "uint256",
          "name": "newPrice",
          "type": "uint256"
        }
      ],
      "name": "PriceUpdated",
      "type": "event"
    },
    {
      "anonymous": false,
      "inputs": [
        {
          "indexed": false,
          "internalType": "uint256",
          "name": "withdrawableRevenue",
          "type": "uint256"
        }
      ],
      "name": "RevenueWithdrawn",
      "type": "event"
    },
    {
      "anonymous": false,
      "inputs": [
        {
          "indexed": false,
          "internalType": "uint256",
          "name": "newRoyalty",
          "type": "uint256"
        }
      ],
      "name": "RoyaltyUpdated",
      "type": "event"
    },
    {
      "anonymous": false,
      "inputs": [],
      "name": "SupplyLimited",
      "type": "event"
    },
    {
      "anonymous": false,
      "inputs": [],
      "name": "SupplyUnlimited",
      "type": "event"
    },
    {
      "anonymous": false,
      "inputs": [
        {
          "indexed": true,
          "internalType": "address",
          "name": "implementation",
          "type": "address"
        }
      ],
      "name": "Upgraded",
      "type": "event"
    },
    {
      "inputs": [],
      "name": "_bookId",
      "outputs": [
        {
          "internalType": "uint256",
          "name": "",
          "type": "uint256"
        }
      ],
      "stateMutability": "view",
      "type": "function"
    },
    {
      "inputs": [
        {
          "components": [
            {
              "internalType": "uint256",
              "name": "bookID",
              "type": "uint256"
            },
            {
              "internalType": "address",
              "name": "receiver",
              "type": "address"
            },
            {
              "internalType": "uint256",
              "name": "price",
              "type": "uint256"
            },
            {
              "internalType": "bytes",
              "name": "signature",
              "type": "bytes"
            }
          ],
          "internalType": "struct Edition.BookVoucher",
          "name": "voucher",
          "type": "tuple"
        }
      ],
      "name": "_verify",
      "outputs": [
        {
          "internalType": "address",
          "name": "",
          "type": "address"
        }
      ],
      "stateMutability": "view",
      "type": "function"
    },
    {
      "inputs": [
        {
          "components": [
            {
              "internalType": "address",
              "name": "contributorAddress",
              "type": "address"
            },
            {
              "internalType": "uint96",
              "name": "share",
              "type": "uint96"
            },
            {
              "internalType": "string",
              "name": "role",
              "type": "string"
            }
          ],
          "internalType": "struct Edition.ContributorCalldata[]",
          "name": "contributors",
          "type": "tuple[]"
        }
      ],
      "name": "addContributors",
      "outputs": [],
      "stateMutability": "nonpayable",
      "type": "function"
    },
    {
      "inputs": [],
      "name": "buy",
      "outputs": [],
      "stateMutability": "payable",
      "type": "function"
    },
    {
      "inputs": [],
      "name": "delimitSupply",
      "outputs": [],
      "stateMutability": "nonpayable",
      "type": "function"
    },
    {
      "inputs": [],
      "name": "getChainID",
      "outputs": [
        {
          "internalType": "uint256",
          "name": "id",
          "type": "uint256"
        }
      ],
      "stateMutability": "view",
      "type": "function"
    },
    {
      "inputs": [
        {
          "internalType": "uint256",
          "name": "copyUid",
          "type": "uint256"
        }
      ],
      "name": "getPreviousOwner",
      "outputs": [
        {
          "internalType": "address",
          "name": "",
          "type": "address"
        }
      ],
      "stateMutability": "view",
      "type": "function"
    },
    {
      "inputs": [],
      "name": "getWithdrawableRevenue",
      "outputs": [
        {
          "internalType": "uint256",
          "name": "",
          "type": "uint256"
        }
      ],
      "stateMutability": "view",
      "type": "function"
    },
    {
      "inputs": [
        {
          "components": [
            {
              "internalType": "uint256",
              "name": "bookID",
              "type": "uint256"
            },
            {
              "internalType": "address",
              "name": "receiver",
              "type": "address"
            },
            {
              "internalType": "uint256",
              "name": "price",
              "type": "uint256"
            },
            {
              "internalType": "bytes",
              "name": "signature",
              "type": "bytes"
            }
          ],
          "internalType": "struct Edition.BookVoucher",
          "name": "voucher",
          "type": "tuple"
        }
      ],
      "name": "hash",
      "outputs": [
        {
          "internalType": "bytes32",
          "name": "",
          "type": "bytes32"
        }
      ],
      "stateMutability": "view",
      "type": "function"
    },
    {
      "inputs": [
        {
          "internalType": "uint256",
          "name": "incrementSupplyBy",
          "type": "uint256"
        }
      ],
      "name": "increaseMarketSupply",
      "outputs": [],
      "stateMutability": "nonpayable",
      "type": "function"
    },
    {
      "inputs": [
        {
          "internalType": "uint256",
          "name": "bookId",
          "type": "uint256"
        },
        {
          "internalType": "string",
          "name": "editionUri",
          "type": "string"
        },
        {
          "internalType": "uint256",
          "name": "price",
          "type": "uint256"
        },
        {
          "internalType": "uint256",
          "name": "royalty",
          "type": "uint256"
        },
        {
          "internalType": "uint256",
          "name": "pricedBookSupplyLimit",
          "type": "uint256"
        },
        {
          "internalType": "bool",
          "name": "supplyLimited",
          "type": "bool"
        },
        {
          "internalType": "address",
          "name": "publisher",
          "type": "address"
        }
      ],
      "name": "initialize",
      "outputs": [],
      "stateMutability": "nonpayable",
      "type": "function"
    },
    {
      "inputs": [],
      "name": "limitSupply",
      "outputs": [],
      "stateMutability": "nonpayable",
      "type": "function"
    },
    {
      "inputs": [
        {
          "internalType": "address",
          "name": "to",
          "type": "address"
        },
        {
          "internalType": "uint256",
          "name": "copyUid",
          "type": "uint256"
        }
      ],
      "name": "lockWith",
      "outputs": [],
      "stateMutability": "nonpayable",
      "type": "function"
    },
    {
      "inputs": [],
      "name": "proxiableUUID",
      "outputs": [
        {
          "internalType": "bytes32",
          "name": "",
          "type": "bytes32"
        }
      ],
      "stateMutability": "view",
      "type": "function"
    },
    {
      "inputs": [
        {
          "components": [
            {
              "internalType": "uint256",
              "name": "bookID",
              "type": "uint256"
            },
            {
              "internalType": "address",
              "name": "receiver",
              "type": "address"
            },
            {
              "internalType": "uint256",
              "name": "price",
              "type": "uint256"
            },
            {
              "internalType": "bytes",
              "name": "signature",
              "type": "bytes"
            }
          ],
          "internalType": "struct Edition.BookVoucher",
          "name": "voucher",
          "type": "tuple"
        }
      ],
      "name": "redeem",
      "outputs": [],
      "stateMutability": "payable",
      "type": "function"
    },
    {
      "inputs": [
        {
          "internalType": "address",
          "name": "to",
          "type": "address"
        },
        {
          "internalType": "uint256",
          "name": "copyUid",
          "type": "uint256"
        }
      ],
      "name": "transfer",
      "outputs": [],
      "stateMutability": "payable",
      "type": "function"
    },
    {
      "inputs": [
        {
          "internalType": "uint256",
          "name": "copyUid",
          "type": "uint256"
        }
      ],
      "name": "unlock",
      "outputs": [],
      "stateMutability": "nonpayable",
      "type": "function"
    },
    {
      "inputs": [
        {
          "internalType": "uint256",
          "name": "newPrice",
          "type": "uint256"
        }
      ],
      "name": "updatePrice",
      "outputs": [],
      "stateMutability": "nonpayable",
      "type": "function"
    },
    {
      "inputs": [
        {
          "internalType": "uint256",
          "name": "newRoyalty",
          "type": "uint256"
        }
      ],
      "name": "updateRoyalty",
      "outputs": [],
      "stateMutability": "nonpayable",
      "type": "function"
    },
    {
      "inputs": [
        {
          "internalType": "address",
          "name": "newImplementation",
          "type": "address"
        }
      ],
      "name": "upgradeTo",
      "outputs": [],
      "stateMutability": "nonpayable",
      "type": "function"
    },
    {
      "inputs": [
        {
          "internalType": "address",
          "name": "newImplementation",
          "type": "address"
        },
        {
          "internalType": "bytes",
          "name": "data",
          "type": "bytes"
        }
      ],
      "name": "upgradeToAndCall",
      "outputs": [],
      "stateMutability": "payable",
      "type": "function"
    },
    {
      "inputs": [
        {
          "internalType": "uint256",
          "name": "copyUid",
          "type": "uint256"
        }
      ],
      "name": "uri",
      "outputs": [
        {
          "internalType": "string",
          "name": "",
          "type": "string"
        }
      ],
      "stateMutability": "view",
      "type": "function"
    },
    {
      "inputs": [
        {
          "internalType": "address",
          "name": "to",
          "type": "address"
        },
        {
          "internalType": "uint256",
          "name": "copyUid",
          "type": "uint256"
        }
      ],
      "name": "verifyLockedWith",
      "outputs": [
        {
          "internalType": "bool",
          "name": "",
          "type": "bool"
        }
      ],
      "stateMutability": "view",
      "type": "function"
    },
    {
      "inputs": [
        {
          "internalType": "address",
          "name": "owner",
          "type": "address"
        },
        {
          "internalType": "uint256",
          "name": "copyUid",
          "type": "uint256"
        },
        {
          "internalType": "bool",
          "name": "distributed",
          "type": "bool"
        }
      ],
      "name": "verifyOwnership",
      "outputs": [
        {
          "internalType": "bool",
          "name": "",
          "type": "bool"
        }
      ],
      "stateMutability": "view",
      "type": "function"
    },
    {
      "inputs": [],
      "name": "withdrawRevenue",
      "outputs": [],
      "stateMutability": "payable",
      "type": "function"
    }
  ],
  "bytecode": "0x60a06040523073ffffffffffffffffffffffffffffffffffffffff1660809073ffffffffffffffffffffffffffffffffffffffff1660601b81525034801561004657600080fd5b5060805160601c61509661008160003960008181610abb01528181610b4a015281816112bf0152818161134e01526117b001526150966000f3fe6080604052600436106101655760003560e01c80635291fcd5116100d1578063a6f2ae3a1161008a578063da2deb4311610064578063da2deb4314610482578063ea8feae1146104bf578063f8fbea34146104e8578063fa1231721461052557610165565b8063a6f2ae3a14610433578063a9059cbb1461043d578063c541ce0a1461045957610165565b80635291fcd51461033957806352d1902d14610362578063564b81ef1461038d5780636198e339146103b85780638d6cc56d146103e15780638fffd8b51461040a57610165565b806333b582c41161012357806333b582c41461027a5780633659cfe6146102a55780634630dd44146102ce57806346c455e9146102ea5780634f1ef286146103135780634f573cb21461032f57610165565b806256856a1461016a5780630711a921146101a75780630c0907bd146101e45780630e89341c1461020f57806321caea251461024c5780632ddcb21f14610263575b600080fd5b34801561017657600080fd5b50610191600480360381019061018c9190613919565b610562565b60405161019e9190613f42565b60405180910390f35b3480156101b357600080fd5b506101ce60048036038101906101c991906138d0565b6105a2565b6040516101db9190613f78565b60405180910390f35b3480156101f057600080fd5b506101f961061a565b60405161020691906143b2565b60405180910390f35b34801561021b57600080fd5b5061023660048036038101906102319190613919565b610620565b6040516102439190614070565b60405180910390f35b34801561025857600080fd5b5061026161089b565b005b34801561026f57600080fd5b50610278610992565b005b34801561028657600080fd5b5061028f610aa6565b60405161029c91906143b2565b60405180910390f35b3480156102b157600080fd5b506102cc60048036038101906102c7919061373a565b610ab9565b005b6102e860048036038101906102e391906138d0565b610c42565b005b3480156102f657600080fd5b50610311600480360381019061030c9190613856565b610f50565b005b61032d60048036038101906103289190613767565b6112bd565b005b6103376113fa565b005b34801561034557600080fd5b50610360600480360381019061035b91906137c3565b61169c565b005b34801561036e57600080fd5b506103776117ac565b6040516103849190613f78565b60405180910390f35b34801561039957600080fd5b506103a2611865565b6040516103af91906143b2565b60405180910390f35b3480156103c457600080fd5b506103df60048036038101906103da9190613919565b61186d565b005b3480156103ed57600080fd5b5061040860048036038101906104039190613919565b6119f7565b005b34801561041657600080fd5b50610431600480360381019061042c9190613919565b611a97565b005b61043b611b37565b005b610457600480360381019061045291906137c3565b611e8f565b005b34801561046557600080fd5b50610480600480360381019061047b9190613973565b61209f565b005b34801561048e57600080fd5b506104a960048036038101906104a491906138d0565b6122b8565b6040516104b69190613f42565b60405180910390f35b3480156104cb57600080fd5b506104e660048036038101906104e19190613919565b61232a565b005b3480156104f457600080fd5b5061050f600480360381019061050a9190613803565b61242d565b60405161051c9190613f5d565b60405180910390f35b34801561053157600080fd5b5061054c600480360381019061054791906137c3565b61250d565b6040516105599190613f5d565b60405180910390f35b600060d6600083815260200190815260200160002060010160009054906101000a900473ffffffffffffffffffffffffffffffffffffffff169050919050565b60006106137f51bdd55c32041e3f184b7e3dfa64ba01372fdcf8c7e2430db557bb018588f68e83600001358460200160208101906105e0919061373a565b85604001356040516020016105f89493929190613fe6565b6040516020818303038152906040528051906020012061257c565b9050919050565b60cd5481565b6060600073ffffffffffffffffffffffffffffffffffffffff1660d6600084815260200190815260200160002060020160009054906101000a900473ffffffffffffffffffffffffffffffffffffffff1673ffffffffffffffffffffffffffffffffffffffff161480156106f557503373ffffffffffffffffffffffffffffffffffffffff1660d6600084815260200190815260200160002060000160009054906101000a900473ffffffffffffffffffffffffffffffffffffffff1673ffffffffffffffffffffffffffffffffffffffff16145b8061076157503373ffffffffffffffffffffffffffffffffffffffff1660d6600084815260200190815260200160002060020160009054906101000a900473ffffffffffffffffffffffffffffffffffffffff1673ffffffffffffffffffffffffffffffffffffffff16145b806107ca57503373ffffffffffffffffffffffffffffffffffffffff1660d7600084815260200190815260200160002060009054906101000a900473ffffffffffffffffffffffffffffffffffffffff1673ffffffffffffffffffffffffffffffffffffffff16145b610809576040517f08c379a000000000000000000000000000000000000000000000000000000000815260040161080090614352565b60405180910390fd5b60ce8054610816906147b6565b80601f0160208091040260200160405190810160405280929190818152602001828054610842906147b6565b801561088f5780601f106108645761010080835404028352916020019161088f565b820191906000526020600020905b81548152906001019060200180831161087257829003601f168201915b50505050509050919050565b600260995414156108e1576040517f08c379a00000000000000000000000000000000000000000000000000000000081526004016108d890614372565b60405180910390fd5b60026099819055506108f233612596565b60d460009054906101000a900460ff16610941576040517f08c379a0000000000000000000000000000000000000000000000000000000008152600401610938906142d2565b60405180910390fd5b600060d460006101000a81548160ff0219169083151502179055507f4fa2ac1dbc3675e431edc4b7ed4ffca41ca041dc9c1f2e0628ba2abb9169af2f60405160405180910390a16001609981905550565b600260995414156109d8576040517f08c379a00000000000000000000000000000000000000000000000000000000081526004016109cf90614372565b60405180910390fd5b60026099819055506109e933612596565b60d460009054906101000a900460ff1615610a39576040517f08c379a0000000000000000000000000000000000000000000000000000000008152600401610a3090614152565b60405180910390fd5b600160d460006101000a81548160ff0219169083151502179055506001610a6060cb612629565b610a6a91906146c9565b60d3819055507f9315093715d20e383de0fda01168dc80aeea065ffbf08dd364d8e8bc59735f6d60405160405180910390a16001609981905550565b6000610ab133612596565b60d254905090565b7f000000000000000000000000000000000000000000000000000000000000000073ffffffffffffffffffffffffffffffffffffffff163073ffffffffffffffffffffffffffffffffffffffff161415610b48576040517f08c379a0000000000000000000000000000000000000000000000000000000008152600401610b3f90614112565b60405180910390fd5b7f000000000000000000000000000000000000000000000000000000000000000073ffffffffffffffffffffffffffffffffffffffff16610b87612637565b73ffffffffffffffffffffffffffffffffffffffff1614610bdd576040517f08c379a0000000000000000000000000000000000000000000000000000000008152600401610bd4906141b2565b60405180910390fd5b610be68161268e565b610c3f81600067ffffffffffffffff811115610c0557610c04614988565b5b6040519080825280601f01601f191660200182016040528015610c375781602001600182028036833780820191505090505b50600061275b565b50565b60026099541415610c88576040517f08c379a0000000000000000000000000000000000000000000000000000000008152600401610c7f90614372565b60405180910390fd5b60026099819055508060400135341015610cd7576040517f08c379a0000000000000000000000000000000000000000000000000000000008152600401610cce90614172565b60405180910390fd5b6000610ce2826122b8565b90508073ffffffffffffffffffffffffffffffffffffffff1660d460019054906101000a900473ffffffffffffffffffffffffffffffffffffffff1673ffffffffffffffffffffffffffffffffffffffff1614610d74576040517f08c379a0000000000000000000000000000000000000000000000000000000008152600401610d6b906142b2565b60405180910390fd5b3373ffffffffffffffffffffffffffffffffffffffff16826020016020810190610d9e919061373a565b73ffffffffffffffffffffffffffffffffffffffff1614610df4576040517f08c379a0000000000000000000000000000000000000000000000000000000008152600401610deb90614272565b60405180910390fd5b816020016020810190610e07919061373a565b60d76000610e1560cc612629565b815260200190815260200160002060006101000a81548173ffffffffffffffffffffffffffffffffffffffff021916908373ffffffffffffffffffffffffffffffffffffffff160217905550610e6e82604001356128d8565b3373ffffffffffffffffffffffffffffffffffffffff166108fc610e9f84604001353461291190919063ffffffff16565b9081150290604051600060405180830381858888f19350505050158015610eca573d6000803e3d6000fd5b50816020016020810190610ede919061373a565b73ffffffffffffffffffffffffffffffffffffffff167f3f4eb6c3c81657d4e0f5c31e40ceb4ad413ab88ce6bdac4abc25bf9de59a994a610f1f60cc612629565b8460400135604051610f329291906143cd565b60405180910390a2610f4460cc612927565b50600160998190555050565b60026099541415610f96576040517f08c379a0000000000000000000000000000000000000000000000000000000008152600401610f8d90614372565b60405180910390fd5b6002609981905550610fa733612596565b60005b828290508110156112b05760006040518060400160405280858585818110610fd557610fd4614959565b5b9050602002810190610fe791906144fc565b6000016020810190610ff9919061373a565b73ffffffffffffffffffffffffffffffffffffffff16815260200185858581811061102757611026614959565b5b905060200281019061103991906144fc565b602001602081019061104b9190613a31565b6bffffffffffffffffffffffff16815250905060d5819080600181540180825580915050600190039060005260206000200160009091909190915060008201518160000160006101000a81548173ffffffffffffffffffffffffffffffffffffffff021916908373ffffffffffffffffffffffffffffffffffffffff16021790555060208201518160000160146101000a8154816bffffffffffffffffffffffff02191690836bffffffffffffffffffffffff160217905550505083838381811061111957611118614959565b5b905060200281019061112b91906144fc565b600001602081019061113d919061373a565b60d7600061114b60cc612629565b815260200190815260200160002060006101000a81548173ffffffffffffffffffffffffffffffffffffffff021916908373ffffffffffffffffffffffffffffffffffffffff1602179055508383838181106111aa576111a9614959565b5b90506020028101906111bc91906144fc565b60000160208101906111ce919061373a565b73ffffffffffffffffffffffffffffffffffffffff167fc9ea8cab181724f3d7441e556cd93a976c6fb7c2e190a5ff208badd0778d112885858581811061121857611217614959565b5b905060200281019061122a91906144fc565b602001602081019061123c9190613a31565b86868681811061124f5761124e614959565b5b905060200281019061126191906144fc565b80604001906112709190614499565b61127a60cc612629565b60405161128a94939291906143f6565b60405180910390a261129c60cc612927565b5080806112a890614819565b915050610faa565b5060016099819055505050565b7f000000000000000000000000000000000000000000000000000000000000000073ffffffffffffffffffffffffffffffffffffffff163073ffffffffffffffffffffffffffffffffffffffff16141561134c576040517f08c379a000000000000000000000000000000000000000000000000000000000815260040161134390614112565b60405180910390fd5b7f000000000000000000000000000000000000000000000000000000000000000073ffffffffffffffffffffffffffffffffffffffff1661138b612637565b73ffffffffffffffffffffffffffffffffffffffff16146113e1576040517f08c379a00000000000000000000000000000000000000000000000000000000081526004016113d8906141b2565b60405180910390fd5b6113ea8261268e565b6113f68282600161275b565b5050565b60026099541415611440576040517f08c379a000000000000000000000000000000000000000000000000000000000815260040161143790614372565b60405180910390fd5b600260998190555061145133612596565b600060d58054905011611499576040517f08c379a000000000000000000000000000000000000000000000000000000000815260040161149090614132565b60405180910390fd5b600080600090505b60d58054905081101561151d5761150860d582815481106114c5576114c4614959565b5b9060005260206000200160000160149054906101000a90046bffffffffffffffffffffffff166bffffffffffffffffffffffff168361293d90919063ffffffff16565b9150808061151590614819565b9150506114a1565b5060006115358260d25461295390919063ffffffff16565b905061154c8260d25461296990919063ffffffff16565b60d28190555060005b60d5805490508110156116565760d5818154811061157657611575614959565b5b9060005260206000200160000160009054906101000a900473ffffffffffffffffffffffffffffffffffffffff1673ffffffffffffffffffffffffffffffffffffffff166108fc61161760d584815481106115d4576115d3614959565b5b9060005260206000200160000160149054906101000a90046bffffffffffffffffffffffff166bffffffffffffffffffffffff168561297f90919063ffffffff16565b9081150290604051600060405180830381858888f19350505050158015611642573d6000803e3d6000fd5b50808061164e90614819565b915050611555565b507f7254ffd29ae20f1712bea29277015e5953493e93a264d860cdba0840857ec86160d25460405161168891906143b2565b60405180910390a150506001609981905550565b600260995414156116e2576040517f08c379a00000000000000000000000000000000000000000000000000000000081526004016116d990614372565b60405180910390fd5b60026099819055506116f43382612995565b6116fd81612a3d565b8160d6600083815260200190815260200160002060020160006101000a81548173ffffffffffffffffffffffffffffffffffffffff021916908373ffffffffffffffffffffffffffffffffffffffff1602179055508173ffffffffffffffffffffffffffffffffffffffff167f06f76e0da7be64239656a001b94c1c4e1893465df2f1ef90edb1e088b0852e698260405161179891906143b2565b60405180910390a260016099819055505050565b60007f000000000000000000000000000000000000000000000000000000000000000073ffffffffffffffffffffffffffffffffffffffff163073ffffffffffffffffffffffffffffffffffffffff161461183c576040517f08c379a0000000000000000000000000000000000000000000000000000000008152600401611833906141d2565b60405180910390fd5b7f360894a13ba1a3210667c828492db98dca3e2076cc3735a920a3ca505d382bbc60001b905090565b600046905090565b600260995414156118b3576040517f08c379a00000000000000000000000000000000000000000000000000000000081526004016118aa90614372565b60405180910390fd5b60026099819055503373ffffffffffffffffffffffffffffffffffffffff1660d6600083815260200190815260200160002060020160009054906101000a900473ffffffffffffffffffffffffffffffffffffffff1673ffffffffffffffffffffffffffffffffffffffff161461195f576040517f08c379a000000000000000000000000000000000000000000000000000000000815260040161195690614352565b60405180910390fd5b600060d6600083815260200190815260200160002060020160006101000a81548173ffffffffffffffffffffffffffffffffffffffff021916908373ffffffffffffffffffffffffffffffffffffffff1602179055507f3a7c2a55ffa9ac00869f1a3eb5e3209a949c0690416cad3ca8536b026908a065816040516119e491906143b2565b60405180910390a1600160998190555050565b60026099541415611a3d576040517f08c379a0000000000000000000000000000000000000000000000000000000008152600401611a3490614372565b60405180910390fd5b6002609981905550611a4e33612596565b8060cf819055507f66cbca4f3c64fecf1dcb9ce094abcf7f68c3450a1d4e3a8e917dd621edb4ebe081604051611a8491906143b2565b60405180910390a1600160998190555050565b60026099541415611add576040517f08c379a0000000000000000000000000000000000000000000000000000000008152600401611ad490614372565b60405180910390fd5b6002609981905550611aee33612596565b8060d0819055507f244ea8d7627f5a08f4299862bd5a45752842c183aee5b0fb0d1e4887bfa605b381604051611b2491906143b2565b60405180910390a1600160998190555050565b60026099541415611b7d576040517f08c379a0000000000000000000000000000000000000000000000000000000008152600401611b7490614372565b60405180910390fd5b600260998190555060cf54341015611bca576040517f08c379a0000000000000000000000000000000000000000000000000000000008152600401611bc190614172565b60405180910390fd5b60d460009054906101000a900460ff1615611c4057611bfc6001611bee60cb612629565b61291190919063ffffffff16565b60d35411611c3f576040517f08c379a0000000000000000000000000000000000000000000000000000000008152600401611c3690614312565b60405180910390fd5b5b600060405180606001604052803373ffffffffffffffffffffffffffffffffffffffff16815260200160d460019054906101000a900473ffffffffffffffffffffffffffffffffffffffff1673ffffffffffffffffffffffffffffffffffffffff168152602001600073ffffffffffffffffffffffffffffffffffffffff1681525090508060d66000611cd360cb612629565b815260200190815260200160002060008201518160000160006101000a81548173ffffffffffffffffffffffffffffffffffffffff021916908373ffffffffffffffffffffffffffffffffffffffff16021790555060208201518160010160006101000a81548173ffffffffffffffffffffffffffffffffffffffff021916908373ffffffffffffffffffffffffffffffffffffffff16021790555060408201518160020160006101000a81548173ffffffffffffffffffffffffffffffffffffffff021916908373ffffffffffffffffffffffffffffffffffffffff160217905550905050611dc460cf546128d8565b3373ffffffffffffffffffffffffffffffffffffffff166108fc611df360cf543461291190919063ffffffff16565b9081150290604051600060405180830381858888f19350505050158015611e1e573d6000803e3d6000fd5b503373ffffffffffffffffffffffffffffffffffffffff167f0a61a5bc4d97f46f5320375498e59af4d35ef1f6f31c51b9fc03c0134dd46817611e6160cb612629565b60cf54604051611e729291906143cd565b60405180910390a2611e8460cb612927565b506001609981905550565b60026099541415611ed5576040517f08c379a0000000000000000000000000000000000000000000000000000000008152600401611ecc90614372565b60405180910390fd5b6002609981905550611ee73382612995565b611ef081612a3d565b60d054341015611f35576040517f08c379a0000000000000000000000000000000000000000000000000000000008152600401611f2c90614172565b60405180910390fd5b3360d6600083815260200190815260200160002060010160006101000a81548173ffffffffffffffffffffffffffffffffffffffff021916908373ffffffffffffffffffffffffffffffffffffffff1602179055508160d6600083815260200190815260200160002060000160006101000a81548173ffffffffffffffffffffffffffffffffffffffff021916908373ffffffffffffffffffffffffffffffffffffffff160217905550611fea60d0546128d8565b3373ffffffffffffffffffffffffffffffffffffffff166108fc61201960d0543461291190919063ffffffff16565b9081150290604051600060405180830381858888f19350505050158015612044573d6000803e3d6000fd5b508173ffffffffffffffffffffffffffffffffffffffff167f0ff0cdfdec8286eb9990d56a9dd0bbacd1f2631624f021b9ef8051cae989c8608260405161208b91906143b2565b60405180910390a260016099819055505050565b600060019054906101000a900460ff166120c75760008054906101000a900460ff16156120d0565b6120cf612ae5565b5b61210f576040517f08c379a000000000000000000000000000000000000000000000000000000000815260040161210690614212565b60405180910390fd5b60008060019054906101000a900460ff16159050801561215f576001600060016101000a81548160ff02191690831515021790555060016000806101000a81548160ff0219169083151502179055505b6121d36040518060400160405280600c81526020017f424f4f4b2d564f554348455200000000000000000000000000000000000000008152506040518060400160405280600181526020017f3100000000000000000000000000000000000000000000000000000000000000815250612af6565b6121db612b53565b6121e3612bac565b8760cd819055508660ce90805190602001906122009291906134c4565b508560cf819055508460d0819055508160d460016101000a81548173ffffffffffffffffffffffffffffffffffffffff021916908373ffffffffffffffffffffffffffffffffffffffff160217905550821561227957600160d460006101000a81548160ff0219169083151502179055508360d3819055505b61228360cb612927565b61228d60cc612927565b80156122ae5760008060016101000a81548160ff0219169083151502179055505b5050505050505050565b6000806122c4836105a2565b9050612322818480606001906122da9190614436565b8080601f016020809104026020016040519081016040528093929190818152602001838380828437600081840152601f19601f82011690508083019250505050505050612c0d565b915050919050565b60026099541415612370576040517f08c379a000000000000000000000000000000000000000000000000000000000815260040161236790614372565b60405180910390fd5b600260998190555061238133612596565b60d460009054906101000a900460ff166123d0576040517f08c379a00000000000000000000000000000000000000000000000000000000081526004016123c7906140f2565b60405180910390fd5b8060d360008282546123e291906145e8565b925050819055507f2997f475d409a7cba16d31bb0e76cd7bf156ffe8a8a1205a9a75c199d0c82dd460d35460405161241a91906143b2565b60405180910390a1600160998190555050565b6000811561249e578373ffffffffffffffffffffffffffffffffffffffff1660d7600085815260200190815260200160002060009054906101000a900473ffffffffffffffffffffffffffffffffffffffff1673ffffffffffffffffffffffffffffffffffffffff16149050612506565b8373ffffffffffffffffffffffffffffffffffffffff1660d6600085815260200190815260200160002060000160009054906101000a900473ffffffffffffffffffffffffffffffffffffffff1673ffffffffffffffffffffffffffffffffffffffff161490505b9392505050565b60008273ffffffffffffffffffffffffffffffffffffffff1660d6600084815260200190815260200160002060020160009054906101000a900473ffffffffffffffffffffffffffffffffffffffff1673ffffffffffffffffffffffffffffffffffffffff1614905092915050565b600061258f612589612c34565b83612c74565b9050919050565b60d460019054906101000a900473ffffffffffffffffffffffffffffffffffffffff1673ffffffffffffffffffffffffffffffffffffffff168173ffffffffffffffffffffffffffffffffffffffff1614612626576040517f08c379a000000000000000000000000000000000000000000000000000000000815260040161261d90614352565b60405180910390fd5b50565b600081600001549050919050565b60006126657f360894a13ba1a3210667c828492db98dca3e2076cc3735a920a3ca505d382bbc60001b612ca7565b60000160009054906101000a900473ffffffffffffffffffffffffffffffffffffffff16905090565b61269733612596565b60cd548173ffffffffffffffffffffffffffffffffffffffff16630c0907bd6040518163ffffffff1660e01b815260040160206040518083038186803b1580156126e057600080fd5b505afa1580156126f4573d6000803e3d6000fd5b505050506040513d601f19601f820116820180604052508101906127189190613946565b14612758576040517f08c379a000000000000000000000000000000000000000000000000000000000815260040161274f906140b2565b60405180910390fd5b50565b6127877f4910fdfa16fed3260ed0e7147f7cc6da11a60208b5b9406d12a635614ffd914360001b612cb1565b60000160009054906101000a900460ff16156127ab576127a683612cbb565b6128d3565b8273ffffffffffffffffffffffffffffffffffffffff166352d1902d6040518163ffffffff1660e01b815260040160206040518083038186803b1580156127f157600080fd5b505afa92505050801561282257506040513d601f19601f8201168201806040525081019061281f91906138a3565b60015b612861576040517f08c379a000000000000000000000000000000000000000000000000000000000815260040161285890614252565b60405180910390fd5b7f360894a13ba1a3210667c828492db98dca3e2076cc3735a920a3ca505d382bbc60001b81146128c6576040517f08c379a00000000000000000000000000000000000000000000000000000000081526004016128bd906141f2565b60405180910390fd5b506128d2838383612d74565b5b505050565b6128ed8160d15461293d90919063ffffffff16565b60d1819055506129088160d25461293d90919063ffffffff16565b60d28190555050565b6000818361291f91906146c9565b905092915050565b6001816000016000828254019250508190555050565b6000818361294b91906145e8565b905092915050565b60008183612961919061463e565b905092915050565b60008183612977919061486c565b905092915050565b6000818361298d919061466f565b905092915050565b8173ffffffffffffffffffffffffffffffffffffffff1660d6600083815260200190815260200160002060000160009054906101000a900473ffffffffffffffffffffffffffffffffffffffff1673ffffffffffffffffffffffffffffffffffffffff1614612a39576040517f08c379a0000000000000000000000000000000000000000000000000000000008152600401612a3090614352565b60405180910390fd5b5050565b600073ffffffffffffffffffffffffffffffffffffffff1660d6600083815260200190815260200160002060020160009054906101000a900473ffffffffffffffffffffffffffffffffffffffff1673ffffffffffffffffffffffffffffffffffffffff1614612ae2576040517f08c379a0000000000000000000000000000000000000000000000000000000008152600401612ad990614392565b60405180910390fd5b50565b6000612af030612da0565b15905090565b600060019054906101000a900460ff16612b45576040517f08c379a0000000000000000000000000000000000000000000000000000000008152600401612b3c90614332565b60405180910390fd5b612b4f8282612db3565b5050565b600060019054906101000a900460ff16612ba2576040517f08c379a0000000000000000000000000000000000000000000000000000000008152600401612b9990614332565b60405180910390fd5b612baa612e2e565b565b600060019054906101000a900460ff16612bfb576040517f08c379a0000000000000000000000000000000000000000000000000000000008152600401612bf290614332565b60405180910390fd5b612c03612e87565b612c0b612ed8565b565b6000806000612c1c8585612f29565b91509150612c2981612fac565b819250505092915050565b6000612c6f7f8b73c3c69bb8fe3d512ecc4cf759cc79239f7b179b0ffacaa9a75d522b39400f612c62613181565b612c6a61318b565b613195565b905090565b60008282604051602001612c89929190613f0b565b60405160208183030381529060405280519060200120905092915050565b6000819050919050565b6000819050919050565b612cc481612da0565b612d03576040517f08c379a0000000000000000000000000000000000000000000000000000000008152600401612cfa90614292565b60405180910390fd5b80612d307f360894a13ba1a3210667c828492db98dca3e2076cc3735a920a3ca505d382bbc60001b612ca7565b60000160006101000a81548173ffffffffffffffffffffffffffffffffffffffff021916908373ffffffffffffffffffffffffffffffffffffffff16021790555050565b612d7d836131cf565b600082511180612d8a5750805b15612d9b57612d99838361321e565b505b505050565b600080823b905060008111915050919050565b600060019054906101000a900460ff16612e02576040517f08c379a0000000000000000000000000000000000000000000000000000000008152600401612df990614332565b60405180910390fd5b600082805190602001209050600082805190602001209050816065819055508060668190555050505050565b600060019054906101000a900460ff16612e7d576040517f08c379a0000000000000000000000000000000000000000000000000000000008152600401612e7490614332565b60405180910390fd5b6001609981905550565b600060019054906101000a900460ff16612ed6576040517f08c379a0000000000000000000000000000000000000000000000000000000008152600401612ecd90614332565b60405180910390fd5b565b600060019054906101000a900460ff16612f27576040517f08c379a0000000000000000000000000000000000000000000000000000000008152600401612f1e90614332565b60405180910390fd5b565b600080604183511415612f6b5760008060006020860151925060408601519150606086015160001a9050612f5f87828585613302565b94509450505050612fa5565b604083511415612f9c576000806020850151915060408501519050612f9186838361340f565b935093505050612fa5565b60006002915091505b9250929050565b60006004811115612fc057612fbf6148fb565b5b816004811115612fd357612fd26148fb565b5b1415612fde5761317e565b60016004811115612ff257612ff16148fb565b5b816004811115613005576130046148fb565b5b1415613046576040517f08c379a000000000000000000000000000000000000000000000000000000000815260040161303d90614092565b60405180910390fd5b6002600481111561305a576130596148fb565b5b81600481111561306d5761306c6148fb565b5b14156130ae576040517f08c379a00000000000000000000000000000000000000000000000000000000081526004016130a5906140d2565b60405180910390fd5b600360048111156130c2576130c16148fb565b5b8160048111156130d5576130d46148fb565b5b1415613116576040517f08c379a000000000000000000000000000000000000000000000000000000000815260040161310d90614192565b60405180910390fd5b600480811115613129576131286148fb565b5b81600481111561313c5761313b6148fb565b5b141561317d576040517f08c379a000000000000000000000000000000000000000000000000000000000815260040161317490614232565b60405180910390fd5b5b50565b6000606554905090565b6000606654905090565b600083838346306040516020016131b0959493929190613f93565b6040516020818303038152906040528051906020012090509392505050565b6131d881612cbb565b8073ffffffffffffffffffffffffffffffffffffffff167fbc7cd75a20ee27fd9adebab32041f755214dbc6bffa90cc0225b39da2e5c2d3b60405160405180910390a250565b606061322983612da0565b613268576040517f08c379a000000000000000000000000000000000000000000000000000000000815260040161325f906142f2565b60405180910390fd5b6000808473ffffffffffffffffffffffffffffffffffffffff16846040516132909190613ef4565b600060405180830381855af49150503d80600081146132cb576040519150601f19603f3d011682016040523d82523d6000602084013e6132d0565b606091505b50915091506132f8828260405180606001604052806027815260200161503a6027913961345d565b9250505092915050565b6000807f7fffffffffffffffffffffffffffffff5d576e7357a4501ddfe92f46681b20a08360001c111561333d576000600391509150613406565b601b8560ff16141580156133555750601c8560ff1614155b15613367576000600491509150613406565b60006001878787876040516000815260200160405260405161338c949392919061402b565b6020604051602081039080840390855afa1580156133ae573d6000803e3d6000fd5b505050602060405103519050600073ffffffffffffffffffffffffffffffffffffffff168173ffffffffffffffffffffffffffffffffffffffff1614156133fd57600060019250925050613406565b80600092509250505b94509492505050565b6000806000807f7fffffffffffffffffffffffffffffffffffffffffffffffffffffffffffffff85169150601b8560ff1c01905061344f87828885613302565b935093505050935093915050565b6060831561346d578290506134bd565b6000835111156134805782518084602001fd5b816040517f08c379a00000000000000000000000000000000000000000000000000000000081526004016134b49190614070565b60405180910390fd5b9392505050565b8280546134d0906147b6565b90600052602060002090601f0160209004810192826134f25760008555613539565b82601f1061350b57805160ff1916838001178555613539565b82800160010185558215613539579182015b8281111561353857825182559160200191906001019061351d565b5b509050613546919061354a565b5090565b5b8082111561356357600081600090555060010161354b565b5090565b600061357a61357584614549565b614524565b905082815260208101848484011115613596576135956149da565b5b6135a1848285614774565b509392505050565b60006135bc6135b78461457a565b614524565b9050828152602081018484840111156135d8576135d76149da565b5b6135e3848285614774565b509392505050565b6000813590506135fa81614fc6565b92915050565b60008083601f840112613616576136156149bc565b5b8235905067ffffffffffffffff811115613633576136326149b7565b5b60208301915083602082028301111561364f5761364e6149d0565b5b9250929050565b60008135905061366581614fdd565b92915050565b60008151905061367a81614ff4565b92915050565b600082601f830112613695576136946149bc565b5b81356136a5848260208601613567565b91505092915050565b600082601f8301126136c3576136c26149bc565b5b81356136d38482602086016135a9565b91505092915050565b6000608082840312156136f2576136f16149c6565b5b81905092915050565b60008135905061370a8161500b565b92915050565b60008151905061371f8161500b565b92915050565b60008135905061373481615022565b92915050565b6000602082840312156137505761374f6149e4565b5b600061375e848285016135eb565b91505092915050565b6000806040838503121561377e5761377d6149e4565b5b600061378c858286016135eb565b925050602083013567ffffffffffffffff8111156137ad576137ac6149df565b5b6137b985828601613680565b9150509250929050565b600080604083850312156137da576137d96149e4565b5b60006137e8858286016135eb565b92505060206137f9858286016136fb565b9150509250929050565b60008060006060848603121561381c5761381b6149e4565b5b600061382a868287016135eb565b935050602061383b868287016136fb565b925050604061384c86828701613656565b9150509250925092565b6000806020838503121561386d5761386c6149e4565b5b600083013567ffffffffffffffff81111561388b5761388a6149df565b5b61389785828601613600565b92509250509250929050565b6000602082840312156138b9576138b86149e4565b5b60006138c78482850161366b565b91505092915050565b6000602082840312156138e6576138e56149e4565b5b600082013567ffffffffffffffff811115613904576139036149df565b5b613910848285016136dc565b91505092915050565b60006020828403121561392f5761392e6149e4565b5b600061393d848285016136fb565b91505092915050565b60006020828403121561395c5761395b6149e4565b5b600061396a84828501613710565b91505092915050565b600080600080600080600060e0888a031215613992576139916149e4565b5b60006139a08a828b016136fb565b975050602088013567ffffffffffffffff8111156139c1576139c06149df565b5b6139cd8a828b016136ae565b96505060406139de8a828b016136fb565b95505060606139ef8a828b016136fb565b9450506080613a008a828b016136fb565b93505060a0613a118a828b01613656565b92505060c0613a228a828b016135eb565b91505092959891949750929550565b600060208284031215613a4757613a466149e4565b5b6000613a5584828501613725565b91505092915050565b613a67816146fd565b82525050565b613a768161470f565b82525050565b613a858161471b565b82525050565b613a9c613a978261471b565b614862565b82525050565b6000613aad826145ab565b613ab781856145c1565b9350613ac7818560208601614783565b80840191505092915050565b6000613adf83856145cc565b9350613aec838584614774565b613af5836149e9565b840190509392505050565b6000613b0b826145b6565b613b1581856145cc565b9350613b25818560208601614783565b613b2e816149e9565b840191505092915050565b6000613b466018836145cc565b9150613b51826149fa565b602082019050919050565b6000613b696016836145cc565b9150613b7482614a23565b602082019050919050565b6000613b8c601f836145cc565b9150613b9782614a4c565b602082019050919050565b6000613baf6002836145dd565b9150613bba82614a75565b600282019050919050565b6000613bd26012836145cc565b9150613bdd82614a9e565b602082019050919050565b6000613bf5602c836145cc565b9150613c0082614ac7565b604082019050919050565b6000613c186015836145cc565b9150613c2382614b16565b602082019050919050565b6000613c3b6016836145cc565b9150613c4682614b3f565b602082019050919050565b6000613c5e6012836145cc565b9150613c6982614b68565b602082019050919050565b6000613c816022836145cc565b9150613c8c82614b91565b604082019050919050565b6000613ca4602c836145cc565b9150613caf82614be0565b604082019050919050565b6000613cc76038836145cc565b9150613cd282614c2f565b604082019050919050565b6000613cea6029836145cc565b9150613cf582614c7e565b604082019050919050565b6000613d0d602e836145cc565b9150613d1882614ccd565b604082019050919050565b6000613d306022836145cc565b9150613d3b82614d1c565b604082019050919050565b6000613d53602e836145cc565b9150613d5e82614d6b565b604082019050919050565b6000613d76600f836145cc565b9150613d8182614dba565b602082019050919050565b6000613d99602d836145cc565b9150613da482614de3565b604082019050919050565b6000613dbc6011836145cc565b9150613dc782614e32565b602082019050919050565b6000613ddf6018836145cc565b9150613dea82614e5b565b602082019050919050565b6000613e026026836145cc565b9150613e0d82614e84565b604082019050919050565b6000613e256014836145cc565b9150613e3082614ed3565b602082019050919050565b6000613e48602b836145cc565b9150613e5382614efc565b604082019050919050565b6000613e6b6015836145cc565b9150613e7682614f4b565b602082019050919050565b6000613e8e601f836145cc565b9150613e9982614f74565b602082019050919050565b6000613eb1600b836145cc565b9150613ebc82614f9d565b602082019050919050565b613ed081614745565b82525050565b613edf8161474f565b82525050565b613eee8161475c565b82525050565b6000613f008284613aa2565b915081905092915050565b6000613f1682613ba2565b9150613f228285613a8b565b602082019150613f328284613a8b565b6020820191508190509392505050565b6000602082019050613f576000830184613a5e565b92915050565b6000602082019050613f726000830184613a6d565b92915050565b6000602082019050613f8d6000830184613a7c565b92915050565b600060a082019050613fa86000830188613a7c565b613fb56020830187613a7c565b613fc26040830186613a7c565b613fcf6060830185613ec7565b613fdc6080830184613a5e565b9695505050505050565b6000608082019050613ffb6000830187613a7c565b6140086020830186613ec7565b6140156040830185613a5e565b6140226060830184613ec7565b95945050505050565b60006080820190506140406000830187613a7c565b61404d6020830186613ed6565b61405a6040830185613a7c565b6140676060830184613a7c565b95945050505050565b6000602082019050818103600083015261408a8184613b00565b905092915050565b600060208201905081810360008301526140ab81613b39565b9050919050565b600060208201905081810360008301526140cb81613b5c565b9050919050565b600060208201905081810360008301526140eb81613b7f565b9050919050565b6000602082019050818103600083015261410b81613bc5565b9050919050565b6000602082019050818103600083015261412b81613be8565b9050919050565b6000602082019050818103600083015261414b81613c0b565b9050919050565b6000602082019050818103600083015261416b81613c2e565b9050919050565b6000602082019050818103600083015261418b81613c51565b9050919050565b600060208201905081810360008301526141ab81613c74565b9050919050565b600060208201905081810360008301526141cb81613c97565b9050919050565b600060208201905081810360008301526141eb81613cba565b9050919050565b6000602082019050818103600083015261420b81613cdd565b9050919050565b6000602082019050818103600083015261422b81613d00565b9050919050565b6000602082019050818103600083015261424b81613d23565b9050919050565b6000602082019050818103600083015261426b81613d46565b9050919050565b6000602082019050818103600083015261428b81613d69565b9050919050565b600060208201905081810360008301526142ab81613d8c565b9050919050565b600060208201905081810360008301526142cb81613daf565b9050919050565b600060208201905081810360008301526142eb81613dd2565b9050919050565b6000602082019050818103600083015261430b81613df5565b9050919050565b6000602082019050818103600083015261432b81613e18565b9050919050565b6000602082019050818103600083015261434b81613e3b565b9050919050565b6000602082019050818103600083015261436b81613e5e565b9050919050565b6000602082019050818103600083015261438b81613e81565b9050919050565b600060208201905081810360008301526143ab81613ea4565b9050919050565b60006020820190506143c76000830184613ec7565b92915050565b60006040820190506143e26000830185613ec7565b6143ef6020830184613ec7565b9392505050565b600060608201905061440b6000830187613ee5565b818103602083015261441e818587613ad3565b905061442d6040830184613ec7565b95945050505050565b60008083356001602003843603038112614453576144526149cb565b5b80840192508235915067ffffffffffffffff821115614475576144746149c1565b5b602083019250600182023603831315614491576144906149d5565b5b509250929050565b600080833560016020038436030381126144b6576144b56149cb565b5b80840192508235915067ffffffffffffffff8211156144d8576144d76149c1565b5b6020830192506001820236038313156144f4576144f36149d5565b5b509250929050565b600082356001606003833603038112614518576145176149cb565b5b80830191505092915050565b600061452e61453f565b905061453a82826147e8565b919050565b6000604051905090565b600067ffffffffffffffff82111561456457614563614988565b5b61456d826149e9565b9050602081019050919050565b600067ffffffffffffffff82111561459557614594614988565b5b61459e826149e9565b9050602081019050919050565b600081519050919050565b600081519050919050565b600081905092915050565b600082825260208201905092915050565b600081905092915050565b60006145f382614745565b91506145fe83614745565b9250827fffffffffffffffffffffffffffffffffffffffffffffffffffffffffffffffff038211156146335761463261489d565b5b828201905092915050565b600061464982614745565b915061465483614745565b925082614664576146636148cc565b5b828204905092915050565b600061467a82614745565b915061468583614745565b9250817fffffffffffffffffffffffffffffffffffffffffffffffffffffffffffffffff04831182151516156146be576146bd61489d565b5b828202905092915050565b60006146d482614745565b91506146df83614745565b9250828210156146f2576146f161489d565b5b828203905092915050565b600061470882614725565b9050919050565b60008115159050919050565b6000819050919050565b600073ffffffffffffffffffffffffffffffffffffffff82169050919050565b6000819050919050565b600060ff82169050919050565b60006bffffffffffffffffffffffff82169050919050565b82818337600083830152505050565b60005b838110156147a1578082015181840152602081019050614786565b838111156147b0576000848401525b50505050565b600060028204905060018216806147ce57607f821691505b602082108114156147e2576147e161492a565b5b50919050565b6147f1826149e9565b810181811067ffffffffffffffff821117156148105761480f614988565b5b80604052505050565b600061482482614745565b91507fffffffffffffffffffffffffffffffffffffffffffffffffffffffffffffffff8214156148575761485661489d565b5b600182019050919050565b6000819050919050565b600061487782614745565b915061488283614745565b925082614892576148916148cc565b5b828206905092915050565b7f4e487b7100000000000000000000000000000000000000000000000000000000600052601160045260246000fd5b7f4e487b7100000000000000000000000000000000000000000000000000000000600052601260045260246000fd5b7f4e487b7100000000000000000000000000000000000000000000000000000000600052602160045260246000fd5b7f4e487b7100000000000000000000000000000000000000000000000000000000600052602260045260246000fd5b7f4e487b7100000000000000000000000000000000000000000000000000000000600052603260045260246000fd5b7f4e487b7100000000000000000000000000000000000000000000000000000000600052604160045260246000fd5b600080fd5b600080fd5b600080fd5b600080fd5b600080fd5b600080fd5b600080fd5b600080fd5b600080fd5b600080fd5b6000601f19601f8301169050919050565b7f45434453413a20696e76616c6964207369676e61747572650000000000000000600082015250565b7f496e76616c696420496d706c656d656e746174696f6e00000000000000000000600082015250565b7f45434453413a20696e76616c6964207369676e6174757265206c656e67746800600082015250565b7f1901000000000000000000000000000000000000000000000000000000000000600082015250565b7f537570706c79204e6f74204c696d697465640000000000000000000000000000600082015250565b7f46756e6374696f6e206d7573742062652063616c6c6564207468726f7567682060008201527f64656c656761746563616c6c0000000000000000000000000000000000000000602082015250565b7f4e6f20436f6e7472696275746f72732041646465640000000000000000000000600082015250565b7f537570706c7920416c7265616479204c696d6974656400000000000000000000600082015250565b7f496e73756666696369656e742046756e64730000000000000000000000000000600082015250565b7f45434453413a20696e76616c6964207369676e6174757265202773272076616c60008201527f7565000000000000000000000000000000000000000000000000000000000000602082015250565b7f46756e6374696f6e206d7573742062652063616c6c6564207468726f7567682060008201527f6163746976652070726f78790000000000000000000000000000000000000000602082015250565b7f555550535570677261646561626c653a206d757374206e6f742062652063616c60008201527f6c6564207468726f7567682064656c656761746563616c6c0000000000000000602082015250565b7f45524331393637557067726164653a20756e737570706f727465642070726f7860008201527f6961626c65555549440000000000000000000000000000000000000000000000602082015250565b7f496e697469616c697a61626c653a20636f6e747261637420697320616c72656160008201527f647920696e697469616c697a6564000000000000000000000000000000000000602082015250565b7f45434453413a20696e76616c6964207369676e6174757265202776272076616c60008201527f7565000000000000000000000000000000000000000000000000000000000000602082015250565b7f45524331393637557067726164653a206e657720696d706c656d656e7461746960008201527f6f6e206973206e6f742055555053000000000000000000000000000000000000602082015250565b7f496e76616c696420526571756573740000000000000000000000000000000000600082015250565b7f455243313936373a206e657720696d706c656d656e746174696f6e206973206e60008201527f6f74206120636f6e747261637400000000000000000000000000000000000000602082015250565b7f496e76616c6964205369676e6174757265000000000000000000000000000000600082015250565b7f537570706c7920416c726561647920556e6c696d697465640000000000000000600082015250565b7f416464726573733a2064656c65676174652063616c6c20746f206e6f6e2d636f60008201527f6e74726163740000000000000000000000000000000000000000000000000000602082015250565b7f537570706c79204c696d69742052656163686564000000000000000000000000600082015250565b7f496e697469616c697a61626c653a20636f6e7472616374206973206e6f74206960008201527f6e697469616c697a696e67000000000000000000000000000000000000000000602082015250565b7f556e2d617574686f72697a656420526571756573740000000000000000000000600082015250565b7f5265656e7472616e637947756172643a207265656e7472616e742063616c6c00600082015250565b7f426f6f6b204c6f636b6564000000000000000000000000000000000000000000600082015250565b614fcf816146fd565b8114614fda57600080fd5b50565b614fe68161470f565b8114614ff157600080fd5b50565b614ffd8161471b565b811461500857600080fd5b50565b61501481614745565b811461501f57600080fd5b50565b61502b8161475c565b811461503657600080fd5b5056fe416464726573733a206c6f772d6c6576656c2064656c65676174652063616c6c206661696c6564a264697066735822122088315fdbf028179d045a70ad8154a29415a3f52c92bfde035128f12d72a7dbd064736f6c63430008070033",
  "linkReferences": {},
  "deployedLinkReferences": {}
}