{
  "_format": "hh-sol-artifact-1",
  "contractName": "Exchange",
  "sourceName": "contracts/v3/Exchange.sol",
  "abi": [
    {
      "anonymous": false,
      "inputs": [
        {
          "indexed": true,
          "internalType": "address",
          "name": "bookAddress",
          "type": "address"
        },
        {
          "indexed": false,
          "internalType": "uint256",
          "name": "copyUid",
          "type": "uint256"
        },
        {
          "indexed": true,
          "internalType": "address",
          "name": "offerer",
          "type": "address"
        }
      ],
      "name": "OfferAccepted",
      "type": "event"
    },
    {
      "anonymous": false,
      "inputs": [
        {
          "indexed": true,
          "internalType": "address",
          "name": "bookAddress",
          "type": "address"
        },
        {
          "indexed": false,
          "internalType": "uint256",
          "name": "copyUid",
          "type": "uint256"
        },
        {
          "indexed": true,
          "internalType": "address",
          "name": "offerer",
          "type": "address"
        }
      ],
      "name": "OfferCancelled",
      "type": "event"
    },
    {
      "anonymous": false,
      "inputs": [
        {
          "indexed": true,
          "internalType": "address",
          "name": "bookAddress",
          "type": "address"
        },
        {
          "indexed": false,
          "internalType": "uint256",
          "name": "copyUid",
          "type": "uint256"
        },
        {
          "indexed": true,
          "internalType": "address",
          "name": "offerer",
          "type": "address"
        },
        {
          "indexed": false,
          "internalType": "uint256",
          "name": "offerPrice",
          "type": "uint256"
        }
      ],
      "name": "OfferMade",
      "type": "event"
    },
    {
      "anonymous": false,
      "inputs": [
        {
          "indexed": true,
          "internalType": "address",
          "name": "previousOwner",
          "type": "address"
        },
        {
          "indexed": true,
          "internalType": "address",
          "name": "newOwner",
          "type": "address"
        }
      ],
      "name": "OwnershipTransferred",
      "type": "event"
    },
    {
      "anonymous": false,
      "inputs": [
        {
          "indexed": true,
          "internalType": "address",
          "name": "implementation",
          "type": "address"
        }
      ],
      "name": "Upgraded",
      "type": "event"
    },
    {
      "inputs": [
        {
          "internalType": "address",
          "name": "bookAddress",
          "type": "address"
        },
        {
          "internalType": "uint256",
          "name": "copyUid",
          "type": "uint256"
        }
      ],
      "name": "cancelOffer",
      "outputs": [],
      "stateMutability": "payable",
      "type": "function"
    },
    {
      "inputs": [],
      "name": "initialize",
      "outputs": [],
      "stateMutability": "nonpayable",
      "type": "function"
    },
    {
      "inputs": [
        {
          "internalType": "address",
          "name": "bookAddress",
          "type": "address"
        },
        {
          "internalType": "uint256",
          "name": "copyUid",
          "type": "uint256"
        },
        {
          "internalType": "uint256",
          "name": "offerPrice",
          "type": "uint256"
        }
      ],
      "name": "makeOffer",
      "outputs": [],
      "stateMutability": "payable",
      "type": "function"
    },
    {
      "inputs": [
        {
          "internalType": "address",
          "name": "bookAddress",
          "type": "address"
        },
        {
          "internalType": "uint256",
          "name": "copyUid",
          "type": "uint256"
        },
        {
          "internalType": "address",
          "name": "buyer",
          "type": "address"
        }
      ],
      "name": "offerAccepted",
      "outputs": [],
      "stateMutability": "payable",
      "type": "function"
    },
    {
      "inputs": [],
      "name": "owner",
      "outputs": [
        {
          "internalType": "address",
          "name": "",
          "type": "address"
        }
      ],
      "stateMutability": "view",
      "type": "function"
    },
    {
      "inputs": [],
      "name": "proxiableUUID",
      "outputs": [
        {
          "internalType": "bytes32",
          "name": "",
          "type": "bytes32"
        }
      ],
      "stateMutability": "view",
      "type": "function"
    },
    {
      "inputs": [],
      "name": "renounceOwnership",
      "outputs": [],
      "stateMutability": "nonpayable",
      "type": "function"
    },
    {
      "inputs": [
        {
          "internalType": "address",
          "name": "newOwner",
          "type": "address"
        }
      ],
      "name": "transferOwnership",
      "outputs": [],
      "stateMutability": "nonpayable",
      "type": "function"
    },
    {
      "inputs": [
        {
          "internalType": "address",
          "name": "newImplementation",
          "type": "address"
        }
      ],
      "name": "upgradeTo",
      "outputs": [],
      "stateMutability": "nonpayable",
      "type": "function"
    },
    {
      "inputs": [
        {
          "internalType": "address",
          "name": "newImplementation",
          "type": "address"
        },
        {
          "internalType": "bytes",
          "name": "data",
          "type": "bytes"
        }
      ],
      "name": "upgradeToAndCall",
      "outputs": [],
      "stateMutability": "payable",
      "type": "function"
    }
  ],
  "bytecode": "0x60a06040523073ffffffffffffffffffffffffffffffffffffffff1660809073ffffffffffffffffffffffffffffffffffffffff1660601b81525034801561004657600080fd5b5060805160601c612a97610081600039600081816108db0152818161096a01528181610a6401528181610af30152610ba30152612a976000f3fe6080604052600436106100915760003560e01c8063715018a611610059578063715018a61461013e5780637de3bd07146101555780638129fc1c146101715780638da5cb5b14610188578063f2fde38b146101b357610091565b8063058a56ac1461009657806315241f21146100b25780633659cfe6146100ce5780634f1ef286146100f757806352d1902d14610113575b600080fd5b6100b060048036038101906100ab9190611cce565b6101dc565b005b6100cc60048036038101906100c79190611d0e565b6104dd565b005b3480156100da57600080fd5b506100f560048036038101906100f09190611c18565b6108d9565b005b610111600480360381019061010c9190611c72565b610a62565b005b34801561011f57600080fd5b50610128610b9f565b604051610135919061214d565b60405180910390f35b34801561014a57600080fd5b50610153610c58565b005b61016f600480360381019061016a9190611d61565b610ce0565b005b34801561017d57600080fd5b5061018661106c565b005b34801561019457600080fd5b5061019d611168565b6040516101aa91906120fb565b60405180910390f35b3480156101bf57600080fd5b506101da60048036038101906101d59190611c18565b611192565b005b60026001541415610222576040517f08c379a00000000000000000000000000000000000000000000000000000000081526004016102199061236a565b60405180910390fd5b60026001819055508173ffffffffffffffffffffffffffffffffffffffff1663f8fbea34338360006040518463ffffffff1660e01b815260040161026893929190612116565b60206040518083038186803b15801561028057600080fd5b505afa158015610294573d6000803e3d6000fd5b505050506040513d601f19601f820116820180604052508101906102b89190611db4565b156102f8576040517f08c379a00000000000000000000000000000000000000000000000000000000081526004016102ef906122aa565b60405180910390fd5b600060fb60008473ffffffffffffffffffffffffffffffffffffffff1673ffffffffffffffffffffffffffffffffffffffff168152602001908152602001600020600083815260200190815260200160002060003373ffffffffffffffffffffffffffffffffffffffff1673ffffffffffffffffffffffffffffffffffffffff168152602001908152602001600020549050600081111561046c5760fb60008473ffffffffffffffffffffffffffffffffffffffff1673ffffffffffffffffffffffffffffffffffffffff168152602001908152602001600020600083815260200190815260200160002060003373ffffffffffffffffffffffffffffffffffffffff1673ffffffffffffffffffffffffffffffffffffffff168152602001908152602001600020600090553373ffffffffffffffffffffffffffffffffffffffff166108fc829081150290604051600060405180830381858888f1935050505015801561046a573d6000803e3d6000fd5b505b3373ffffffffffffffffffffffffffffffffffffffff168373ffffffffffffffffffffffffffffffffffffffff167fe976e867b83e81198668862497521f192d6d5fca43b250029f56a510d4cac6d2846040516104c9919061238a565b60405180910390a350600180819055505050565b60026001541415610523576040517f08c379a000000000000000000000000000000000000000000000000000000000815260040161051a9061236a565b60405180910390fd5b600260018190555060008390503373ffffffffffffffffffffffffffffffffffffffff168173ffffffffffffffffffffffffffffffffffffffff166256856a856040518263ffffffff1660e01b815260040161057f919061238a565b60206040518083038186803b15801561059757600080fd5b505afa1580156105ab573d6000803e3d6000fd5b505050506040513d601f19601f820116820180604052508101906105cf9190611c45565b73ffffffffffffffffffffffffffffffffffffffff1614610625576040517f08c379a000000000000000000000000000000000000000000000000000000000815260040161061c9061234a565b60405180910390fd5b8073ffffffffffffffffffffffffffffffffffffffff1663f8fbea34838560006040518463ffffffff1660e01b815260040161066393929190612116565b60206040518083038186803b15801561067b57600080fd5b505afa15801561068f573d6000803e3d6000fd5b505050506040513d601f19601f820116820180604052508101906106b39190611db4565b6106f2576040517f08c379a00000000000000000000000000000000000000000000000000000000081526004016106e9906122aa565b60405180910390fd5b600060fb60008673ffffffffffffffffffffffffffffffffffffffff1673ffffffffffffffffffffffffffffffffffffffff168152602001908152602001600020600085815260200190815260200160002060008473ffffffffffffffffffffffffffffffffffffffff1673ffffffffffffffffffffffffffffffffffffffff16815260200190815260200160002054905060008111156108665760fb60008673ffffffffffffffffffffffffffffffffffffffff1673ffffffffffffffffffffffffffffffffffffffff168152602001908152602001600020600085815260200190815260200160002060008473ffffffffffffffffffffffffffffffffffffffff1673ffffffffffffffffffffffffffffffffffffffff168152602001908152602001600020600090553373ffffffffffffffffffffffffffffffffffffffff166108fc829081150290604051600060405180830381858888f19350505050158015610864573d6000803e3d6000fd5b505b8273ffffffffffffffffffffffffffffffffffffffff168573ffffffffffffffffffffffffffffffffffffffff167f1911131efc06f8b35ef19454a244416c23f0cffd91e74ec4d1656a64ec363afe866040516108c3919061238a565b60405180910390a3505060018081905550505050565b7f000000000000000000000000000000000000000000000000000000000000000073ffffffffffffffffffffffffffffffffffffffff163073ffffffffffffffffffffffffffffffffffffffff161415610968576040517f08c379a000000000000000000000000000000000000000000000000000000000815260040161095f906121aa565b60405180910390fd5b7f000000000000000000000000000000000000000000000000000000000000000073ffffffffffffffffffffffffffffffffffffffff166109a761128a565b73ffffffffffffffffffffffffffffffffffffffff16146109fd576040517f08c379a00000000000000000000000000000000000000000000000000000000081526004016109f4906121ea565b60405180910390fd5b610a06816112e1565b610a5f81600067ffffffffffffffff811115610a2557610a2461257e565b5b6040519080825280601f01601f191660200182016040528015610a575781602001600182028036833780820191505090505b506000611360565b50565b7f000000000000000000000000000000000000000000000000000000000000000073ffffffffffffffffffffffffffffffffffffffff163073ffffffffffffffffffffffffffffffffffffffff161415610af1576040517f08c379a0000000000000000000000000000000000000000000000000000000008152600401610ae8906121aa565b60405180910390fd5b7f000000000000000000000000000000000000000000000000000000000000000073ffffffffffffffffffffffffffffffffffffffff16610b3061128a565b73ffffffffffffffffffffffffffffffffffffffff1614610b86576040517f08c379a0000000000000000000000000000000000000000000000000000000008152600401610b7d906121ea565b60405180910390fd5b610b8f826112e1565b610b9b82826001611360565b5050565b60007f000000000000000000000000000000000000000000000000000000000000000073ffffffffffffffffffffffffffffffffffffffff163073ffffffffffffffffffffffffffffffffffffffff1614610c2f576040517f08c379a0000000000000000000000000000000000000000000000000000000008152600401610c269061222a565b60405180910390fd5b7f360894a13ba1a3210667c828492db98dca3e2076cc3735a920a3ca505d382bbc60001b905090565b610c606114dd565b73ffffffffffffffffffffffffffffffffffffffff16610c7e611168565b73ffffffffffffffffffffffffffffffffffffffff1614610cd4576040517f08c379a0000000000000000000000000000000000000000000000000000000008152600401610ccb906122ea565b60405180910390fd5b610cde60006114e5565b565b60026001541415610d26576040517f08c379a0000000000000000000000000000000000000000000000000000000008152600401610d1d9061236a565b60405180910390fd5b600260018190555080341015610d71576040517f08c379a0000000000000000000000000000000000000000000000000000000008152600401610d68906121ca565b60405180910390fd5b8273ffffffffffffffffffffffffffffffffffffffff1663f8fbea34338460006040518463ffffffff1660e01b8152600401610daf93929190612116565b60206040518083038186803b158015610dc757600080fd5b505afa158015610ddb573d6000803e3d6000fd5b505050506040513d601f19601f82011682018060405250810190610dff9190611db4565b15610e3f576040517f08c379a0000000000000000000000000000000000000000000000000000000008152600401610e36906122aa565b60405180910390fd5b60fb60008473ffffffffffffffffffffffffffffffffffffffff1673ffffffffffffffffffffffffffffffffffffffff168152602001908152602001600020600083815260200190815260200160002060003373ffffffffffffffffffffffffffffffffffffffff1673ffffffffffffffffffffffffffffffffffffffff168152602001908152602001600020548111610f0e576040517f08c379a0000000000000000000000000000000000000000000000000000000008152600401610f059061220a565b60405180910390fd5b8060fb60008573ffffffffffffffffffffffffffffffffffffffff1673ffffffffffffffffffffffffffffffffffffffff168152602001908152602001600020600084815260200190815260200160002060003373ffffffffffffffffffffffffffffffffffffffff1673ffffffffffffffffffffffffffffffffffffffff168152602001908152602001600020819055503373ffffffffffffffffffffffffffffffffffffffff166108fc610fcd83346115ab90919063ffffffff16565b9081150290604051600060405180830381858888f19350505050158015610ff8573d6000803e3d6000fd5b503373ffffffffffffffffffffffffffffffffffffffff168373ffffffffffffffffffffffffffffffffffffffff167f7ab51a03638d3bfd74576317d23a61865ab7ee43ce9ee3a44044594da5c6d65584846040516110589291906123a5565b60405180910390a360018081905550505050565b600060019054906101000a900460ff166110945760008054906101000a900460ff161561109d565b61109c6115c1565b5b6110dc576040517f08c379a00000000000000000000000000000000000000000000000000000000081526004016110d39061226a565b60405180910390fd5b60008060019054906101000a900460ff16159050801561112c576001600060016101000a81548160ff02191690831515021790555060016000806101000a81548160ff0219169083151502179055505b6111346115d2565b61113c61162b565b61114461168c565b80156111655760008060016101000a81548160ff0219169083151502179055505b50565b600060c960009054906101000a900473ffffffffffffffffffffffffffffffffffffffff16905090565b61119a6114dd565b73ffffffffffffffffffffffffffffffffffffffff166111b8611168565b73ffffffffffffffffffffffffffffffffffffffff161461120e576040517f08c379a0000000000000000000000000000000000000000000000000000000008152600401611205906122ea565b60405180910390fd5b600073ffffffffffffffffffffffffffffffffffffffff168173ffffffffffffffffffffffffffffffffffffffff16141561127e576040517f08c379a00000000000000000000000000000000000000000000000000000000081526004016112759061218a565b60405180910390fd5b611287816114e5565b50565b60006112b87f360894a13ba1a3210667c828492db98dca3e2076cc3735a920a3ca505d382bbc60001b6116ed565b60000160009054906101000a900473ffffffffffffffffffffffffffffffffffffffff16905090565b6112e96114dd565b73ffffffffffffffffffffffffffffffffffffffff16611307611168565b73ffffffffffffffffffffffffffffffffffffffff161461135d576040517f08c379a0000000000000000000000000000000000000000000000000000000008152600401611354906122ea565b60405180910390fd5b50565b61138c7f4910fdfa16fed3260ed0e7147f7cc6da11a60208b5b9406d12a635614ffd914360001b6116f7565b60000160009054906101000a900460ff16156113b0576113ab83611701565b6114d8565b8273ffffffffffffffffffffffffffffffffffffffff166352d1902d6040518163ffffffff1660e01b815260040160206040518083038186803b1580156113f657600080fd5b505afa92505050801561142757506040513d601f19601f820116820180604052508101906114249190611de1565b60015b611466576040517f08c379a000000000000000000000000000000000000000000000000000000000815260040161145d9061228a565b60405180910390fd5b7f360894a13ba1a3210667c828492db98dca3e2076cc3735a920a3ca505d382bbc60001b81146114cb576040517f08c379a00000000000000000000000000000000000000000000000000000000081526004016114c29061224a565b60405180910390fd5b506114d78383836117ba565b5b505050565b600033905090565b600060c960009054906101000a900473ffffffffffffffffffffffffffffffffffffffff1690508160c960006101000a81548173ffffffffffffffffffffffffffffffffffffffff021916908373ffffffffffffffffffffffffffffffffffffffff1602179055508173ffffffffffffffffffffffffffffffffffffffff168173ffffffffffffffffffffffffffffffffffffffff167f8be0079c531659141344cd1fd0a4f28419497f9722a3daafe3b4186f6b6457e060405160405180910390a35050565b600081836115b99190612456565b905092915050565b60006115cc306117e6565b15905090565b600060019054906101000a900460ff16611621576040517f08c379a00000000000000000000000000000000000000000000000000000000081526004016116189061232a565b60405180910390fd5b6116296117f9565b565b600060019054906101000a900460ff1661167a576040517f08c379a00000000000000000000000000000000000000000000000000000000081526004016116719061232a565b60405180910390fd5b611682611851565b61168a6118a2565b565b600060019054906101000a900460ff166116db576040517f08c379a00000000000000000000000000000000000000000000000000000000081526004016116d29061232a565b60405180910390fd5b6116e36118f3565b6116eb611944565b565b6000819050919050565b6000819050919050565b61170a816117e6565b611749576040517f08c379a0000000000000000000000000000000000000000000000000000000008152600401611740906122ca565b60405180910390fd5b806117767f360894a13ba1a3210667c828492db98dca3e2076cc3735a920a3ca505d382bbc60001b6116ed565b60000160006101000a81548173ffffffffffffffffffffffffffffffffffffffff021916908373ffffffffffffffffffffffffffffffffffffffff16021790555050565b6117c3836119a5565b6000825111806117d05750805b156117e1576117df83836119f4565b505b505050565b600080823b905060008111915050919050565b600060019054906101000a900460ff16611848576040517f08c379a000000000000000000000000000000000000000000000000000000000815260040161183f9061232a565b60405180910390fd5b60018081905550565b600060019054906101000a900460ff166118a0576040517f08c379a00000000000000000000000000000000000000000000000000000000081526004016118979061232a565b60405180910390fd5b565b600060019054906101000a900460ff166118f1576040517f08c379a00000000000000000000000000000000000000000000000000000000081526004016118e89061232a565b60405180910390fd5b565b600060019054906101000a900460ff16611942576040517f08c379a00000000000000000000000000000000000000000000000000000000081526004016119399061232a565b60405180910390fd5b565b600060019054906101000a900460ff16611993576040517f08c379a000000000000000000000000000000000000000000000000000000000815260040161198a9061232a565b60405180910390fd5b6119a361199e6114dd565b6114e5565b565b6119ae81611701565b8073ffffffffffffffffffffffffffffffffffffffff167fbc7cd75a20ee27fd9adebab32041f755214dbc6bffa90cc0225b39da2e5c2d3b60405160405180910390a250565b60606119ff836117e6565b611a3e576040517f08c379a0000000000000000000000000000000000000000000000000000000008152600401611a359061230a565b60405180910390fd5b6000808473ffffffffffffffffffffffffffffffffffffffff1684604051611a6691906120e4565b600060405180830381855af49150503d8060008114611aa1576040519150601f19603f3d011682016040523d82523d6000602084013e611aa6565b606091505b5091509150611ace8282604051806060016040528060278152602001612a3b60279139611ad8565b9250505092915050565b60608315611ae857829050611b38565b600083511115611afb5782518084602001fd5b816040517f08c379a0000000000000000000000000000000000000000000000000000000008152600401611b2f9190612168565b60405180910390fd5b9392505050565b6000611b52611b4d846123f3565b6123ce565b905082815260208101848484011115611b6e57611b6d6125b2565b5b611b798482856124dc565b509392505050565b600081359050611b90816129de565b92915050565b600081519050611ba5816129de565b92915050565b600081519050611bba816129f5565b92915050565b600081519050611bcf81612a0c565b92915050565b600082601f830112611bea57611be96125ad565b5b8135611bfa848260208601611b3f565b91505092915050565b600081359050611c1281612a23565b92915050565b600060208284031215611c2e57611c2d6125bc565b5b6000611c3c84828501611b81565b91505092915050565b600060208284031215611c5b57611c5a6125bc565b5b6000611c6984828501611b96565b91505092915050565b60008060408385031215611c8957611c886125bc565b5b6000611c9785828601611b81565b925050602083013567ffffffffffffffff811115611cb857611cb76125b7565b5b611cc485828601611bd5565b9150509250929050565b60008060408385031215611ce557611ce46125bc565b5b6000611cf385828601611b81565b9250506020611d0485828601611c03565b9150509250929050565b600080600060608486031215611d2757611d266125bc565b5b6000611d3586828701611b81565b9350506020611d4686828701611c03565b9250506040611d5786828701611b81565b9150509250925092565b600080600060608486031215611d7a57611d796125bc565b5b6000611d8886828701611b81565b9350506020611d9986828701611c03565b9250506040611daa86828701611c03565b9150509250925092565b600060208284031215611dca57611dc96125bc565b5b6000611dd884828501611bab565b91505092915050565b600060208284031215611df757611df66125bc565b5b6000611e0584828501611bc0565b91505092915050565b611e178161248a565b82525050565b611e268161249c565b82525050565b611e35816124a8565b82525050565b6000611e4682612424565b611e50818561243a565b9350611e608185602086016124eb565b80840191505092915050565b6000611e778261242f565b611e818185612445565b9350611e918185602086016124eb565b611e9a816125c1565b840191505092915050565b6000611eb2602683612445565b9150611ebd826125d2565b604082019050919050565b6000611ed5602c83612445565b9150611ee082612621565b604082019050919050565b6000611ef8601283612445565b9150611f0382612670565b602082019050919050565b6000611f1b602c83612445565b9150611f2682612699565b604082019050919050565b6000611f3e600d83612445565b9150611f49826126e8565b602082019050919050565b6000611f61603883612445565b9150611f6c82612711565b604082019050919050565b6000611f84602983612445565b9150611f8f82612760565b604082019050919050565b6000611fa7602e83612445565b9150611fb2826127af565b604082019050919050565b6000611fca602e83612445565b9150611fd5826127fe565b604082019050919050565b6000611fed600f83612445565b9150611ff88261284d565b602082019050919050565b6000612010602d83612445565b915061201b82612876565b604082019050919050565b6000612033602083612445565b915061203e826128c5565b602082019050919050565b6000612056602683612445565b9150612061826128ee565b604082019050919050565b6000612079602b83612445565b91506120848261293d565b604082019050919050565b600061209c601583612445565b91506120a78261298c565b602082019050919050565b60006120bf601f83612445565b91506120ca826129b5565b602082019050919050565b6120de816124d2565b82525050565b60006120f08284611e3b565b915081905092915050565b60006020820190506121106000830184611e0e565b92915050565b600060608201905061212b6000830186611e0e565b61213860208301856120d5565b6121456040830184611e1d565b949350505050565b60006020820190506121626000830184611e2c565b92915050565b600060208201905081810360008301526121828184611e6c565b905092915050565b600060208201905081810360008301526121a381611ea5565b9050919050565b600060208201905081810360008301526121c381611ec8565b9050919050565b600060208201905081810360008301526121e381611eeb565b9050919050565b6000602082019050818103600083015261220381611f0e565b9050919050565b6000602082019050818103600083015261222381611f31565b9050919050565b6000602082019050818103600083015261224381611f54565b9050919050565b6000602082019050818103600083015261226381611f77565b9050919050565b6000602082019050818103600083015261228381611f9a565b9050919050565b600060208201905081810360008301526122a381611fbd565b9050919050565b600060208201905081810360008301526122c381611fe0565b9050919050565b600060208201905081810360008301526122e381612003565b9050919050565b6000602082019050818103600083015261230381612026565b9050919050565b6000602082019050818103600083015261232381612049565b9050919050565b600060208201905081810360008301526123438161206c565b9050919050565b600060208201905081810360008301526123638161208f565b9050919050565b60006020820190508181036000830152612383816120b2565b9050919050565b600060208201905061239f60008301846120d5565b92915050565b60006040820190506123ba60008301856120d5565b6123c760208301846120d5565b9392505050565b60006123d86123e9565b90506123e4828261251e565b919050565b6000604051905090565b600067ffffffffffffffff82111561240e5761240d61257e565b5b612417826125c1565b9050602081019050919050565b600081519050919050565b600081519050919050565b600081905092915050565b600082825260208201905092915050565b6000612461826124d2565b915061246c836124d2565b92508282101561247f5761247e61254f565b5b828203905092915050565b6000612495826124b2565b9050919050565b60008115159050919050565b6000819050919050565b600073ffffffffffffffffffffffffffffffffffffffff82169050919050565b6000819050919050565b82818337600083830152505050565b60005b838110156125095780820151818401526020810190506124ee565b83811115612518576000848401525b50505050565b612527826125c1565b810181811067ffffffffffffffff821117156125465761254561257e565b5b80604052505050565b7f4e487b7100000000000000000000000000000000000000000000000000000000600052601160045260246000fd5b7f4e487b7100000000000000000000000000000000000000000000000000000000600052604160045260246000fd5b600080fd5b600080fd5b600080fd5b600080fd5b6000601f19601f8301169050919050565b7f4f776e61626c653a206e6577206f776e657220697320746865207a65726f206160008201527f6464726573730000000000000000000000000000000000000000000000000000602082015250565b7f46756e6374696f6e206d7573742062652063616c6c6564207468726f7567682060008201527f64656c656761746563616c6c0000000000000000000000000000000000000000602082015250565b7f496e73756666696369656e742046756e64730000000000000000000000000000600082015250565b7f46756e6374696f6e206d7573742062652063616c6c6564207468726f7567682060008201527f6163746976652070726f78790000000000000000000000000000000000000000602082015250565b7f496e76616c6964204f6666657200000000000000000000000000000000000000600082015250565b7f555550535570677261646561626c653a206d757374206e6f742062652063616c60008201527f6c6564207468726f7567682064656c656761746563616c6c0000000000000000602082015250565b7f45524331393637557067726164653a20756e737570706f727465642070726f7860008201527f6961626c65555549440000000000000000000000000000000000000000000000602082015250565b7f496e697469616c697a61626c653a20636f6e747261637420697320616c72656160008201527f647920696e697469616c697a6564000000000000000000000000000000000000602082015250565b7f45524331393637557067726164653a206e657720696d706c656d656e7461746960008201527f6f6e206973206e6f742055555053000000000000000000000000000000000000602082015250565b7f496e76616c696420526571756573740000000000000000000000000000000000600082015250565b7f455243313936373a206e657720696d706c656d656e746174696f6e206973206e60008201527f6f74206120636f6e747261637400000000000000000000000000000000000000602082015250565b7f4f776e61626c653a2063616c6c6572206973206e6f7420746865206f776e6572600082015250565b7f416464726573733a2064656c65676174652063616c6c20746f206e6f6e2d636f60008201527f6e74726163740000000000000000000000000000000000000000000000000000602082015250565b7f496e697469616c697a61626c653a20636f6e7472616374206973206e6f74206960008201527f6e697469616c697a696e67000000000000000000000000000000000000000000602082015250565b7f556e2d617574686f72697a656420526571756573740000000000000000000000600082015250565b7f5265656e7472616e637947756172643a207265656e7472616e742063616c6c00600082015250565b6129e78161248a565b81146129f257600080fd5b50565b6129fe8161249c565b8114612a0957600080fd5b50565b612a15816124a8565b8114612a2057600080fd5b50565b612a2c816124d2565b8114612a3757600080fd5b5056fe416464726573733a206c6f772d6c6576656c2064656c65676174652063616c6c206661696c6564a2646970667358221220e48961b02259e832582748bfdf6bfeb08b8dee2231f0c0accb059b06d1a4139764736f6c63430008070033",
  "linkReferences": {},
  "deployedLinkReferences": {}
}