{
  "_format": "hh-sol-artifact-1",
  "contractName": "Exchange",
  "sourceName": "contracts/v3/Exchange.sol",
  "abi": [
    {
      "anonymous": false,
      "inputs": [],
      "name": "OfferAccepted",
      "type": "event"
    },
    {
      "anonymous": false,
      "inputs": [],
      "name": "OfferCancelled",
      "type": "event"
    },
    {
      "anonymous": false,
      "inputs": [],
      "name": "OfferMade",
      "type": "event"
    },
    {
      "anonymous": false,
      "inputs": [
        {
          "indexed": true,
          "internalType": "address",
          "name": "previousOwner",
          "type": "address"
        },
        {
          "indexed": true,
          "internalType": "address",
          "name": "newOwner",
          "type": "address"
        }
      ],
      "name": "OwnershipTransferred",
      "type": "event"
    },
    {
      "anonymous": false,
      "inputs": [
        {
          "indexed": true,
          "internalType": "address",
          "name": "implementation",
          "type": "address"
        }
      ],
      "name": "Upgraded",
      "type": "event"
    },
    {
      "inputs": [
        {
          "internalType": "address",
          "name": "bookAddress",
          "type": "address"
        },
        {
          "internalType": "uint256",
          "name": "copyUid",
          "type": "uint256"
        }
      ],
      "name": "cancelOffer",
      "outputs": [],
      "stateMutability": "payable",
      "type": "function"
    },
    {
      "inputs": [],
      "name": "initialize",
      "outputs": [],
      "stateMutability": "nonpayable",
      "type": "function"
    },
    {
      "inputs": [
        {
          "internalType": "address",
          "name": "bookAddress",
          "type": "address"
        },
        {
          "internalType": "uint256",
          "name": "copyUid",
          "type": "uint256"
        },
        {
          "internalType": "uint256",
          "name": "offerPrice",
          "type": "uint256"
        }
      ],
      "name": "makeOffer",
      "outputs": [],
      "stateMutability": "payable",
      "type": "function"
    },
    {
      "inputs": [
        {
          "internalType": "address",
          "name": "bookAddress",
          "type": "address"
        },
        {
          "internalType": "uint256",
          "name": "copyUid",
          "type": "uint256"
        },
        {
          "internalType": "address",
          "name": "buyer",
          "type": "address"
        }
      ],
      "name": "offerAccepted",
      "outputs": [],
      "stateMutability": "payable",
      "type": "function"
    },
    {
      "inputs": [],
      "name": "owner",
      "outputs": [
        {
          "internalType": "address",
          "name": "",
          "type": "address"
        }
      ],
      "stateMutability": "view",
      "type": "function"
    },
    {
      "inputs": [],
      "name": "proxiableUUID",
      "outputs": [
        {
          "internalType": "bytes32",
          "name": "",
          "type": "bytes32"
        }
      ],
      "stateMutability": "view",
      "type": "function"
    },
    {
      "inputs": [],
      "name": "renounceOwnership",
      "outputs": [],
      "stateMutability": "nonpayable",
      "type": "function"
    },
    {
      "inputs": [
        {
          "internalType": "address",
          "name": "newOwner",
          "type": "address"
        }
      ],
      "name": "transferOwnership",
      "outputs": [],
      "stateMutability": "nonpayable",
      "type": "function"
    },
    {
      "inputs": [
        {
          "internalType": "address",
          "name": "newImplementation",
          "type": "address"
        }
      ],
      "name": "upgradeTo",
      "outputs": [],
      "stateMutability": "nonpayable",
      "type": "function"
    },
    {
      "inputs": [
        {
          "internalType": "address",
          "name": "newImplementation",
          "type": "address"
        },
        {
          "internalType": "bytes",
          "name": "data",
          "type": "bytes"
        }
      ],
      "name": "upgradeToAndCall",
      "outputs": [],
      "stateMutability": "payable",
      "type": "function"
    }
  ],
  "bytecode": "0x60a06040523073ffffffffffffffffffffffffffffffffffffffff1660809073ffffffffffffffffffffffffffffffffffffffff1660601b81525034801561004657600080fd5b5060805160601c6129c161008160003960008181610869015281816108f8015281816109f201528181610a810152610b3101526129c16000f3fe6080604052600436106100915760003560e01c8063715018a611610059578063715018a61461013e5780637de3bd07146101555780638129fc1c146101715780638da5cb5b14610188578063f2fde38b146101b357610091565b8063058a56ac1461009657806315241f21146100b25780633659cfe6146100ce5780634f1ef286146100f757806352d1902d14610113575b600080fd5b6100b060048036038101906100ab9190611c21565b6101dc565b005b6100cc60048036038101906100c79190611c61565b6104a4565b005b3480156100da57600080fd5b506100f560048036038101906100f09190611b6b565b610867565b005b610111600480360381019061010c9190611bc5565b6109f0565b005b34801561011f57600080fd5b50610128610b2d565b60405161013591906120a0565b60405180910390f35b34801561014a57600080fd5b50610153610be6565b005b61016f600480360381019061016a9190611cb4565b610c6e565b005b34801561017d57600080fd5b50610186610fbf565b005b34801561019457600080fd5b5061019d6110bb565b6040516101aa919061204e565b60405180910390f35b3480156101bf57600080fd5b506101da60048036038101906101d59190611b6b565b6110e5565b005b60026001541415610222576040517f08c379a0000000000000000000000000000000000000000000000000000000008152600401610219906122bd565b60405180910390fd5b60026001819055508173ffffffffffffffffffffffffffffffffffffffff1663f8fbea34338360006040518463ffffffff1660e01b815260040161026893929190612069565b60206040518083038186803b15801561028057600080fd5b505afa158015610294573d6000803e3d6000fd5b505050506040513d601f19601f820116820180604052508101906102b89190611d07565b156102f8576040517f08c379a00000000000000000000000000000000000000000000000000000000081526004016102ef906121fd565b60405180910390fd5b600060fb60008473ffffffffffffffffffffffffffffffffffffffff1673ffffffffffffffffffffffffffffffffffffffff168152602001908152602001600020600083815260200190815260200160002060003373ffffffffffffffffffffffffffffffffffffffff1673ffffffffffffffffffffffffffffffffffffffff168152602001908152602001600020549050600081111561046c5760fb60008473ffffffffffffffffffffffffffffffffffffffff1673ffffffffffffffffffffffffffffffffffffffff168152602001908152602001600020600083815260200190815260200160002060003373ffffffffffffffffffffffffffffffffffffffff1673ffffffffffffffffffffffffffffffffffffffff168152602001908152602001600020600090553373ffffffffffffffffffffffffffffffffffffffff166108fc829081150290604051600060405180830381858888f1935050505015801561046a573d6000803e3d6000fd5b505b7f96970464f8e6a0c8618bddab158a03ff2237777e46a2ba94cd2fb0be363c613d60405160405180910390a150600180819055505050565b600260015414156104ea576040517f08c379a00000000000000000000000000000000000000000000000000000000081526004016104e1906122bd565b60405180910390fd5b600260018190555060008390503373ffffffffffffffffffffffffffffffffffffffff168173ffffffffffffffffffffffffffffffffffffffff166256856a856040518263ffffffff1660e01b815260040161054691906122dd565b60206040518083038186803b15801561055e57600080fd5b505afa158015610572573d6000803e3d6000fd5b505050506040513d601f19601f820116820180604052508101906105969190611b98565b73ffffffffffffffffffffffffffffffffffffffff16146105ec576040517f08c379a00000000000000000000000000000000000000000000000000000000081526004016105e39061229d565b60405180910390fd5b8073ffffffffffffffffffffffffffffffffffffffff1663f8fbea34838560006040518463ffffffff1660e01b815260040161062a93929190612069565b60206040518083038186803b15801561064257600080fd5b505afa158015610656573d6000803e3d6000fd5b505050506040513d601f19601f8201168201806040525081019061067a9190611d07565b6106b9576040517f08c379a00000000000000000000000000000000000000000000000000000000081526004016106b0906121fd565b60405180910390fd5b600060fb60008673ffffffffffffffffffffffffffffffffffffffff1673ffffffffffffffffffffffffffffffffffffffff168152602001908152602001600020600085815260200190815260200160002060008473ffffffffffffffffffffffffffffffffffffffff1673ffffffffffffffffffffffffffffffffffffffff168152602001908152602001600020549050600081111561082d5760fb60008673ffffffffffffffffffffffffffffffffffffffff1673ffffffffffffffffffffffffffffffffffffffff168152602001908152602001600020600085815260200190815260200160002060008473ffffffffffffffffffffffffffffffffffffffff1673ffffffffffffffffffffffffffffffffffffffff168152602001908152602001600020600090553373ffffffffffffffffffffffffffffffffffffffff166108fc829081150290604051600060405180830381858888f1935050505015801561082b573d6000803e3d6000fd5b505b7f929c471657a0aa46626c8c875ca8282d10f78ebc475958a8b6d107d09a1acb3160405160405180910390a1505060018081905550505050565b7f000000000000000000000000000000000000000000000000000000000000000073ffffffffffffffffffffffffffffffffffffffff163073ffffffffffffffffffffffffffffffffffffffff1614156108f6576040517f08c379a00000000000000000000000000000000000000000000000000000000081526004016108ed906120fd565b60405180910390fd5b7f000000000000000000000000000000000000000000000000000000000000000073ffffffffffffffffffffffffffffffffffffffff166109356111dd565b73ffffffffffffffffffffffffffffffffffffffff161461098b576040517f08c379a00000000000000000000000000000000000000000000000000000000081526004016109829061213d565b60405180910390fd5b61099481611234565b6109ed81600067ffffffffffffffff8111156109b3576109b26124a8565b5b6040519080825280601f01601f1916602001820160405280156109e55781602001600182028036833780820191505090505b5060006112b3565b50565b7f000000000000000000000000000000000000000000000000000000000000000073ffffffffffffffffffffffffffffffffffffffff163073ffffffffffffffffffffffffffffffffffffffff161415610a7f576040517f08c379a0000000000000000000000000000000000000000000000000000000008152600401610a76906120fd565b60405180910390fd5b7f000000000000000000000000000000000000000000000000000000000000000073ffffffffffffffffffffffffffffffffffffffff16610abe6111dd565b73ffffffffffffffffffffffffffffffffffffffff1614610b14576040517f08c379a0000000000000000000000000000000000000000000000000000000008152600401610b0b9061213d565b60405180910390fd5b610b1d82611234565b610b29828260016112b3565b5050565b60007f000000000000000000000000000000000000000000000000000000000000000073ffffffffffffffffffffffffffffffffffffffff163073ffffffffffffffffffffffffffffffffffffffff1614610bbd576040517f08c379a0000000000000000000000000000000000000000000000000000000008152600401610bb49061217d565b60405180910390fd5b7f360894a13ba1a3210667c828492db98dca3e2076cc3735a920a3ca505d382bbc60001b905090565b610bee611430565b73ffffffffffffffffffffffffffffffffffffffff16610c0c6110bb565b73ffffffffffffffffffffffffffffffffffffffff1614610c62576040517f08c379a0000000000000000000000000000000000000000000000000000000008152600401610c599061223d565b60405180910390fd5b610c6c6000611438565b565b60026001541415610cb4576040517f08c379a0000000000000000000000000000000000000000000000000000000008152600401610cab906122bd565b60405180910390fd5b600260018190555080341015610cff576040517f08c379a0000000000000000000000000000000000000000000000000000000008152600401610cf69061211d565b60405180910390fd5b8273ffffffffffffffffffffffffffffffffffffffff1663f8fbea34338460006040518463ffffffff1660e01b8152600401610d3d93929190612069565b60206040518083038186803b158015610d5557600080fd5b505afa158015610d69573d6000803e3d6000fd5b505050506040513d601f19601f82011682018060405250810190610d8d9190611d07565b15610dcd576040517f08c379a0000000000000000000000000000000000000000000000000000000008152600401610dc4906121fd565b60405180910390fd5b60fb60008473ffffffffffffffffffffffffffffffffffffffff1673ffffffffffffffffffffffffffffffffffffffff168152602001908152602001600020600083815260200190815260200160002060003373ffffffffffffffffffffffffffffffffffffffff1673ffffffffffffffffffffffffffffffffffffffff168152602001908152602001600020548111610e9c576040517f08c379a0000000000000000000000000000000000000000000000000000000008152600401610e939061215d565b60405180910390fd5b8060fb60008573ffffffffffffffffffffffffffffffffffffffff1673ffffffffffffffffffffffffffffffffffffffff168152602001908152602001600020600084815260200190815260200160002060003373ffffffffffffffffffffffffffffffffffffffff1673ffffffffffffffffffffffffffffffffffffffff168152602001908152602001600020819055503373ffffffffffffffffffffffffffffffffffffffff166108fc610f5b83346114fe90919063ffffffff16565b9081150290604051600060405180830381858888f19350505050158015610f86573d6000803e3d6000fd5b507f8ed840714cde366a6b894753bc129cb5ccaff7983044575926f22319714a178760405160405180910390a160018081905550505050565b600060019054906101000a900460ff16610fe75760008054906101000a900460ff1615610ff0565b610fef611514565b5b61102f576040517f08c379a0000000000000000000000000000000000000000000000000000000008152600401611026906121bd565b60405180910390fd5b60008060019054906101000a900460ff16159050801561107f576001600060016101000a81548160ff02191690831515021790555060016000806101000a81548160ff0219169083151502179055505b611087611525565b61108f61157e565b6110976115df565b80156110b85760008060016101000a81548160ff0219169083151502179055505b50565b600060c960009054906101000a900473ffffffffffffffffffffffffffffffffffffffff16905090565b6110ed611430565b73ffffffffffffffffffffffffffffffffffffffff1661110b6110bb565b73ffffffffffffffffffffffffffffffffffffffff1614611161576040517f08c379a00000000000000000000000000000000000000000000000000000000081526004016111589061223d565b60405180910390fd5b600073ffffffffffffffffffffffffffffffffffffffff168173ffffffffffffffffffffffffffffffffffffffff1614156111d1576040517f08c379a00000000000000000000000000000000000000000000000000000000081526004016111c8906120dd565b60405180910390fd5b6111da81611438565b50565b600061120b7f360894a13ba1a3210667c828492db98dca3e2076cc3735a920a3ca505d382bbc60001b611640565b60000160009054906101000a900473ffffffffffffffffffffffffffffffffffffffff16905090565b61123c611430565b73ffffffffffffffffffffffffffffffffffffffff1661125a6110bb565b73ffffffffffffffffffffffffffffffffffffffff16146112b0576040517f08c379a00000000000000000000000000000000000000000000000000000000081526004016112a79061223d565b60405180910390fd5b50565b6112df7f4910fdfa16fed3260ed0e7147f7cc6da11a60208b5b9406d12a635614ffd914360001b61164a565b60000160009054906101000a900460ff1615611303576112fe83611654565b61142b565b8273ffffffffffffffffffffffffffffffffffffffff166352d1902d6040518163ffffffff1660e01b815260040160206040518083038186803b15801561134957600080fd5b505afa92505050801561137a57506040513d601f19601f820116820180604052508101906113779190611d34565b60015b6113b9576040517f08c379a00000000000000000000000000000000000000000000000000000000081526004016113b0906121dd565b60405180910390fd5b7f360894a13ba1a3210667c828492db98dca3e2076cc3735a920a3ca505d382bbc60001b811461141e576040517f08c379a00000000000000000000000000000000000000000000000000000000081526004016114159061219d565b60405180910390fd5b5061142a83838361170d565b5b505050565b600033905090565b600060c960009054906101000a900473ffffffffffffffffffffffffffffffffffffffff1690508160c960006101000a81548173ffffffffffffffffffffffffffffffffffffffff021916908373ffffffffffffffffffffffffffffffffffffffff1602179055508173ffffffffffffffffffffffffffffffffffffffff168173ffffffffffffffffffffffffffffffffffffffff167f8be0079c531659141344cd1fd0a4f28419497f9722a3daafe3b4186f6b6457e060405160405180910390a35050565b6000818361150c9190612380565b905092915050565b600061151f30611739565b15905090565b600060019054906101000a900460ff16611574576040517f08c379a000000000000000000000000000000000000000000000000000000000815260040161156b9061227d565b60405180910390fd5b61157c61174c565b565b600060019054906101000a900460ff166115cd576040517f08c379a00000000000000000000000000000000000000000000000000000000081526004016115c49061227d565b60405180910390fd5b6115d56117a4565b6115dd6117f5565b565b600060019054906101000a900460ff1661162e576040517f08c379a00000000000000000000000000000000000000000000000000000000081526004016116259061227d565b60405180910390fd5b611636611846565b61163e611897565b565b6000819050919050565b6000819050919050565b61165d81611739565b61169c576040517f08c379a00000000000000000000000000000000000000000000000000000000081526004016116939061221d565b60405180910390fd5b806116c97f360894a13ba1a3210667c828492db98dca3e2076cc3735a920a3ca505d382bbc60001b611640565b60000160006101000a81548173ffffffffffffffffffffffffffffffffffffffff021916908373ffffffffffffffffffffffffffffffffffffffff16021790555050565b611716836118f8565b6000825111806117235750805b15611734576117328383611947565b505b505050565b600080823b905060008111915050919050565b600060019054906101000a900460ff1661179b576040517f08c379a00000000000000000000000000000000000000000000000000000000081526004016117929061227d565b60405180910390fd5b60018081905550565b600060019054906101000a900460ff166117f3576040517f08c379a00000000000000000000000000000000000000000000000000000000081526004016117ea9061227d565b60405180910390fd5b565b600060019054906101000a900460ff16611844576040517f08c379a000000000000000000000000000000000000000000000000000000000815260040161183b9061227d565b60405180910390fd5b565b600060019054906101000a900460ff16611895576040517f08c379a000000000000000000000000000000000000000000000000000000000815260040161188c9061227d565b60405180910390fd5b565b600060019054906101000a900460ff166118e6576040517f08c379a00000000000000000000000000000000000000000000000000000000081526004016118dd9061227d565b60405180910390fd5b6118f66118f1611430565b611438565b565b61190181611654565b8073ffffffffffffffffffffffffffffffffffffffff167fbc7cd75a20ee27fd9adebab32041f755214dbc6bffa90cc0225b39da2e5c2d3b60405160405180910390a250565b606061195283611739565b611991576040517f08c379a00000000000000000000000000000000000000000000000000000000081526004016119889061225d565b60405180910390fd5b6000808473ffffffffffffffffffffffffffffffffffffffff16846040516119b99190612037565b600060405180830381855af49150503d80600081146119f4576040519150601f19603f3d011682016040523d82523d6000602084013e6119f9565b606091505b5091509150611a21828260405180606001604052806027815260200161296560279139611a2b565b9250505092915050565b60608315611a3b57829050611a8b565b600083511115611a4e5782518084602001fd5b816040517f08c379a0000000000000000000000000000000000000000000000000000000008152600401611a8291906120bb565b60405180910390fd5b9392505050565b6000611aa5611aa08461231d565b6122f8565b905082815260208101848484011115611ac157611ac06124dc565b5b611acc848285612406565b509392505050565b600081359050611ae381612908565b92915050565b600081519050611af881612908565b92915050565b600081519050611b0d8161291f565b92915050565b600081519050611b2281612936565b92915050565b600082601f830112611b3d57611b3c6124d7565b5b8135611b4d848260208601611a92565b91505092915050565b600081359050611b658161294d565b92915050565b600060208284031215611b8157611b806124e6565b5b6000611b8f84828501611ad4565b91505092915050565b600060208284031215611bae57611bad6124e6565b5b6000611bbc84828501611ae9565b91505092915050565b60008060408385031215611bdc57611bdb6124e6565b5b6000611bea85828601611ad4565b925050602083013567ffffffffffffffff811115611c0b57611c0a6124e1565b5b611c1785828601611b28565b9150509250929050565b60008060408385031215611c3857611c376124e6565b5b6000611c4685828601611ad4565b9250506020611c5785828601611b56565b9150509250929050565b600080600060608486031215611c7a57611c796124e6565b5b6000611c8886828701611ad4565b9350506020611c9986828701611b56565b9250506040611caa86828701611ad4565b9150509250925092565b600080600060608486031215611ccd57611ccc6124e6565b5b6000611cdb86828701611ad4565b9350506020611cec86828701611b56565b9250506040611cfd86828701611b56565b9150509250925092565b600060208284031215611d1d57611d1c6124e6565b5b6000611d2b84828501611afe565b91505092915050565b600060208284031215611d4a57611d496124e6565b5b6000611d5884828501611b13565b91505092915050565b611d6a816123b4565b82525050565b611d79816123c6565b82525050565b611d88816123d2565b82525050565b6000611d998261234e565b611da38185612364565b9350611db3818560208601612415565b80840191505092915050565b6000611dca82612359565b611dd4818561236f565b9350611de4818560208601612415565b611ded816124eb565b840191505092915050565b6000611e0560268361236f565b9150611e10826124fc565b604082019050919050565b6000611e28602c8361236f565b9150611e338261254b565b604082019050919050565b6000611e4b60128361236f565b9150611e568261259a565b602082019050919050565b6000611e6e602c8361236f565b9150611e79826125c3565b604082019050919050565b6000611e91600d8361236f565b9150611e9c82612612565b602082019050919050565b6000611eb460388361236f565b9150611ebf8261263b565b604082019050919050565b6000611ed760298361236f565b9150611ee28261268a565b604082019050919050565b6000611efa602e8361236f565b9150611f05826126d9565b604082019050919050565b6000611f1d602e8361236f565b9150611f2882612728565b604082019050919050565b6000611f40600f8361236f565b9150611f4b82612777565b602082019050919050565b6000611f63602d8361236f565b9150611f6e826127a0565b604082019050919050565b6000611f8660208361236f565b9150611f91826127ef565b602082019050919050565b6000611fa960268361236f565b9150611fb482612818565b604082019050919050565b6000611fcc602b8361236f565b9150611fd782612867565b604082019050919050565b6000611fef60158361236f565b9150611ffa826128b6565b602082019050919050565b6000612012601f8361236f565b915061201d826128df565b602082019050919050565b612031816123fc565b82525050565b60006120438284611d8e565b915081905092915050565b60006020820190506120636000830184611d61565b92915050565b600060608201905061207e6000830186611d61565b61208b6020830185612028565b6120986040830184611d70565b949350505050565b60006020820190506120b56000830184611d7f565b92915050565b600060208201905081810360008301526120d58184611dbf565b905092915050565b600060208201905081810360008301526120f681611df8565b9050919050565b6000602082019050818103600083015261211681611e1b565b9050919050565b6000602082019050818103600083015261213681611e3e565b9050919050565b6000602082019050818103600083015261215681611e61565b9050919050565b6000602082019050818103600083015261217681611e84565b9050919050565b6000602082019050818103600083015261219681611ea7565b9050919050565b600060208201905081810360008301526121b681611eca565b9050919050565b600060208201905081810360008301526121d681611eed565b9050919050565b600060208201905081810360008301526121f681611f10565b9050919050565b6000602082019050818103600083015261221681611f33565b9050919050565b6000602082019050818103600083015261223681611f56565b9050919050565b6000602082019050818103600083015261225681611f79565b9050919050565b6000602082019050818103600083015261227681611f9c565b9050919050565b6000602082019050818103600083015261229681611fbf565b9050919050565b600060208201905081810360008301526122b681611fe2565b9050919050565b600060208201905081810360008301526122d681612005565b9050919050565b60006020820190506122f26000830184612028565b92915050565b6000612302612313565b905061230e8282612448565b919050565b6000604051905090565b600067ffffffffffffffff821115612338576123376124a8565b5b612341826124eb565b9050602081019050919050565b600081519050919050565b600081519050919050565b600081905092915050565b600082825260208201905092915050565b600061238b826123fc565b9150612396836123fc565b9250828210156123a9576123a8612479565b5b828203905092915050565b60006123bf826123dc565b9050919050565b60008115159050919050565b6000819050919050565b600073ffffffffffffffffffffffffffffffffffffffff82169050919050565b6000819050919050565b82818337600083830152505050565b60005b83811015612433578082015181840152602081019050612418565b83811115612442576000848401525b50505050565b612451826124eb565b810181811067ffffffffffffffff821117156124705761246f6124a8565b5b80604052505050565b7f4e487b7100000000000000000000000000000000000000000000000000000000600052601160045260246000fd5b7f4e487b7100000000000000000000000000000000000000000000000000000000600052604160045260246000fd5b600080fd5b600080fd5b600080fd5b600080fd5b6000601f19601f8301169050919050565b7f4f776e61626c653a206e6577206f776e657220697320746865207a65726f206160008201527f6464726573730000000000000000000000000000000000000000000000000000602082015250565b7f46756e6374696f6e206d7573742062652063616c6c6564207468726f7567682060008201527f64656c656761746563616c6c0000000000000000000000000000000000000000602082015250565b7f496e73756666696369656e742046756e64730000000000000000000000000000600082015250565b7f46756e6374696f6e206d7573742062652063616c6c6564207468726f7567682060008201527f6163746976652070726f78790000000000000000000000000000000000000000602082015250565b7f496e76616c6964204f6666657200000000000000000000000000000000000000600082015250565b7f555550535570677261646561626c653a206d757374206e6f742062652063616c60008201527f6c6564207468726f7567682064656c656761746563616c6c0000000000000000602082015250565b7f45524331393637557067726164653a20756e737570706f727465642070726f7860008201527f6961626c65555549440000000000000000000000000000000000000000000000602082015250565b7f496e697469616c697a61626c653a20636f6e747261637420697320616c72656160008201527f647920696e697469616c697a6564000000000000000000000000000000000000602082015250565b7f45524331393637557067726164653a206e657720696d706c656d656e7461746960008201527f6f6e206973206e6f742055555053000000000000000000000000000000000000602082015250565b7f496e76616c696420526571756573740000000000000000000000000000000000600082015250565b7f455243313936373a206e657720696d706c656d656e746174696f6e206973206e60008201527f6f74206120636f6e747261637400000000000000000000000000000000000000602082015250565b7f4f776e61626c653a2063616c6c6572206973206e6f7420746865206f776e6572600082015250565b7f416464726573733a2064656c65676174652063616c6c20746f206e6f6e2d636f60008201527f6e74726163740000000000000000000000000000000000000000000000000000602082015250565b7f496e697469616c697a61626c653a20636f6e7472616374206973206e6f74206960008201527f6e697469616c697a696e67000000000000000000000000000000000000000000602082015250565b7f556e2d617574686f72697a656420526571756573740000000000000000000000600082015250565b7f5265656e7472616e637947756172643a207265656e7472616e742063616c6c00600082015250565b612911816123b4565b811461291c57600080fd5b50565b612928816123c6565b811461293357600080fd5b50565b61293f816123d2565b811461294a57600080fd5b50565b612956816123fc565b811461296157600080fd5b5056fe416464726573733a206c6f772d6c6576656c2064656c65676174652063616c6c206661696c6564a26469706673582212205a5d7fa60946e89c7f0d46f1809386195e24547e431b64a9294877fd6315362564736f6c63430008070033",
  "linkReferences": {},
  "deployedLinkReferences": {}
}