{
  "_format": "hh-sol-artifact-1",
  "contractName": "Profile",
  "sourceName": "contracts/v3/Profile.sol",
  "abi": [
    {
      "anonymous": false,
      "inputs": [
        {
          "indexed": true,
          "internalType": "address",
          "name": "contributorAddress",
          "type": "address"
        },
        {
          "indexed": false,
          "internalType": "string",
          "name": "profileMetadataUri",
          "type": "string"
        }
      ],
      "name": "ContributorProfileUpdated",
      "type": "event"
    },
    {
      "anonymous": false,
      "inputs": [
        {
          "indexed": true,
          "internalType": "address",
          "name": "readerAddress",
          "type": "address"
        },
        {
          "indexed": false,
          "internalType": "string",
          "name": "profileMetadataUri",
          "type": "string"
        }
      ],
      "name": "ReaderProfileUpdated",
      "type": "event"
    },
    {
      "inputs": [
        {
          "internalType": "string",
          "name": "profileMetadataUri",
          "type": "string"
        }
      ],
      "name": "updateContributorProfile",
      "outputs": [],
      "stateMutability": "nonpayable",
      "type": "function"
    },
    {
      "inputs": [
        {
          "internalType": "string",
          "name": "profileMetadataUri",
          "type": "string"
        }
      ],
      "name": "updateReaderProfile",
      "outputs": [],
      "stateMutability": "nonpayable",
      "type": "function"
    }
  ],
  "bytecode": "0x608060405234801561001057600080fd5b506001600081905550610398806100286000396000f3fe608060405234801561001057600080fd5b50600436106100365760003560e01c806321e37c7b1461003b578063618874e314610057575b600080fd5b61005560048036038101906100509190610185565b610073565b005b610071600480360381019061006c9190610185565b6100c4565b005b3373ffffffffffffffffffffffffffffffffffffffff167fa24607e51fd5e2351918389ac63eb6085186650c37cd4c15ebf2c691a99fd719826040516100b99190610207565b60405180910390a250565b3373ffffffffffffffffffffffffffffffffffffffff167fe1e5204ed33e5847acae9b30a85abc669ac46e8ab9aee3a406670a6e4e7d43658260405161010a9190610207565b60405180910390a250565b60006101286101238461024e565b610229565b90508281526020810184848401111561014457610143610342565b5b61014f84828561029b565b509392505050565b600082601f83011261016c5761016b61033d565b5b813561017c848260208601610115565b91505092915050565b60006020828403121561019b5761019a61034c565b5b600082013567ffffffffffffffff8111156101b9576101b8610347565b5b6101c584828501610157565b91505092915050565b60006101d98261027f565b6101e3818561028a565b93506101f38185602086016102aa565b6101fc81610351565b840191505092915050565b6000602082019050818103600083015261022181846101ce565b905092915050565b6000610233610244565b905061023f82826102dd565b919050565b6000604051905090565b600067ffffffffffffffff8211156102695761026861030e565b5b61027282610351565b9050602081019050919050565b600081519050919050565b600082825260208201905092915050565b82818337600083830152505050565b60005b838110156102c85780820151818401526020810190506102ad565b838111156102d7576000848401525b50505050565b6102e682610351565b810181811067ffffffffffffffff821117156103055761030461030e565b5b80604052505050565b7f4e487b7100000000000000000000000000000000000000000000000000000000600052604160045260246000fd5b600080fd5b600080fd5b600080fd5b600080fd5b6000601f19601f830116905091905056fea2646970667358221220da68092259b1ebb852d50ffe0871f29966a5f278dd89b4c9f35ad7211753c59264736f6c63430008070033",
  "linkReferences": {},
  "deployedLinkReferences": {}
}