{
  "_format": "hh-sol-artifact-1",
  "contractName": "Publisher",
  "sourceName": "contracts/v3/Publisher.sol",
  "abi": [
    {
      "inputs": [],
      "stateMutability": "nonpayable",
      "type": "constructor"
    },
    {
      "anonymous": false,
      "inputs": [
        {
          "indexed": false,
          "internalType": "uint256",
          "name": "bookId",
          "type": "uint256"
        },
        {
          "indexed": true,
          "internalType": "address",
          "name": "publisher",
          "type": "address"
        },
        {
          "indexed": false,
          "internalType": "string",
          "name": "metadataUri",
          "type": "string"
        },
        {
          "indexed": false,
          "internalType": "string",
          "name": "coverPageUri",
          "type": "string"
        },
        {
          "indexed": false,
          "internalType": "uint256",
          "name": "price",
          "type": "uint256"
        },
        {
          "indexed": false,
          "internalType": "uint256",
          "name": "royalty",
          "type": "uint256"
        },
        {
          "indexed": false,
          "internalType": "uint256",
          "name": "edition",
          "type": "uint256"
        },
        {
          "indexed": false,
          "internalType": "uint256",
          "name": "prequel",
          "type": "uint256"
        },
        {
          "indexed": false,
          "internalType": "bool",
          "name": "supplyLimited",
          "type": "bool"
        },
        {
          "indexed": false,
          "internalType": "uint256",
          "name": "pricedBookSupplyLimit",
          "type": "uint256"
        },
        {
          "indexed": true,
          "internalType": "address",
          "name": "bookAddress",
          "type": "address"
        }
      ],
      "name": "BookPublished",
      "type": "event"
    },
    {
      "inputs": [
        {
          "internalType": "uint256",
          "name": "bookId",
          "type": "uint256"
        }
      ],
      "name": "getBookAddress",
      "outputs": [
        {
          "internalType": "address",
          "name": "",
          "type": "address"
        }
      ],
      "stateMutability": "view",
      "type": "function"
    },
    {
      "inputs": [
        {
          "internalType": "string",
          "name": "uri",
          "type": "string"
        },
        {
          "internalType": "string",
          "name": "metadataUri",
          "type": "string"
        },
        {
          "internalType": "string",
          "name": "coverPageUri",
          "type": "string"
        },
        {
          "internalType": "uint256",
          "name": "price",
          "type": "uint256"
        },
        {
          "internalType": "uint256",
          "name": "royalty",
          "type": "uint256"
        },
        {
          "internalType": "uint256",
          "name": "edition",
          "type": "uint256"
        },
        {
          "internalType": "uint256",
          "name": "prequel",
          "type": "uint256"
        },
        {
          "internalType": "bool",
          "name": "supplyLimited",
          "type": "bool"
        },
        {
          "internalType": "uint256",
          "name": "pricedBookSupplyLimit",
          "type": "uint256"
        }
      ],
      "name": "publish",
      "outputs": [],
      "stateMutability": "nonpayable",
      "type": "function"
    }
  ],
  "bytecode": "0x608060405234801561001057600080fd5b50610025600061002a60201b61025d1760201c565b6100d8565b600181600001600082825461003f9190610049565b9250508190555050565b60006100548261009f565b915061005f8361009f565b9250827fffffffffffffffffffffffffffffffffffffffffffffffffffffffffffffffff03821115610094576100936100a9565b5b828201905092915050565b6000819050919050565b7f4e487b7100000000000000000000000000000000000000000000000000000000600052601160045260246000fd5b615dae806100e76000396000f3fe608060405234801561001057600080fd5b50600436106100365760003560e01c80636016bb771461003b578063c87913c01461006b575b600080fd5b6100556004803603810190610050919061044f565b610087565b60405161006291906104e2565b60405180910390f35b61008560048036038101906100809190610331565b6100c4565b005b60006001600083815260200190815260200160002060009054906101000a900473ffffffffffffffffffffffffffffffffffffffff169050919050565b60006040516100d29061028a565b604051809103906000f0801580156100ee573d6000803e3d6000fd5b50905060006100fd600061027c565b90508173ffffffffffffffffffffffffffffffffffffffff1663c541ce0a828d8b8b888a336040518863ffffffff1660e01b81526004016101449796959493929190610598565b600060405180830381600087803b15801561015e57600080fd5b505af1158015610172573d6000803e3d6000fd5b505050508160016000610185600061027c565b815260200190815260200160002060006101000a81548173ffffffffffffffffffffffffffffffffffffffff021916908373ffffffffffffffffffffffffffffffffffffffff1602179055508173ffffffffffffffffffffffffffffffffffffffff163373ffffffffffffffffffffffffffffffffffffffff167fe96511d04f51c6c0c2f3c387aa3d0b162f586f3e6651125e385c4f6603fd5ddd838d8d8d8d8d8d8d8d60405161023e999897969594939291906104fd565b60405180910390a3610250600061025d565b5050505050505050505050565b60018160000160008282546102729190610680565b9250508190555050565b600081600001549050919050565b6155368061084383390190565b60006102aa6102a584610633565b61060e565b9050828152602081018484840111156102c6576102c56107f4565b5b6102d184828561071e565b509392505050565b6000813590506102e881610814565b92915050565b600082601f830112610303576103026107ef565b5b8135610313848260208601610297565b91505092915050565b60008135905061032b8161082b565b92915050565b60008060008060008060008060006101208a8c031215610354576103536107fe565b5b60008a013567ffffffffffffffff811115610372576103716107f9565b5b61037e8c828d016102ee565b99505060208a013567ffffffffffffffff81111561039f5761039e6107f9565b5b6103ab8c828d016102ee565b98505060408a013567ffffffffffffffff8111156103cc576103cb6107f9565b5b6103d88c828d016102ee565b97505060606103e98c828d0161031c565b96505060806103fa8c828d0161031c565b95505060a061040b8c828d0161031c565b94505060c061041c8c828d0161031c565b93505060e061042d8c828d016102d9565b92505061010061043f8c828d0161031c565b9150509295985092959850929598565b600060208284031215610465576104646107fe565b5b60006104738482850161031c565b91505092915050565b610485816106d6565b82525050565b610494816106e8565b82525050565b60006104a582610664565b6104af818561066f565b93506104bf81856020860161072d565b6104c881610803565b840191505092915050565b6104dc81610714565b82525050565b60006020820190506104f7600083018461047c565b92915050565b600061012082019050610513600083018c6104d3565b8181036020830152610525818b61049a565b90508181036040830152610539818a61049a565b905061054860608301896104d3565b61055560808301886104d3565b61056260a08301876104d3565b61056f60c08301866104d3565b61057c60e083018561048b565b61058a6101008301846104d3565b9a9950505050505050505050565b600060e0820190506105ad600083018a6104d3565b81810360208301526105bf818961049a565b90506105ce60408301886104d3565b6105db60608301876104d3565b6105e860808301866104d3565b6105f560a083018561048b565b61060260c083018461047c565b98975050505050505050565b6000610618610629565b90506106248282610760565b919050565b6000604051905090565b600067ffffffffffffffff82111561064e5761064d6107c0565b5b61065782610803565b9050602081019050919050565b600081519050919050565b600082825260208201905092915050565b600061068b82610714565b915061069683610714565b9250827fffffffffffffffffffffffffffffffffffffffffffffffffffffffffffffffff038211156106cb576106ca610791565b5b828201905092915050565b60006106e1826106f4565b9050919050565b60008115159050919050565b600073ffffffffffffffffffffffffffffffffffffffff82169050919050565b6000819050919050565b82818337600083830152505050565b60005b8381101561074b578082015181840152602081019050610730565b8381111561075a576000848401525b50505050565b61076982610803565b810181811067ffffffffffffffff82111715610788576107876107c0565b5b80604052505050565b7f4e487b7100000000000000000000000000000000000000000000000000000000600052601160045260246000fd5b7f4e487b7100000000000000000000000000000000000000000000000000000000600052604160045260246000fd5b600080fd5b600080fd5b600080fd5b600080fd5b6000601f19601f8301169050919050565b61081d816106e8565b811461082857600080fd5b50565b61083481610714565b811461083f57600080fd5b5056fe60a06040523073ffffffffffffffffffffffffffffffffffffffff1660809073ffffffffffffffffffffffffffffffffffffffff1660601b81525034801561004657600080fd5b5060805160601c6154b561008160003960008181610b1d01528181610bac01528181611153015281816111e201526115fc01526154b56000f3fe60806040526004361061019b5760003560e01c806352d1902d116100ec578063b3f3ab5c1161008a578063e7dee62211610064578063e7dee6221461050a578063ea8feae114610533578063f8fbea341461055c578063fa123172146105995761019b565b8063b3f3ab5c1461048f578063c541ce0a146104b8578063de50d399146104e15761019b565b80638d6cc56d116100c65780638d6cc56d146104175780638fffd8b514610440578063a6f2ae3a14610469578063a9059cbb146104735761019b565b806352d1902d14610398578063564b81ef146103c35780636198e339146103ee5761019b565b806333b582c4116101595780634630dd44116101335780634630dd441461032d5780634f1ef286146103495780634f573cb2146103655780635291fcd51461036f5761019b565b806333b582c4146102b05780633659cfe6146102db5780633b8ceba3146103045761019b565b806256856a146101a05780630711a921146101dd5780630c0907bd1461021a5780630e89341c1461024557806321caea25146102825780632ddcb21f14610299575b600080fd5b3480156101ac57600080fd5b506101c760048036038101906101c29190613c05565b6105d6565b6040516101d49190614254565b60405180910390f35b3480156101e957600080fd5b5061020460048036038101906101ff9190613b8f565b610616565b604051610211919061428a565b60405180910390f35b34801561022657600080fd5b5061022f61068e565b60405161023c91906146c8565b60405180910390f35b34801561025157600080fd5b5061026c60048036038101906102679190613c05565b610694565b60405161027991906143a6565b60405180910390f35b34801561028e57600080fd5b5061029761090f565b005b3480156102a557600080fd5b506102ae6109fd565b005b3480156102bc57600080fd5b506102c5610b08565b6040516102d291906146c8565b60405180910390f35b3480156102e757600080fd5b5061030260048036038101906102fd91906139b9565b610b1b565b005b34801561031057600080fd5b5061032b60048036038101906103269190613ad5565b610ca4565b005b61034760048036038101906103429190613b8f565b610e43565b005b610363600480360381019061035e91906139e6565b611151565b005b61036d61128e565b005b34801561037b57600080fd5b5061039660048036038101906103919190613a42565b6114e8565b005b3480156103a457600080fd5b506103ad6115f8565b6040516103ba919061428a565b60405180910390f35b3480156103cf57600080fd5b506103d86116b1565b6040516103e591906146c8565b60405180910390f35b3480156103fa57600080fd5b5061041560048036038101906104109190613c05565b6116b9565b005b34801561042357600080fd5b5061043e60048036038101906104399190613c05565b611843565b005b34801561044c57600080fd5b5061046760048036038101906104629190613c05565b6118e3565b005b610471611983565b005b61048d60048036038101906104889190613a42565b611cdb565b005b34801561049b57600080fd5b506104b660048036038101906104b191906139b9565b611eeb565b005b3480156104c457600080fd5b506104df60048036038101906104da9190613c5f565b6121ac565b005b3480156104ed57600080fd5b5061050860048036038101906105039190613b42565b6123bd565b005b34801561051657600080fd5b50610531600480360381019061052c9190613bd8565b612459565b005b34801561053f57600080fd5b5061055a60048036038101906105559190613c05565b6125da565b005b34801561056857600080fd5b50610583600480360381019061057e9190613a82565b6126dd565b604051610590919061426f565b60405180910390f35b3480156105a557600080fd5b506105c060048036038101906105bb9190613a42565b6127bd565b6040516105cd919061426f565b60405180910390f35b600060d6600083815260200190815260200160002060010160009054906101000a900473ffffffffffffffffffffffffffffffffffffffff169050919050565b60006106877f134298cc09dce2d2d7b546d1489fda5aa6e53acbdf51e00731238ff4f4624d4d8360000135846040013585602001602081019061065991906139b9565b60405160200161066c94939291906142f8565b6040516020818303038152906040528051906020012061282c565b9050919050565b60cd5481565b6060600073ffffffffffffffffffffffffffffffffffffffff1660d6600084815260200190815260200160002060020160009054906101000a900473ffffffffffffffffffffffffffffffffffffffff1673ffffffffffffffffffffffffffffffffffffffff1614801561076957503373ffffffffffffffffffffffffffffffffffffffff1660d6600084815260200190815260200160002060000160009054906101000a900473ffffffffffffffffffffffffffffffffffffffff1673ffffffffffffffffffffffffffffffffffffffff16145b806107d557503373ffffffffffffffffffffffffffffffffffffffff1660d6600084815260200190815260200160002060020160009054906101000a900473ffffffffffffffffffffffffffffffffffffffff1673ffffffffffffffffffffffffffffffffffffffff16145b8061083e57503373ffffffffffffffffffffffffffffffffffffffff1660d7600084815260200190815260200160002060009054906101000a900473ffffffffffffffffffffffffffffffffffffffff1673ffffffffffffffffffffffffffffffffffffffff16145b61087d576040517f08c379a000000000000000000000000000000000000000000000000000000000815260040161087490614668565b60405180910390fd5b60ce805461088a90614ade565b80601f01602080910402602001604051908101604052809291908181526020018280546108b690614ade565b80156109035780601f106108d857610100808354040283529160200191610903565b820191906000526020600020905b8154815290600101906020018083116108e657829003601f168201915b50505050509050919050565b60026099541415610955576040517f08c379a000000000000000000000000000000000000000000000000000000000815260040161094c90614688565b60405180910390fd5b600260998190555060d460009054906101000a900460ff166109ac576040517f08c379a00000000000000000000000000000000000000000000000000000000081526004016109a3906145e8565b60405180910390fd5b600060d460006101000a81548160ff0219169083151502179055507f4fa2ac1dbc3675e431edc4b7ed4ffca41ca041dc9c1f2e0628ba2abb9169af2f60405160405180910390a16001609981905550565b60026099541415610a43576040517f08c379a0000000000000000000000000000000000000000000000000000000008152600401610a3a90614688565b60405180910390fd5b600260998190555060d460009054906101000a900460ff1615610a9b576040517f08c379a0000000000000000000000000000000000000000000000000000000008152600401610a9290614468565b60405180910390fd5b600160d460006101000a81548160ff0219169083151502179055506001610ac260cb612846565b610acc919061492f565b60d3819055507f9315093715d20e383de0fda01168dc80aeea065ffbf08dd364d8e8bc59735f6d60405160405180910390a16001609981905550565b6000610b1333612854565b60d254905090565b7f000000000000000000000000000000000000000000000000000000000000000073ffffffffffffffffffffffffffffffffffffffff163073ffffffffffffffffffffffffffffffffffffffff161415610baa576040517f08c379a0000000000000000000000000000000000000000000000000000000008152600401610ba190614448565b60405180910390fd5b7f000000000000000000000000000000000000000000000000000000000000000073ffffffffffffffffffffffffffffffffffffffff16610be96128e7565b73ffffffffffffffffffffffffffffffffffffffff1614610c3f576040517f08c379a0000000000000000000000000000000000000000000000000000000008152600401610c36906144c8565b60405180910390fd5b610c488161293e565b610ca181600067ffffffffffffffff811115610c6757610c66614c81565b5b6040519080825280601f01601f191660200182016040528015610c995781602001600182028036833780820191505090505b506000612a0b565b50565b60026099541415610cea576040517f08c379a0000000000000000000000000000000000000000000000000000000008152600401610ce190614688565b60405180910390fd5b6002609981905550610cfb33612854565b60005b60d580549050811015610de8578273ffffffffffffffffffffffffffffffffffffffff1660d58281548110610d3657610d35614c52565b5b9060005260206000200160000160009054906101000a900473ffffffffffffffffffffffffffffffffffffffff1673ffffffffffffffffffffffffffffffffffffffff161415610dd5578160d58281548110610d9557610d94614c52565b5b9060005260206000200160000160146101000a8154816bffffffffffffffffffffffff02191690836bffffffffffffffffffffffff160217905550610de8565b8080610de090614b41565b915050610cfe565b508173ffffffffffffffffffffffffffffffffffffffff167fc09cb1458301853977091ab3924778c28e7865fa86acb4bac2bacecc4918fdc682604051610e2f919061470c565b60405180910390a260016099819055505050565b60026099541415610e89576040517f08c379a0000000000000000000000000000000000000000000000000000000008152600401610e8090614688565b60405180910390fd5b60026099819055508060400135341015610ed8576040517f08c379a0000000000000000000000000000000000000000000000000000000008152600401610ecf90614488565b60405180910390fd5b6000610ee382612b88565b90508073ffffffffffffffffffffffffffffffffffffffff1660d460019054906101000a900473ffffffffffffffffffffffffffffffffffffffff1673ffffffffffffffffffffffffffffffffffffffff1614610f75576040517f08c379a0000000000000000000000000000000000000000000000000000000008152600401610f6c906145c8565b60405180910390fd5b3373ffffffffffffffffffffffffffffffffffffffff16826020016020810190610f9f91906139b9565b73ffffffffffffffffffffffffffffffffffffffff1614610ff5576040517f08c379a0000000000000000000000000000000000000000000000000000000008152600401610fec90614588565b60405180910390fd5b81602001602081019061100891906139b9565b60d7600061101660cc612846565b815260200190815260200160002060006101000a81548173ffffffffffffffffffffffffffffffffffffffff021916908373ffffffffffffffffffffffffffffffffffffffff16021790555061106c60cc612bfa565b6110798260400135612c10565b3373ffffffffffffffffffffffffffffffffffffffff166108fc6110aa846040013534612c4990919063ffffffff16565b9081150290604051600060405180830381858888f193505050501580156110d5573d6000803e3d6000fd5b508160200160208101906110e991906139b9565b73ffffffffffffffffffffffffffffffffffffffff167f3f4eb6c3c81657d4e0f5c31e40ceb4ad413ab88ce6bdac4abc25bf9de59a994a61112a60cc612846565b846040013560405161113d9291906146e3565b60405180910390a250600160998190555050565b7f000000000000000000000000000000000000000000000000000000000000000073ffffffffffffffffffffffffffffffffffffffff163073ffffffffffffffffffffffffffffffffffffffff1614156111e0576040517f08c379a00000000000000000000000000000000000000000000000000000000081526004016111d790614448565b60405180910390fd5b7f000000000000000000000000000000000000000000000000000000000000000073ffffffffffffffffffffffffffffffffffffffff1661121f6128e7565b73ffffffffffffffffffffffffffffffffffffffff1614611275576040517f08c379a000000000000000000000000000000000000000000000000000000000815260040161126c906144c8565b60405180910390fd5b61127e8261293e565b61128a82826001612a0b565b5050565b600260995414156112d4576040517f08c379a00000000000000000000000000000000000000000000000000000000081526004016112cb90614688565b60405180910390fd5b60026099819055506112e533612854565b600080600090505b60d5805490508110156113695761135460d5828154811061131157611310614c52565b5b9060005260206000200160000160149054906101000a90046bffffffffffffffffffffffff166bffffffffffffffffffffffff1683612c5f90919063ffffffff16565b9150808061136190614b41565b9150506112ed565b5060006113818260d254612c7590919063ffffffff16565b90506113988260d254612c8b90919063ffffffff16565b60d28190555060005b60d5805490508110156114a25760d581815481106113c2576113c1614c52565b5b9060005260206000200160000160009054906101000a900473ffffffffffffffffffffffffffffffffffffffff1673ffffffffffffffffffffffffffffffffffffffff166108fc61146360d584815481106114205761141f614c52565b5b9060005260206000200160000160149054906101000a90046bffffffffffffffffffffffff166bffffffffffffffffffffffff1685612ca190919063ffffffff16565b9081150290604051600060405180830381858888f1935050505015801561148e573d6000803e3d6000fd5b50808061149a90614b41565b9150506113a1565b507f7254ffd29ae20f1712bea29277015e5953493e93a264d860cdba0840857ec86160d2546040516114d491906146c8565b60405180910390a150506001609981905550565b6002609954141561152e576040517f08c379a000000000000000000000000000000000000000000000000000000000815260040161152590614688565b60405180910390fd5b60026099819055506115403382612cb7565b61154981612d5f565b8160d6600083815260200190815260200160002060020160006101000a81548173ffffffffffffffffffffffffffffffffffffffff021916908373ffffffffffffffffffffffffffffffffffffffff1602179055508173ffffffffffffffffffffffffffffffffffffffff167f06f76e0da7be64239656a001b94c1c4e1893465df2f1ef90edb1e088b0852e69826040516115e491906146c8565b60405180910390a260016099819055505050565b60007f000000000000000000000000000000000000000000000000000000000000000073ffffffffffffffffffffffffffffffffffffffff163073ffffffffffffffffffffffffffffffffffffffff1614611688576040517f08c379a000000000000000000000000000000000000000000000000000000000815260040161167f906144e8565b60405180910390fd5b7f360894a13ba1a3210667c828492db98dca3e2076cc3735a920a3ca505d382bbc60001b905090565b600046905090565b600260995414156116ff576040517f08c379a00000000000000000000000000000000000000000000000000000000081526004016116f690614688565b60405180910390fd5b60026099819055503373ffffffffffffffffffffffffffffffffffffffff1660d6600083815260200190815260200160002060020160009054906101000a900473ffffffffffffffffffffffffffffffffffffffff1673ffffffffffffffffffffffffffffffffffffffff16146117ab576040517f08c379a00000000000000000000000000000000000000000000000000000000081526004016117a290614668565b60405180910390fd5b600060d6600083815260200190815260200160002060020160006101000a81548173ffffffffffffffffffffffffffffffffffffffff021916908373ffffffffffffffffffffffffffffffffffffffff1602179055507f3a7c2a55ffa9ac00869f1a3eb5e3209a949c0690416cad3ca8536b026908a0658160405161183091906146c8565b60405180910390a1600160998190555050565b60026099541415611889576040517f08c379a000000000000000000000000000000000000000000000000000000000815260040161188090614688565b60405180910390fd5b600260998190555061189a33612854565b8060cf819055507f66cbca4f3c64fecf1dcb9ce094abcf7f68c3450a1d4e3a8e917dd621edb4ebe0816040516118d091906146c8565b60405180910390a1600160998190555050565b60026099541415611929576040517f08c379a000000000000000000000000000000000000000000000000000000000815260040161192090614688565b60405180910390fd5b600260998190555061193a33612854565b8060d0819055507f244ea8d7627f5a08f4299862bd5a45752842c183aee5b0fb0d1e4887bfa605b38160405161197091906146c8565b60405180910390a1600160998190555050565b600260995414156119c9576040517f08c379a00000000000000000000000000000000000000000000000000000000081526004016119c090614688565b60405180910390fd5b600260998190555060cf54341015611a16576040517f08c379a0000000000000000000000000000000000000000000000000000000008152600401611a0d90614488565b60405180910390fd5b60d460009054906101000a900460ff1615611a8c57611a486001611a3a60cb612846565b612c4990919063ffffffff16565b60d35411611a8b576040517f08c379a0000000000000000000000000000000000000000000000000000000008152600401611a8290614628565b60405180910390fd5b5b600060405180606001604052803373ffffffffffffffffffffffffffffffffffffffff16815260200160d460019054906101000a900473ffffffffffffffffffffffffffffffffffffffff1673ffffffffffffffffffffffffffffffffffffffff168152602001600073ffffffffffffffffffffffffffffffffffffffff1681525090508060d66000611b1f60cb612846565b815260200190815260200160002060008201518160000160006101000a81548173ffffffffffffffffffffffffffffffffffffffff021916908373ffffffffffffffffffffffffffffffffffffffff16021790555060208201518160010160006101000a81548173ffffffffffffffffffffffffffffffffffffffff021916908373ffffffffffffffffffffffffffffffffffffffff16021790555060408201518160020160006101000a81548173ffffffffffffffffffffffffffffffffffffffff021916908373ffffffffffffffffffffffffffffffffffffffff160217905550905050611c0f60cb612bfa565b611c1a60cf54612c10565b3373ffffffffffffffffffffffffffffffffffffffff166108fc611c4960cf5434612c4990919063ffffffff16565b9081150290604051600060405180830381858888f19350505050158015611c74573d6000803e3d6000fd5b503373ffffffffffffffffffffffffffffffffffffffff167f0a61a5bc4d97f46f5320375498e59af4d35ef1f6f31c51b9fc03c0134dd46817611cb760cb612846565b60cf54604051611cc89291906146e3565b60405180910390a2506001609981905550565b60026099541415611d21576040517f08c379a0000000000000000000000000000000000000000000000000000000008152600401611d1890614688565b60405180910390fd5b6002609981905550611d333382612cb7565b611d3c81612d5f565b60d054341015611d81576040517f08c379a0000000000000000000000000000000000000000000000000000000008152600401611d7890614488565b60405180910390fd5b3360d6600083815260200190815260200160002060010160006101000a81548173ffffffffffffffffffffffffffffffffffffffff021916908373ffffffffffffffffffffffffffffffffffffffff1602179055508160d6600083815260200190815260200160002060000160006101000a81548173ffffffffffffffffffffffffffffffffffffffff021916908373ffffffffffffffffffffffffffffffffffffffff160217905550611e3660d054612c10565b3373ffffffffffffffffffffffffffffffffffffffff166108fc611e6560d05434612c4990919063ffffffff16565b9081150290604051600060405180830381858888f19350505050158015611e90573d6000803e3d6000fd5b508173ffffffffffffffffffffffffffffffffffffffff167f0ff0cdfdec8286eb9990d56a9dd0bbacd1f2631624f021b9ef8051cae989c86082604051611ed791906146c8565b60405180910390a260016099819055505050565b60026099541415611f31576040517f08c379a0000000000000000000000000000000000000000000000000000000008152600401611f2890614688565b60405180910390fd5b6002609981905550611f4233612854565b60005b60d58054905081101561215d578173ffffffffffffffffffffffffffffffffffffffff1660d58281548110611f7d57611f7c614c52565b5b9060005260206000200160000160009054906101000a900473ffffffffffffffffffffffffffffffffffffffff1673ffffffffffffffffffffffffffffffffffffffff16141561214a5760d5600160d580549050611fdb919061492f565b81548110611fec57611feb614c52565b5b9060005260206000200160d5828154811061200a57612009614c52565b5b906000526020600020016000820160009054906101000a900473ffffffffffffffffffffffffffffffffffffffff168160000160006101000a81548173ffffffffffffffffffffffffffffffffffffffff021916908373ffffffffffffffffffffffffffffffffffffffff1602179055506000820160149054906101000a90046bffffffffffffffffffffffff168160000160146101000a8154816bffffffffffffffffffffffff02191690836bffffffffffffffffffffffff16021790555090505060d5600160d5805490506120e1919061492f565b815481106120f2576120f1614c52565b5b90600052602060002001600080820160006101000a81549073ffffffffffffffffffffffffffffffffffffffff02191690556000820160146101000a8154906bffffffffffffffffffffffff0219169055505061215d565b808061215590614b41565b915050611f45565b508073ffffffffffffffffffffffffffffffffffffffff167f665b9b7911d6a3e5a789e2be1ed4f9ffa84c1259e3b89675234719521112219160405160405180910390a2600160998190555050565b600060019054906101000a900460ff166121d45760008054906101000a900460ff16156121dd565b6121dc612e07565b5b61221c576040517f08c379a000000000000000000000000000000000000000000000000000000000815260040161221390614528565b60405180910390fd5b60008060019054906101000a900460ff16159050801561226c576001600060016101000a81548160ff02191690831515021790555060016000806101000a81548160ff0219169083151502179055505b6122e06040518060400160405280600c81526020017f424f4f4b2d564f554348455200000000000000000000000000000000000000008152506040518060400160405280600181526020017f3100000000000000000000000000000000000000000000000000000000000000815250612e18565b6122e8612e75565b6122f0612ece565b8760cd819055508660ce908051906020019061230d929190613724565b508560cf819055508460d0819055508360d3819055508260d460006101000a81548160ff0219169083151502179055508160d460016101000a81548173ffffffffffffffffffffffffffffffffffffffff021916908373ffffffffffffffffffffffffffffffffffffffff16021790555061238860cb612bfa565b61239260cc612bfa565b80156123b35760008060016101000a81548160ff0219169083151502179055505b5050505050505050565b60026099541415612403576040517f08c379a00000000000000000000000000000000000000000000000000000000081526004016123fa90614688565b60405180910390fd5b600260998190555061241433612854565b7f3619b3c18f1e17722575b9d37edf858c0a5655930f4082152947d4b88c14b54e8282604051612445929190614382565b60405180910390a160016099819055505050565b6002609954141561249f576040517f08c379a000000000000000000000000000000000000000000000000000000000815260040161249690614688565b60405180910390fd5b60026099819055506124b033612854565b60d5819080600181540180825580915050600190039060005260206000200160009091909190915081816124e491906153b4565b50508060000160208101906124f991906139b9565b60d7600061250760cc612846565b815260200190815260200160002060006101000a81548173ffffffffffffffffffffffffffffffffffffffff021916908373ffffffffffffffffffffffffffffffffffffffff16021790555061255d60cc612bfa565b80600001602081019061257091906139b9565b73ffffffffffffffffffffffffffffffffffffffff167fd554fd0f15c16acff1f1515b38bd29c601f66ed7d68e0a08f065cae6ed4217858260200160208101906125ba9190613d1d565b6040516125c7919061470c565b60405180910390a2600160998190555050565b60026099541415612620576040517f08c379a000000000000000000000000000000000000000000000000000000000815260040161261790614688565b60405180910390fd5b600260998190555061263133612854565b60d460009054906101000a900460ff16612680576040517f08c379a000000000000000000000000000000000000000000000000000000000815260040161267790614428565b60405180910390fd5b8060d36000828254612692919061484e565b925050819055507f2997f475d409a7cba16d31bb0e76cd7bf156ffe8a8a1205a9a75c199d0c82dd460d3546040516126ca91906146c8565b60405180910390a1600160998190555050565b6000811561274e578373ffffffffffffffffffffffffffffffffffffffff1660d7600085815260200190815260200160002060009054906101000a900473ffffffffffffffffffffffffffffffffffffffff1673ffffffffffffffffffffffffffffffffffffffff161490506127b6565b8373ffffffffffffffffffffffffffffffffffffffff1660d6600085815260200190815260200160002060000160009054906101000a900473ffffffffffffffffffffffffffffffffffffffff1673ffffffffffffffffffffffffffffffffffffffff161490505b9392505050565b60008273ffffffffffffffffffffffffffffffffffffffff1660d6600084815260200190815260200160002060020160009054906101000a900473ffffffffffffffffffffffffffffffffffffffff1673ffffffffffffffffffffffffffffffffffffffff1614905092915050565b600061283f612839612f2f565b83612f6f565b9050919050565b600081600001549050919050565b60d460019054906101000a900473ffffffffffffffffffffffffffffffffffffffff1673ffffffffffffffffffffffffffffffffffffffff168173ffffffffffffffffffffffffffffffffffffffff16146128e4576040517f08c379a00000000000000000000000000000000000000000000000000000000081526004016128db90614668565b60405180910390fd5b50565b60006129157f360894a13ba1a3210667c828492db98dca3e2076cc3735a920a3ca505d382bbc60001b612fa2565b60000160009054906101000a900473ffffffffffffffffffffffffffffffffffffffff16905090565b61294733612854565b60cd548173ffffffffffffffffffffffffffffffffffffffff16630c0907bd6040518163ffffffff1660e01b815260040160206040518083038186803b15801561299057600080fd5b505afa1580156129a4573d6000803e3d6000fd5b505050506040513d601f19601f820116820180604052508101906129c89190613c32565b14612a08576040517f08c379a00000000000000000000000000000000000000000000000000000000081526004016129ff906143e8565b60405180910390fd5b50565b612a377f4910fdfa16fed3260ed0e7147f7cc6da11a60208b5b9406d12a635614ffd914360001b612fac565b60000160009054906101000a900460ff1615612a5b57612a5683612fb6565b612b83565b8273ffffffffffffffffffffffffffffffffffffffff166352d1902d6040518163ffffffff1660e01b815260040160206040518083038186803b158015612aa157600080fd5b505afa925050508015612ad257506040513d601f19601f82011682018060405250810190612acf9190613b15565b60015b612b11576040517f08c379a0000000000000000000000000000000000000000000000000000000008152600401612b0890614568565b60405180910390fd5b7f360894a13ba1a3210667c828492db98dca3e2076cc3735a920a3ca505d382bbc60001b8114612b76576040517f08c379a0000000000000000000000000000000000000000000000000000000008152600401612b6d90614508565b60405180910390fd5b50612b8283838361306f565b5b505050565b600080612b9483610616565b9050612bf281848060600190612baa9190614727565b8080601f016020809104026020016040519081016040528093929190818152602001838380828437600081840152601f19601f8201169050808301925050505050505061309b565b915050919050565b6001816000016000828254019250508190555050565b612c258160d154612c5f90919063ffffffff16565b60d181905550612c408160d254612c5f90919063ffffffff16565b60d28190555050565b60008183612c57919061492f565b905092915050565b60008183612c6d919061484e565b905092915050565b60008183612c8391906148a4565b905092915050565b60008183612c999190614b94565b905092915050565b60008183612caf91906148d5565b905092915050565b8173ffffffffffffffffffffffffffffffffffffffff1660d6600083815260200190815260200160002060000160009054906101000a900473ffffffffffffffffffffffffffffffffffffffff1673ffffffffffffffffffffffffffffffffffffffff1614612d5b576040517f08c379a0000000000000000000000000000000000000000000000000000000008152600401612d5290614668565b60405180910390fd5b5050565b600073ffffffffffffffffffffffffffffffffffffffff1660d6600083815260200190815260200160002060020160009054906101000a900473ffffffffffffffffffffffffffffffffffffffff1673ffffffffffffffffffffffffffffffffffffffff1614612e04576040517f08c379a0000000000000000000000000000000000000000000000000000000008152600401612dfb906146a8565b60405180910390fd5b50565b6000612e1230613115565b15905090565b600060019054906101000a900460ff16612e67576040517f08c379a0000000000000000000000000000000000000000000000000000000008152600401612e5e90614648565b60405180910390fd5b612e718282613128565b5050565b600060019054906101000a900460ff16612ec4576040517f08c379a0000000000000000000000000000000000000000000000000000000008152600401612ebb90614648565b60405180910390fd5b612ecc6131a3565b565b600060019054906101000a900460ff16612f1d576040517f08c379a0000000000000000000000000000000000000000000000000000000008152600401612f1490614648565b60405180910390fd5b612f256131fc565b612f2d61324d565b565b6000612f6a7f8b73c3c69bb8fe3d512ecc4cf759cc79239f7b179b0ffacaa9a75d522b39400f612f5d61329e565b612f656132a8565b6132b2565b905090565b60008282604051602001612f8492919061421d565b60405160208183030381529060405280519060200120905092915050565b6000819050919050565b6000819050919050565b612fbf81613115565b612ffe576040517f08c379a0000000000000000000000000000000000000000000000000000000008152600401612ff5906145a8565b60405180910390fd5b8061302b7f360894a13ba1a3210667c828492db98dca3e2076cc3735a920a3ca505d382bbc60001b612fa2565b60000160006101000a81548173ffffffffffffffffffffffffffffffffffffffff021916908373ffffffffffffffffffffffffffffffffffffffff16021790555050565b613078836132ec565b6000825111806130855750805b1561309657613094838361333b565b505b505050565b600060418251146130e1576040517f08c379a00000000000000000000000000000000000000000000000000000000081526004016130d890614408565b60405180910390fd5b60008060006020850151925060408501519150606085015160001a905061310a8682858561341f565b935050505092915050565b600080823b905060008111915050919050565b600060019054906101000a900460ff16613177576040517f08c379a000000000000000000000000000000000000000000000000000000000815260040161316e90614648565b60405180910390fd5b600082805190602001209050600082805190602001209050816065819055508060668190555050505050565b600060019054906101000a900460ff166131f2576040517f08c379a00000000000000000000000000000000000000000000000000000000081526004016131e990614648565b60405180910390fd5b6001609981905550565b600060019054906101000a900460ff1661324b576040517f08c379a000000000000000000000000000000000000000000000000000000000815260040161324290614648565b60405180910390fd5b565b600060019054906101000a900460ff1661329c576040517f08c379a000000000000000000000000000000000000000000000000000000000815260040161329390614648565b60405180910390fd5b565b6000606554905090565b6000606654905090565b600083838346306040516020016132cd9594939291906142a5565b6040516020818303038152906040528051906020012090509392505050565b6132f581612fb6565b8073ffffffffffffffffffffffffffffffffffffffff167fbc7cd75a20ee27fd9adebab32041f755214dbc6bffa90cc0225b39da2e5c2d3b60405160405180910390a250565b606061334683613115565b613385576040517f08c379a000000000000000000000000000000000000000000000000000000000815260040161337c90614608565b60405180910390fd5b6000808473ffffffffffffffffffffffffffffffffffffffff16846040516133ad91906141e0565b600060405180830381855af49150503d80600081146133e8576040519150601f19603f3d011682016040523d82523d6000602084013e6133ed565b606091505b509150915061341582826040518060600160405280602781526020016154596027913961368d565b9250505092915050565b60007f7fffffffffffffffffffffffffffffff5d576e7357a4501ddfe92f46681b20a08260001c1115613487576040517f08c379a000000000000000000000000000000000000000000000000000000000815260040161347e906144a8565b60405180910390fd5b6000601e8560ff16111561356b57601b6004866134a49190614963565b60ff1614806134c25750601c6004866134bd9190614963565b60ff16145b613501576040517f08c379a00000000000000000000000000000000000000000000000000000000081526004016134f890614548565b60405180910390fd5b600161350c876136f4565b6004876135199190614963565b868660405160008152602001604052604051613538949392919061433d565b6020604051602081039080840390855afa15801561355a573d6000803e3d6000fd5b505050602060405103519050613611565b601b8560ff1614806135805750601c8560ff16145b6135bf576040517f08c379a00000000000000000000000000000000000000000000000000000000081526004016135b690614548565b60405180910390fd5b600186868686604051600081526020016040526040516135e2949392919061433d565b6020604051602081039080840390855afa158015613604573d6000803e3d6000fd5b5050506020604051035190505b600073ffffffffffffffffffffffffffffffffffffffff168173ffffffffffffffffffffffffffffffffffffffff161415613681576040517f08c379a0000000000000000000000000000000000000000000000000000000008152600401613678906143c8565b60405180910390fd5b80915050949350505050565b6060831561369d578290506136ed565b6000835111156136b05782518084602001fd5b816040517f08c379a00000000000000000000000000000000000000000000000000000000081526004016136e491906143a6565b60405180910390fd5b9392505050565b60008160405160200161370791906141f7565b604051602081830303815290604052805190602001209050919050565b82805461373090614ade565b90600052602060002090601f0160209004810192826137525760008555613799565b82601f1061376b57805160ff1916838001178555613799565b82800160010185558215613799579182015b8281111561379857825182559160200191906001019061377d565b5b5090506137a691906137aa565b5090565b5b808211156137c35760008160009055506001016137ab565b5090565b60006137da6137d5846147af565b61478a565b9050828152602081018484840111156137f6576137f5614d13565b5b613801848285614a56565b509392505050565b600061381c613817846147e0565b61478a565b90508281526020810184848401111561383857613837614d13565b5b613843848285614a56565b509392505050565b60008135905061385a816153e5565b92915050565b60008135905061386f816153fc565b92915050565b60008151905061388481615413565b92915050565b600082601f83011261389f5761389e614cf5565b5b81356138af8482602086016137c7565b91505092915050565b60008083601f8401126138ce576138cd614cf5565b5b8235905067ffffffffffffffff8111156138eb576138ea614cf0565b5b60208301915083600182028301111561390757613906614d09565b5b9250929050565b600082601f83011261392357613922614cf5565b5b8135613933848260208601613809565b91505092915050565b60006080828403121561395257613951614cff565b5b81905092915050565b60006040828403121561397157613970614cff565b5b81905092915050565b6000813590506139898161542a565b92915050565b60008151905061399e8161542a565b92915050565b6000813590506139b381615441565b92915050565b6000602082840312156139cf576139ce614d1d565b5b60006139dd8482850161384b565b91505092915050565b600080604083850312156139fd576139fc614d1d565b5b6000613a0b8582860161384b565b925050602083013567ffffffffffffffff811115613a2c57613a2b614d18565b5b613a388582860161388a565b9150509250929050565b60008060408385031215613a5957613a58614d1d565b5b6000613a678582860161384b565b9250506020613a788582860161397a565b9150509250929050565b600080600060608486031215613a9b57613a9a614d1d565b5b6000613aa98682870161384b565b9350506020613aba8682870161397a565b9250506040613acb86828701613860565b9150509250925092565b60008060408385031215613aec57613aeb614d1d565b5b6000613afa8582860161384b565b9250506020613b0b858286016139a4565b9150509250929050565b600060208284031215613b2b57613b2a614d1d565b5b6000613b3984828501613875565b91505092915050565b60008060208385031215613b5957613b58614d1d565b5b600083013567ffffffffffffffff811115613b7757613b76614d18565b5b613b83858286016138b8565b92509250509250929050565b600060208284031215613ba557613ba4614d1d565b5b600082013567ffffffffffffffff811115613bc357613bc2614d18565b5b613bcf8482850161393c565b91505092915050565b600060408284031215613bee57613bed614d1d565b5b6000613bfc8482850161395b565b91505092915050565b600060208284031215613c1b57613c1a614d1d565b5b6000613c298482850161397a565b91505092915050565b600060208284031215613c4857613c47614d1d565b5b6000613c568482850161398f565b91505092915050565b600080600080600080600060e0888a031215613c7e57613c7d614d1d565b5b6000613c8c8a828b0161397a565b975050602088013567ffffffffffffffff811115613cad57613cac614d18565b5b613cb98a828b0161390e565b9650506040613cca8a828b0161397a565b9550506060613cdb8a828b0161397a565b9450506080613cec8a828b0161397a565b93505060a0613cfd8a828b01613860565b92505060c0613d0e8a828b0161384b565b91505092959891949750929550565b600060208284031215613d3357613d32614d1d565b5b6000613d41848285016139a4565b91505092915050565b613d5381614997565b82525050565b613d62816149a9565b82525050565b613d71816149b5565b82525050565b613d88613d83826149b5565b614b8a565b82525050565b6000613d9982614811565b613da38185614827565b9350613db3818560208601614a65565b80840191505092915050565b6000613dcb8385614832565b9350613dd8838584614a56565b613de183614d22565b840190509392505050565b6000613df78261481c565b613e018185614832565b9350613e11818560208601614a65565b613e1a81614d22565b840191505092915050565b6000613e32601883614832565b9150613e3d82614d4d565b602082019050919050565b6000613e55601683614832565b9150613e6082614d76565b602082019050919050565b6000613e78601f83614832565b9150613e8382614d9f565b602082019050919050565b6000613e9b601c83614843565b9150613ea682614dc8565b601c82019050919050565b6000613ebe600283614843565b9150613ec982614df1565b600282019050919050565b6000613ee1601283614832565b9150613eec82614e1a565b602082019050919050565b6000613f04602c83614832565b9150613f0f82614e43565b604082019050919050565b6000613f27601683614832565b9150613f3282614e92565b602082019050919050565b6000613f4a601283614832565b9150613f5582614ebb565b602082019050919050565b6000613f6d602283614832565b9150613f7882614ee4565b604082019050919050565b6000613f90602c83614832565b9150613f9b82614f33565b604082019050919050565b6000613fb3603883614832565b9150613fbe82614f82565b604082019050919050565b6000613fd6602983614832565b9150613fe182614fd1565b604082019050919050565b6000613ff9602e83614832565b915061400482615020565b604082019050919050565b600061401c602283614832565b91506140278261506f565b604082019050919050565b600061403f602e83614832565b915061404a826150be565b604082019050919050565b6000614062600f83614832565b915061406d8261510d565b602082019050919050565b6000614085602d83614832565b915061409082615136565b604082019050919050565b60006140a8601183614832565b91506140b382615185565b602082019050919050565b60006140cb601883614832565b91506140d6826151ae565b602082019050919050565b60006140ee602683614832565b91506140f9826151d7565b604082019050919050565b6000614111601483614832565b915061411c82615226565b602082019050919050565b6000614134602b83614832565b915061413f8261524f565b604082019050919050565b6000614157601583614832565b91506141628261529e565b602082019050919050565b600061417a601f83614832565b9150614185826152c7565b602082019050919050565b600061419d600b83614832565b91506141a8826152f0565b602082019050919050565b6141bc816149df565b82525050565b6141cb816149e9565b82525050565b6141da816149f6565b82525050565b60006141ec8284613d8e565b915081905092915050565b600061420282613e8e565b915061420e8284613d77565b60208201915081905092915050565b600061422882613eb1565b91506142348285613d77565b6020820191506142448284613d77565b6020820191508190509392505050565b60006020820190506142696000830184613d4a565b92915050565b60006020820190506142846000830184613d59565b92915050565b600060208201905061429f6000830184613d68565b92915050565b600060a0820190506142ba6000830188613d68565b6142c76020830187613d68565b6142d46040830186613d68565b6142e160608301856141b3565b6142ee6080830184613d4a565b9695505050505050565b600060808201905061430d6000830187613d68565b61431a60208301866141b3565b61432760408301856141b3565b6143346060830184613d4a565b95945050505050565b60006080820190506143526000830187613d68565b61435f60208301866141c2565b61436c6040830185613d68565b6143796060830184613d68565b95945050505050565b6000602082019050818103600083015261439d818486613dbf565b90509392505050565b600060208201905081810360008301526143c08184613dec565b905092915050565b600060208201905081810360008301526143e181613e25565b9050919050565b6000602082019050818103600083015261440181613e48565b9050919050565b6000602082019050818103600083015261442181613e6b565b9050919050565b6000602082019050818103600083015261444181613ed4565b9050919050565b6000602082019050818103600083015261446181613ef7565b9050919050565b6000602082019050818103600083015261448181613f1a565b9050919050565b600060208201905081810360008301526144a181613f3d565b9050919050565b600060208201905081810360008301526144c181613f60565b9050919050565b600060208201905081810360008301526144e181613f83565b9050919050565b6000602082019050818103600083015261450181613fa6565b9050919050565b6000602082019050818103600083015261452181613fc9565b9050919050565b6000602082019050818103600083015261454181613fec565b9050919050565b600060208201905081810360008301526145618161400f565b9050919050565b6000602082019050818103600083015261458181614032565b9050919050565b600060208201905081810360008301526145a181614055565b9050919050565b600060208201905081810360008301526145c181614078565b9050919050565b600060208201905081810360008301526145e18161409b565b9050919050565b60006020820190508181036000830152614601816140be565b9050919050565b60006020820190508181036000830152614621816140e1565b9050919050565b6000602082019050818103600083015261464181614104565b9050919050565b6000602082019050818103600083015261466181614127565b9050919050565b600060208201905081810360008301526146818161414a565b9050919050565b600060208201905081810360008301526146a18161416d565b9050919050565b600060208201905081810360008301526146c181614190565b9050919050565b60006020820190506146dd60008301846141b3565b92915050565b60006040820190506146f860008301856141b3565b61470560208301846141b3565b9392505050565b600060208201905061472160008301846141d1565b92915050565b6000808335600160200384360303811261474457614743614d04565b5b80840192508235915067ffffffffffffffff82111561476657614765614cfa565b5b60208301925060018202360383131561478257614781614d0e565b5b509250929050565b60006147946147a5565b90506147a08282614b10565b919050565b6000604051905090565b600067ffffffffffffffff8211156147ca576147c9614c81565b5b6147d382614d22565b9050602081019050919050565b600067ffffffffffffffff8211156147fb576147fa614c81565b5b61480482614d22565b9050602081019050919050565b600081519050919050565b600081519050919050565b600081905092915050565b600082825260208201905092915050565b600081905092915050565b6000614859826149df565b9150614864836149df565b9250827fffffffffffffffffffffffffffffffffffffffffffffffffffffffffffffffff0382111561489957614898614bc5565b5b828201905092915050565b60006148af826149df565b91506148ba836149df565b9250826148ca576148c9614bf4565b5b828204905092915050565b60006148e0826149df565b91506148eb836149df565b9250817fffffffffffffffffffffffffffffffffffffffffffffffffffffffffffffffff048311821515161561492457614923614bc5565b5b828202905092915050565b600061493a826149df565b9150614945836149df565b92508282101561495857614957614bc5565b5b828203905092915050565b600061496e826149e9565b9150614979836149e9565b92508282101561498c5761498b614bc5565b5b828203905092915050565b60006149a2826149bf565b9050919050565b60008115159050919050565b6000819050919050565b600073ffffffffffffffffffffffffffffffffffffffff82169050919050565b6000819050919050565b600060ff82169050919050565b60006bffffffffffffffffffffffff82169050919050565b6000614a1982614a20565b9050919050565b6000614a2b82614a32565b9050919050565b6000614a3d826149bf565b9050919050565b6000614a4f826149f6565b9050919050565b82818337600083830152505050565b60005b83811015614a83578082015181840152602081019050614a68565b83811115614a92576000848401525b50505050565b600081016000830180614aaa81614cc4565b9050614ab68184615391565b505050600081016020830180614acb81614cda565b9050614ad781846153c2565b5050505050565b60006002820490506001821680614af657607f821691505b60208210811415614b0a57614b09614c23565b5b50919050565b614b1982614d22565b810181811067ffffffffffffffff82111715614b3857614b37614c81565b5b80604052505050565b6000614b4c826149df565b91507fffffffffffffffffffffffffffffffffffffffffffffffffffffffffffffffff821415614b7f57614b7e614bc5565b5b600182019050919050565b6000819050919050565b6000614b9f826149df565b9150614baa836149df565b925082614bba57614bb9614bf4565b5b828206905092915050565b7f4e487b7100000000000000000000000000000000000000000000000000000000600052601160045260246000fd5b7f4e487b7100000000000000000000000000000000000000000000000000000000600052601260045260246000fd5b7f4e487b7100000000000000000000000000000000000000000000000000000000600052602260045260246000fd5b7f4e487b7100000000000000000000000000000000000000000000000000000000600052603260045260246000fd5b7f4e487b7100000000000000000000000000000000000000000000000000000000600052604160045260246000fd5b6000819050919050565b6000819050919050565b60008135614cd1816153e5565b80915050919050565b60008135614ce781615441565b80915050919050565b600080fd5b600080fd5b600080fd5b600080fd5b600080fd5b600080fd5b600080fd5b600080fd5b600080fd5b600080fd5b6000601f19601f8301169050919050565b60008160001b9050919050565b60008160a01b9050919050565b7f45434453413a20696e76616c6964207369676e61747572650000000000000000600082015250565b7f496e76616c696420496d706c656d656e746174696f6e00000000000000000000600082015250565b7f45434453413a20696e76616c6964207369676e6174757265206c656e67746800600082015250565b7f19457468657265756d205369676e6564204d6573736167653a0a333200000000600082015250565b7f1901000000000000000000000000000000000000000000000000000000000000600082015250565b7f537570706c79204e6f74204c696d697465640000000000000000000000000000600082015250565b7f46756e6374696f6e206d7573742062652063616c6c6564207468726f7567682060008201527f64656c656761746563616c6c0000000000000000000000000000000000000000602082015250565b7f537570706c7920416c7265616479204c696d6974656400000000000000000000600082015250565b7f496e73756666696369656e742046756e64730000000000000000000000000000600082015250565b7f45434453413a20696e76616c6964207369676e6174757265202773272076616c60008201527f7565000000000000000000000000000000000000000000000000000000000000602082015250565b7f46756e6374696f6e206d7573742062652063616c6c6564207468726f7567682060008201527f6163746976652070726f78790000000000000000000000000000000000000000602082015250565b7f555550535570677261646561626c653a206d757374206e6f742062652063616c60008201527f6c6564207468726f7567682064656c656761746563616c6c0000000000000000602082015250565b7f45524331393637557067726164653a20756e737570706f727465642070726f7860008201527f6961626c65555549440000000000000000000000000000000000000000000000602082015250565b7f496e697469616c697a61626c653a20636f6e747261637420697320616c72656160008201527f647920696e697469616c697a6564000000000000000000000000000000000000602082015250565b7f45434453413a20696e76616c6964207369676e6174757265202776272076616c60008201527f7565000000000000000000000000000000000000000000000000000000000000602082015250565b7f45524331393637557067726164653a206e657720696d706c656d656e7461746960008201527f6f6e206973206e6f742055555053000000000000000000000000000000000000602082015250565b7f496e76616c696420526571756573740000000000000000000000000000000000600082015250565b7f455243313936373a206e657720696d706c656d656e746174696f6e206973206e60008201527f6f74206120636f6e747261637400000000000000000000000000000000000000602082015250565b7f496e76616c6964205369676e6174757265000000000000000000000000000000600082015250565b7f537570706c7920416c726561647920556e6c696d697465640000000000000000600082015250565b7f416464726573733a2064656c65676174652063616c6c20746f206e6f6e2d636f60008201527f6e74726163740000000000000000000000000000000000000000000000000000602082015250565b7f537570706c79204c696d69742052656163686564000000000000000000000000600082015250565b7f496e697469616c697a61626c653a20636f6e7472616374206973206e6f74206960008201527f6e697469616c697a696e67000000000000000000000000000000000000000000602082015250565b7f556e2d617574686f72697a656420526571756573740000000000000000000000600082015250565b7f5265656e7472616e637947756172643a207265656e7472616e742063616c6c00600082015250565b7f426f6f6b204c6f636b6564000000000000000000000000000000000000000000600082015250565b60007fffffffffffffffffffffffff000000000000000000000000000000000000000061534584614d40565b9350801983169250808416831791505092915050565b600073ffffffffffffffffffffffffffffffffffffffff61537b84614d33565b9350801983169250808416831791505092915050565b61539a82614a0e565b6153ad6153a682614cb0565b835461535b565b8255505050565b6153be8282614a98565b5050565b6153cb82614a44565b6153de6153d782614cba565b8354615319565b8255505050565b6153ee81614997565b81146153f957600080fd5b50565b615405816149a9565b811461541057600080fd5b50565b61541c816149b5565b811461542757600080fd5b50565b615433816149df565b811461543e57600080fd5b50565b61544a816149f6565b811461545557600080fd5b5056fe416464726573733a206c6f772d6c6576656c2064656c65676174652063616c6c206661696c6564a2646970667358221220ca5df9c3b4c8cb807b900fc78bcea222a21d8b16554ef6cd9833f04671a2de2664736f6c63430008070033a264697066735822122076f21913ac13aafcea069469e70f1c91a1bf0543a22e31f7283d60eef84f21a264736f6c63430008070033",
  "linkReferences": {},
  "deployedLinkReferences": {}
}