{
  "_format": "hh-sol-artifact-1",
  "contractName": "Publisher",
  "sourceName": "contracts/v3/Publisher.sol",
  "abi": [
    {
      "inputs": [],
      "stateMutability": "nonpayable",
      "type": "constructor"
    },
    {
      "anonymous": false,
      "inputs": [
        {
          "indexed": false,
          "internalType": "uint256",
          "name": "seriesId",
          "type": "uint256"
        },
        {
          "indexed": false,
          "internalType": "uint256",
          "name": "bookId",
          "type": "uint256"
        }
      ],
      "name": "AddedBookToSeries",
      "type": "event"
    },
    {
      "anonymous": false,
      "inputs": [
        {
          "indexed": false,
          "internalType": "uint256",
          "name": "bookId",
          "type": "uint256"
        },
        {
          "indexed": true,
          "internalType": "address",
          "name": "publisher",
          "type": "address"
        },
        {
          "indexed": false,
          "internalType": "string",
          "name": "metadataUri",
          "type": "string"
        },
        {
          "indexed": false,
          "internalType": "uint256",
          "name": "price",
          "type": "uint256"
        },
        {
          "indexed": false,
          "internalType": "uint256",
          "name": "royalty",
          "type": "uint256"
        },
        {
          "indexed": false,
          "internalType": "uint256",
          "name": "pricedBookSupplyLimit",
          "type": "uint256"
        },
        {
          "indexed": false,
          "internalType": "bool",
          "name": "supplyLimited",
          "type": "bool"
        },
        {
          "indexed": true,
          "internalType": "address",
          "name": "editionAddress",
          "type": "address"
        }
      ],
      "name": "NewBookLaunched",
      "type": "event"
    },
    {
      "anonymous": false,
      "inputs": [
        {
          "indexed": false,
          "internalType": "uint256",
          "name": "bookId",
          "type": "uint256"
        },
        {
          "indexed": false,
          "internalType": "string",
          "name": "metadataUri",
          "type": "string"
        },
        {
          "indexed": false,
          "internalType": "uint256",
          "name": "price",
          "type": "uint256"
        },
        {
          "indexed": false,
          "internalType": "uint256",
          "name": "royalty",
          "type": "uint256"
        },
        {
          "indexed": false,
          "internalType": "uint256",
          "name": "pricedBookSupplyLimit",
          "type": "uint256"
        },
        {
          "indexed": false,
          "internalType": "bool",
          "name": "supplyLimited",
          "type": "bool"
        },
        {
          "indexed": true,
          "internalType": "address",
          "name": "editionAddress",
          "type": "address"
        }
      ],
      "name": "NewEditionLaunched",
      "type": "event"
    },
    {
      "anonymous": false,
      "inputs": [
        {
          "indexed": false,
          "internalType": "uint256",
          "name": "seriesId",
          "type": "uint256"
        },
        {
          "indexed": false,
          "internalType": "string",
          "name": "seriesMetadatUri",
          "type": "string"
        },
        {
          "indexed": true,
          "internalType": "address",
          "name": "publisher",
          "type": "address"
        }
      ],
      "name": "NewSeriesCreated",
      "type": "event"
    },
    {
      "inputs": [
        {
          "internalType": "uint256",
          "name": "seriesId",
          "type": "uint256"
        },
        {
          "internalType": "uint256",
          "name": "bookId",
          "type": "uint256"
        }
      ],
      "name": "addBookToSeries",
      "outputs": [],
      "stateMutability": "nonpayable",
      "type": "function"
    },
    {
      "inputs": [
        {
          "internalType": "string",
          "name": "seriesMetadataUri",
          "type": "string"
        }
      ],
      "name": "createSeries",
      "outputs": [],
      "stateMutability": "nonpayable",
      "type": "function"
    },
    {
      "inputs": [
        {
          "internalType": "string",
          "name": "uri",
          "type": "string"
        },
        {
          "internalType": "string",
          "name": "metadataUri",
          "type": "string"
        },
        {
          "internalType": "uint256",
          "name": "price",
          "type": "uint256"
        },
        {
          "internalType": "uint256",
          "name": "royalty",
          "type": "uint256"
        },
        {
          "internalType": "uint256",
          "name": "pricedBookSupplyLimit",
          "type": "uint256"
        },
        {
          "internalType": "bool",
          "name": "supplyLimited",
          "type": "bool"
        }
      ],
      "name": "launchNewBook",
      "outputs": [],
      "stateMutability": "nonpayable",
      "type": "function"
    },
    {
      "inputs": [
        {
          "internalType": "uint256",
          "name": "bookId",
          "type": "uint256"
        },
        {
          "internalType": "string",
          "name": "uri",
          "type": "string"
        },
        {
          "internalType": "string",
          "name": "metadataUri",
          "type": "string"
        },
        {
          "internalType": "uint256",
          "name": "price",
          "type": "uint256"
        },
        {
          "internalType": "uint256",
          "name": "royalty",
          "type": "uint256"
        },
        {
          "internalType": "bool",
          "name": "supplyLimited",
          "type": "bool"
        },
        {
          "internalType": "uint256",
          "name": "pricedBookSupplyLimit",
          "type": "uint256"
        }
      ],
      "name": "launchNewEdition",
      "outputs": [],
      "stateMutability": "nonpayable",
      "type": "function"
    }
  ],
  "bytecode": "0x608060405234801561001057600080fd5b50610025600061003e60201b6105691760201c565b610039600161003e60201b6105691760201c565b6100ec565b6001816000016000828254610053919061005d565b9250508190555050565b6000610068826100b3565b9150610073836100b3565b9250827fffffffffffffffffffffffffffffffffffffffffffffffffffffffffffffffff038211156100a8576100a76100bd565b5b828201905092915050565b6000819050919050565b7f4e487b7100000000000000000000000000000000000000000000000000000000600052601160045260246000fd5b615e6c80620000fc6000396000f3fe608060405234801561001057600080fd5b506004361061004c5760003560e01c806340571104146100515780637ce414db1461006d578063cb9d15d214610089578063fe47c798146100a5575b600080fd5b61006b600480360381019061006691906108d9565b6100c1565b005b610087600480360381019061008291906107ff565b61029f565b005b6100a3600480360381019061009e91906106f1565b6103b5565b005b6100bf60048036038101906100ba919061073a565b610473565b005b6100cb6001610588565b821080156100e157506100de6000610588565b81105b610120576040517f08c379a0000000000000000000000000000000000000000000000000000000008152600401610117906109c5565b60405180910390fd5b3373ffffffffffffffffffffffffffffffffffffffff166003600084815260200190815260200160002060009054906101000a900473ffffffffffffffffffffffffffffffffffffffff1673ffffffffffffffffffffffffffffffffffffffff16146101c1576040517f08c379a00000000000000000000000000000000000000000000000000000000081526004016101b8906109e5565b60405180910390fd5b3373ffffffffffffffffffffffffffffffffffffffff166002600083815260200190815260200160002060009054906101000a900473ffffffffffffffffffffffffffffffffffffffff1673ffffffffffffffffffffffffffffffffffffffff1614610262576040517f08c379a0000000000000000000000000000000000000000000000000000000008152600401610259906109e5565b60405180910390fd5b7ff653f52c99698b9ae40dff1c2470b02caad6ee4602e7b4f9623cd10a053ea2e98282604051610293929190610b13565b60405180910390a15050565b3373ffffffffffffffffffffffffffffffffffffffff166002600089815260200190815260200160002060009054906101000a900473ffffffffffffffffffffffffffffffffffffffff1673ffffffffffffffffffffffffffffffffffffffff1614610340576040517f08c379a0000000000000000000000000000000000000000000000000000000008152600401610337906109e5565b60405180910390fd5b600061035188888787868833610596565b90508073ffffffffffffffffffffffffffffffffffffffff167fe2b473cc509384a09a2c69bdb0586abbf3d66d48b9fd32d8728dd36df73875c98988888887896040516103a396959493929190610a35565b60405180910390a25050505050505050565b60006103c16001610588565b9050336003600083815260200190815260200160002060006101000a81548173ffffffffffffffffffffffffffffffffffffffff021916908373ffffffffffffffffffffffffffffffffffffffff1602179055503373ffffffffffffffffffffffffffffffffffffffff167f86d6aaa7cd5aae202089ef6308538c5216bcb93b0f03405bc9505794912b4941828460405161045d929190610a05565b60405180910390a261046f6001610569565b5050565b600061047f6000610588565b9050336002600083815260200190815260200160002060006101000a81548173ffffffffffffffffffffffffffffffffffffffff021916908373ffffffffffffffffffffffffffffffffffffffff16021790555060006104e482898888888833610596565b90508073ffffffffffffffffffffffffffffffffffffffff163373ffffffffffffffffffffffffffffffffffffffff167fb11952381be2bc965ab523a3aa1c489e4c8b80ee5e9332ec95e8021ee4d28155848a8a8a8a8a60405161054d96959493929190610a35565b60405180910390a361055f6000610569565b5050505050505050565b600181600001600082825461057e9190610bae565b9250508190555050565b600081600001549050919050565b6000806040516105a59061064a565b604051809103906000f0801580156105c1573d6000803e3d6000fd5b5090508073ffffffffffffffffffffffffffffffffffffffff1663c541ce0a8a8a8a8a8a8a8a6040518863ffffffff1660e01b81526004016106099796959493929190610a9d565b600060405180830381600087803b15801561062357600080fd5b505af1158015610637573d6000803e3d6000fd5b5050505080915050979650505050505050565b61507480610dc383390190565b600061066a61066584610b61565b610b3c565b90508281526020810184848401111561068657610685610d22565b5b610691848285610c4c565b509392505050565b6000813590506106a881610d94565b92915050565b600082601f8301126106c3576106c2610d1d565b5b81356106d3848260208601610657565b91505092915050565b6000813590506106eb81610dab565b92915050565b60006020828403121561070757610706610d2c565b5b600082013567ffffffffffffffff81111561072557610724610d27565b5b610731848285016106ae565b91505092915050565b60008060008060008060c0878903121561075757610756610d2c565b5b600087013567ffffffffffffffff81111561077557610774610d27565b5b61078189828a016106ae565b965050602087013567ffffffffffffffff8111156107a2576107a1610d27565b5b6107ae89828a016106ae565b95505060406107bf89828a016106dc565b94505060606107d089828a016106dc565b93505060806107e189828a016106dc565b92505060a06107f289828a01610699565b9150509295509295509295565b600080600080600080600060e0888a03121561081e5761081d610d2c565b5b600061082c8a828b016106dc565b975050602088013567ffffffffffffffff81111561084d5761084c610d27565b5b6108598a828b016106ae565b965050604088013567ffffffffffffffff81111561087a57610879610d27565b5b6108868a828b016106ae565b95505060606108978a828b016106dc565b94505060806108a88a828b016106dc565b93505060a06108b98a828b01610699565b92505060c06108ca8a828b016106dc565b91505092959891949750929550565b600080604083850312156108f0576108ef610d2c565b5b60006108fe858286016106dc565b925050602061090f858286016106dc565b9150509250929050565b61092281610c04565b82525050565b61093181610c16565b82525050565b600061094282610b92565b61094c8185610b9d565b935061095c818560208601610c5b565b61096581610d31565b840191505092915050565b600061097d600f83610b9d565b915061098882610d42565b602082019050919050565b60006109a0601583610b9d565b91506109ab82610d6b565b602082019050919050565b6109bf81610c42565b82525050565b600060208201905081810360008301526109de81610970565b9050919050565b600060208201905081810360008301526109fe81610993565b9050919050565b6000604082019050610a1a60008301856109b6565b8181036020830152610a2c8184610937565b90509392505050565b600060c082019050610a4a60008301896109b6565b8181036020830152610a5c8188610937565b9050610a6b60408301876109b6565b610a7860608301866109b6565b610a8560808301856109b6565b610a9260a0830184610928565b979650505050505050565b600060e082019050610ab2600083018a6109b6565b8181036020830152610ac48189610937565b9050610ad360408301886109b6565b610ae060608301876109b6565b610aed60808301866109b6565b610afa60a0830185610928565b610b0760c0830184610919565b98975050505050505050565b6000604082019050610b2860008301856109b6565b610b3560208301846109b6565b9392505050565b6000610b46610b57565b9050610b528282610c8e565b919050565b6000604051905090565b600067ffffffffffffffff821115610b7c57610b7b610cee565b5b610b8582610d31565b9050602081019050919050565b600081519050919050565b600082825260208201905092915050565b6000610bb982610c42565b9150610bc483610c42565b9250827fffffffffffffffffffffffffffffffffffffffffffffffffffffffffffffffff03821115610bf957610bf8610cbf565b5b828201905092915050565b6000610c0f82610c22565b9050919050565b60008115159050919050565b600073ffffffffffffffffffffffffffffffffffffffff82169050919050565b6000819050919050565b82818337600083830152505050565b60005b83811015610c79578082015181840152602081019050610c5e565b83811115610c88576000848401525b50505050565b610c9782610d31565b810181811067ffffffffffffffff82111715610cb657610cb5610cee565b5b80604052505050565b7f4e487b7100000000000000000000000000000000000000000000000000000000600052601160045260246000fd5b7f4e487b7100000000000000000000000000000000000000000000000000000000600052604160045260246000fd5b600080fd5b600080fd5b600080fd5b600080fd5b6000601f19601f8301169050919050565b7f496e76616c696420526571756573740000000000000000000000000000000000600082015250565b7f556e2d617574686f72697a656420526571756573740000000000000000000000600082015250565b610d9d81610c16565b8114610da857600080fd5b50565b610db481610c42565b8114610dbf57600080fd5b5056fe60a06040523073ffffffffffffffffffffffffffffffffffffffff1660809073ffffffffffffffffffffffffffffffffffffffff1660601b81525034801561004657600080fd5b5060805160601c614ff361008160003960008181610a6301528181610af201528181611267015281816112f601526117580152614ff36000f3fe60806040526004361061014a5760003560e01c80635291fcd5116100b6578063a6f2ae3a1161006f578063a6f2ae3a14610418578063a9059cbb14610422578063c541ce0a1461043e578063ea8feae114610467578063f8fbea3414610490578063fa123172146104cd5761014a565b80635291fcd51461031e57806352d1902d14610347578063564b81ef146103725780636198e3391461039d5780638d6cc56d146103c65780638fffd8b5146103ef5761014a565b806333b582c41161010857806333b582c41461025f5780633659cfe61461028a5780634630dd44146102b357806346c455e9146102cf5780634f1ef286146102f85780634f573cb2146103145761014a565b806256856a1461014f5780630711a9211461018c5780630c0907bd146101c95780630e89341c146101f457806321caea25146102315780632ddcb21f14610248575b600080fd5b34801561015b57600080fd5b50610176600480360381019061017191906137ff565b61050a565b6040516101839190613e71565b60405180910390f35b34801561019857600080fd5b506101b360048036038101906101ae91906137b6565b61054a565b6040516101c09190613ea7565b60405180910390f35b3480156101d557600080fd5b506101de6105c2565b6040516101eb91906142e1565b60405180910390f35b34801561020057600080fd5b5061021b600480360381019061021691906137ff565b6105c8565b6040516102289190613f9f565b60405180910390f35b34801561023d57600080fd5b50610246610843565b005b34801561025457600080fd5b5061025d61093a565b005b34801561026b57600080fd5b50610274610a4e565b60405161028191906142e1565b60405180910390f35b34801561029657600080fd5b506102b160048036038101906102ac9190613620565b610a61565b005b6102cd60048036038101906102c891906137b6565b610bea565b005b3480156102db57600080fd5b506102f660048036038101906102f1919061373c565b610ef8565b005b610312600480360381019061030d919061364d565b611265565b005b61031c6113a2565b005b34801561032a57600080fd5b50610345600480360381019061034091906136a9565b611644565b005b34801561035357600080fd5b5061035c611754565b6040516103699190613ea7565b60405180910390f35b34801561037e57600080fd5b5061038761180d565b60405161039491906142e1565b60405180910390f35b3480156103a957600080fd5b506103c460048036038101906103bf91906137ff565b611815565b005b3480156103d257600080fd5b506103ed60048036038101906103e891906137ff565b61199f565b005b3480156103fb57600080fd5b50610416600480360381019061041191906137ff565b611a3f565b005b610420611adf565b005b61043c600480360381019061043791906136a9565b611e37565b005b34801561044a57600080fd5b5061046560048036038101906104609190613859565b612047565b005b34801561047357600080fd5b5061048e600480360381019061048991906137ff565b612260565b005b34801561049c57600080fd5b506104b760048036038101906104b291906136e9565b612363565b6040516104c49190613e8c565b60405180910390f35b3480156104d957600080fd5b506104f460048036038101906104ef91906136a9565b612443565b6040516105019190613e8c565b60405180910390f35b600060d6600083815260200190815260200160002060010160009054906101000a900473ffffffffffffffffffffffffffffffffffffffff169050919050565b60006105bb7f134298cc09dce2d2d7b546d1489fda5aa6e53acbdf51e00731238ff4f4624d4d8360000135846040013585602001602081019061058d9190613620565b6040516020016105a09493929190613f15565b604051602081830303815290604052805190602001206124b2565b9050919050565b60cd5481565b6060600073ffffffffffffffffffffffffffffffffffffffff1660d6600084815260200190815260200160002060020160009054906101000a900473ffffffffffffffffffffffffffffffffffffffff1673ffffffffffffffffffffffffffffffffffffffff1614801561069d57503373ffffffffffffffffffffffffffffffffffffffff1660d6600084815260200190815260200160002060000160009054906101000a900473ffffffffffffffffffffffffffffffffffffffff1673ffffffffffffffffffffffffffffffffffffffff16145b8061070957503373ffffffffffffffffffffffffffffffffffffffff1660d6600084815260200190815260200160002060020160009054906101000a900473ffffffffffffffffffffffffffffffffffffffff1673ffffffffffffffffffffffffffffffffffffffff16145b8061077257503373ffffffffffffffffffffffffffffffffffffffff1660d7600084815260200190815260200160002060009054906101000a900473ffffffffffffffffffffffffffffffffffffffff1673ffffffffffffffffffffffffffffffffffffffff16145b6107b1576040517f08c379a00000000000000000000000000000000000000000000000000000000081526004016107a890614281565b60405180910390fd5b60ce80546107be90614719565b80601f01602080910402602001604051908101604052809291908181526020018280546107ea90614719565b80156108375780601f1061080c57610100808354040283529160200191610837565b820191906000526020600020905b81548152906001019060200180831161081a57829003601f168201915b50505050509050919050565b60026099541415610889576040517f08c379a0000000000000000000000000000000000000000000000000000000008152600401610880906142a1565b60405180910390fd5b600260998190555061089a336124cc565b60d460009054906101000a900460ff166108e9576040517f08c379a00000000000000000000000000000000000000000000000000000000081526004016108e090614201565b60405180910390fd5b600060d460006101000a81548160ff0219169083151502179055507f4fa2ac1dbc3675e431edc4b7ed4ffca41ca041dc9c1f2e0628ba2abb9169af2f60405160405180910390a16001609981905550565b60026099541415610980576040517f08c379a0000000000000000000000000000000000000000000000000000000008152600401610977906142a1565b60405180910390fd5b6002609981905550610991336124cc565b60d460009054906101000a900460ff16156109e1576040517f08c379a00000000000000000000000000000000000000000000000000000000081526004016109d890614081565b60405180910390fd5b600160d460006101000a81548160ff0219169083151502179055506001610a0860cb61255f565b610a1291906145f8565b60d3819055507f9315093715d20e383de0fda01168dc80aeea065ffbf08dd364d8e8bc59735f6d60405160405180910390a16001609981905550565b6000610a59336124cc565b60d254905090565b7f000000000000000000000000000000000000000000000000000000000000000073ffffffffffffffffffffffffffffffffffffffff163073ffffffffffffffffffffffffffffffffffffffff161415610af0576040517f08c379a0000000000000000000000000000000000000000000000000000000008152600401610ae790614041565b60405180910390fd5b7f000000000000000000000000000000000000000000000000000000000000000073ffffffffffffffffffffffffffffffffffffffff16610b2f61256d565b73ffffffffffffffffffffffffffffffffffffffff1614610b85576040517f08c379a0000000000000000000000000000000000000000000000000000000008152600401610b7c906140e1565b60405180910390fd5b610b8e816125c4565b610be781600067ffffffffffffffff811115610bad57610bac6148bc565b5b6040519080825280601f01601f191660200182016040528015610bdf5781602001600182028036833780820191505090505b506000612691565b50565b60026099541415610c30576040517f08c379a0000000000000000000000000000000000000000000000000000000008152600401610c27906142a1565b60405180910390fd5b60026099819055508060400135341015610c7f576040517f08c379a0000000000000000000000000000000000000000000000000000000008152600401610c76906140a1565b60405180910390fd5b6000610c8a8261280e565b90508073ffffffffffffffffffffffffffffffffffffffff1660d460019054906101000a900473ffffffffffffffffffffffffffffffffffffffff1673ffffffffffffffffffffffffffffffffffffffff1614610d1c576040517f08c379a0000000000000000000000000000000000000000000000000000000008152600401610d13906141e1565b60405180910390fd5b3373ffffffffffffffffffffffffffffffffffffffff16826020016020810190610d469190613620565b73ffffffffffffffffffffffffffffffffffffffff1614610d9c576040517f08c379a0000000000000000000000000000000000000000000000000000000008152600401610d93906141a1565b60405180910390fd5b816020016020810190610daf9190613620565b60d76000610dbd60cc61255f565b815260200190815260200160002060006101000a81548173ffffffffffffffffffffffffffffffffffffffff021916908373ffffffffffffffffffffffffffffffffffffffff160217905550610e168260400135612880565b3373ffffffffffffffffffffffffffffffffffffffff166108fc610e478460400135346128b990919063ffffffff16565b9081150290604051600060405180830381858888f19350505050158015610e72573d6000803e3d6000fd5b50816020016020810190610e869190613620565b73ffffffffffffffffffffffffffffffffffffffff167f3f4eb6c3c81657d4e0f5c31e40ceb4ad413ab88ce6bdac4abc25bf9de59a994a610ec760cc61255f565b8460400135604051610eda9291906142fc565b60405180910390a2610eec60cc6128cf565b50600160998190555050565b60026099541415610f3e576040517f08c379a0000000000000000000000000000000000000000000000000000000008152600401610f35906142a1565b60405180910390fd5b6002609981905550610f4f336124cc565b60005b828290508110156112585760006040518060400160405280858585818110610f7d57610f7c61488d565b5b9050602002810190610f8f919061442b565b6000016020810190610fa19190613620565b73ffffffffffffffffffffffffffffffffffffffff168152602001858585818110610fcf57610fce61488d565b5b9050602002810190610fe1919061442b565b6020016020810190610ff39190613917565b6bffffffffffffffffffffffff16815250905060d5819080600181540180825580915050600190039060005260206000200160009091909190915060008201518160000160006101000a81548173ffffffffffffffffffffffffffffffffffffffff021916908373ffffffffffffffffffffffffffffffffffffffff16021790555060208201518160000160146101000a8154816bffffffffffffffffffffffff02191690836bffffffffffffffffffffffff16021790555050508383838181106110c1576110c061488d565b5b90506020028101906110d3919061442b565b60000160208101906110e59190613620565b60d760006110f360cc61255f565b815260200190815260200160002060006101000a81548173ffffffffffffffffffffffffffffffffffffffff021916908373ffffffffffffffffffffffffffffffffffffffff1602179055508383838181106111525761115161488d565b5b9050602002810190611164919061442b565b60000160208101906111769190613620565b73ffffffffffffffffffffffffffffffffffffffff167fc9ea8cab181724f3d7441e556cd93a976c6fb7c2e190a5ff208badd0778d11288585858181106111c0576111bf61488d565b5b90506020028101906111d2919061442b565b60200160208101906111e49190613917565b8686868181106111f7576111f661488d565b5b9050602002810190611209919061442b565b806040019061121891906143c8565b61122260cc61255f565b6040516112329493929190614325565b60405180910390a261124460cc6128cf565b5080806112509061477c565b915050610f52565b5060016099819055505050565b7f000000000000000000000000000000000000000000000000000000000000000073ffffffffffffffffffffffffffffffffffffffff163073ffffffffffffffffffffffffffffffffffffffff1614156112f4576040517f08c379a00000000000000000000000000000000000000000000000000000000081526004016112eb90614041565b60405180910390fd5b7f000000000000000000000000000000000000000000000000000000000000000073ffffffffffffffffffffffffffffffffffffffff1661133361256d565b73ffffffffffffffffffffffffffffffffffffffff1614611389576040517f08c379a0000000000000000000000000000000000000000000000000000000008152600401611380906140e1565b60405180910390fd5b611392826125c4565b61139e82826001612691565b5050565b600260995414156113e8576040517f08c379a00000000000000000000000000000000000000000000000000000000081526004016113df906142a1565b60405180910390fd5b60026099819055506113f9336124cc565b600060d58054905011611441576040517f08c379a000000000000000000000000000000000000000000000000000000000815260040161143890614061565b60405180910390fd5b600080600090505b60d5805490508110156114c5576114b060d5828154811061146d5761146c61488d565b5b9060005260206000200160000160149054906101000a90046bffffffffffffffffffffffff166bffffffffffffffffffffffff16836128e590919063ffffffff16565b915080806114bd9061477c565b915050611449565b5060006114dd8260d2546128fb90919063ffffffff16565b90506114f48260d25461291190919063ffffffff16565b60d28190555060005b60d5805490508110156115fe5760d5818154811061151e5761151d61488d565b5b9060005260206000200160000160009054906101000a900473ffffffffffffffffffffffffffffffffffffffff1673ffffffffffffffffffffffffffffffffffffffff166108fc6115bf60d5848154811061157c5761157b61488d565b5b9060005260206000200160000160149054906101000a90046bffffffffffffffffffffffff166bffffffffffffffffffffffff168561292790919063ffffffff16565b9081150290604051600060405180830381858888f193505050501580156115ea573d6000803e3d6000fd5b5080806115f69061477c565b9150506114fd565b507f7254ffd29ae20f1712bea29277015e5953493e93a264d860cdba0840857ec86160d25460405161163091906142e1565b60405180910390a150506001609981905550565b6002609954141561168a576040517f08c379a0000000000000000000000000000000000000000000000000000000008152600401611681906142a1565b60405180910390fd5b600260998190555061169c338261293d565b6116a5816129e5565b8160d6600083815260200190815260200160002060020160006101000a81548173ffffffffffffffffffffffffffffffffffffffff021916908373ffffffffffffffffffffffffffffffffffffffff1602179055508173ffffffffffffffffffffffffffffffffffffffff167f06f76e0da7be64239656a001b94c1c4e1893465df2f1ef90edb1e088b0852e698260405161174091906142e1565b60405180910390a260016099819055505050565b60007f000000000000000000000000000000000000000000000000000000000000000073ffffffffffffffffffffffffffffffffffffffff163073ffffffffffffffffffffffffffffffffffffffff16146117e4576040517f08c379a00000000000000000000000000000000000000000000000000000000081526004016117db90614101565b60405180910390fd5b7f360894a13ba1a3210667c828492db98dca3e2076cc3735a920a3ca505d382bbc60001b905090565b600046905090565b6002609954141561185b576040517f08c379a0000000000000000000000000000000000000000000000000000000008152600401611852906142a1565b60405180910390fd5b60026099819055503373ffffffffffffffffffffffffffffffffffffffff1660d6600083815260200190815260200160002060020160009054906101000a900473ffffffffffffffffffffffffffffffffffffffff1673ffffffffffffffffffffffffffffffffffffffff1614611907576040517f08c379a00000000000000000000000000000000000000000000000000000000081526004016118fe90614281565b60405180910390fd5b600060d6600083815260200190815260200160002060020160006101000a81548173ffffffffffffffffffffffffffffffffffffffff021916908373ffffffffffffffffffffffffffffffffffffffff1602179055507f3a7c2a55ffa9ac00869f1a3eb5e3209a949c0690416cad3ca8536b026908a0658160405161198c91906142e1565b60405180910390a1600160998190555050565b600260995414156119e5576040517f08c379a00000000000000000000000000000000000000000000000000000000081526004016119dc906142a1565b60405180910390fd5b60026099819055506119f6336124cc565b8060cf819055507f66cbca4f3c64fecf1dcb9ce094abcf7f68c3450a1d4e3a8e917dd621edb4ebe081604051611a2c91906142e1565b60405180910390a1600160998190555050565b60026099541415611a85576040517f08c379a0000000000000000000000000000000000000000000000000000000008152600401611a7c906142a1565b60405180910390fd5b6002609981905550611a96336124cc565b8060d0819055507f244ea8d7627f5a08f4299862bd5a45752842c183aee5b0fb0d1e4887bfa605b381604051611acc91906142e1565b60405180910390a1600160998190555050565b60026099541415611b25576040517f08c379a0000000000000000000000000000000000000000000000000000000008152600401611b1c906142a1565b60405180910390fd5b600260998190555060cf54341015611b72576040517f08c379a0000000000000000000000000000000000000000000000000000000008152600401611b69906140a1565b60405180910390fd5b60d460009054906101000a900460ff1615611be857611ba46001611b9660cb61255f565b6128b990919063ffffffff16565b60d35411611be7576040517f08c379a0000000000000000000000000000000000000000000000000000000008152600401611bde90614241565b60405180910390fd5b5b600060405180606001604052803373ffffffffffffffffffffffffffffffffffffffff16815260200160d460019054906101000a900473ffffffffffffffffffffffffffffffffffffffff1673ffffffffffffffffffffffffffffffffffffffff168152602001600073ffffffffffffffffffffffffffffffffffffffff1681525090508060d66000611c7b60cb61255f565b815260200190815260200160002060008201518160000160006101000a81548173ffffffffffffffffffffffffffffffffffffffff021916908373ffffffffffffffffffffffffffffffffffffffff16021790555060208201518160010160006101000a81548173ffffffffffffffffffffffffffffffffffffffff021916908373ffffffffffffffffffffffffffffffffffffffff16021790555060408201518160020160006101000a81548173ffffffffffffffffffffffffffffffffffffffff021916908373ffffffffffffffffffffffffffffffffffffffff160217905550905050611d6c60cf54612880565b3373ffffffffffffffffffffffffffffffffffffffff166108fc611d9b60cf54346128b990919063ffffffff16565b9081150290604051600060405180830381858888f19350505050158015611dc6573d6000803e3d6000fd5b503373ffffffffffffffffffffffffffffffffffffffff167f0a61a5bc4d97f46f5320375498e59af4d35ef1f6f31c51b9fc03c0134dd46817611e0960cb61255f565b60cf54604051611e1a9291906142fc565b60405180910390a2611e2c60cb6128cf565b506001609981905550565b60026099541415611e7d576040517f08c379a0000000000000000000000000000000000000000000000000000000008152600401611e74906142a1565b60405180910390fd5b6002609981905550611e8f338261293d565b611e98816129e5565b60d054341015611edd576040517f08c379a0000000000000000000000000000000000000000000000000000000008152600401611ed4906140a1565b60405180910390fd5b3360d6600083815260200190815260200160002060010160006101000a81548173ffffffffffffffffffffffffffffffffffffffff021916908373ffffffffffffffffffffffffffffffffffffffff1602179055508160d6600083815260200190815260200160002060000160006101000a81548173ffffffffffffffffffffffffffffffffffffffff021916908373ffffffffffffffffffffffffffffffffffffffff160217905550611f9260d054612880565b3373ffffffffffffffffffffffffffffffffffffffff166108fc611fc160d054346128b990919063ffffffff16565b9081150290604051600060405180830381858888f19350505050158015611fec573d6000803e3d6000fd5b508173ffffffffffffffffffffffffffffffffffffffff167f0ff0cdfdec8286eb9990d56a9dd0bbacd1f2631624f021b9ef8051cae989c8608260405161203391906142e1565b60405180910390a260016099819055505050565b600060019054906101000a900460ff1661206f5760008054906101000a900460ff1615612078565b612077612a8d565b5b6120b7576040517f08c379a00000000000000000000000000000000000000000000000000000000081526004016120ae90614141565b60405180910390fd5b60008060019054906101000a900460ff161590508015612107576001600060016101000a81548160ff02191690831515021790555060016000806101000a81548160ff0219169083151502179055505b61217b6040518060400160405280600c81526020017f424f4f4b2d564f554348455200000000000000000000000000000000000000008152506040518060400160405280600181526020017f3100000000000000000000000000000000000000000000000000000000000000815250612a9e565b612183612afb565b61218b612b54565b8760cd819055508660ce90805190602001906121a89291906133aa565b508560cf819055508460d0819055508160d460016101000a81548173ffffffffffffffffffffffffffffffffffffffff021916908373ffffffffffffffffffffffffffffffffffffffff160217905550821561222157600160d460006101000a81548160ff0219169083151502179055508360d3819055505b61222b60cb6128cf565b61223560cc6128cf565b80156122565760008060016101000a81548160ff0219169083151502179055505b5050505050505050565b600260995414156122a6576040517f08c379a000000000000000000000000000000000000000000000000000000000815260040161229d906142a1565b60405180910390fd5b60026099819055506122b7336124cc565b60d460009054906101000a900460ff16612306576040517f08c379a00000000000000000000000000000000000000000000000000000000081526004016122fd90614021565b60405180910390fd5b8060d360008282546123189190614517565b925050819055507f2997f475d409a7cba16d31bb0e76cd7bf156ffe8a8a1205a9a75c199d0c82dd460d35460405161235091906142e1565b60405180910390a1600160998190555050565b600081156123d4578373ffffffffffffffffffffffffffffffffffffffff1660d7600085815260200190815260200160002060009054906101000a900473ffffffffffffffffffffffffffffffffffffffff1673ffffffffffffffffffffffffffffffffffffffff1614905061243c565b8373ffffffffffffffffffffffffffffffffffffffff1660d6600085815260200190815260200160002060000160009054906101000a900473ffffffffffffffffffffffffffffffffffffffff1673ffffffffffffffffffffffffffffffffffffffff161490505b9392505050565b60008273ffffffffffffffffffffffffffffffffffffffff1660d6600084815260200190815260200160002060020160009054906101000a900473ffffffffffffffffffffffffffffffffffffffff1673ffffffffffffffffffffffffffffffffffffffff1614905092915050565b60006124c56124bf612bb5565b83612bf5565b9050919050565b60d460019054906101000a900473ffffffffffffffffffffffffffffffffffffffff1673ffffffffffffffffffffffffffffffffffffffff168173ffffffffffffffffffffffffffffffffffffffff161461255c576040517f08c379a000000000000000000000000000000000000000000000000000000000815260040161255390614281565b60405180910390fd5b50565b600081600001549050919050565b600061259b7f360894a13ba1a3210667c828492db98dca3e2076cc3735a920a3ca505d382bbc60001b612c28565b60000160009054906101000a900473ffffffffffffffffffffffffffffffffffffffff16905090565b6125cd336124cc565b60cd548173ffffffffffffffffffffffffffffffffffffffff16630c0907bd6040518163ffffffff1660e01b815260040160206040518083038186803b15801561261657600080fd5b505afa15801561262a573d6000803e3d6000fd5b505050506040513d601f19601f8201168201806040525081019061264e919061382c565b1461268e576040517f08c379a000000000000000000000000000000000000000000000000000000000815260040161268590613fe1565b60405180910390fd5b50565b6126bd7f4910fdfa16fed3260ed0e7147f7cc6da11a60208b5b9406d12a635614ffd914360001b612c32565b60000160009054906101000a900460ff16156126e1576126dc83612c3c565b612809565b8273ffffffffffffffffffffffffffffffffffffffff166352d1902d6040518163ffffffff1660e01b815260040160206040518083038186803b15801561272757600080fd5b505afa92505050801561275857506040513d601f19601f820116820180604052508101906127559190613789565b60015b612797576040517f08c379a000000000000000000000000000000000000000000000000000000000815260040161278e90614181565b60405180910390fd5b7f360894a13ba1a3210667c828492db98dca3e2076cc3735a920a3ca505d382bbc60001b81146127fc576040517f08c379a00000000000000000000000000000000000000000000000000000000081526004016127f390614121565b60405180910390fd5b50612808838383612cf5565b5b505050565b60008061281a8361054a565b9050612878818480606001906128309190614365565b8080601f016020809104026020016040519081016040528093929190818152602001838380828437600081840152601f19601f82011690508083019250505050505050612d21565b915050919050565b6128958160d1546128e590919063ffffffff16565b60d1819055506128b08160d2546128e590919063ffffffff16565b60d28190555050565b600081836128c791906145f8565b905092915050565b6001816000016000828254019250508190555050565b600081836128f39190614517565b905092915050565b60008183612909919061456d565b905092915050565b6000818361291f91906147cf565b905092915050565b60008183612935919061459e565b905092915050565b8173ffffffffffffffffffffffffffffffffffffffff1660d6600083815260200190815260200160002060000160009054906101000a900473ffffffffffffffffffffffffffffffffffffffff1673ffffffffffffffffffffffffffffffffffffffff16146129e1576040517f08c379a00000000000000000000000000000000000000000000000000000000081526004016129d890614281565b60405180910390fd5b5050565b600073ffffffffffffffffffffffffffffffffffffffff1660d6600083815260200190815260200160002060020160009054906101000a900473ffffffffffffffffffffffffffffffffffffffff1673ffffffffffffffffffffffffffffffffffffffff1614612a8a576040517f08c379a0000000000000000000000000000000000000000000000000000000008152600401612a81906142c1565b60405180910390fd5b50565b6000612a9830612d9b565b15905090565b600060019054906101000a900460ff16612aed576040517f08c379a0000000000000000000000000000000000000000000000000000000008152600401612ae490614261565b60405180910390fd5b612af78282612dae565b5050565b600060019054906101000a900460ff16612b4a576040517f08c379a0000000000000000000000000000000000000000000000000000000008152600401612b4190614261565b60405180910390fd5b612b52612e29565b565b600060019054906101000a900460ff16612ba3576040517f08c379a0000000000000000000000000000000000000000000000000000000008152600401612b9a90614261565b60405180910390fd5b612bab612e82565b612bb3612ed3565b565b6000612bf07f8b73c3c69bb8fe3d512ecc4cf759cc79239f7b179b0ffacaa9a75d522b39400f612be3612f24565b612beb612f2e565b612f38565b905090565b60008282604051602001612c0a929190613e3a565b60405160208183030381529060405280519060200120905092915050565b6000819050919050565b6000819050919050565b612c4581612d9b565b612c84576040517f08c379a0000000000000000000000000000000000000000000000000000000008152600401612c7b906141c1565b60405180910390fd5b80612cb17f360894a13ba1a3210667c828492db98dca3e2076cc3735a920a3ca505d382bbc60001b612c28565b60000160006101000a81548173ffffffffffffffffffffffffffffffffffffffff021916908373ffffffffffffffffffffffffffffffffffffffff16021790555050565b612cfe83612f72565b600082511180612d0b5750805b15612d1c57612d1a8383612fc1565b505b505050565b60006041825114612d67576040517f08c379a0000000000000000000000000000000000000000000000000000000008152600401612d5e90614001565b60405180910390fd5b60008060006020850151925060408501519150606085015160001a9050612d90868285856130a5565b935050505092915050565b600080823b905060008111915050919050565b600060019054906101000a900460ff16612dfd576040517f08c379a0000000000000000000000000000000000000000000000000000000008152600401612df490614261565b60405180910390fd5b600082805190602001209050600082805190602001209050816065819055508060668190555050505050565b600060019054906101000a900460ff16612e78576040517f08c379a0000000000000000000000000000000000000000000000000000000008152600401612e6f90614261565b60405180910390fd5b6001609981905550565b600060019054906101000a900460ff16612ed1576040517f08c379a0000000000000000000000000000000000000000000000000000000008152600401612ec890614261565b60405180910390fd5b565b600060019054906101000a900460ff16612f22576040517f08c379a0000000000000000000000000000000000000000000000000000000008152600401612f1990614261565b60405180910390fd5b565b6000606554905090565b6000606654905090565b60008383834630604051602001612f53959493929190613ec2565b6040516020818303038152906040528051906020012090509392505050565b612f7b81612c3c565b8073ffffffffffffffffffffffffffffffffffffffff167fbc7cd75a20ee27fd9adebab32041f755214dbc6bffa90cc0225b39da2e5c2d3b60405160405180910390a250565b6060612fcc83612d9b565b61300b576040517f08c379a000000000000000000000000000000000000000000000000000000000815260040161300290614221565b60405180910390fd5b6000808473ffffffffffffffffffffffffffffffffffffffff16846040516130339190613dfd565b600060405180830381855af49150503d806000811461306e576040519150601f19603f3d011682016040523d82523d6000602084013e613073565b606091505b509150915061309b8282604051806060016040528060278152602001614f9760279139613313565b9250505092915050565b60007f7fffffffffffffffffffffffffffffff5d576e7357a4501ddfe92f46681b20a08260001c111561310d576040517f08c379a0000000000000000000000000000000000000000000000000000000008152600401613104906140c1565b60405180910390fd5b6000601e8560ff1611156131f157601b60048661312a919061462c565b60ff1614806131485750601c600486613143919061462c565b60ff16145b613187576040517f08c379a000000000000000000000000000000000000000000000000000000000815260040161317e90614161565b60405180910390fd5b60016131928761337a565b60048761319f919061462c565b8686604051600081526020016040526040516131be9493929190613f5a565b6020604051602081039080840390855afa1580156131e0573d6000803e3d6000fd5b505050602060405103519050613297565b601b8560ff1614806132065750601c8560ff16145b613245576040517f08c379a000000000000000000000000000000000000000000000000000000000815260040161323c90614161565b60405180910390fd5b600186868686604051600081526020016040526040516132689493929190613f5a565b6020604051602081039080840390855afa15801561328a573d6000803e3d6000fd5b5050506020604051035190505b600073ffffffffffffffffffffffffffffffffffffffff168173ffffffffffffffffffffffffffffffffffffffff161415613307576040517f08c379a00000000000000000000000000000000000000000000000000000000081526004016132fe90613fc1565b60405180910390fd5b80915050949350505050565b6060831561332357829050613373565b6000835111156133365782518084602001fd5b816040517f08c379a000000000000000000000000000000000000000000000000000000000815260040161336a9190613f9f565b60405180910390fd5b9392505050565b60008160405160200161338d9190613e14565b604051602081830303815290604052805190602001209050919050565b8280546133b690614719565b90600052602060002090601f0160209004810192826133d8576000855561341f565b82601f106133f157805160ff191683800117855561341f565b8280016001018555821561341f579182015b8281111561341e578251825591602001919060010190613403565b5b50905061342c9190613430565b5090565b5b80821115613449576000816000905550600101613431565b5090565b600061346061345b84614478565b614453565b90508281526020810184848401111561347c5761347b61490e565b5b6134878482856146d7565b509392505050565b60006134a261349d846144a9565b614453565b9050828152602081018484840111156134be576134bd61490e565b5b6134c98482856146d7565b509392505050565b6000813590506134e081614f23565b92915050565b60008083601f8401126134fc576134fb6148f0565b5b8235905067ffffffffffffffff811115613519576135186148eb565b5b60208301915083602082028301111561353557613534614904565b5b9250929050565b60008135905061354b81614f3a565b92915050565b60008151905061356081614f51565b92915050565b600082601f83011261357b5761357a6148f0565b5b813561358b84826020860161344d565b91505092915050565b600082601f8301126135a9576135a86148f0565b5b81356135b984826020860161348f565b91505092915050565b6000608082840312156135d8576135d76148fa565b5b81905092915050565b6000813590506135f081614f68565b92915050565b60008151905061360581614f68565b92915050565b60008135905061361a81614f7f565b92915050565b60006020828403121561363657613635614918565b5b6000613644848285016134d1565b91505092915050565b6000806040838503121561366457613663614918565b5b6000613672858286016134d1565b925050602083013567ffffffffffffffff81111561369357613692614913565b5b61369f85828601613566565b9150509250929050565b600080604083850312156136c0576136bf614918565b5b60006136ce858286016134d1565b92505060206136df858286016135e1565b9150509250929050565b60008060006060848603121561370257613701614918565b5b6000613710868287016134d1565b9350506020613721868287016135e1565b92505060406137328682870161353c565b9150509250925092565b6000806020838503121561375357613752614918565b5b600083013567ffffffffffffffff81111561377157613770614913565b5b61377d858286016134e6565b92509250509250929050565b60006020828403121561379f5761379e614918565b5b60006137ad84828501613551565b91505092915050565b6000602082840312156137cc576137cb614918565b5b600082013567ffffffffffffffff8111156137ea576137e9614913565b5b6137f6848285016135c2565b91505092915050565b60006020828403121561381557613814614918565b5b6000613823848285016135e1565b91505092915050565b60006020828403121561384257613841614918565b5b6000613850848285016135f6565b91505092915050565b600080600080600080600060e0888a03121561387857613877614918565b5b60006138868a828b016135e1565b975050602088013567ffffffffffffffff8111156138a7576138a6614913565b5b6138b38a828b01613594565b96505060406138c48a828b016135e1565b95505060606138d58a828b016135e1565b94505060806138e68a828b016135e1565b93505060a06138f78a828b0161353c565b92505060c06139088a828b016134d1565b91505092959891949750929550565b60006020828403121561392d5761392c614918565b5b600061393b8482850161360b565b91505092915050565b61394d81614660565b82525050565b61395c81614672565b82525050565b61396b8161467e565b82525050565b61398261397d8261467e565b6147c5565b82525050565b6000613993826144da565b61399d81856144f0565b93506139ad8185602086016146e6565b80840191505092915050565b60006139c583856144fb565b93506139d28385846146d7565b6139db8361491d565b840190509392505050565b60006139f1826144e5565b6139fb81856144fb565b9350613a0b8185602086016146e6565b613a148161491d565b840191505092915050565b6000613a2c6018836144fb565b9150613a378261492e565b602082019050919050565b6000613a4f6016836144fb565b9150613a5a82614957565b602082019050919050565b6000613a72601f836144fb565b9150613a7d82614980565b602082019050919050565b6000613a95601c8361450c565b9150613aa0826149a9565b601c82019050919050565b6000613ab860028361450c565b9150613ac3826149d2565b600282019050919050565b6000613adb6012836144fb565b9150613ae6826149fb565b602082019050919050565b6000613afe602c836144fb565b9150613b0982614a24565b604082019050919050565b6000613b216015836144fb565b9150613b2c82614a73565b602082019050919050565b6000613b446016836144fb565b9150613b4f82614a9c565b602082019050919050565b6000613b676012836144fb565b9150613b7282614ac5565b602082019050919050565b6000613b8a6022836144fb565b9150613b9582614aee565b604082019050919050565b6000613bad602c836144fb565b9150613bb882614b3d565b604082019050919050565b6000613bd06038836144fb565b9150613bdb82614b8c565b604082019050919050565b6000613bf36029836144fb565b9150613bfe82614bdb565b604082019050919050565b6000613c16602e836144fb565b9150613c2182614c2a565b604082019050919050565b6000613c396022836144fb565b9150613c4482614c79565b604082019050919050565b6000613c5c602e836144fb565b9150613c6782614cc8565b604082019050919050565b6000613c7f600f836144fb565b9150613c8a82614d17565b602082019050919050565b6000613ca2602d836144fb565b9150613cad82614d40565b604082019050919050565b6000613cc56011836144fb565b9150613cd082614d8f565b602082019050919050565b6000613ce86018836144fb565b9150613cf382614db8565b602082019050919050565b6000613d0b6026836144fb565b9150613d1682614de1565b604082019050919050565b6000613d2e6014836144fb565b9150613d3982614e30565b602082019050919050565b6000613d51602b836144fb565b9150613d5c82614e59565b604082019050919050565b6000613d746015836144fb565b9150613d7f82614ea8565b602082019050919050565b6000613d97601f836144fb565b9150613da282614ed1565b602082019050919050565b6000613dba600b836144fb565b9150613dc582614efa565b602082019050919050565b613dd9816146a8565b82525050565b613de8816146b2565b82525050565b613df7816146bf565b82525050565b6000613e098284613988565b915081905092915050565b6000613e1f82613a88565b9150613e2b8284613971565b60208201915081905092915050565b6000613e4582613aab565b9150613e518285613971565b602082019150613e618284613971565b6020820191508190509392505050565b6000602082019050613e866000830184613944565b92915050565b6000602082019050613ea16000830184613953565b92915050565b6000602082019050613ebc6000830184613962565b92915050565b600060a082019050613ed76000830188613962565b613ee46020830187613962565b613ef16040830186613962565b613efe6060830185613dd0565b613f0b6080830184613944565b9695505050505050565b6000608082019050613f2a6000830187613962565b613f376020830186613dd0565b613f446040830185613dd0565b613f516060830184613944565b95945050505050565b6000608082019050613f6f6000830187613962565b613f7c6020830186613ddf565b613f896040830185613962565b613f966060830184613962565b95945050505050565b60006020820190508181036000830152613fb981846139e6565b905092915050565b60006020820190508181036000830152613fda81613a1f565b9050919050565b60006020820190508181036000830152613ffa81613a42565b9050919050565b6000602082019050818103600083015261401a81613a65565b9050919050565b6000602082019050818103600083015261403a81613ace565b9050919050565b6000602082019050818103600083015261405a81613af1565b9050919050565b6000602082019050818103600083015261407a81613b14565b9050919050565b6000602082019050818103600083015261409a81613b37565b9050919050565b600060208201905081810360008301526140ba81613b5a565b9050919050565b600060208201905081810360008301526140da81613b7d565b9050919050565b600060208201905081810360008301526140fa81613ba0565b9050919050565b6000602082019050818103600083015261411a81613bc3565b9050919050565b6000602082019050818103600083015261413a81613be6565b9050919050565b6000602082019050818103600083015261415a81613c09565b9050919050565b6000602082019050818103600083015261417a81613c2c565b9050919050565b6000602082019050818103600083015261419a81613c4f565b9050919050565b600060208201905081810360008301526141ba81613c72565b9050919050565b600060208201905081810360008301526141da81613c95565b9050919050565b600060208201905081810360008301526141fa81613cb8565b9050919050565b6000602082019050818103600083015261421a81613cdb565b9050919050565b6000602082019050818103600083015261423a81613cfe565b9050919050565b6000602082019050818103600083015261425a81613d21565b9050919050565b6000602082019050818103600083015261427a81613d44565b9050919050565b6000602082019050818103600083015261429a81613d67565b9050919050565b600060208201905081810360008301526142ba81613d8a565b9050919050565b600060208201905081810360008301526142da81613dad565b9050919050565b60006020820190506142f66000830184613dd0565b92915050565b60006040820190506143116000830185613dd0565b61431e6020830184613dd0565b9392505050565b600060608201905061433a6000830187613dee565b818103602083015261434d8185876139b9565b905061435c6040830184613dd0565b95945050505050565b60008083356001602003843603038112614382576143816148ff565b5b80840192508235915067ffffffffffffffff8211156143a4576143a36148f5565b5b6020830192506001820236038313156143c0576143bf614909565b5b509250929050565b600080833560016020038436030381126143e5576143e46148ff565b5b80840192508235915067ffffffffffffffff821115614407576144066148f5565b5b60208301925060018202360383131561442357614422614909565b5b509250929050565b600082356001606003833603038112614447576144466148ff565b5b80830191505092915050565b600061445d61446e565b9050614469828261474b565b919050565b6000604051905090565b600067ffffffffffffffff821115614493576144926148bc565b5b61449c8261491d565b9050602081019050919050565b600067ffffffffffffffff8211156144c4576144c36148bc565b5b6144cd8261491d565b9050602081019050919050565b600081519050919050565b600081519050919050565b600081905092915050565b600082825260208201905092915050565b600081905092915050565b6000614522826146a8565b915061452d836146a8565b9250827fffffffffffffffffffffffffffffffffffffffffffffffffffffffffffffffff0382111561456257614561614800565b5b828201905092915050565b6000614578826146a8565b9150614583836146a8565b9250826145935761459261482f565b5b828204905092915050565b60006145a9826146a8565b91506145b4836146a8565b9250817fffffffffffffffffffffffffffffffffffffffffffffffffffffffffffffffff04831182151516156145ed576145ec614800565b5b828202905092915050565b6000614603826146a8565b915061460e836146a8565b92508282101561462157614620614800565b5b828203905092915050565b6000614637826146b2565b9150614642836146b2565b92508282101561465557614654614800565b5b828203905092915050565b600061466b82614688565b9050919050565b60008115159050919050565b6000819050919050565b600073ffffffffffffffffffffffffffffffffffffffff82169050919050565b6000819050919050565b600060ff82169050919050565b60006bffffffffffffffffffffffff82169050919050565b82818337600083830152505050565b60005b838110156147045780820151818401526020810190506146e9565b83811115614713576000848401525b50505050565b6000600282049050600182168061473157607f821691505b602082108114156147455761474461485e565b5b50919050565b6147548261491d565b810181811067ffffffffffffffff82111715614773576147726148bc565b5b80604052505050565b6000614787826146a8565b91507fffffffffffffffffffffffffffffffffffffffffffffffffffffffffffffffff8214156147ba576147b9614800565b5b600182019050919050565b6000819050919050565b60006147da826146a8565b91506147e5836146a8565b9250826147f5576147f461482f565b5b828206905092915050565b7f4e487b7100000000000000000000000000000000000000000000000000000000600052601160045260246000fd5b7f4e487b7100000000000000000000000000000000000000000000000000000000600052601260045260246000fd5b7f4e487b7100000000000000000000000000000000000000000000000000000000600052602260045260246000fd5b7f4e487b7100000000000000000000000000000000000000000000000000000000600052603260045260246000fd5b7f4e487b7100000000000000000000000000000000000000000000000000000000600052604160045260246000fd5b600080fd5b600080fd5b600080fd5b600080fd5b600080fd5b600080fd5b600080fd5b600080fd5b600080fd5b600080fd5b6000601f19601f8301169050919050565b7f45434453413a20696e76616c6964207369676e61747572650000000000000000600082015250565b7f496e76616c696420496d706c656d656e746174696f6e00000000000000000000600082015250565b7f45434453413a20696e76616c6964207369676e6174757265206c656e67746800600082015250565b7f19457468657265756d205369676e6564204d6573736167653a0a333200000000600082015250565b7f1901000000000000000000000000000000000000000000000000000000000000600082015250565b7f537570706c79204e6f74204c696d697465640000000000000000000000000000600082015250565b7f46756e6374696f6e206d7573742062652063616c6c6564207468726f7567682060008201527f64656c656761746563616c6c0000000000000000000000000000000000000000602082015250565b7f4e6f20436f6e7472696275746f72732041646465640000000000000000000000600082015250565b7f537570706c7920416c7265616479204c696d6974656400000000000000000000600082015250565b7f496e73756666696369656e742046756e64730000000000000000000000000000600082015250565b7f45434453413a20696e76616c6964207369676e6174757265202773272076616c60008201527f7565000000000000000000000000000000000000000000000000000000000000602082015250565b7f46756e6374696f6e206d7573742062652063616c6c6564207468726f7567682060008201527f6163746976652070726f78790000000000000000000000000000000000000000602082015250565b7f555550535570677261646561626c653a206d757374206e6f742062652063616c60008201527f6c6564207468726f7567682064656c656761746563616c6c0000000000000000602082015250565b7f45524331393637557067726164653a20756e737570706f727465642070726f7860008201527f6961626c65555549440000000000000000000000000000000000000000000000602082015250565b7f496e697469616c697a61626c653a20636f6e747261637420697320616c72656160008201527f647920696e697469616c697a6564000000000000000000000000000000000000602082015250565b7f45434453413a20696e76616c6964207369676e6174757265202776272076616c60008201527f7565000000000000000000000000000000000000000000000000000000000000602082015250565b7f45524331393637557067726164653a206e657720696d706c656d656e7461746960008201527f6f6e206973206e6f742055555053000000000000000000000000000000000000602082015250565b7f496e76616c696420526571756573740000000000000000000000000000000000600082015250565b7f455243313936373a206e657720696d706c656d656e746174696f6e206973206e60008201527f6f74206120636f6e747261637400000000000000000000000000000000000000602082015250565b7f496e76616c6964205369676e6174757265000000000000000000000000000000600082015250565b7f537570706c7920416c726561647920556e6c696d697465640000000000000000600082015250565b7f416464726573733a2064656c65676174652063616c6c20746f206e6f6e2d636f60008201527f6e74726163740000000000000000000000000000000000000000000000000000602082015250565b7f537570706c79204c696d69742052656163686564000000000000000000000000600082015250565b7f496e697469616c697a61626c653a20636f6e7472616374206973206e6f74206960008201527f6e697469616c697a696e67000000000000000000000000000000000000000000602082015250565b7f556e2d617574686f72697a656420526571756573740000000000000000000000600082015250565b7f5265656e7472616e637947756172643a207265656e7472616e742063616c6c00600082015250565b7f426f6f6b204c6f636b6564000000000000000000000000000000000000000000600082015250565b614f2c81614660565b8114614f3757600080fd5b50565b614f4381614672565b8114614f4e57600080fd5b50565b614f5a8161467e565b8114614f6557600080fd5b50565b614f71816146a8565b8114614f7c57600080fd5b50565b614f88816146bf565b8114614f9357600080fd5b5056fe416464726573733a206c6f772d6c6576656c2064656c65676174652063616c6c206661696c6564a26469706673582212205236f94110d4a2372b4cfbb89229de0c187f714b06c13a0871806e927ebfa32b64736f6c63430008070033a2646970667358221220a4abaedc69a6b0aef1fb53621e70f49f2ae5ed92df08692dc118c504b9a9b7df64736f6c63430008070033",
  "linkReferences": {},
  "deployedLinkReferences": {}
}