{
    "_format": "hh-sol-artifact-1",
    "contractName": "Publisher",
    "sourceName": "contracts/v3/Publisher.sol",
    "abi": [
        {
            "inputs": [],
            "stateMutability": "nonpayable",
            "type": "constructor"
        },
        {
            "anonymous": false,
            "inputs": [
                {
                    "indexed": false,
                    "internalType": "uint256",
                    "name": "bookId",
                    "type": "uint256"
                },
                {
                    "indexed": true,
                    "internalType": "address",
                    "name": "publisher",
                    "type": "address"
                },
                {
                    "indexed": false,
                    "internalType": "bytes32",
                    "name": "metadataUri",
                    "type": "bytes32"
                },
                {
                    "indexed": false,
                    "internalType": "bytes32",
                    "name": "coverPageUri",
                    "type": "bytes32"
                },
                {
                    "indexed": false,
                    "internalType": "uint256",
                    "name": "price",
                    "type": "uint256"
                },
                {
                    "indexed": false,
                    "internalType": "uint256",
                    "name": "royalty",
                    "type": "uint256"
                },
                {
                    "indexed": false,
                    "internalType": "uint256",
                    "name": "edition",
                    "type": "uint256"
                },
                {
                    "indexed": false,
                    "internalType": "uint256",
                    "name": "prequel",
                    "type": "uint256"
                },
                {
                    "indexed": false,
                    "internalType": "bool",
                    "name": "supplyLimited",
                    "type": "bool"
                },
                {
                    "indexed": false,
                    "internalType": "uint256",
                    "name": "pricedBookSupplyLimit",
                    "type": "uint256"
                },
                {
                    "indexed": true,
                    "internalType": "address",
                    "name": "bookAddress",
                    "type": "address"
                }
            ],
            "name": "BookPublished",
            "type": "event"
        },
        {
            "inputs": [
                {
                    "internalType": "uint256",
                    "name": "bookId",
                    "type": "uint256"
                }
            ],
            "name": "getBookAddress",
            "outputs": [
                {
                    "internalType": "address",
                    "name": "",
                    "type": "address"
                }
            ],
            "stateMutability": "view",
            "type": "function"
        },
        {
            "inputs": [
                {
                    "internalType": "bytes32",
                    "name": "uri",
                    "type": "bytes32"
                },
                {
                    "internalType": "bytes32",
                    "name": "metadataUri",
                    "type": "bytes32"
                },
                {
                    "internalType": "bytes32",
                    "name": "coverPageUri",
                    "type": "bytes32"
                },
                {
                    "internalType": "uint256",
                    "name": "price",
                    "type": "uint256"
                },
                {
                    "internalType": "uint256",
                    "name": "royalty",
                    "type": "uint256"
                },
                {
                    "internalType": "uint256",
                    "name": "edition",
                    "type": "uint256"
                },
                {
                    "internalType": "uint256",
                    "name": "prequel",
                    "type": "uint256"
                },
                {
                    "internalType": "bool",
                    "name": "supplyLimited",
                    "type": "bool"
                },
                {
                    "internalType": "uint256",
                    "name": "pricedBookSupplyLimit",
                    "type": "uint256"
                }
            ],
            "name": "publish",
            "outputs": [],
            "stateMutability": "nonpayable",
            "type": "function"
        }
    ],
    "bytecode": "0x608060405234801561001057600080fd5b50610025600061002a60201b61025f1760201c565b6100d8565b600181600001600082825461003f9190610049565b9250508190555050565b60006100548261009f565b915061005f8361009f565b9250827fffffffffffffffffffffffffffffffffffffffffffffffffffffffffffffffff03821115610094576100936100a9565b5b828201905092915050565b6000819050919050565b7f4e487b7100000000000000000000000000000000000000000000000000000000600052601160045260246000fd5b615ad0806100e76000396000f3fe608060405234801561001057600080fd5b50600436106100365760003560e01c80630805cd241461003b5780636016bb7714610057575b600080fd5b610055600480360381019061005091906102d8565b610087565b005b610071600480360381019061006c91906103a2565b610222565b60405161007e919061040b565b60405180910390f35b60006040516100959061028c565b604051809103906000f0801580156100b1573d6000803e3d6000fd5b50905060006100c0600061027e565b90508173ffffffffffffffffffffffffffffffffffffffff166318b8de5b828d8c8c8c898b336040518963ffffffff1660e01b8152600401610109989796959493929190610426565b600060405180830381600087803b15801561012357600080fd5b505af1158015610137573d6000803e3d6000fd5b50505050816001600061014a600061027e565b815260200190815260200160002060006101000a81548173ffffffffffffffffffffffffffffffffffffffff021916908373ffffffffffffffffffffffffffffffffffffffff1602179055508173ffffffffffffffffffffffffffffffffffffffff163373ffffffffffffffffffffffffffffffffffffffff167f8505e021a2f8a2b2aae2f974d53a123aaa9ff1cd9b8a79418bc32de9f1dbf6e4838d8d8d8d8d8d8d8d604051610203999897969594939291906104a4565b60405180910390a3610215600061025f565b5050505050505050505050565b60006001600083815260200190815260200160002060009054906101000a900473ffffffffffffffffffffffffffffffffffffffff169050919050565b60018160000160008282546102749190610531565b9250508190555050565b600081600001549050919050565b6154488061065383390190565b6000813590506102a88161060d565b92915050565b6000813590506102bd81610624565b92915050565b6000813590506102d28161063b565b92915050565b60008060008060008060008060006101208a8c0312156102fb576102fa610608565b5b60006103098c828d016102ae565b995050602061031a8c828d016102ae565b985050604061032b8c828d016102ae565b975050606061033c8c828d016102c3565b965050608061034d8c828d016102c3565b95505060a061035e8c828d016102c3565b94505060c061036f8c828d016102c3565b93505060e06103808c828d01610299565b9250506101006103928c828d016102c3565b9150509295985092959850929598565b6000602082840312156103b8576103b7610608565b5b60006103c6848285016102c3565b91505092915050565b6103d881610587565b82525050565b6103e781610599565b82525050565b6103f6816105a5565b82525050565b610405816105cf565b82525050565b600060208201905061042060008301846103cf565b92915050565b60006101008201905061043c600083018b6103fc565b610449602083018a6103ed565b61045660408301896103ed565b61046360608301886103fc565b61047060808301876103fc565b61047d60a08301866103fc565b61048a60c08301856103de565b61049760e08301846103cf565b9998505050505050505050565b6000610120820190506104ba600083018c6103fc565b6104c7602083018b6103ed565b6104d4604083018a6103ed565b6104e160608301896103fc565b6104ee60808301886103fc565b6104fb60a08301876103fc565b61050860c08301866103fc565b61051560e08301856103de565b6105236101008301846103fc565b9a9950505050505050505050565b600061053c826105cf565b9150610547836105cf565b9250827fffffffffffffffffffffffffffffffffffffffffffffffffffffffffffffffff0382111561057c5761057b6105d9565b5b828201905092915050565b6000610592826105af565b9050919050565b60008115159050919050565b6000819050919050565b600073ffffffffffffffffffffffffffffffffffffffff82169050919050565b6000819050919050565b7f4e487b7100000000000000000000000000000000000000000000000000000000600052601160045260246000fd5b600080fd5b61061681610599565b811461062157600080fd5b50565b61062d816105a5565b811461063857600080fd5b50565b610644816105cf565b811461064f57600080fd5b5056fe60a06040523073ffffffffffffffffffffffffffffffffffffffff1660809073ffffffffffffffffffffffffffffffffffffffff1660601b81525034801561004657600080fd5b5060805160601c6153c761008160003960008181610d7401528181610e030152818161166b015281816116fa0152611b1401526153c76000f3fe6080604052600436106101b65760003560e01c80635291fcd5116100ec5780639984a5081161008a578063d0f12fb811610064578063d0f12fb814610560578063ea8feae114610577578063f8fbea34146105a0578063fa123172146105dd576101b6565b80639984a50814610511578063a6f2ae3a1461053a578063a9059cbb14610544576101b6565b8063571a2b6f116100c6578063571a2b6f1461046d5780636198e339146104965780638d6cc56d146104bf5780638fffd8b5146104e8576101b6565b80635291fcd5146103ee57806352d1902d14610417578063564b81ef14610442576101b6565b806333b582c4116101595780634630dd44116101335780634630dd44146103835780634cd3358c1461039f5780634f1ef286146103c85780634f573cb2146103e4576101b6565b806333b582c4146103065780633659cfe6146103315780633b8ceba31461035a576101b6565b80630e89341c116101955780630e89341c1461026057806318b8de5b1461029d57806326dcb449146102c65780632ddcb21f146102ef576101b6565b806256856a146101bb5780630711a921146101f85780630c0907bd14610235575b600080fd5b3480156101c757600080fd5b506101e260048036038101906101dd9190613b60565b61061a565b6040516101ef91906141dd565b60405180910390f35b34801561020457600080fd5b5061021f600480360381019061021a9190613aea565b61065a565b60405161022c9190614213565b60405180910390f35b34801561024157600080fd5b5061024a6106d2565b604051610257919061464d565b60405180910390f35b34801561026c57600080fd5b5061028760048036038101906102829190613b60565b6106d8565b6040516102949190614213565b60405180910390f35b3480156102a957600080fd5b506102c460048036038101906102bf9190613bba565b6108ca565b005b3480156102d257600080fd5b506102ed60048036038101906102e89190613b33565b610ad3565b005b3480156102fb57600080fd5b50610304610c54565b005b34801561031257600080fd5b5061031b610d5f565b604051610328919061464d565b60405180910390f35b34801561033d57600080fd5b5061035860048036038101906103539190613934565b610d72565b005b34801561036657600080fd5b50610381600480360381019061037c9190613a50565b610efb565b005b61039d60048036038101906103989190613aea565b61109a565b005b3480156103ab57600080fd5b506103c660048036038101906103c19190613934565b6113a8565b005b6103e260048036038101906103dd9190613961565b611669565b005b6103ec6117a6565b005b3480156103fa57600080fd5b50610415600480360381019061041091906139bd565b611a00565b005b34801561042357600080fd5b5061042c611b10565b6040516104399190614213565b60405180910390f35b34801561044e57600080fd5b50610457611bc9565b604051610464919061464d565b60405180910390f35b34801561047957600080fd5b50610494600480360381019061048f9190613c70565b611bd1565b005b3480156104a257600080fd5b506104bd60048036038101906104b89190613b60565b611cd7565b005b3480156104cb57600080fd5b506104e660048036038101906104e19190613b60565b611e61565b005b3480156104f457600080fd5b5061050f600480360381019061050a9190613b60565b611f01565b005b34801561051d57600080fd5b5061053860048036038101906105339190613a90565b611fa1565b005b610542612041565b005b61055e600480360381019061055991906139bd565b6123ab565b005b34801561056c57600080fd5b506105756125bb565b005b34801561058357600080fd5b5061059e60048036038101906105999190613b60565b6126a9565b005b3480156105ac57600080fd5b506105c760048036038101906105c291906139fd565b6127ac565b6040516105d491906141f8565b60405180910390f35b3480156105e957600080fd5b5061060460048036038101906105ff91906139bd565b61288c565b60405161061191906141f8565b60405180910390f35b600060d7600083815260200190815260200160002060010160009054906101000a900473ffffffffffffffffffffffffffffffffffffffff169050919050565b60006106cb7f134298cc09dce2d2d7b546d1489fda5aa6e53acbdf51e00731238ff4f4624d4d8360000135846040013585602001602081019061069d9190613934565b6040516020016106b09493929190614281565b604051602081830303815290604052805190602001206128fb565b9050919050565b60cd5481565b60008073ffffffffffffffffffffffffffffffffffffffff1660d7600084815260200190815260200160002060020160009054906101000a900473ffffffffffffffffffffffffffffffffffffffff1673ffffffffffffffffffffffffffffffffffffffff161480156107ac57503373ffffffffffffffffffffffffffffffffffffffff1660d7600084815260200190815260200160002060000160009054906101000a900473ffffffffffffffffffffffffffffffffffffffff1673ffffffffffffffffffffffffffffffffffffffff16145b8061081857503373ffffffffffffffffffffffffffffffffffffffff1660d7600084815260200190815260200160002060020160009054906101000a900473ffffffffffffffffffffffffffffffffffffffff1673ffffffffffffffffffffffffffffffffffffffff16145b8061088157503373ffffffffffffffffffffffffffffffffffffffff1660d8600084815260200190815260200160002060009054906101000a900473ffffffffffffffffffffffffffffffffffffffff1673ffffffffffffffffffffffffffffffffffffffff16145b6108c0576040517f08c379a00000000000000000000000000000000000000000000000000000000081526004016108b7906145ed565b60405180910390fd5b60ce549050919050565b600060019054906101000a900460ff166108f25760008054906101000a900460ff16156108fb565b6108fa612915565b5b61093a576040517f08c379a0000000000000000000000000000000000000000000000000000000008152600401610931906144ad565b60405180910390fd5b60008060019054906101000a900460ff16159050801561098a576001600060016101000a81548160ff02191690831515021790555060016000806101000a81548160ff0219169083151502179055505b6109fe6040518060400160405280600c81526020017f424f4f4b2d564f554348455200000000000000000000000000000000000000008152506040518060400160405280600181526020017f3100000000000000000000000000000000000000000000000000000000000000815250612926565b610a06612983565b610a0e6129dc565b8860cd819055508760ce819055508660cf819055508560d0819055508460d1819055508360d4819055508260d560006101000a81548160ff0219169083151502179055508160d560016101000a81548173ffffffffffffffffffffffffffffffffffffffff021916908373ffffffffffffffffffffffffffffffffffffffff160217905550610a9d60cb612a3d565b610aa760cc612a3d565b8015610ac85760008060016101000a81548160ff0219169083151502179055505b505050505050505050565b60026099541415610b19576040517f08c379a0000000000000000000000000000000000000000000000000000000008152600401610b109061460d565b60405180910390fd5b6002609981905550610b2a33612a53565b60d681908060018154018082558091505060019003906000526020600020016000909190919091508181610b5e91906152c6565b5050806000016020810190610b739190613934565b60d86000610b8160cc612ae6565b815260200190815260200160002060006101000a81548173ffffffffffffffffffffffffffffffffffffffff021916908373ffffffffffffffffffffffffffffffffffffffff160217905550610bd760cc612a3d565b806000016020810190610bea9190613934565b73ffffffffffffffffffffffffffffffffffffffff167fd554fd0f15c16acff1f1515b38bd29c601f66ed7d68e0a08f065cae6ed421785826020016020810190610c349190613cb0565b604051610c419190614691565b60405180910390a2600160998190555050565b60026099541415610c9a576040517f08c379a0000000000000000000000000000000000000000000000000000000008152600401610c919061460d565b60405180910390fd5b600260998190555060d560009054906101000a900460ff1615610cf2576040517f08c379a0000000000000000000000000000000000000000000000000000000008152600401610ce9906143cd565b60405180910390fd5b600160d560006101000a81548160ff0219169083151502179055506001610d1960cb612ae6565b610d239190614883565b60d4819055507f9315093715d20e383de0fda01168dc80aeea065ffbf08dd364d8e8bc59735f6d60405160405180910390a16001609981905550565b6000610d6a33612a53565b60d354905090565b7f000000000000000000000000000000000000000000000000000000000000000073ffffffffffffffffffffffffffffffffffffffff163073ffffffffffffffffffffffffffffffffffffffff161415610e01576040517f08c379a0000000000000000000000000000000000000000000000000000000008152600401610df8906143ad565b60405180910390fd5b7f000000000000000000000000000000000000000000000000000000000000000073ffffffffffffffffffffffffffffffffffffffff16610e40612af4565b73ffffffffffffffffffffffffffffffffffffffff1614610e96576040517f08c379a0000000000000000000000000000000000000000000000000000000008152600401610e8d9061444d565b60405180910390fd5b610e9f81612b4b565b610ef881600067ffffffffffffffff811115610ebe57610ebd614b74565b5b6040519080825280601f01601f191660200182016040528015610ef05781602001600182028036833780820191505090505b506000612c18565b50565b60026099541415610f41576040517f08c379a0000000000000000000000000000000000000000000000000000000008152600401610f389061460d565b60405180910390fd5b6002609981905550610f5233612a53565b60005b60d68054905081101561103f578273ffffffffffffffffffffffffffffffffffffffff1660d68281548110610f8d57610f8c614b45565b5b9060005260206000200160000160009054906101000a900473ffffffffffffffffffffffffffffffffffffffff1673ffffffffffffffffffffffffffffffffffffffff16141561102c578160d68281548110610fec57610feb614b45565b5b9060005260206000200160000160146101000a8154816bffffffffffffffffffffffff02191690836bffffffffffffffffffffffff16021790555061103f565b808061103790614a63565b915050610f55565b508173ffffffffffffffffffffffffffffffffffffffff167fc09cb1458301853977091ab3924778c28e7865fa86acb4bac2bacecc4918fdc6826040516110869190614691565b60405180910390a260016099819055505050565b600260995414156110e0576040517f08c379a00000000000000000000000000000000000000000000000000000000081526004016110d79061460d565b60405180910390fd5b6002609981905550806040013534101561112f576040517f08c379a0000000000000000000000000000000000000000000000000000000008152600401611126906143ed565b60405180910390fd5b600061113a82612d95565b90508073ffffffffffffffffffffffffffffffffffffffff1660d560019054906101000a900473ffffffffffffffffffffffffffffffffffffffff1673ffffffffffffffffffffffffffffffffffffffff16146111cc576040517f08c379a00000000000000000000000000000000000000000000000000000000081526004016111c39061454d565b60405180910390fd5b3373ffffffffffffffffffffffffffffffffffffffff168260200160208101906111f69190613934565b73ffffffffffffffffffffffffffffffffffffffff161461124c576040517f08c379a00000000000000000000000000000000000000000000000000000000081526004016112439061450d565b60405180910390fd5b81602001602081019061125f9190613934565b60d8600061126d60cc612ae6565b815260200190815260200160002060006101000a81548173ffffffffffffffffffffffffffffffffffffffff021916908373ffffffffffffffffffffffffffffffffffffffff1602179055506112c360cc612a3d565b6112d08260400135612e07565b3373ffffffffffffffffffffffffffffffffffffffff166108fc611301846040013534612e4090919063ffffffff16565b9081150290604051600060405180830381858888f1935050505015801561132c573d6000803e3d6000fd5b508160200160208101906113409190613934565b73ffffffffffffffffffffffffffffffffffffffff167f3f4eb6c3c81657d4e0f5c31e40ceb4ad413ab88ce6bdac4abc25bf9de59a994a61138160cc612ae6565b8460400135604051611394929190614668565b60405180910390a250600160998190555050565b600260995414156113ee576040517f08c379a00000000000000000000000000000000000000000000000000000000081526004016113e59061460d565b60405180910390fd5b60026099819055506113ff33612a53565b60005b60d68054905081101561161a578173ffffffffffffffffffffffffffffffffffffffff1660d6828154811061143a57611439614b45565b5b9060005260206000200160000160009054906101000a900473ffffffffffffffffffffffffffffffffffffffff1673ffffffffffffffffffffffffffffffffffffffff1614156116075760d6600160d6805490506114989190614883565b815481106114a9576114a8614b45565b5b9060005260206000200160d682815481106114c7576114c6614b45565b5b906000526020600020016000820160009054906101000a900473ffffffffffffffffffffffffffffffffffffffff168160000160006101000a81548173ffffffffffffffffffffffffffffffffffffffff021916908373ffffffffffffffffffffffffffffffffffffffff1602179055506000820160149054906101000a90046bffffffffffffffffffffffff168160000160146101000a8154816bffffffffffffffffffffffff02191690836bffffffffffffffffffffffff16021790555090505060d6600160d68054905061159e9190614883565b815481106115af576115ae614b45565b5b90600052602060002001600080820160006101000a81549073ffffffffffffffffffffffffffffffffffffffff02191690556000820160146101000a8154906bffffffffffffffffffffffff0219169055505061161a565b808061161290614a63565b915050611402565b508073ffffffffffffffffffffffffffffffffffffffff167f665b9b7911d6a3e5a789e2be1ed4f9ffa84c1259e3b89675234719521112219160405160405180910390a2600160998190555050565b7f000000000000000000000000000000000000000000000000000000000000000073ffffffffffffffffffffffffffffffffffffffff163073ffffffffffffffffffffffffffffffffffffffff1614156116f8576040517f08c379a00000000000000000000000000000000000000000000000000000000081526004016116ef906143ad565b60405180910390fd5b7f000000000000000000000000000000000000000000000000000000000000000073ffffffffffffffffffffffffffffffffffffffff16611737612af4565b73ffffffffffffffffffffffffffffffffffffffff161461178d576040517f08c379a00000000000000000000000000000000000000000000000000000000081526004016117849061444d565b60405180910390fd5b61179682612b4b565b6117a282826001612c18565b5050565b600260995414156117ec576040517f08c379a00000000000000000000000000000000000000000000000000000000081526004016117e39061460d565b60405180910390fd5b60026099819055506117fd33612a53565b600080600090505b60d6805490508110156118815761186c60d6828154811061182957611828614b45565b5b9060005260206000200160000160149054906101000a90046bffffffffffffffffffffffff166bffffffffffffffffffffffff1683612e5690919063ffffffff16565b9150808061187990614a63565b915050611805565b5060006118998260d354612e6c90919063ffffffff16565b90506118b08260d354612e8290919063ffffffff16565b60d38190555060005b60d6805490508110156119ba5760d681815481106118da576118d9614b45565b5b9060005260206000200160000160009054906101000a900473ffffffffffffffffffffffffffffffffffffffff1673ffffffffffffffffffffffffffffffffffffffff166108fc61197b60d6848154811061193857611937614b45565b5b9060005260206000200160000160149054906101000a90046bffffffffffffffffffffffff166bffffffffffffffffffffffff1685612e9890919063ffffffff16565b9081150290604051600060405180830381858888f193505050501580156119a6573d6000803e3d6000fd5b5080806119b290614a63565b9150506118b9565b507f7254ffd29ae20f1712bea29277015e5953493e93a264d860cdba0840857ec86160d3546040516119ec919061464d565b60405180910390a150506001609981905550565b60026099541415611a46576040517f08c379a0000000000000000000000000000000000000000000000000000000008152600401611a3d9061460d565b60405180910390fd5b6002609981905550611a583382612eae565b611a6181612f56565b8160d7600083815260200190815260200160002060020160006101000a81548173ffffffffffffffffffffffffffffffffffffffff021916908373ffffffffffffffffffffffffffffffffffffffff1602179055508173ffffffffffffffffffffffffffffffffffffffff167f06f76e0da7be64239656a001b94c1c4e1893465df2f1ef90edb1e088b0852e6982604051611afc919061464d565b60405180910390a260016099819055505050565b60007f000000000000000000000000000000000000000000000000000000000000000073ffffffffffffffffffffffffffffffffffffffff163073ffffffffffffffffffffffffffffffffffffffff1614611ba0576040517f08c379a0000000000000000000000000000000000000000000000000000000008152600401611b979061446d565b60405180910390fd5b7f360894a13ba1a3210667c828492db98dca3e2076cc3735a920a3ca505d382bbc60001b905090565b600046905090565b60026099541415611c17576040517f08c379a0000000000000000000000000000000000000000000000000000000008152600401611c0e9061460d565b60405180910390fd5b6002609981905550611c293383612eae565b611c3282612f56565b60d154811015611c77576040517f08c379a0000000000000000000000000000000000000000000000000000000008152600401611c6e9061440d565b60405180910390fd5b8060d76000848152602001908152602001600020600301819055507f8eb4e844d899ebf9a1c4b5d605133500144527255f1b85d933c5a3a4a3baefe38282604051611cc3929190614668565b60405180910390a160016099819055505050565b60026099541415611d1d576040517f08c379a0000000000000000000000000000000000000000000000000000000008152600401611d149061460d565b60405180910390fd5b60026099819055503373ffffffffffffffffffffffffffffffffffffffff1660d7600083815260200190815260200160002060020160009054906101000a900473ffffffffffffffffffffffffffffffffffffffff1673ffffffffffffffffffffffffffffffffffffffff1614611dc9576040517f08c379a0000000000000000000000000000000000000000000000000000000008152600401611dc0906145ed565b60405180910390fd5b600060d7600083815260200190815260200160002060020160006101000a81548173ffffffffffffffffffffffffffffffffffffffff021916908373ffffffffffffffffffffffffffffffffffffffff1602179055507f3a7c2a55ffa9ac00869f1a3eb5e3209a949c0690416cad3ca8536b026908a06581604051611e4e919061464d565b60405180910390a1600160998190555050565b60026099541415611ea7576040517f08c379a0000000000000000000000000000000000000000000000000000000008152600401611e9e9061460d565b60405180910390fd5b6002609981905550611eb833612a53565b8060d0819055507f66cbca4f3c64fecf1dcb9ce094abcf7f68c3450a1d4e3a8e917dd621edb4ebe081604051611eee919061464d565b60405180910390a1600160998190555050565b60026099541415611f47576040517f08c379a0000000000000000000000000000000000000000000000000000000008152600401611f3e9061460d565b60405180910390fd5b6002609981905550611f5833612a53565b8060d1819055507f244ea8d7627f5a08f4299862bd5a45752842c183aee5b0fb0d1e4887bfa605b381604051611f8e919061464d565b60405180910390a1600160998190555050565b60026099541415611fe7576040517f08c379a0000000000000000000000000000000000000000000000000000000008152600401611fde9061460d565b60405180910390fd5b6002609981905550611ff833612a53565b8060cf819055507f8e8175bff55075dd53d3df54746279ecf8bde49d3accc5a57545a02db8e52b348160405161202e9190614213565b60405180910390a1600160998190555050565b60026099541415612087576040517f08c379a000000000000000000000000000000000000000000000000000000000815260040161207e9061460d565b60405180910390fd5b600260998190555060d0543410156120d4576040517f08c379a00000000000000000000000000000000000000000000000000000000081526004016120cb906143ed565b60405180910390fd5b60d560009054906101000a900460ff161561214a5761210660016120f860cb612ae6565b612e4090919063ffffffff16565b60d45411612149576040517f08c379a0000000000000000000000000000000000000000000000000000000008152600401612140906145ad565b60405180910390fd5b5b600060405180608001604052803373ffffffffffffffffffffffffffffffffffffffff16815260200160d560019054906101000a900473ffffffffffffffffffffffffffffffffffffffff1673ffffffffffffffffffffffffffffffffffffffff168152602001600073ffffffffffffffffffffffffffffffffffffffff16815260200160d05481525090508060d760006121e560cb612ae6565b815260200190815260200160002060008201518160000160006101000a81548173ffffffffffffffffffffffffffffffffffffffff021916908373ffffffffffffffffffffffffffffffffffffffff16021790555060208201518160010160006101000a81548173ffffffffffffffffffffffffffffffffffffffff021916908373ffffffffffffffffffffffffffffffffffffffff16021790555060408201518160020160006101000a81548173ffffffffffffffffffffffffffffffffffffffff021916908373ffffffffffffffffffffffffffffffffffffffff160217905550606082015181600301559050506122df60cb612a3d565b6122ea60d054612e07565b3373ffffffffffffffffffffffffffffffffffffffff166108fc61231960d05434612e4090919063ffffffff16565b9081150290604051600060405180830381858888f19350505050158015612344573d6000803e3d6000fd5b503373ffffffffffffffffffffffffffffffffffffffff167f0a61a5bc4d97f46f5320375498e59af4d35ef1f6f31c51b9fc03c0134dd4681761238760cb612ae6565b60d054604051612398929190614668565b60405180910390a2506001609981905550565b600260995414156123f1576040517f08c379a00000000000000000000000000000000000000000000000000000000081526004016123e89061460d565b60405180910390fd5b60026099819055506124033382612eae565b61240c81612f56565b60d154341015612451576040517f08c379a0000000000000000000000000000000000000000000000000000000008152600401612448906143ed565b60405180910390fd5b3360d7600083815260200190815260200160002060010160006101000a81548173ffffffffffffffffffffffffffffffffffffffff021916908373ffffffffffffffffffffffffffffffffffffffff1602179055508160d7600083815260200190815260200160002060000160006101000a81548173ffffffffffffffffffffffffffffffffffffffff021916908373ffffffffffffffffffffffffffffffffffffffff16021790555061250660d154612e07565b3373ffffffffffffffffffffffffffffffffffffffff166108fc61253560d15434612e4090919063ffffffff16565b9081150290604051600060405180830381858888f19350505050158015612560573d6000803e3d6000fd5b508173ffffffffffffffffffffffffffffffffffffffff167f0ff0cdfdec8286eb9990d56a9dd0bbacd1f2631624f021b9ef8051cae989c860826040516125a7919061464d565b60405180910390a260016099819055505050565b60026099541415612601576040517f08c379a00000000000000000000000000000000000000000000000000000000081526004016125f89061460d565b60405180910390fd5b600260998190555060d560009054906101000a900460ff16612658576040517f08c379a000000000000000000000000000000000000000000000000000000000815260040161264f9061456d565b60405180910390fd5b600060d560006101000a81548160ff0219169083151502179055507f4fa2ac1dbc3675e431edc4b7ed4ffca41ca041dc9c1f2e0628ba2abb9169af2f60405160405180910390a16001609981905550565b600260995414156126ef576040517f08c379a00000000000000000000000000000000000000000000000000000000081526004016126e69061460d565b60405180910390fd5b600260998190555061270033612a53565b60d560009054906101000a900460ff1661274f576040517f08c379a00000000000000000000000000000000000000000000000000000000081526004016127469061438d565b60405180910390fd5b8060d4600082825461276191906147a2565b925050819055507f2997f475d409a7cba16d31bb0e76cd7bf156ffe8a8a1205a9a75c199d0c82dd460d454604051612799919061464d565b60405180910390a1600160998190555050565b6000811561281d578373ffffffffffffffffffffffffffffffffffffffff1660d8600085815260200190815260200160002060009054906101000a900473ffffffffffffffffffffffffffffffffffffffff1673ffffffffffffffffffffffffffffffffffffffff16149050612885565b8373ffffffffffffffffffffffffffffffffffffffff1660d7600085815260200190815260200160002060000160009054906101000a900473ffffffffffffffffffffffffffffffffffffffff1673ffffffffffffffffffffffffffffffffffffffff161490505b9392505050565b60008273ffffffffffffffffffffffffffffffffffffffff1660d7600084815260200190815260200160002060020160009054906101000a900473ffffffffffffffffffffffffffffffffffffffff1673ffffffffffffffffffffffffffffffffffffffff1614905092915050565b600061290e612908612ffe565b8361303e565b9050919050565b600061292030613071565b15905090565b600060019054906101000a900460ff16612975576040517f08c379a000000000000000000000000000000000000000000000000000000000815260040161296c906145cd565b60405180910390fd5b61297f8282613084565b5050565b600060019054906101000a900460ff166129d2576040517f08c379a00000000000000000000000000000000000000000000000000000000081526004016129c9906145cd565b60405180910390fd5b6129da6130ff565b565b600060019054906101000a900460ff16612a2b576040517f08c379a0000000000000000000000000000000000000000000000000000000008152600401612a22906145cd565b60405180910390fd5b612a33613158565b612a3b6131a9565b565b6001816000016000828254019250508190555050565b60d560019054906101000a900473ffffffffffffffffffffffffffffffffffffffff1673ffffffffffffffffffffffffffffffffffffffff168173ffffffffffffffffffffffffffffffffffffffff1614612ae3576040517f08c379a0000000000000000000000000000000000000000000000000000000008152600401612ada906145ed565b60405180910390fd5b50565b600081600001549050919050565b6000612b227f360894a13ba1a3210667c828492db98dca3e2076cc3735a920a3ca505d382bbc60001b6131fa565b60000160009054906101000a900473ffffffffffffffffffffffffffffffffffffffff16905090565b612b5433612a53565b60cd548173ffffffffffffffffffffffffffffffffffffffff16630c0907bd6040518163ffffffff1660e01b815260040160206040518083038186803b158015612b9d57600080fd5b505afa158015612bb1573d6000803e3d6000fd5b505050506040513d601f19601f82011682018060405250810190612bd59190613b8d565b14612c15576040517f08c379a0000000000000000000000000000000000000000000000000000000008152600401612c0c9061434d565b60405180910390fd5b50565b612c447f4910fdfa16fed3260ed0e7147f7cc6da11a60208b5b9406d12a635614ffd914360001b613204565b60000160009054906101000a900460ff1615612c6857612c638361320e565b612d90565b8273ffffffffffffffffffffffffffffffffffffffff166352d1902d6040518163ffffffff1660e01b815260040160206040518083038186803b158015612cae57600080fd5b505afa925050508015612cdf57506040513d601f19601f82011682018060405250810190612cdc9190613abd565b60015b612d1e576040517f08c379a0000000000000000000000000000000000000000000000000000000008152600401612d15906144ed565b60405180910390fd5b7f360894a13ba1a3210667c828492db98dca3e2076cc3735a920a3ca505d382bbc60001b8114612d83576040517f08c379a0000000000000000000000000000000000000000000000000000000008152600401612d7a9061448d565b60405180910390fd5b50612d8f8383836132c7565b5b505050565b600080612da18361065a565b9050612dff81848060600190612db791906146ac565b8080601f016020809104026020016040519081016040528093929190818152602001838380828437600081840152601f19601f820116905080830192505050505050506132f3565b915050919050565b612e1c8160d254612e5690919063ffffffff16565b60d281905550612e378160d354612e5690919063ffffffff16565b60d38190555050565b60008183612e4e9190614883565b905092915050565b60008183612e6491906147a2565b905092915050565b60008183612e7a91906147f8565b905092915050565b60008183612e909190614ab6565b905092915050565b60008183612ea69190614829565b905092915050565b8173ffffffffffffffffffffffffffffffffffffffff1660d7600083815260200190815260200160002060000160009054906101000a900473ffffffffffffffffffffffffffffffffffffffff1673ffffffffffffffffffffffffffffffffffffffff1614612f52576040517f08c379a0000000000000000000000000000000000000000000000000000000008152600401612f49906145ed565b60405180910390fd5b5050565b600073ffffffffffffffffffffffffffffffffffffffff1660d7600083815260200190815260200160002060020160009054906101000a900473ffffffffffffffffffffffffffffffffffffffff1673ffffffffffffffffffffffffffffffffffffffff1614612ffb576040517f08c379a0000000000000000000000000000000000000000000000000000000008152600401612ff29061462d565b60405180910390fd5b50565b60006130397f8b73c3c69bb8fe3d512ecc4cf759cc79239f7b179b0ffacaa9a75d522b39400f61302c61336d565b613034613377565b613381565b905090565b600082826040516020016130539291906141a6565b60405160208183030381529060405280519060200120905092915050565b600080823b905060008111915050919050565b600060019054906101000a900460ff166130d3576040517f08c379a00000000000000000000000000000000000000000000000000000000081526004016130ca906145cd565b60405180910390fd5b600082805190602001209050600082805190602001209050816065819055508060668190555050505050565b600060019054906101000a900460ff1661314e576040517f08c379a0000000000000000000000000000000000000000000000000000000008152600401613145906145cd565b60405180910390fd5b6001609981905550565b600060019054906101000a900460ff166131a7576040517f08c379a000000000000000000000000000000000000000000000000000000000815260040161319e906145cd565b60405180910390fd5b565b600060019054906101000a900460ff166131f8576040517f08c379a00000000000000000000000000000000000000000000000000000000081526004016131ef906145cd565b60405180910390fd5b565b6000819050919050565b6000819050919050565b61321781613071565b613256576040517f08c379a000000000000000000000000000000000000000000000000000000000815260040161324d9061452d565b60405180910390fd5b806132837f360894a13ba1a3210667c828492db98dca3e2076cc3735a920a3ca505d382bbc60001b6131fa565b60000160006101000a81548173ffffffffffffffffffffffffffffffffffffffff021916908373ffffffffffffffffffffffffffffffffffffffff16021790555050565b6132d0836133bb565b6000825111806132dd5750805b156132ee576132ec838361340a565b505b505050565b60006041825114613339576040517f08c379a00000000000000000000000000000000000000000000000000000000081526004016133309061436d565b60405180910390fd5b60008060006020850151925060408501519150606085015160001a9050613362868285856134ee565b935050505092915050565b6000606554905090565b6000606654905090565b6000838383463060405160200161339c95949392919061422e565b6040516020818303038152906040528051906020012090509392505050565b6133c48161320e565b8073ffffffffffffffffffffffffffffffffffffffff167fbc7cd75a20ee27fd9adebab32041f755214dbc6bffa90cc0225b39da2e5c2d3b60405160405180910390a250565b606061341583613071565b613454576040517f08c379a000000000000000000000000000000000000000000000000000000000815260040161344b9061458d565b60405180910390fd5b6000808473ffffffffffffffffffffffffffffffffffffffff168460405161347c9190614169565b600060405180830381855af49150503d80600081146134b7576040519150601f19603f3d011682016040523d82523d6000602084013e6134bc565b606091505b50915091506134e4828260405180606001604052806027815260200161536b6027913961375c565b9250505092915050565b60007f7fffffffffffffffffffffffffffffff5d576e7357a4501ddfe92f46681b20a08260001c1115613556576040517f08c379a000000000000000000000000000000000000000000000000000000000815260040161354d9061442d565b60405180910390fd5b6000601e8560ff16111561363a57601b60048661357391906148b7565b60ff1614806135915750601c60048661358c91906148b7565b60ff16145b6135d0576040517f08c379a00000000000000000000000000000000000000000000000000000000081526004016135c7906144cd565b60405180910390fd5b60016135db876137c3565b6004876135e891906148b7565b86866040516000815260200160405260405161360794939291906142c6565b6020604051602081039080840390855afa158015613629573d6000803e3d6000fd5b5050506020604051035190506136e0565b601b8560ff16148061364f5750601c8560ff16145b61368e576040517f08c379a0000000000000000000000000000000000000000000000000000000008152600401613685906144cd565b60405180910390fd5b600186868686604051600081526020016040526040516136b194939291906142c6565b6020604051602081039080840390855afa1580156136d3573d6000803e3d6000fd5b5050506020604051035190505b600073ffffffffffffffffffffffffffffffffffffffff168173ffffffffffffffffffffffffffffffffffffffff161415613750576040517f08c379a00000000000000000000000000000000000000000000000000000000081526004016137479061432d565b60405180910390fd5b80915050949350505050565b6060831561376c578290506137bc565b60008351111561377f5782518084602001fd5b816040517f08c379a00000000000000000000000000000000000000000000000000000000081526004016137b3919061430b565b60405180910390fd5b9392505050565b6000816040516020016137d69190614180565b604051602081830303815290604052805190602001209050919050565b600061380661380184614734565b61470f565b90508281526020810184848401111561382257613821614bfc565b5b61382d8482856149aa565b509392505050565b600081359050613844816152f7565b92915050565b6000813590506138598161530e565b92915050565b60008135905061386e81615325565b92915050565b60008151905061388381615325565b92915050565b600082601f83011261389e5761389d614be3565b5b81356138ae8482602086016137f3565b91505092915050565b6000608082840312156138cd576138cc614bed565b5b81905092915050565b6000604082840312156138ec576138eb614bed565b5b81905092915050565b6000813590506139048161533c565b92915050565b6000815190506139198161533c565b92915050565b60008135905061392e81615353565b92915050565b60006020828403121561394a57613949614c06565b5b600061395884828501613835565b91505092915050565b6000806040838503121561397857613977614c06565b5b600061398685828601613835565b925050602083013567ffffffffffffffff8111156139a7576139a6614c01565b5b6139b385828601613889565b9150509250929050565b600080604083850312156139d4576139d3614c06565b5b60006139e285828601613835565b92505060206139f3858286016138f5565b9150509250929050565b600080600060608486031215613a1657613a15614c06565b5b6000613a2486828701613835565b9350506020613a35868287016138f5565b9250506040613a468682870161384a565b9150509250925092565b60008060408385031215613a6757613a66614c06565b5b6000613a7585828601613835565b9250506020613a868582860161391f565b9150509250929050565b600060208284031215613aa657613aa5614c06565b5b6000613ab48482850161385f565b91505092915050565b600060208284031215613ad357613ad2614c06565b5b6000613ae184828501613874565b91505092915050565b600060208284031215613b0057613aff614c06565b5b600082013567ffffffffffffffff811115613b1e57613b1d614c01565b5b613b2a848285016138b7565b91505092915050565b600060408284031215613b4957613b48614c06565b5b6000613b57848285016138d6565b91505092915050565b600060208284031215613b7657613b75614c06565b5b6000613b84848285016138f5565b91505092915050565b600060208284031215613ba357613ba2614c06565b5b6000613bb18482850161390a565b91505092915050565b600080600080600080600080610100898b031215613bdb57613bda614c06565b5b6000613be98b828c016138f5565b9850506020613bfa8b828c0161385f565b9750506040613c0b8b828c0161385f565b9650506060613c1c8b828c016138f5565b9550506080613c2d8b828c016138f5565b94505060a0613c3e8b828c016138f5565b93505060c0613c4f8b828c0161384a565b92505060e0613c608b828c01613835565b9150509295985092959890939650565b60008060408385031215613c8757613c86614c06565b5b6000613c95858286016138f5565b9250506020613ca6858286016138f5565b9150509250929050565b600060208284031215613cc657613cc5614c06565b5b6000613cd48482850161391f565b91505092915050565b613ce6816148eb565b82525050565b613cf5816148fd565b82525050565b613d0481614909565b82525050565b613d1b613d1682614909565b614aac565b82525050565b6000613d2c82614765565b613d36818561477b565b9350613d468185602086016149b9565b80840191505092915050565b6000613d5d82614770565b613d678185614786565b9350613d778185602086016149b9565b613d8081614c0b565b840191505092915050565b6000613d98601883614786565b9150613da382614c36565b602082019050919050565b6000613dbb601683614786565b9150613dc682614c5f565b602082019050919050565b6000613dde601f83614786565b9150613de982614c88565b602082019050919050565b6000613e01601c83614797565b9150613e0c82614cb1565b601c82019050919050565b6000613e24600283614797565b9150613e2f82614cda565b600282019050919050565b6000613e47601283614786565b9150613e5282614d03565b602082019050919050565b6000613e6a602c83614786565b9150613e7582614d2c565b604082019050919050565b6000613e8d601683614786565b9150613e9882614d7b565b602082019050919050565b6000613eb0601283614786565b9150613ebb82614da4565b602082019050919050565b6000613ed3601f83614786565b9150613ede82614dcd565b602082019050919050565b6000613ef6602283614786565b9150613f0182614df6565b604082019050919050565b6000613f19602c83614786565b9150613f2482614e45565b604082019050919050565b6000613f3c603883614786565b9150613f4782614e94565b604082019050919050565b6000613f5f602983614786565b9150613f6a82614ee3565b604082019050919050565b6000613f82602e83614786565b9150613f8d82614f32565b604082019050919050565b6000613fa5602283614786565b9150613fb082614f81565b604082019050919050565b6000613fc8602e83614786565b9150613fd382614fd0565b604082019050919050565b6000613feb600f83614786565b9150613ff68261501f565b602082019050919050565b600061400e602d83614786565b915061401982615048565b604082019050919050565b6000614031601183614786565b915061403c82615097565b602082019050919050565b6000614054601883614786565b915061405f826150c0565b602082019050919050565b6000614077602683614786565b9150614082826150e9565b604082019050919050565b600061409a601483614786565b91506140a582615138565b602082019050919050565b60006140bd602b83614786565b91506140c882615161565b604082019050919050565b60006140e0601583614786565b91506140eb826151b0565b602082019050919050565b6000614103601f83614786565b915061410e826151d9565b602082019050919050565b6000614126600b83614786565b915061413182615202565b602082019050919050565b61414581614933565b82525050565b6141548161493d565b82525050565b6141638161494a565b82525050565b60006141758284613d21565b915081905092915050565b600061418b82613df4565b91506141978284613d0a565b60208201915081905092915050565b60006141b182613e17565b91506141bd8285613d0a565b6020820191506141cd8284613d0a565b6020820191508190509392505050565b60006020820190506141f26000830184613cdd565b92915050565b600060208201905061420d6000830184613cec565b92915050565b60006020820190506142286000830184613cfb565b92915050565b600060a0820190506142436000830188613cfb565b6142506020830187613cfb565b61425d6040830186613cfb565b61426a606083018561413c565b6142776080830184613cdd565b9695505050505050565b60006080820190506142966000830187613cfb565b6142a3602083018661413c565b6142b0604083018561413c565b6142bd6060830184613cdd565b95945050505050565b60006080820190506142db6000830187613cfb565b6142e8602083018661414b565b6142f56040830185613cfb565b6143026060830184613cfb565b95945050505050565b600060208201905081810360008301526143258184613d52565b905092915050565b6000602082019050818103600083015261434681613d8b565b9050919050565b6000602082019050818103600083015261436681613dae565b9050919050565b6000602082019050818103600083015261438681613dd1565b9050919050565b600060208201905081810360008301526143a681613e3a565b9050919050565b600060208201905081810360008301526143c681613e5d565b9050919050565b600060208201905081810360008301526143e681613e80565b9050919050565b6000602082019050818103600083015261440681613ea3565b9050919050565b6000602082019050818103600083015261442681613ec6565b9050919050565b6000602082019050818103600083015261444681613ee9565b9050919050565b6000602082019050818103600083015261446681613f0c565b9050919050565b6000602082019050818103600083015261448681613f2f565b9050919050565b600060208201905081810360008301526144a681613f52565b9050919050565b600060208201905081810360008301526144c681613f75565b9050919050565b600060208201905081810360008301526144e681613f98565b9050919050565b6000602082019050818103600083015261450681613fbb565b9050919050565b6000602082019050818103600083015261452681613fde565b9050919050565b6000602082019050818103600083015261454681614001565b9050919050565b6000602082019050818103600083015261456681614024565b9050919050565b6000602082019050818103600083015261458681614047565b9050919050565b600060208201905081810360008301526145a68161406a565b9050919050565b600060208201905081810360008301526145c68161408d565b9050919050565b600060208201905081810360008301526145e6816140b0565b9050919050565b60006020820190508181036000830152614606816140d3565b9050919050565b60006020820190508181036000830152614626816140f6565b9050919050565b6000602082019050818103600083015261464681614119565b9050919050565b6000602082019050614662600083018461413c565b92915050565b600060408201905061467d600083018561413c565b61468a602083018461413c565b9392505050565b60006020820190506146a6600083018461415a565b92915050565b600080833560016020038436030381126146c9576146c8614bf2565b5b80840192508235915067ffffffffffffffff8211156146eb576146ea614be8565b5b60208301925060018202360383131561470757614706614bf7565b5b509250929050565b600061471961472a565b90506147258282614a32565b919050565b6000604051905090565b600067ffffffffffffffff82111561474f5761474e614b74565b5b61475882614c0b565b9050602081019050919050565b600081519050919050565b600081519050919050565b600081905092915050565b600082825260208201905092915050565b600081905092915050565b60006147ad82614933565b91506147b883614933565b9250827fffffffffffffffffffffffffffffffffffffffffffffffffffffffffffffffff038211156147ed576147ec614ae7565b5b828201905092915050565b600061480382614933565b915061480e83614933565b92508261481e5761481d614b16565b5b828204905092915050565b600061483482614933565b915061483f83614933565b9250817fffffffffffffffffffffffffffffffffffffffffffffffffffffffffffffffff048311821515161561487857614877614ae7565b5b828202905092915050565b600061488e82614933565b915061489983614933565b9250828210156148ac576148ab614ae7565b5b828203905092915050565b60006148c28261493d565b91506148cd8361493d565b9250828210156148e0576148df614ae7565b5b828203905092915050565b60006148f682614913565b9050919050565b60008115159050919050565b6000819050919050565b600073ffffffffffffffffffffffffffffffffffffffff82169050919050565b6000819050919050565b600060ff82169050919050565b60006bffffffffffffffffffffffff82169050919050565b600061496d82614974565b9050919050565b600061497f82614986565b9050919050565b600061499182614913565b9050919050565b60006149a38261494a565b9050919050565b82818337600083830152505050565b60005b838110156149d75780820151818401526020810190506149bc565b838111156149e6576000848401525b50505050565b6000810160008301806149fe81614bb7565b9050614a0a81846152a3565b505050600081016020830180614a1f81614bcd565b9050614a2b81846152d4565b5050505050565b614a3b82614c0b565b810181811067ffffffffffffffff82111715614a5a57614a59614b74565b5b80604052505050565b6000614a6e82614933565b91507fffffffffffffffffffffffffffffffffffffffffffffffffffffffffffffffff821415614aa157614aa0614ae7565b5b600182019050919050565b6000819050919050565b6000614ac182614933565b9150614acc83614933565b925082614adc57614adb614b16565b5b828206905092915050565b7f4e487b7100000000000000000000000000000000000000000000000000000000600052601160045260246000fd5b7f4e487b7100000000000000000000000000000000000000000000000000000000600052601260045260246000fd5b7f4e487b7100000000000000000000000000000000000000000000000000000000600052603260045260246000fd5b7f4e487b7100000000000000000000000000000000000000000000000000000000600052604160045260246000fd5b6000819050919050565b6000819050919050565b60008135614bc4816152f7565b80915050919050565b60008135614bda81615353565b80915050919050565b600080fd5b600080fd5b600080fd5b600080fd5b600080fd5b600080fd5b600080fd5b600080fd5b6000601f19601f8301169050919050565b60008160001b9050919050565b60008160a01b9050919050565b7f45434453413a20696e76616c6964207369676e61747572650000000000000000600082015250565b7f496e76616c696420496d706c656d656e746174696f6e00000000000000000000600082015250565b7f45434453413a20696e76616c6964207369676e6174757265206c656e67746800600082015250565b7f19457468657265756d205369676e6564204d6573736167653a0a333200000000600082015250565b7f1901000000000000000000000000000000000000000000000000000000000000600082015250565b7f537570706c79204e6f74204c696d697465640000000000000000000000000000600082015250565b7f46756e6374696f6e206d7573742062652063616c6c6564207468726f7567682060008201527f64656c656761746563616c6c0000000000000000000000000000000000000000602082015250565b7f537570706c7920416c7265616479204c696d6974656400000000000000000000600082015250565b7f496e73756666696369656e742046756e64730000000000000000000000000000600082015250565b7f53656c6c696e67205072696365204c657373205468616e20526f79616c747900600082015250565b7f45434453413a20696e76616c6964207369676e6174757265202773272076616c60008201527f7565000000000000000000000000000000000000000000000000000000000000602082015250565b7f46756e6374696f6e206d7573742062652063616c6c6564207468726f7567682060008201527f6163746976652070726f78790000000000000000000000000000000000000000602082015250565b7f555550535570677261646561626c653a206d757374206e6f742062652063616c60008201527f6c6564207468726f7567682064656c656761746563616c6c0000000000000000602082015250565b7f45524331393637557067726164653a20756e737570706f727465642070726f7860008201527f6961626c65555549440000000000000000000000000000000000000000000000602082015250565b7f496e697469616c697a61626c653a20636f6e747261637420697320616c72656160008201527f647920696e697469616c697a6564000000000000000000000000000000000000602082015250565b7f45434453413a20696e76616c6964207369676e6174757265202776272076616c60008201527f7565000000000000000000000000000000000000000000000000000000000000602082015250565b7f45524331393637557067726164653a206e657720696d706c656d656e7461746960008201527f6f6e206973206e6f742055555053000000000000000000000000000000000000602082015250565b7f496e76616c696420526571756573740000000000000000000000000000000000600082015250565b7f455243313936373a206e657720696d706c656d656e746174696f6e206973206e60008201527f6f74206120636f6e747261637400000000000000000000000000000000000000602082015250565b7f496e76616c6964205369676e6174757265000000000000000000000000000000600082015250565b7f537570706c7920416c726561647920556e6c696d697465640000000000000000600082015250565b7f416464726573733a2064656c65676174652063616c6c20746f206e6f6e2d636f60008201527f6e74726163740000000000000000000000000000000000000000000000000000602082015250565b7f537570706c79204c696d69742052656163686564000000000000000000000000600082015250565b7f496e697469616c697a61626c653a20636f6e7472616374206973206e6f74206960008201527f6e697469616c697a696e67000000000000000000000000000000000000000000602082015250565b7f556e2d617574686f72697a656420526571756573740000000000000000000000600082015250565b7f5265656e7472616e637947756172643a207265656e7472616e742063616c6c00600082015250565b7f426f6f6b204c6f636b6564000000000000000000000000000000000000000000600082015250565b60007fffffffffffffffffffffffff000000000000000000000000000000000000000061525784614c29565b9350801983169250808416831791505092915050565b600073ffffffffffffffffffffffffffffffffffffffff61528d84614c1c565b9350801983169250808416831791505092915050565b6152ac82614962565b6152bf6152b882614ba3565b835461526d565b8255505050565b6152d082826149ec565b5050565b6152dd82614998565b6152f06152e982614bad565b835461522b565b8255505050565b615300816148eb565b811461530b57600080fd5b50565b615317816148fd565b811461532257600080fd5b50565b61532e81614909565b811461533957600080fd5b50565b61534581614933565b811461535057600080fd5b50565b61535c8161494a565b811461536757600080fd5b5056fe416464726573733a206c6f772d6c6576656c2064656c65676174652063616c6c206661696c6564a2646970667358221220378b8e5288d676c527646ee0f10fdadb2129f1c66cc667b523fa201ec8ea58c964736f6c63430008070033a2646970667358221220f013a5aab7af75e5198338f0fa6c61df74ea425729f54a91ecde34559a58a10664736f6c63430008070033",
    "linkReferences": {},
    "deployedLinkReferences": {}
}