{
  "_format": "hh-sol-artifact-1",
  "contractName": "Publisher",
  "sourceName": "contracts/v3/Publisher.sol",
  "abi": [
    {
      "inputs": [],
      "stateMutability": "nonpayable",
      "type": "constructor"
    },
    {
      "anonymous": false,
      "inputs": [
        {
          "indexed": false,
          "internalType": "uint256",
          "name": "seriesId",
          "type": "uint256"
        },
        {
          "indexed": false,
          "internalType": "uint256",
          "name": "bookId",
          "type": "uint256"
        }
      ],
      "name": "AddedBookToSeries",
      "type": "event"
    },
    {
      "anonymous": false,
      "inputs": [
        {
          "indexed": false,
          "internalType": "uint256",
          "name": "bookId",
          "type": "uint256"
        },
        {
          "indexed": true,
          "internalType": "address",
          "name": "publisher",
          "type": "address"
        },
        {
          "indexed": false,
          "internalType": "string",
          "name": "metadataUri",
          "type": "string"
        },
        {
          "indexed": false,
          "internalType": "uint256",
          "name": "price",
          "type": "uint256"
        },
        {
          "indexed": false,
          "internalType": "uint256",
          "name": "royalty",
          "type": "uint256"
        },
        {
          "indexed": false,
          "internalType": "uint256",
          "name": "pricedBookSupplyLimit",
          "type": "uint256"
        },
        {
          "indexed": false,
          "internalType": "bool",
          "name": "supplyLimited",
          "type": "bool"
        },
        {
          "indexed": true,
          "internalType": "address",
          "name": "editionAddress",
          "type": "address"
        }
      ],
      "name": "NewBookLaunched",
      "type": "event"
    },
    {
      "anonymous": false,
      "inputs": [
        {
          "indexed": false,
          "internalType": "uint256",
          "name": "bookId",
          "type": "uint256"
        },
        {
          "indexed": false,
          "internalType": "string",
          "name": "metadataUri",
          "type": "string"
        },
        {
          "indexed": false,
          "internalType": "uint256",
          "name": "price",
          "type": "uint256"
        },
        {
          "indexed": false,
          "internalType": "uint256",
          "name": "royalty",
          "type": "uint256"
        },
        {
          "indexed": false,
          "internalType": "uint256",
          "name": "pricedBookSupplyLimit",
          "type": "uint256"
        },
        {
          "indexed": false,
          "internalType": "bool",
          "name": "supplyLimited",
          "type": "bool"
        },
        {
          "indexed": true,
          "internalType": "address",
          "name": "editionAddress",
          "type": "address"
        }
      ],
      "name": "NewEditionLaunched",
      "type": "event"
    },
    {
      "anonymous": false,
      "inputs": [
        {
          "indexed": false,
          "internalType": "uint256",
          "name": "seriesId",
          "type": "uint256"
        },
        {
          "indexed": false,
          "internalType": "string",
          "name": "seriesMetadatUri",
          "type": "string"
        },
        {
          "indexed": true,
          "internalType": "address",
          "name": "publisher",
          "type": "address"
        }
      ],
      "name": "NewSeriesCreated",
      "type": "event"
    },
    {
      "inputs": [
        {
          "internalType": "uint256",
          "name": "seriesId",
          "type": "uint256"
        },
        {
          "internalType": "uint256",
          "name": "bookId",
          "type": "uint256"
        }
      ],
      "name": "addBookToSeries",
      "outputs": [],
      "stateMutability": "nonpayable",
      "type": "function"
    },
    {
      "inputs": [
        {
          "internalType": "string",
          "name": "seriesMetadataUri",
          "type": "string"
        }
      ],
      "name": "createSeries",
      "outputs": [],
      "stateMutability": "nonpayable",
      "type": "function"
    },
    {
      "inputs": [
        {
          "internalType": "string",
          "name": "uri",
          "type": "string"
        },
        {
          "internalType": "string",
          "name": "metadataUri",
          "type": "string"
        },
        {
          "internalType": "uint256",
          "name": "price",
          "type": "uint256"
        },
        {
          "internalType": "uint256",
          "name": "royalty",
          "type": "uint256"
        },
        {
          "internalType": "uint256",
          "name": "pricedBookSupplyLimit",
          "type": "uint256"
        },
        {
          "internalType": "bool",
          "name": "supplyLimited",
          "type": "bool"
        }
      ],
      "name": "launchNewBook",
      "outputs": [],
      "stateMutability": "nonpayable",
      "type": "function"
    },
    {
      "inputs": [
        {
          "internalType": "uint256",
          "name": "bookId",
          "type": "uint256"
        },
        {
          "internalType": "string",
          "name": "uri",
          "type": "string"
        },
        {
          "internalType": "string",
          "name": "metadataUri",
          "type": "string"
        },
        {
          "internalType": "uint256",
          "name": "price",
          "type": "uint256"
        },
        {
          "internalType": "uint256",
          "name": "royalty",
          "type": "uint256"
        },
        {
          "internalType": "bool",
          "name": "supplyLimited",
          "type": "bool"
        },
        {
          "internalType": "uint256",
          "name": "pricedBookSupplyLimit",
          "type": "uint256"
        }
      ],
      "name": "launchNewEdition",
      "outputs": [],
      "stateMutability": "nonpayable",
      "type": "function"
    }
  ],
  "bytecode": "0x608060405234801561001057600080fd5b50610025600061003e60201b61055f1760201c565b610039600161003e60201b61055f1760201c565b6100ec565b6001816000016000828254610053919061005d565b9250508190555050565b6000610068826100b3565b9150610073836100b3565b9250827fffffffffffffffffffffffffffffffffffffffffffffffffffffffffffffffff038211156100a8576100a76100bd565b5b828201905092915050565b6000819050919050565b7f4e487b7100000000000000000000000000000000000000000000000000000000600052601160045260246000fd5b615ebd80620000fc6000396000f3fe608060405234801561001057600080fd5b506004361061004c5760003560e01c806340571104146100515780637ce414db1461006d578063cb9d15d214610089578063fe47c798146100a5575b600080fd5b61006b600480360381019061006691906108cf565b6100c1565b005b610087600480360381019061008291906107f5565b61029f565b005b6100a3600480360381019061009e91906106e7565b6103b5565b005b6100bf60048036038101906100ba9190610730565b610469565b005b6100cb600161057e565b821080156100e157506100de600061057e565b81105b610120576040517f08c379a0000000000000000000000000000000000000000000000000000000008152600401610117906109bb565b60405180910390fd5b3373ffffffffffffffffffffffffffffffffffffffff166003600084815260200190815260200160002060009054906101000a900473ffffffffffffffffffffffffffffffffffffffff1673ffffffffffffffffffffffffffffffffffffffff16146101c1576040517f08c379a00000000000000000000000000000000000000000000000000000000081526004016101b8906109db565b60405180910390fd5b3373ffffffffffffffffffffffffffffffffffffffff166002600083815260200190815260200160002060009054906101000a900473ffffffffffffffffffffffffffffffffffffffff1673ffffffffffffffffffffffffffffffffffffffff1614610262576040517f08c379a0000000000000000000000000000000000000000000000000000000008152600401610259906109db565b60405180910390fd5b7ff653f52c99698b9ae40dff1c2470b02caad6ee4602e7b4f9623cd10a053ea2e98282604051610293929190610b09565b60405180910390a15050565b3373ffffffffffffffffffffffffffffffffffffffff166002600089815260200190815260200160002060009054906101000a900473ffffffffffffffffffffffffffffffffffffffff1673ffffffffffffffffffffffffffffffffffffffff1614610340576040517f08c379a0000000000000000000000000000000000000000000000000000000008152600401610337906109db565b60405180910390fd5b60006103518888878786883361058c565b90508073ffffffffffffffffffffffffffffffffffffffff167fe2b473cc509384a09a2c69bdb0586abbf3d66d48b9fd32d8728dd36df73875c98988888887896040516103a396959493929190610a2b565b60405180910390a25050505050505050565b60006103c1600161057e565b9050336003600083815260200190815260200160002060006101000a81548173ffffffffffffffffffffffffffffffffffffffff021916908373ffffffffffffffffffffffffffffffffffffffff1602179055503373ffffffffffffffffffffffffffffffffffffffff167f86d6aaa7cd5aae202089ef6308538c5216bcb93b0f03405bc9505794912b4941828460405161045d9291906109fb565b60405180910390a25050565b6000610475600061057e565b9050336002600083815260200190815260200160002060006101000a81548173ffffffffffffffffffffffffffffffffffffffff021916908373ffffffffffffffffffffffffffffffffffffffff16021790555060006104da8289888888883361058c565b90508073ffffffffffffffffffffffffffffffffffffffff163373ffffffffffffffffffffffffffffffffffffffff167fb11952381be2bc965ab523a3aa1c489e4c8b80ee5e9332ec95e8021ee4d28155848a8a8a8a8a60405161054396959493929190610a2b565b60405180910390a3610555600061055f565b5050505050505050565b60018160000160008282546105749190610ba4565b9250508190555050565b600081600001549050919050565b60008060405161059b90610640565b604051809103906000f0801580156105b7573d6000803e3d6000fd5b5090508073ffffffffffffffffffffffffffffffffffffffff1663c541ce0a8a8a8a8a8a8a8a6040518863ffffffff1660e01b81526004016105ff9796959493929190610a93565b600060405180830381600087803b15801561061957600080fd5b505af115801561062d573d6000803e3d6000fd5b5050505080915050979650505050505050565b6150cf80610db983390190565b600061066061065b84610b57565b610b32565b90508281526020810184848401111561067c5761067b610d18565b5b610687848285610c42565b509392505050565b60008135905061069e81610d8a565b92915050565b600082601f8301126106b9576106b8610d13565b5b81356106c984826020860161064d565b91505092915050565b6000813590506106e181610da1565b92915050565b6000602082840312156106fd576106fc610d22565b5b600082013567ffffffffffffffff81111561071b5761071a610d1d565b5b610727848285016106a4565b91505092915050565b60008060008060008060c0878903121561074d5761074c610d22565b5b600087013567ffffffffffffffff81111561076b5761076a610d1d565b5b61077789828a016106a4565b965050602087013567ffffffffffffffff81111561079857610797610d1d565b5b6107a489828a016106a4565b95505060406107b589828a016106d2565b94505060606107c689828a016106d2565b93505060806107d789828a016106d2565b92505060a06107e889828a0161068f565b9150509295509295509295565b600080600080600080600060e0888a03121561081457610813610d22565b5b60006108228a828b016106d2565b975050602088013567ffffffffffffffff81111561084357610842610d1d565b5b61084f8a828b016106a4565b965050604088013567ffffffffffffffff8111156108705761086f610d1d565b5b61087c8a828b016106a4565b955050606061088d8a828b016106d2565b945050608061089e8a828b016106d2565b93505060a06108af8a828b0161068f565b92505060c06108c08a828b016106d2565b91505092959891949750929550565b600080604083850312156108e6576108e5610d22565b5b60006108f4858286016106d2565b9250506020610905858286016106d2565b9150509250929050565b61091881610bfa565b82525050565b61092781610c0c565b82525050565b600061093882610b88565b6109428185610b93565b9350610952818560208601610c51565b61095b81610d27565b840191505092915050565b6000610973600f83610b93565b915061097e82610d38565b602082019050919050565b6000610996601583610b93565b91506109a182610d61565b602082019050919050565b6109b581610c38565b82525050565b600060208201905081810360008301526109d481610966565b9050919050565b600060208201905081810360008301526109f481610989565b9050919050565b6000604082019050610a1060008301856109ac565b8181036020830152610a22818461092d565b90509392505050565b600060c082019050610a4060008301896109ac565b8181036020830152610a52818861092d565b9050610a6160408301876109ac565b610a6e60608301866109ac565b610a7b60808301856109ac565b610a8860a083018461091e565b979650505050505050565b600060e082019050610aa8600083018a6109ac565b8181036020830152610aba818961092d565b9050610ac960408301886109ac565b610ad660608301876109ac565b610ae360808301866109ac565b610af060a083018561091e565b610afd60c083018461090f565b98975050505050505050565b6000604082019050610b1e60008301856109ac565b610b2b60208301846109ac565b9392505050565b6000610b3c610b4d565b9050610b488282610c84565b919050565b6000604051905090565b600067ffffffffffffffff821115610b7257610b71610ce4565b5b610b7b82610d27565b9050602081019050919050565b600081519050919050565b600082825260208201905092915050565b6000610baf82610c38565b9150610bba83610c38565b9250827fffffffffffffffffffffffffffffffffffffffffffffffffffffffffffffffff03821115610bef57610bee610cb5565b5b828201905092915050565b6000610c0582610c18565b9050919050565b60008115159050919050565b600073ffffffffffffffffffffffffffffffffffffffff82169050919050565b6000819050919050565b82818337600083830152505050565b60005b83811015610c6f578082015181840152602081019050610c54565b83811115610c7e576000848401525b50505050565b610c8d82610d27565b810181811067ffffffffffffffff82111715610cac57610cab610ce4565b5b80604052505050565b7f4e487b7100000000000000000000000000000000000000000000000000000000600052601160045260246000fd5b7f4e487b7100000000000000000000000000000000000000000000000000000000600052604160045260246000fd5b600080fd5b600080fd5b600080fd5b600080fd5b6000601f19601f8301169050919050565b7f496e76616c696420526571756573740000000000000000000000000000000000600082015250565b7f556e2d617574686f72697a656420526571756573740000000000000000000000600082015250565b610d9381610c0c565b8114610d9e57600080fd5b50565b610daa81610c38565b8114610db557600080fd5b5056fe60a06040523073ffffffffffffffffffffffffffffffffffffffff1660809073ffffffffffffffffffffffffffffffffffffffff1660601b81525034801561004657600080fd5b5060805160601c61504e61008160003960008181610c7801528181610d070152818161110f0152818161119e0152611600015261504e6000f3fe60806040526004361061014a5760003560e01c80635291fcd5116100b6578063a6f2ae3a1161006f578063a6f2ae3a14610418578063a9059cbb14610422578063c541ce0a1461043e578063ea8feae114610467578063f8fbea3414610490578063fa123172146104cd5761014a565b80635291fcd51461031e57806352d1902d14610347578063564b81ef146103725780636198e3391461039d5780638d6cc56d146103c65780638fffd8b5146103ef5761014a565b80632ddcb21f116101085780632ddcb21f1461027157806333b582c4146102885780633659cfe6146102b35780634630dd44146102dc5780634f1ef286146102f85780634f573cb2146103145761014a565b806256856a1461014f5780630711a9211461018c5780630c0907bd146101c95780630e89341c146101f457806321caea25146102315780632da992f814610248575b600080fd5b34801561015b57600080fd5b5061017660048036038101906101719190613731565b61050a565b6040516101839190613da3565b60405180910390f35b34801561019857600080fd5b506101b360048036038101906101ae91906136e8565b61054a565b6040516101c09190613dd9565b60405180910390f35b3480156101d557600080fd5b506101de6105c2565b6040516101eb9190614213565b60405180910390f35b34801561020057600080fd5b5061021b60048036038101906102169190613731565b6105c8565b6040516102289190613ed1565b60405180910390f35b34801561023d57600080fd5b50610246610843565b005b34801561025457600080fd5b5061026f600480360381019061026a919061363a565b61093a565b005b34801561027d57600080fd5b50610286610b4f565b005b34801561029457600080fd5b5061029d610c63565b6040516102aa9190614213565b60405180910390f35b3480156102bf57600080fd5b506102da60048036038101906102d5919061351e565b610c76565b005b6102f660048036038101906102f191906136e8565b610dff565b005b610312600480360381019061030d919061354b565b61110d565b005b61031c61124a565b005b34801561032a57600080fd5b50610345600480360381019061034091906135a7565b6114ec565b005b34801561035357600080fd5b5061035c6115fc565b6040516103699190613dd9565b60405180910390f35b34801561037e57600080fd5b506103876116b5565b6040516103949190614213565b60405180910390f35b3480156103a957600080fd5b506103c460048036038101906103bf9190613731565b6116bd565b005b3480156103d257600080fd5b506103ed60048036038101906103e89190613731565b611847565b005b3480156103fb57600080fd5b5061041660048036038101906104119190613731565b6118e7565b005b610420611987565b005b61043c600480360381019061043791906135a7565b611cdf565b005b34801561044a57600080fd5b506104656004803603810190610460919061378b565b611eef565b005b34801561047357600080fd5b5061048e60048036038101906104899190613731565b612108565b005b34801561049c57600080fd5b506104b760048036038101906104b291906135e7565b61220b565b6040516104c49190613dbe565b60405180910390f35b3480156104d957600080fd5b506104f460048036038101906104ef91906135a7565b6122eb565b6040516105019190613dbe565b60405180910390f35b600060d6600083815260200190815260200160002060010160009054906101000a900473ffffffffffffffffffffffffffffffffffffffff169050919050565b60006105bb7f134298cc09dce2d2d7b546d1489fda5aa6e53acbdf51e00731238ff4f4624d4d8360000135846040013585602001602081019061058d919061351e565b6040516020016105a09493929190613e47565b6040516020818303038152906040528051906020012061235a565b9050919050565b60cd5481565b6060600073ffffffffffffffffffffffffffffffffffffffff1660d6600084815260200190815260200160002060020160009054906101000a900473ffffffffffffffffffffffffffffffffffffffff1673ffffffffffffffffffffffffffffffffffffffff1614801561069d57503373ffffffffffffffffffffffffffffffffffffffff1660d6600084815260200190815260200160002060000160009054906101000a900473ffffffffffffffffffffffffffffffffffffffff1673ffffffffffffffffffffffffffffffffffffffff16145b8061070957503373ffffffffffffffffffffffffffffffffffffffff1660d6600084815260200190815260200160002060020160009054906101000a900473ffffffffffffffffffffffffffffffffffffffff1673ffffffffffffffffffffffffffffffffffffffff16145b8061077257503373ffffffffffffffffffffffffffffffffffffffff1660d7600084815260200190815260200160002060009054906101000a900473ffffffffffffffffffffffffffffffffffffffff1673ffffffffffffffffffffffffffffffffffffffff16145b6107b1576040517f08c379a00000000000000000000000000000000000000000000000000000000081526004016107a8906141b3565b60405180910390fd5b60ce80546107be9061464e565b80601f01602080910402602001604051908101604052809291908181526020018280546107ea9061464e565b80156108375780601f1061080c57610100808354040283529160200191610837565b820191906000526020600020905b81548152906001019060200180831161081a57829003601f168201915b50505050509050919050565b60026099541415610889576040517f08c379a0000000000000000000000000000000000000000000000000000000008152600401610880906141d3565b60405180910390fd5b600260998190555061089a33612374565b60d460009054906101000a900460ff166108e9576040517f08c379a00000000000000000000000000000000000000000000000000000000081526004016108e090614133565b60405180910390fd5b600060d460006101000a81548160ff0219169083151502179055507f4fa2ac1dbc3675e431edc4b7ed4ffca41ca041dc9c1f2e0628ba2abb9169af2f60405160405180910390a16001609981905550565b60026099541415610980576040517f08c379a0000000000000000000000000000000000000000000000000000000008152600401610977906141d3565b60405180910390fd5b600260998190555061099133612374565b60005b84849050811015610b405760d58585838181106109b4576109b36147c2565b5b9050604002019080600181540180825580915050600190039060005260206000200160009091909190915081816109eb9190614f4d565b5050848482818110610a00576109ff6147c2565b5b9050604002016000016020810190610a18919061351e565b60d76000610a2660cc612407565b815260200190815260200160002060006101000a81548173ffffffffffffffffffffffffffffffffffffffff021916908373ffffffffffffffffffffffffffffffffffffffff160217905550848482818110610a8557610a846147c2565b5b9050604002016000016020810190610a9d919061351e565b73ffffffffffffffffffffffffffffffffffffffff167fc9ea8cab181724f3d7441e556cd93a976c6fb7c2e190a5ff208badd0778d1128868684818110610ae757610ae66147c2565b5b9050604002016020016020810190610aff9190613849565b8585610b0b60cc612407565b604051610b1b9493929190614257565b60405180910390a2610b2d60cc612415565b8080610b38906146b1565b915050610994565b50600160998190555050505050565b60026099541415610b95576040517f08c379a0000000000000000000000000000000000000000000000000000000008152600401610b8c906141d3565b60405180910390fd5b6002609981905550610ba633612374565b60d460009054906101000a900460ff1615610bf6576040517f08c379a0000000000000000000000000000000000000000000000000000000008152600401610bed90613fb3565b60405180910390fd5b600160d460006101000a81548160ff0219169083151502179055506001610c1d60cb612407565b610c27919061449f565b60d3819055507f9315093715d20e383de0fda01168dc80aeea065ffbf08dd364d8e8bc59735f6d60405160405180910390a16001609981905550565b6000610c6e33612374565b60d254905090565b7f000000000000000000000000000000000000000000000000000000000000000073ffffffffffffffffffffffffffffffffffffffff163073ffffffffffffffffffffffffffffffffffffffff161415610d05576040517f08c379a0000000000000000000000000000000000000000000000000000000008152600401610cfc90613f73565b60405180910390fd5b7f000000000000000000000000000000000000000000000000000000000000000073ffffffffffffffffffffffffffffffffffffffff16610d4461242b565b73ffffffffffffffffffffffffffffffffffffffff1614610d9a576040517f08c379a0000000000000000000000000000000000000000000000000000000008152600401610d9190614013565b60405180910390fd5b610da381612482565b610dfc81600067ffffffffffffffff811115610dc257610dc16147f1565b5b6040519080825280601f01601f191660200182016040528015610df45781602001600182028036833780820191505090505b50600061254f565b50565b60026099541415610e45576040517f08c379a0000000000000000000000000000000000000000000000000000000008152600401610e3c906141d3565b60405180910390fd5b60026099819055508060400135341015610e94576040517f08c379a0000000000000000000000000000000000000000000000000000000008152600401610e8b90613fd3565b60405180910390fd5b6000610e9f826126cc565b90508073ffffffffffffffffffffffffffffffffffffffff1660d460019054906101000a900473ffffffffffffffffffffffffffffffffffffffff1673ffffffffffffffffffffffffffffffffffffffff1614610f31576040517f08c379a0000000000000000000000000000000000000000000000000000000008152600401610f2890614113565b60405180910390fd5b3373ffffffffffffffffffffffffffffffffffffffff16826020016020810190610f5b919061351e565b73ffffffffffffffffffffffffffffffffffffffff1614610fb1576040517f08c379a0000000000000000000000000000000000000000000000000000000008152600401610fa8906140d3565b60405180910390fd5b816020016020810190610fc4919061351e565b60d76000610fd260cc612407565b815260200190815260200160002060006101000a81548173ffffffffffffffffffffffffffffffffffffffff021916908373ffffffffffffffffffffffffffffffffffffffff16021790555061102860cc612415565b611035826040013561273e565b3373ffffffffffffffffffffffffffffffffffffffff166108fc61106684604001353461277790919063ffffffff16565b9081150290604051600060405180830381858888f19350505050158015611091573d6000803e3d6000fd5b508160200160208101906110a5919061351e565b73ffffffffffffffffffffffffffffffffffffffff167f3f4eb6c3c81657d4e0f5c31e40ceb4ad413ab88ce6bdac4abc25bf9de59a994a6110e660cc612407565b84604001356040516110f992919061422e565b60405180910390a250600160998190555050565b7f000000000000000000000000000000000000000000000000000000000000000073ffffffffffffffffffffffffffffffffffffffff163073ffffffffffffffffffffffffffffffffffffffff16141561119c576040517f08c379a000000000000000000000000000000000000000000000000000000000815260040161119390613f73565b60405180910390fd5b7f000000000000000000000000000000000000000000000000000000000000000073ffffffffffffffffffffffffffffffffffffffff166111db61242b565b73ffffffffffffffffffffffffffffffffffffffff1614611231576040517f08c379a000000000000000000000000000000000000000000000000000000000815260040161122890614013565b60405180910390fd5b61123a82612482565b6112468282600161254f565b5050565b60026099541415611290576040517f08c379a0000000000000000000000000000000000000000000000000000000008152600401611287906141d3565b60405180910390fd5b60026099819055506112a133612374565b600060d580549050116112e9576040517f08c379a00000000000000000000000000000000000000000000000000000000081526004016112e090613f93565b60405180910390fd5b600080600090505b60d58054905081101561136d5761135860d58281548110611315576113146147c2565b5b9060005260206000200160000160149054906101000a90046bffffffffffffffffffffffff166bffffffffffffffffffffffff168361278d90919063ffffffff16565b91508080611365906146b1565b9150506112f1565b5060006113858260d2546127a390919063ffffffff16565b905061139c8260d2546127b990919063ffffffff16565b60d28190555060005b60d5805490508110156114a65760d581815481106113c6576113c56147c2565b5b9060005260206000200160000160009054906101000a900473ffffffffffffffffffffffffffffffffffffffff1673ffffffffffffffffffffffffffffffffffffffff166108fc61146760d58481548110611424576114236147c2565b5b9060005260206000200160000160149054906101000a90046bffffffffffffffffffffffff166bffffffffffffffffffffffff16856127cf90919063ffffffff16565b9081150290604051600060405180830381858888f19350505050158015611492573d6000803e3d6000fd5b50808061149e906146b1565b9150506113a5565b507f7254ffd29ae20f1712bea29277015e5953493e93a264d860cdba0840857ec86160d2546040516114d89190614213565b60405180910390a150506001609981905550565b60026099541415611532576040517f08c379a0000000000000000000000000000000000000000000000000000000008152600401611529906141d3565b60405180910390fd5b600260998190555061154433826127e5565b61154d8161288d565b8160d6600083815260200190815260200160002060020160006101000a81548173ffffffffffffffffffffffffffffffffffffffff021916908373ffffffffffffffffffffffffffffffffffffffff1602179055508173ffffffffffffffffffffffffffffffffffffffff167f06f76e0da7be64239656a001b94c1c4e1893465df2f1ef90edb1e088b0852e69826040516115e89190614213565b60405180910390a260016099819055505050565b60007f000000000000000000000000000000000000000000000000000000000000000073ffffffffffffffffffffffffffffffffffffffff163073ffffffffffffffffffffffffffffffffffffffff161461168c576040517f08c379a000000000000000000000000000000000000000000000000000000000815260040161168390614033565b60405180910390fd5b7f360894a13ba1a3210667c828492db98dca3e2076cc3735a920a3ca505d382bbc60001b905090565b600046905090565b60026099541415611703576040517f08c379a00000000000000000000000000000000000000000000000000000000081526004016116fa906141d3565b60405180910390fd5b60026099819055503373ffffffffffffffffffffffffffffffffffffffff1660d6600083815260200190815260200160002060020160009054906101000a900473ffffffffffffffffffffffffffffffffffffffff1673ffffffffffffffffffffffffffffffffffffffff16146117af576040517f08c379a00000000000000000000000000000000000000000000000000000000081526004016117a6906141b3565b60405180910390fd5b600060d6600083815260200190815260200160002060020160006101000a81548173ffffffffffffffffffffffffffffffffffffffff021916908373ffffffffffffffffffffffffffffffffffffffff1602179055507f3a7c2a55ffa9ac00869f1a3eb5e3209a949c0690416cad3ca8536b026908a065816040516118349190614213565b60405180910390a1600160998190555050565b6002609954141561188d576040517f08c379a0000000000000000000000000000000000000000000000000000000008152600401611884906141d3565b60405180910390fd5b600260998190555061189e33612374565b8060cf819055507f66cbca4f3c64fecf1dcb9ce094abcf7f68c3450a1d4e3a8e917dd621edb4ebe0816040516118d49190614213565b60405180910390a1600160998190555050565b6002609954141561192d576040517f08c379a0000000000000000000000000000000000000000000000000000000008152600401611924906141d3565b60405180910390fd5b600260998190555061193e33612374565b8060d0819055507f244ea8d7627f5a08f4299862bd5a45752842c183aee5b0fb0d1e4887bfa605b3816040516119749190614213565b60405180910390a1600160998190555050565b600260995414156119cd576040517f08c379a00000000000000000000000000000000000000000000000000000000081526004016119c4906141d3565b60405180910390fd5b600260998190555060cf54341015611a1a576040517f08c379a0000000000000000000000000000000000000000000000000000000008152600401611a1190613fd3565b60405180910390fd5b60d460009054906101000a900460ff1615611a9057611a4c6001611a3e60cb612407565b61277790919063ffffffff16565b60d35411611a8f576040517f08c379a0000000000000000000000000000000000000000000000000000000008152600401611a8690614173565b60405180910390fd5b5b600060405180606001604052803373ffffffffffffffffffffffffffffffffffffffff16815260200160d460019054906101000a900473ffffffffffffffffffffffffffffffffffffffff1673ffffffffffffffffffffffffffffffffffffffff168152602001600073ffffffffffffffffffffffffffffffffffffffff1681525090508060d66000611b2360cb612407565b815260200190815260200160002060008201518160000160006101000a81548173ffffffffffffffffffffffffffffffffffffffff021916908373ffffffffffffffffffffffffffffffffffffffff16021790555060208201518160010160006101000a81548173ffffffffffffffffffffffffffffffffffffffff021916908373ffffffffffffffffffffffffffffffffffffffff16021790555060408201518160020160006101000a81548173ffffffffffffffffffffffffffffffffffffffff021916908373ffffffffffffffffffffffffffffffffffffffff160217905550905050611c1360cb612415565b611c1e60cf5461273e565b3373ffffffffffffffffffffffffffffffffffffffff166108fc611c4d60cf543461277790919063ffffffff16565b9081150290604051600060405180830381858888f19350505050158015611c78573d6000803e3d6000fd5b503373ffffffffffffffffffffffffffffffffffffffff167f0a61a5bc4d97f46f5320375498e59af4d35ef1f6f31c51b9fc03c0134dd46817611cbb60cb612407565b60cf54604051611ccc92919061422e565b60405180910390a2506001609981905550565b60026099541415611d25576040517f08c379a0000000000000000000000000000000000000000000000000000000008152600401611d1c906141d3565b60405180910390fd5b6002609981905550611d3733826127e5565b611d408161288d565b60d054341015611d85576040517f08c379a0000000000000000000000000000000000000000000000000000000008152600401611d7c90613fd3565b60405180910390fd5b3360d6600083815260200190815260200160002060010160006101000a81548173ffffffffffffffffffffffffffffffffffffffff021916908373ffffffffffffffffffffffffffffffffffffffff1602179055508160d6600083815260200190815260200160002060000160006101000a81548173ffffffffffffffffffffffffffffffffffffffff021916908373ffffffffffffffffffffffffffffffffffffffff160217905550611e3a60d05461273e565b3373ffffffffffffffffffffffffffffffffffffffff166108fc611e6960d0543461277790919063ffffffff16565b9081150290604051600060405180830381858888f19350505050158015611e94573d6000803e3d6000fd5b508173ffffffffffffffffffffffffffffffffffffffff167f0ff0cdfdec8286eb9990d56a9dd0bbacd1f2631624f021b9ef8051cae989c86082604051611edb9190614213565b60405180910390a260016099819055505050565b600060019054906101000a900460ff16611f175760008054906101000a900460ff1615611f20565b611f1f612935565b5b611f5f576040517f08c379a0000000000000000000000000000000000000000000000000000000008152600401611f5690614073565b60405180910390fd5b60008060019054906101000a900460ff161590508015611faf576001600060016101000a81548160ff02191690831515021790555060016000806101000a81548160ff0219169083151502179055505b6120236040518060400160405280600c81526020017f424f4f4b2d564f554348455200000000000000000000000000000000000000008152506040518060400160405280600181526020017f3100000000000000000000000000000000000000000000000000000000000000815250612946565b61202b6129a3565b6120336129fc565b8760cd819055508660ce9080519060200190612050929190613252565b508560cf819055508460d0819055508160d460016101000a81548173ffffffffffffffffffffffffffffffffffffffff021916908373ffffffffffffffffffffffffffffffffffffffff16021790555082156120c957600160d460006101000a81548160ff0219169083151502179055508360d3819055505b6120d360cb612415565b6120dd60cc612415565b80156120fe5760008060016101000a81548160ff0219169083151502179055505b5050505050505050565b6002609954141561214e576040517f08c379a0000000000000000000000000000000000000000000000000000000008152600401612145906141d3565b60405180910390fd5b600260998190555061215f33612374565b60d460009054906101000a900460ff166121ae576040517f08c379a00000000000000000000000000000000000000000000000000000000081526004016121a590613f53565b60405180910390fd5b8060d360008282546121c091906143be565b925050819055507f2997f475d409a7cba16d31bb0e76cd7bf156ffe8a8a1205a9a75c199d0c82dd460d3546040516121f89190614213565b60405180910390a1600160998190555050565b6000811561227c578373ffffffffffffffffffffffffffffffffffffffff1660d7600085815260200190815260200160002060009054906101000a900473ffffffffffffffffffffffffffffffffffffffff1673ffffffffffffffffffffffffffffffffffffffff161490506122e4565b8373ffffffffffffffffffffffffffffffffffffffff1660d6600085815260200190815260200160002060000160009054906101000a900473ffffffffffffffffffffffffffffffffffffffff1673ffffffffffffffffffffffffffffffffffffffff161490505b9392505050565b60008273ffffffffffffffffffffffffffffffffffffffff1660d6600084815260200190815260200160002060020160009054906101000a900473ffffffffffffffffffffffffffffffffffffffff1673ffffffffffffffffffffffffffffffffffffffff1614905092915050565b600061236d612367612a5d565b83612a9d565b9050919050565b60d460019054906101000a900473ffffffffffffffffffffffffffffffffffffffff1673ffffffffffffffffffffffffffffffffffffffff168173ffffffffffffffffffffffffffffffffffffffff1614612404576040517f08c379a00000000000000000000000000000000000000000000000000000000081526004016123fb906141b3565b60405180910390fd5b50565b600081600001549050919050565b6001816000016000828254019250508190555050565b60006124597f360894a13ba1a3210667c828492db98dca3e2076cc3735a920a3ca505d382bbc60001b612ad0565b60000160009054906101000a900473ffffffffffffffffffffffffffffffffffffffff16905090565b61248b33612374565b60cd548173ffffffffffffffffffffffffffffffffffffffff16630c0907bd6040518163ffffffff1660e01b815260040160206040518083038186803b1580156124d457600080fd5b505afa1580156124e8573d6000803e3d6000fd5b505050506040513d601f19601f8201168201806040525081019061250c919061375e565b1461254c576040517f08c379a000000000000000000000000000000000000000000000000000000000815260040161254390613f13565b60405180910390fd5b50565b61257b7f4910fdfa16fed3260ed0e7147f7cc6da11a60208b5b9406d12a635614ffd914360001b612ada565b60000160009054906101000a900460ff161561259f5761259a83612ae4565b6126c7565b8273ffffffffffffffffffffffffffffffffffffffff166352d1902d6040518163ffffffff1660e01b815260040160206040518083038186803b1580156125e557600080fd5b505afa92505050801561261657506040513d601f19601f8201168201806040525081019061261391906136bb565b60015b612655576040517f08c379a000000000000000000000000000000000000000000000000000000000815260040161264c906140b3565b60405180910390fd5b7f360894a13ba1a3210667c828492db98dca3e2076cc3735a920a3ca505d382bbc60001b81146126ba576040517f08c379a00000000000000000000000000000000000000000000000000000000081526004016126b190614053565b60405180910390fd5b506126c6838383612b9d565b5b505050565b6000806126d88361054a565b9050612736818480606001906126ee9190614297565b8080601f016020809104026020016040519081016040528093929190818152602001838380828437600081840152601f19601f82011690508083019250505050505050612bc9565b915050919050565b6127538160d15461278d90919063ffffffff16565b60d18190555061276e8160d25461278d90919063ffffffff16565b60d28190555050565b60008183612785919061449f565b905092915050565b6000818361279b91906143be565b905092915050565b600081836127b19190614414565b905092915050565b600081836127c79190614704565b905092915050565b600081836127dd9190614445565b905092915050565b8173ffffffffffffffffffffffffffffffffffffffff1660d6600083815260200190815260200160002060000160009054906101000a900473ffffffffffffffffffffffffffffffffffffffff1673ffffffffffffffffffffffffffffffffffffffff1614612889576040517f08c379a0000000000000000000000000000000000000000000000000000000008152600401612880906141b3565b60405180910390fd5b5050565b600073ffffffffffffffffffffffffffffffffffffffff1660d6600083815260200190815260200160002060020160009054906101000a900473ffffffffffffffffffffffffffffffffffffffff1673ffffffffffffffffffffffffffffffffffffffff1614612932576040517f08c379a0000000000000000000000000000000000000000000000000000000008152600401612929906141f3565b60405180910390fd5b50565b600061294030612c43565b15905090565b600060019054906101000a900460ff16612995576040517f08c379a000000000000000000000000000000000000000000000000000000000815260040161298c90614193565b60405180910390fd5b61299f8282612c56565b5050565b600060019054906101000a900460ff166129f2576040517f08c379a00000000000000000000000000000000000000000000000000000000081526004016129e990614193565b60405180910390fd5b6129fa612cd1565b565b600060019054906101000a900460ff16612a4b576040517f08c379a0000000000000000000000000000000000000000000000000000000008152600401612a4290614193565b60405180910390fd5b612a53612d2a565b612a5b612d7b565b565b6000612a987f8b73c3c69bb8fe3d512ecc4cf759cc79239f7b179b0ffacaa9a75d522b39400f612a8b612dcc565b612a93612dd6565b612de0565b905090565b60008282604051602001612ab2929190613d6c565b60405160208183030381529060405280519060200120905092915050565b6000819050919050565b6000819050919050565b612aed81612c43565b612b2c576040517f08c379a0000000000000000000000000000000000000000000000000000000008152600401612b23906140f3565b60405180910390fd5b80612b597f360894a13ba1a3210667c828492db98dca3e2076cc3735a920a3ca505d382bbc60001b612ad0565b60000160006101000a81548173ffffffffffffffffffffffffffffffffffffffff021916908373ffffffffffffffffffffffffffffffffffffffff16021790555050565b612ba683612e1a565b600082511180612bb35750805b15612bc457612bc28383612e69565b505b505050565b60006041825114612c0f576040517f08c379a0000000000000000000000000000000000000000000000000000000008152600401612c0690613f33565b60405180910390fd5b60008060006020850151925060408501519150606085015160001a9050612c3886828585612f4d565b935050505092915050565b600080823b905060008111915050919050565b600060019054906101000a900460ff16612ca5576040517f08c379a0000000000000000000000000000000000000000000000000000000008152600401612c9c90614193565b60405180910390fd5b600082805190602001209050600082805190602001209050816065819055508060668190555050505050565b600060019054906101000a900460ff16612d20576040517f08c379a0000000000000000000000000000000000000000000000000000000008152600401612d1790614193565b60405180910390fd5b6001609981905550565b600060019054906101000a900460ff16612d79576040517f08c379a0000000000000000000000000000000000000000000000000000000008152600401612d7090614193565b60405180910390fd5b565b600060019054906101000a900460ff16612dca576040517f08c379a0000000000000000000000000000000000000000000000000000000008152600401612dc190614193565b60405180910390fd5b565b6000606554905090565b6000606654905090565b60008383834630604051602001612dfb959493929190613df4565b6040516020818303038152906040528051906020012090509392505050565b612e2381612ae4565b8073ffffffffffffffffffffffffffffffffffffffff167fbc7cd75a20ee27fd9adebab32041f755214dbc6bffa90cc0225b39da2e5c2d3b60405160405180910390a250565b6060612e7483612c43565b612eb3576040517f08c379a0000000000000000000000000000000000000000000000000000000008152600401612eaa90614153565b60405180910390fd5b6000808473ffffffffffffffffffffffffffffffffffffffff1684604051612edb9190613d2f565b600060405180830381855af49150503d8060008114612f16576040519150601f19603f3d011682016040523d82523d6000602084013e612f1b565b606091505b5091509150612f438282604051806060016040528060278152602001614ff2602791396131bb565b9250505092915050565b60007f7fffffffffffffffffffffffffffffff5d576e7357a4501ddfe92f46681b20a08260001c1115612fb5576040517f08c379a0000000000000000000000000000000000000000000000000000000008152600401612fac90613ff3565b60405180910390fd5b6000601e8560ff16111561309957601b600486612fd291906144d3565b60ff161480612ff05750601c600486612feb91906144d3565b60ff16145b61302f576040517f08c379a000000000000000000000000000000000000000000000000000000000815260040161302690614093565b60405180910390fd5b600161303a87613222565b60048761304791906144d3565b8686604051600081526020016040526040516130669493929190613e8c565b6020604051602081039080840390855afa158015613088573d6000803e3d6000fd5b50505060206040510351905061313f565b601b8560ff1614806130ae5750601c8560ff16145b6130ed576040517f08c379a00000000000000000000000000000000000000000000000000000000081526004016130e490614093565b60405180910390fd5b600186868686604051600081526020016040526040516131109493929190613e8c565b6020604051602081039080840390855afa158015613132573d6000803e3d6000fd5b5050506020604051035190505b600073ffffffffffffffffffffffffffffffffffffffff168173ffffffffffffffffffffffffffffffffffffffff1614156131af576040517f08c379a00000000000000000000000000000000000000000000000000000000081526004016131a690613ef3565b60405180910390fd5b80915050949350505050565b606083156131cb5782905061321b565b6000835111156131de5782518084602001fd5b816040517f08c379a00000000000000000000000000000000000000000000000000000000081526004016132129190613ed1565b60405180910390fd5b9392505050565b6000816040516020016132359190613d46565b604051602081830303815290604052805190602001209050919050565b82805461325e9061464e565b90600052602060002090601f01602090048101928261328057600085556132c7565b82601f1061329957805160ff19168380011785556132c7565b828001600101855582156132c7579182015b828111156132c65782518255916020019190600101906132ab565b5b5090506132d491906132d8565b5090565b5b808211156132f15760008160009055506001016132d9565b5090565b60006133086133038461431f565b6142fa565b90508281526020810184848401111561332457613323614883565b5b61332f8482856145c6565b509392505050565b600061334a61334584614350565b6142fa565b90508281526020810184848401111561336657613365614883565b5b6133718482856145c6565b509392505050565b60008135905061338881614f7e565b92915050565b60008083601f8401126133a4576133a3614865565b5b8235905067ffffffffffffffff8111156133c1576133c0614860565b5b6020830191508360408202830111156133dd576133dc614879565b5b9250929050565b6000813590506133f381614f95565b92915050565b60008151905061340881614fac565b92915050565b600082601f83011261342357613422614865565b5b81356134338482602086016132f5565b91505092915050565b60008083601f84011261345257613451614865565b5b8235905067ffffffffffffffff81111561346f5761346e614860565b5b60208301915083600182028301111561348b5761348a614879565b5b9250929050565b600082601f8301126134a7576134a6614865565b5b81356134b7848260208601613337565b91505092915050565b6000608082840312156134d6576134d561486f565b5b81905092915050565b6000813590506134ee81614fc3565b92915050565b60008151905061350381614fc3565b92915050565b60008135905061351881614fda565b92915050565b6000602082840312156135345761353361488d565b5b600061354284828501613379565b91505092915050565b600080604083850312156135625761356161488d565b5b600061357085828601613379565b925050602083013567ffffffffffffffff81111561359157613590614888565b5b61359d8582860161340e565b9150509250929050565b600080604083850312156135be576135bd61488d565b5b60006135cc85828601613379565b92505060206135dd858286016134df565b9150509250929050565b600080600060608486031215613600576135ff61488d565b5b600061360e86828701613379565b935050602061361f868287016134df565b9250506040613630868287016133e4565b9150509250925092565b600080600080604085870312156136545761365361488d565b5b600085013567ffffffffffffffff81111561367257613671614888565b5b61367e8782880161338e565b9450945050602085013567ffffffffffffffff8111156136a1576136a0614888565b5b6136ad8782880161343c565b925092505092959194509250565b6000602082840312156136d1576136d061488d565b5b60006136df848285016133f9565b91505092915050565b6000602082840312156136fe576136fd61488d565b5b600082013567ffffffffffffffff81111561371c5761371b614888565b5b613728848285016134c0565b91505092915050565b6000602082840312156137475761374661488d565b5b6000613755848285016134df565b91505092915050565b6000602082840312156137745761377361488d565b5b6000613782848285016134f4565b91505092915050565b600080600080600080600060e0888a0312156137aa576137a961488d565b5b60006137b88a828b016134df565b975050602088013567ffffffffffffffff8111156137d9576137d8614888565b5b6137e58a828b01613492565b96505060406137f68a828b016134df565b95505060606138078a828b016134df565b94505060806138188a828b016134df565b93505060a06138298a828b016133e4565b92505060c061383a8a828b01613379565b91505092959891949750929550565b60006020828403121561385f5761385e61488d565b5b600061386d84828501613509565b91505092915050565b61387f81614507565b82525050565b61388e81614519565b82525050565b61389d81614525565b82525050565b6138b46138af82614525565b6146fa565b82525050565b60006138c582614381565b6138cf8185614397565b93506138df8185602086016145d5565b80840191505092915050565b60006138f783856143a2565b93506139048385846145c6565b61390d83614892565b840190509392505050565b60006139238261438c565b61392d81856143a2565b935061393d8185602086016145d5565b61394681614892565b840191505092915050565b600061395e6018836143a2565b9150613969826148bd565b602082019050919050565b60006139816016836143a2565b915061398c826148e6565b602082019050919050565b60006139a4601f836143a2565b91506139af8261490f565b602082019050919050565b60006139c7601c836143b3565b91506139d282614938565b601c82019050919050565b60006139ea6002836143b3565b91506139f582614961565b600282019050919050565b6000613a0d6012836143a2565b9150613a188261498a565b602082019050919050565b6000613a30602c836143a2565b9150613a3b826149b3565b604082019050919050565b6000613a536015836143a2565b9150613a5e82614a02565b602082019050919050565b6000613a766016836143a2565b9150613a8182614a2b565b602082019050919050565b6000613a996012836143a2565b9150613aa482614a54565b602082019050919050565b6000613abc6022836143a2565b9150613ac782614a7d565b604082019050919050565b6000613adf602c836143a2565b9150613aea82614acc565b604082019050919050565b6000613b026038836143a2565b9150613b0d82614b1b565b604082019050919050565b6000613b256029836143a2565b9150613b3082614b6a565b604082019050919050565b6000613b48602e836143a2565b9150613b5382614bb9565b604082019050919050565b6000613b6b6022836143a2565b9150613b7682614c08565b604082019050919050565b6000613b8e602e836143a2565b9150613b9982614c57565b604082019050919050565b6000613bb1600f836143a2565b9150613bbc82614ca6565b602082019050919050565b6000613bd4602d836143a2565b9150613bdf82614ccf565b604082019050919050565b6000613bf76011836143a2565b9150613c0282614d1e565b602082019050919050565b6000613c1a6018836143a2565b9150613c2582614d47565b602082019050919050565b6000613c3d6026836143a2565b9150613c4882614d70565b604082019050919050565b6000613c606014836143a2565b9150613c6b82614dbf565b602082019050919050565b6000613c83602b836143a2565b9150613c8e82614de8565b604082019050919050565b6000613ca66015836143a2565b9150613cb182614e37565b602082019050919050565b6000613cc9601f836143a2565b9150613cd482614e60565b602082019050919050565b6000613cec600b836143a2565b9150613cf782614e89565b602082019050919050565b613d0b8161454f565b82525050565b613d1a81614559565b82525050565b613d2981614566565b82525050565b6000613d3b82846138ba565b915081905092915050565b6000613d51826139ba565b9150613d5d82846138a3565b60208201915081905092915050565b6000613d77826139dd565b9150613d8382856138a3565b602082019150613d9382846138a3565b6020820191508190509392505050565b6000602082019050613db86000830184613876565b92915050565b6000602082019050613dd36000830184613885565b92915050565b6000602082019050613dee6000830184613894565b92915050565b600060a082019050613e096000830188613894565b613e166020830187613894565b613e236040830186613894565b613e306060830185613d02565b613e3d6080830184613876565b9695505050505050565b6000608082019050613e5c6000830187613894565b613e696020830186613d02565b613e766040830185613d02565b613e836060830184613876565b95945050505050565b6000608082019050613ea16000830187613894565b613eae6020830186613d11565b613ebb6040830185613894565b613ec86060830184613894565b95945050505050565b60006020820190508181036000830152613eeb8184613918565b905092915050565b60006020820190508181036000830152613f0c81613951565b9050919050565b60006020820190508181036000830152613f2c81613974565b9050919050565b60006020820190508181036000830152613f4c81613997565b9050919050565b60006020820190508181036000830152613f6c81613a00565b9050919050565b60006020820190508181036000830152613f8c81613a23565b9050919050565b60006020820190508181036000830152613fac81613a46565b9050919050565b60006020820190508181036000830152613fcc81613a69565b9050919050565b60006020820190508181036000830152613fec81613a8c565b9050919050565b6000602082019050818103600083015261400c81613aaf565b9050919050565b6000602082019050818103600083015261402c81613ad2565b9050919050565b6000602082019050818103600083015261404c81613af5565b9050919050565b6000602082019050818103600083015261406c81613b18565b9050919050565b6000602082019050818103600083015261408c81613b3b565b9050919050565b600060208201905081810360008301526140ac81613b5e565b9050919050565b600060208201905081810360008301526140cc81613b81565b9050919050565b600060208201905081810360008301526140ec81613ba4565b9050919050565b6000602082019050818103600083015261410c81613bc7565b9050919050565b6000602082019050818103600083015261412c81613bea565b9050919050565b6000602082019050818103600083015261414c81613c0d565b9050919050565b6000602082019050818103600083015261416c81613c30565b9050919050565b6000602082019050818103600083015261418c81613c53565b9050919050565b600060208201905081810360008301526141ac81613c76565b9050919050565b600060208201905081810360008301526141cc81613c99565b9050919050565b600060208201905081810360008301526141ec81613cbc565b9050919050565b6000602082019050818103600083015261420c81613cdf565b9050919050565b60006020820190506142286000830184613d02565b92915050565b60006040820190506142436000830185613d02565b6142506020830184613d02565b9392505050565b600060608201905061426c6000830187613d20565b818103602083015261427f8185876138eb565b905061428e6040830184613d02565b95945050505050565b600080833560016020038436030381126142b4576142b3614874565b5b80840192508235915067ffffffffffffffff8211156142d6576142d561486a565b5b6020830192506001820236038313156142f2576142f161487e565b5b509250929050565b6000614304614315565b90506143108282614680565b919050565b6000604051905090565b600067ffffffffffffffff82111561433a576143396147f1565b5b61434382614892565b9050602081019050919050565b600067ffffffffffffffff82111561436b5761436a6147f1565b5b61437482614892565b9050602081019050919050565b600081519050919050565b600081519050919050565b600081905092915050565b600082825260208201905092915050565b600081905092915050565b60006143c98261454f565b91506143d48361454f565b9250827fffffffffffffffffffffffffffffffffffffffffffffffffffffffffffffffff0382111561440957614408614735565b5b828201905092915050565b600061441f8261454f565b915061442a8361454f565b92508261443a57614439614764565b5b828204905092915050565b60006144508261454f565b915061445b8361454f565b9250817fffffffffffffffffffffffffffffffffffffffffffffffffffffffffffffffff048311821515161561449457614493614735565b5b828202905092915050565b60006144aa8261454f565b91506144b58361454f565b9250828210156144c8576144c7614735565b5b828203905092915050565b60006144de82614559565b91506144e983614559565b9250828210156144fc576144fb614735565b5b828203905092915050565b60006145128261452f565b9050919050565b60008115159050919050565b6000819050919050565b600073ffffffffffffffffffffffffffffffffffffffff82169050919050565b6000819050919050565b600060ff82169050919050565b60006bffffffffffffffffffffffff82169050919050565b600061458982614590565b9050919050565b600061459b826145a2565b9050919050565b60006145ad8261452f565b9050919050565b60006145bf82614566565b9050919050565b82818337600083830152505050565b60005b838110156145f35780820151818401526020810190506145d8565b83811115614602576000848401525b50505050565b60008101600083018061461a81614834565b90506146268184614f2a565b50505060008101602083018061463b8161484a565b90506146478184614f5b565b5050505050565b6000600282049050600182168061466657607f821691505b6020821081141561467a57614679614793565b5b50919050565b61468982614892565b810181811067ffffffffffffffff821117156146a8576146a76147f1565b5b80604052505050565b60006146bc8261454f565b91507fffffffffffffffffffffffffffffffffffffffffffffffffffffffffffffffff8214156146ef576146ee614735565b5b600182019050919050565b6000819050919050565b600061470f8261454f565b915061471a8361454f565b92508261472a57614729614764565b5b828206905092915050565b7f4e487b7100000000000000000000000000000000000000000000000000000000600052601160045260246000fd5b7f4e487b7100000000000000000000000000000000000000000000000000000000600052601260045260246000fd5b7f4e487b7100000000000000000000000000000000000000000000000000000000600052602260045260246000fd5b7f4e487b7100000000000000000000000000000000000000000000000000000000600052603260045260246000fd5b7f4e487b7100000000000000000000000000000000000000000000000000000000600052604160045260246000fd5b6000819050919050565b6000819050919050565b6000813561484181614f7e565b80915050919050565b6000813561485781614fda565b80915050919050565b600080fd5b600080fd5b600080fd5b600080fd5b600080fd5b600080fd5b600080fd5b600080fd5b600080fd5b600080fd5b6000601f19601f8301169050919050565b60008160001b9050919050565b60008160a01b9050919050565b7f45434453413a20696e76616c6964207369676e61747572650000000000000000600082015250565b7f496e76616c696420496d706c656d656e746174696f6e00000000000000000000600082015250565b7f45434453413a20696e76616c6964207369676e6174757265206c656e67746800600082015250565b7f19457468657265756d205369676e6564204d6573736167653a0a333200000000600082015250565b7f1901000000000000000000000000000000000000000000000000000000000000600082015250565b7f537570706c79204e6f74204c696d697465640000000000000000000000000000600082015250565b7f46756e6374696f6e206d7573742062652063616c6c6564207468726f7567682060008201527f64656c656761746563616c6c0000000000000000000000000000000000000000602082015250565b7f4e6f20436f6e7472696275746f72732041646465640000000000000000000000600082015250565b7f537570706c7920416c7265616479204c696d6974656400000000000000000000600082015250565b7f496e73756666696369656e742046756e64730000000000000000000000000000600082015250565b7f45434453413a20696e76616c6964207369676e6174757265202773272076616c60008201527f7565000000000000000000000000000000000000000000000000000000000000602082015250565b7f46756e6374696f6e206d7573742062652063616c6c6564207468726f7567682060008201527f6163746976652070726f78790000000000000000000000000000000000000000602082015250565b7f555550535570677261646561626c653a206d757374206e6f742062652063616c60008201527f6c6564207468726f7567682064656c656761746563616c6c0000000000000000602082015250565b7f45524331393637557067726164653a20756e737570706f727465642070726f7860008201527f6961626c65555549440000000000000000000000000000000000000000000000602082015250565b7f496e697469616c697a61626c653a20636f6e747261637420697320616c72656160008201527f647920696e697469616c697a6564000000000000000000000000000000000000602082015250565b7f45434453413a20696e76616c6964207369676e6174757265202776272076616c60008201527f7565000000000000000000000000000000000000000000000000000000000000602082015250565b7f45524331393637557067726164653a206e657720696d706c656d656e7461746960008201527f6f6e206973206e6f742055555053000000000000000000000000000000000000602082015250565b7f496e76616c696420526571756573740000000000000000000000000000000000600082015250565b7f455243313936373a206e657720696d706c656d656e746174696f6e206973206e60008201527f6f74206120636f6e747261637400000000000000000000000000000000000000602082015250565b7f496e76616c6964205369676e6174757265000000000000000000000000000000600082015250565b7f537570706c7920416c726561647920556e6c696d697465640000000000000000600082015250565b7f416464726573733a2064656c65676174652063616c6c20746f206e6f6e2d636f60008201527f6e74726163740000000000000000000000000000000000000000000000000000602082015250565b7f537570706c79204c696d69742052656163686564000000000000000000000000600082015250565b7f496e697469616c697a61626c653a20636f6e7472616374206973206e6f74206960008201527f6e697469616c697a696e67000000000000000000000000000000000000000000602082015250565b7f556e2d617574686f72697a656420526571756573740000000000000000000000600082015250565b7f5265656e7472616e637947756172643a207265656e7472616e742063616c6c00600082015250565b7f426f6f6b204c6f636b6564000000000000000000000000000000000000000000600082015250565b60007fffffffffffffffffffffffff0000000000000000000000000000000000000000614ede846148b0565b9350801983169250808416831791505092915050565b600073ffffffffffffffffffffffffffffffffffffffff614f14846148a3565b9350801983169250808416831791505092915050565b614f338261457e565b614f46614f3f82614820565b8354614ef4565b8255505050565b614f578282614608565b5050565b614f64826145b4565b614f77614f708261482a565b8354614eb2565b8255505050565b614f8781614507565b8114614f9257600080fd5b50565b614f9e81614519565b8114614fa957600080fd5b50565b614fb581614525565b8114614fc057600080fd5b50565b614fcc8161454f565b8114614fd757600080fd5b50565b614fe381614566565b8114614fee57600080fd5b5056fe416464726573733a206c6f772d6c6576656c2064656c65676174652063616c6c206661696c6564a26469706673582212201cf6a9fbc0efc750d8393f09e9336c87786a819c1ace4b2a5c5d8f16ca940f5964736f6c63430008070033a26469706673582212201f68c76ed23adfb44db7d42f3819eb26068391d0dfb529d888199e04f5dad83d64736f6c63430008070033",
  "linkReferences": {},
  "deployedLinkReferences": {}
}