{
    "_format": "hh-sol-artifact-1",
    "contractName": "Rentor",
    "sourceName": "contracts/v3/Rentor.sol",
    "abi": [
        {
            "inputs": [
                {
                    "internalType": "contract ISuperfluid",
                    "name": "host",
                    "type": "address"
                },
                {
                    "internalType": "contract IConstantFlowAgreementV1",
                    "name": "cfa",
                    "type": "address"
                },
                {
                    "internalType": "contract ISuperToken",
                    "name": "acceptedToken",
                    "type": "address"
                }
            ],
            "stateMutability": "nonpayable",
            "type": "constructor"
        },
        {
            "anonymous": false,
            "inputs": [
                {
                    "indexed": true,
                    "internalType": "address",
                    "name": "editionAddress",
                    "type": "address"
                },
                {
                    "indexed": false,
                    "internalType": "uint256",
                    "name": "copyUid",
                    "type": "uint256"
                },
                {
                    "indexed": false,
                    "internalType": "int96",
                    "name": "flowRate",
                    "type": "int96"
                }
            ],
            "name": "BookPutOnRent",
            "type": "event"
        },
        {
            "anonymous": false,
            "inputs": [
                {
                    "indexed": true,
                    "internalType": "address",
                    "name": "editionAddress",
                    "type": "address"
                },
                {
                    "indexed": false,
                    "internalType": "uint256",
                    "name": "copyUid",
                    "type": "uint256"
                }
            ],
            "name": "BookRemovedFromRent",
            "type": "event"
        },
        {
            "anonymous": false,
            "inputs": [
                {
                    "indexed": true,
                    "internalType": "address",
                    "name": "editionAddress",
                    "type": "address"
                },
                {
                    "indexed": false,
                    "internalType": "uint256",
                    "name": "copyUid",
                    "type": "uint256"
                }
            ],
            "name": "BookReturned",
            "type": "event"
        },
        {
            "anonymous": false,
            "inputs": [
                {
                    "indexed": true,
                    "internalType": "address",
                    "name": "editionAddress",
                    "type": "address"
                },
                {
                    "indexed": false,
                    "internalType": "uint256",
                    "name": "copyUid",
                    "type": "uint256"
                },
                {
                    "indexed": true,
                    "internalType": "address",
                    "name": "rentedTo",
                    "type": "address"
                },
                {
                    "indexed": false,
                    "internalType": "int96",
                    "name": "flowRate",
                    "type": "int96"
                }
            ],
            "name": "BookTakenOnRent",
            "type": "event"
        },
        {
            "inputs": [
                {
                    "internalType": "contract ISuperToken",
                    "name": "_superToken",
                    "type": "address"
                },
                {
                    "internalType": "address",
                    "name": "_agreementClass",
                    "type": "address"
                },
                {
                    "internalType": "bytes32",
                    "name": "",
                    "type": "bytes32"
                },
                {
                    "internalType": "bytes",
                    "name": "",
                    "type": "bytes"
                },
                {
                    "internalType": "bytes",
                    "name": "",
                    "type": "bytes"
                },
                {
                    "internalType": "bytes",
                    "name": "_ctx",
                    "type": "bytes"
                }
            ],
            "name": "afterAgreementCreated",
            "outputs": [
                {
                    "internalType": "bytes",
                    "name": "newCtx",
                    "type": "bytes"
                }
            ],
            "stateMutability": "nonpayable",
            "type": "function"
        },
        {
            "inputs": [
                {
                    "internalType": "contract ISuperToken",
                    "name": "_superToken",
                    "type": "address"
                },
                {
                    "internalType": "address",
                    "name": "_agreementClass",
                    "type": "address"
                },
                {
                    "internalType": "bytes32",
                    "name": "",
                    "type": "bytes32"
                },
                {
                    "internalType": "bytes",
                    "name": "",
                    "type": "bytes"
                },
                {
                    "internalType": "bytes",
                    "name": "",
                    "type": "bytes"
                },
                {
                    "internalType": "bytes",
                    "name": "_ctx",
                    "type": "bytes"
                }
            ],
            "name": "afterAgreementTerminated",
            "outputs": [
                {
                    "internalType": "bytes",
                    "name": "newCtx",
                    "type": "bytes"
                }
            ],
            "stateMutability": "nonpayable",
            "type": "function"
        },
        {
            "inputs": [
                {
                    "internalType": "contract ISuperToken",
                    "name": "_superToken",
                    "type": "address"
                },
                {
                    "internalType": "address",
                    "name": "_agreementClass",
                    "type": "address"
                },
                {
                    "internalType": "bytes32",
                    "name": "",
                    "type": "bytes32"
                },
                {
                    "internalType": "bytes",
                    "name": "",
                    "type": "bytes"
                },
                {
                    "internalType": "bytes",
                    "name": "",
                    "type": "bytes"
                },
                {
                    "internalType": "bytes",
                    "name": "_ctx",
                    "type": "bytes"
                }
            ],
            "name": "afterAgreementUpdated",
            "outputs": [
                {
                    "internalType": "bytes",
                    "name": "newCtx",
                    "type": "bytes"
                }
            ],
            "stateMutability": "nonpayable",
            "type": "function"
        },
        {
            "inputs": [
                {
                    "internalType": "contract ISuperToken",
                    "name": "",
                    "type": "address"
                },
                {
                    "internalType": "address",
                    "name": "",
                    "type": "address"
                },
                {
                    "internalType": "bytes32",
                    "name": "",
                    "type": "bytes32"
                },
                {
                    "internalType": "bytes",
                    "name": "",
                    "type": "bytes"
                },
                {
                    "internalType": "bytes",
                    "name": "",
                    "type": "bytes"
                }
            ],
            "name": "beforeAgreementCreated",
            "outputs": [
                {
                    "internalType": "bytes",
                    "name": "",
                    "type": "bytes"
                }
            ],
            "stateMutability": "view",
            "type": "function"
        },
        {
            "inputs": [
                {
                    "internalType": "contract ISuperToken",
                    "name": "",
                    "type": "address"
                },
                {
                    "internalType": "address",
                    "name": "",
                    "type": "address"
                },
                {
                    "internalType": "bytes32",
                    "name": "",
                    "type": "bytes32"
                },
                {
                    "internalType": "bytes",
                    "name": "",
                    "type": "bytes"
                },
                {
                    "internalType": "bytes",
                    "name": "",
                    "type": "bytes"
                }
            ],
            "name": "beforeAgreementTerminated",
            "outputs": [
                {
                    "internalType": "bytes",
                    "name": "",
                    "type": "bytes"
                }
            ],
            "stateMutability": "view",
            "type": "function"
        },
        {
            "inputs": [
                {
                    "internalType": "contract ISuperToken",
                    "name": "",
                    "type": "address"
                },
                {
                    "internalType": "address",
                    "name": "",
                    "type": "address"
                },
                {
                    "internalType": "bytes32",
                    "name": "",
                    "type": "bytes32"
                },
                {
                    "internalType": "bytes",
                    "name": "",
                    "type": "bytes"
                },
                {
                    "internalType": "bytes",
                    "name": "",
                    "type": "bytes"
                }
            ],
            "name": "beforeAgreementUpdated",
            "outputs": [
                {
                    "internalType": "bytes",
                    "name": "",
                    "type": "bytes"
                }
            ],
            "stateMutability": "view",
            "type": "function"
        },
        {
            "inputs": [
                {
                    "internalType": "address",
                    "name": "bookAddress",
                    "type": "address"
                },
                {
                    "internalType": "uint256",
                    "name": "copyUid",
                    "type": "uint256"
                },
                {
                    "internalType": "int96",
                    "name": "flowRate",
                    "type": "int96"
                }
            ],
            "name": "putOnRent",
            "outputs": [],
            "stateMutability": "nonpayable",
            "type": "function"
        },
        {
            "inputs": [
                {
                    "internalType": "address",
                    "name": "bookAddress",
                    "type": "address"
                },
                {
                    "internalType": "uint256",
                    "name": "copyUid",
                    "type": "uint256"
                }
            ],
            "name": "removeFromRent",
            "outputs": [],
            "stateMutability": "nonpayable",
            "type": "function"
        },
        {
            "inputs": [
                {
                    "internalType": "address",
                    "name": "bookAddress",
                    "type": "address"
                },
                {
                    "internalType": "uint256",
                    "name": "copyUid",
                    "type": "uint256"
                }
            ],
            "name": "returnBook",
            "outputs": [],
            "stateMutability": "nonpayable",
            "type": "function"
        },
        {
            "inputs": [
                {
                    "internalType": "address",
                    "name": "bookAddress",
                    "type": "address"
                },
                {
                    "internalType": "uint256",
                    "name": "copyUid",
                    "type": "uint256"
                }
            ],
            "name": "takeOnRent",
            "outputs": [],
            "stateMutability": "nonpayable",
            "type": "function"
        },
        {
            "inputs": [
                {
                    "internalType": "address",
                    "name": "bookAddress",
                    "type": "address"
                },
                {
                    "internalType": "uint256",
                    "name": "copyUid",
                    "type": "uint256"
                }
            ],
            "name": "uri",
            "outputs": [
                {
                    "internalType": "string",
                    "name": "",
                    "type": "string"
                }
            ],
            "stateMutability": "nonpayable",
            "type": "function"
        }
    ],
    "bytecode": "0x60806040523480156200001157600080fd5b506040516200579638038062005796833981810160405281019062000037919062000356565b6001600081905550600073ffffffffffffffffffffffffffffffffffffffff168373ffffffffffffffffffffffffffffffffffffffff161415620000b2576040517f08c379a0000000000000000000000000000000000000000000000000000000008152600401620000a990620003ea565b60405180910390fd5b600073ffffffffffffffffffffffffffffffffffffffff168273ffffffffffffffffffffffffffffffffffffffff16141562000125576040517f08c379a00000000000000000000000000000000000000000000000000000000081526004016200011c90620003ea565b60405180910390fd5b600073ffffffffffffffffffffffffffffffffffffffff168173ffffffffffffffffffffffffffffffffffffffff16141562000198576040517f08c379a00000000000000000000000000000000000000000000000000000000081526004016200018f90620003ea565b60405180910390fd5b82600460006101000a81548173ffffffffffffffffffffffffffffffffffffffff021916908373ffffffffffffffffffffffffffffffffffffffff16021790555081600560006101000a81548173ffffffffffffffffffffffffffffffffffffffff021916908373ffffffffffffffffffffffffffffffffffffffff16021790555080600660006101000a81548173ffffffffffffffffffffffffffffffffffffffff021916908373ffffffffffffffffffffffffffffffffffffffff160217905550600064100000000064040000000064010000000060011717179050600460009054906101000a900473ffffffffffffffffffffffffffffffffffffffff1673ffffffffffffffffffffffffffffffffffffffff1663ad3915c8826040518263ffffffff1660e01b8152600401620002d391906200040c565b600060405180830381600087803b158015620002ee57600080fd5b505af115801562000303573d6000803e3d6000fd5b505050505050505062000530565b6000815190506200032281620004e2565b92915050565b6000815190506200033981620004fc565b92915050565b600081519050620003508162000516565b92915050565b600080600060608486031215620003725762000371620004b4565b5b600062000382868287016200033f565b9350506020620003958682870162000311565b9250506040620003a88682870162000328565b9150509250925092565b6000620003c160188362000429565b9150620003ce82620004b9565b602082019050919050565b620003e481620004aa565b82525050565b600060208201905081810360008301526200040581620003b2565b9050919050565b6000602082019050620004236000830184620003d9565b92915050565b600082825260208201905092915050565b600062000447826200048a565b9050919050565b60006200045b826200043a565b9050919050565b60006200046f826200043a565b9050919050565b600062000483826200043a565b9050919050565b600073ffffffffffffffffffffffffffffffffffffffff82169050919050565b6000819050919050565b600080fd5b7f5a65726f2041646472657373204e6f7420416c6c6f7765640000000000000000600082015250565b620004ed816200044e565b8114620004f957600080fd5b50565b620005078162000462565b81146200051357600080fd5b50565b620005218162000476565b81146200052d57600080fd5b50565b61525680620005406000396000f3fe608060405234801561001057600080fd5b50600436106100a95760003560e01c8063596d796411610071578063596d79641461018a5780635f9e7d77146101a657806383a41e3c146101d6578063884d1f40146101f2578063d86ed3e514610222578063e1b2041614610252576100a9565b80631071ebc7146100ae578063230dbd29146100ca57806328205a93146100fa57806330d9c9151461012a57806353c11f991461015a575b600080fd5b6100c860048036038101906100c391906139e4565b61026e565b005b6100e460048036038101906100df9190613c4e565b61076e565b6040516100f1919061426f565b60405180910390f35b610114600480360381019061010f91906139e4565b610c60565b60405161012191906143fb565b60405180910390f35b610144600480360381019061013f9190613b92565b610f6c565b604051610151919061426f565b60405180910390f35b610174600480360381019061016f9190613c4e565b610fa9565b604051610181919061426f565b60405180910390f35b6101a4600480360381019061019f91906139e4565b611252565b005b6101c060048036038101906101bb9190613b92565b6115f7565b6040516101cd919061426f565b60405180910390f35b6101f060048036038101906101eb91906139e4565b611634565b005b61020c60048036038101906102079190613b92565b611d7e565b604051610219919061426f565b60405180910390f35b61023c60048036038101906102379190613c4e565b611dbb565b604051610249919061426f565b60405180910390f35b61026c60048036038101906102679190613a24565b61214c565b005b600260005414156102b4576040517f08c379a00000000000000000000000000000000000000000000000000000000081526004016102ab9061461d565b60405180910390fd5b60026000819055506102c533612596565b6000600260008473ffffffffffffffffffffffffffffffffffffffff1673ffffffffffffffffffffffffffffffffffffffff16815260200190815260200160002060008381526020019081526020016000206040518060600160405290816000820160009054906101000a900473ffffffffffffffffffffffffffffffffffffffff1673ffffffffffffffffffffffffffffffffffffffff1673ffffffffffffffffffffffffffffffffffffffff1681526020016001820160009054906101000a900473ffffffffffffffffffffffffffffffffffffffff1673ffffffffffffffffffffffffffffffffffffffff1673ffffffffffffffffffffffffffffffffffffffff1681526020016001820160149054906101000a9004600b0b600b0b600b0b815250509050600073ffffffffffffffffffffffffffffffffffffffff16816000015173ffffffffffffffffffffffffffffffffffffffff161415610461576040517f08c379a00000000000000000000000000000000000000000000000000000000081526004016104589061449d565b60405180910390fd5b600073ffffffffffffffffffffffffffffffffffffffff16816020015173ffffffffffffffffffffffffffffffffffffffff16146104d4576040517f08c379a00000000000000000000000000000000000000000000000000000000081526004016104cb906144bd565b60405180910390fd5b8060400151600b0b6104e53361262b565b600b0b1215610529576040517f08c379a00000000000000000000000000000000000000000000000000000000081526004016105209061453d565b60405180910390fd5b33600260008573ffffffffffffffffffffffffffffffffffffffff1673ffffffffffffffffffffffffffffffffffffffff168152602001908152602001600020600084815260200190815260200160002060010160006101000a81548173ffffffffffffffffffffffffffffffffffffffff021916908373ffffffffffffffffffffffffffffffffffffffff160217905550600360003373ffffffffffffffffffffffffffffffffffffffff1673ffffffffffffffffffffffffffffffffffffffff16815260200190815260200160002060405180604001604052808573ffffffffffffffffffffffffffffffffffffffff16815260200184815250908060018154018082558091505060019003906000526020600020906002020160009091909190915060008201518160000160006101000a81548173ffffffffffffffffffffffffffffffffffffffff021916908373ffffffffffffffffffffffffffffffffffffffff1602179055506020820151816001015550506106e4336106df7fffffffffffffffffffffffffffffffffffffffffffffffffffffffffffffffff8460400151600b0b61270d90919063ffffffff16565b612828565b6106f681600001518260400151612828565b3373ffffffffffffffffffffffffffffffffffffffff168373ffffffffffffffffffffffffffffffffffffffff167f6dbae8fb65925a925837607c35f374dd56ccc249966bcd59e766b63088dc15ec848460400151604051610759929190614698565b60405180910390a35060016000819055505050565b6060898961077b82612a5d565b6107ba576040517f08c379a00000000000000000000000000000000000000000000000000000000081526004016107b1906145dd565b60405180910390fd5b6107c381612ab7565b610802576040517f08c379a00000000000000000000000000000000000000000000000000000000081526004016107f99061465d565b60405180910390fd5b600460009054906101000a900473ffffffffffffffffffffffffffffffffffffffff1673ffffffffffffffffffffffffffffffffffffffff163373ffffffffffffffffffffffffffffffffffffffff1614610892576040517f08c379a00000000000000000000000000000000000000000000000000000000081526004016108899061445d565b60405180910390fd5b6000600460009054906101000a900473ffffffffffffffffffffffffffffffffffffffff1673ffffffffffffffffffffffffffffffffffffffff16633f6c923a87876040518363ffffffff1660e01b81526004016108f192919061424b565b60006040518083038186803b15801561090957600080fd5b505afa15801561091d573d6000803e3d6000fd5b505050506040513d6000823e3d601f19601f820116820180604052508101906109469190613d86565b90506000600560009054906101000a900473ffffffffffffffffffffffffffffffffffffffff1673ffffffffffffffffffffffffffffffffffffffff1663e6a1e888600660009054906101000a900473ffffffffffffffffffffffffffffffffffffffff168460600151306040518463ffffffff1660e01b81526004016109cf9392919061432c565b60806040518083038186803b1580156109e757600080fd5b505afa1580156109fb573d6000803e3d6000fd5b505050506040513d601f19601f82011682018060405250810190610a1f9190613dcf565b50509150506000610a33836060015161262b565b9050610a9b8160016000866060015173ffffffffffffffffffffffffffffffffffffffff1673ffffffffffffffffffffffffffffffffffffffff16815260200190815260200160002060009054906101000a9004600b0b600b0b612b6090919063ffffffff16565b600b0b82600b0b12610b6657610b5f8360600151610b1560016000876060015173ffffffffffffffffffffffffffffffffffffffff1673ffffffffffffffffffffffffffffffffffffffff16815260200190815260200160002060009054906101000a9004600b0b85600b0b612b6090919063ffffffff16565b8a8a8080601f016020809104026020016040519081016040528093929190818152602001838380828437600081840152601f19601f82011690508083019250505050505050612bf3565b9550610bd9565b610bb8836060015189898080601f016020809104026020016040519081016040528093929190818152602001838380828437600081840152601f19601f82011690508083019250505050505050612e33565b9550610bc78360600151613002565b610bd683606001518388613393565b95505b8160016000856060015173ffffffffffffffffffffffffffffffffffffffff1673ffffffffffffffffffffffffffffffffffffffff16815260200190815260200160002060006101000a8154816bffffffffffffffffffffffff0219169083600b0b6bffffffffffffffffffffffff16021790555050505050509998505050505050505050565b606060026000541415610ca8576040517f08c379a0000000000000000000000000000000000000000000000000000000008152600401610c9f9061461d565b60405180910390fd5b6002600081905550610cb933612596565b6000600260008573ffffffffffffffffffffffffffffffffffffffff1673ffffffffffffffffffffffffffffffffffffffff16815260200190815260200160002060008481526020019081526020016000206040518060600160405290816000820160009054906101000a900473ffffffffffffffffffffffffffffffffffffffff1673ffffffffffffffffffffffffffffffffffffffff1673ffffffffffffffffffffffffffffffffffffffff1681526020016001820160009054906101000a900473ffffffffffffffffffffffffffffffffffffffff1673ffffffffffffffffffffffffffffffffffffffff1673ffffffffffffffffffffffffffffffffffffffff1681526020016001820160149054906101000a9004600b0b600b0b600b0b815250509050600073ffffffffffffffffffffffffffffffffffffffff16816000015173ffffffffffffffffffffffffffffffffffffffff161415610e55576040517f08c379a0000000000000000000000000000000000000000000000000000000008152600401610e4c9061449d565b60405180910390fd5b3373ffffffffffffffffffffffffffffffffffffffff16816020015173ffffffffffffffffffffffffffffffffffffffff1614610ec7576040517f08c379a0000000000000000000000000000000000000000000000000000000008152600401610ebe906145fd565b60405180910390fd5b60008490508073ffffffffffffffffffffffffffffffffffffffff16630e89341c856040518263ffffffff1660e01b8152600401610f05919061467d565b60006040518083038186803b158015610f1d57600080fd5b505afa158015610f31573d6000803e3d6000fd5b505050506040513d6000823e3d601f19601f82011682018060405250810190610f5a9190613d3d565b92505050600160008190555092915050565b60606040517f08c379a0000000000000000000000000000000000000000000000000000000008152600401610fa09061459d565b60405180910390fd5b60608989610fb682612a5d565b610ff5576040517f08c379a0000000000000000000000000000000000000000000000000000000008152600401610fec906145dd565b60405180910390fd5b610ffe81612ab7565b61103d576040517f08c379a00000000000000000000000000000000000000000000000000000000081526004016110349061465d565b60405180910390fd5b600460009054906101000a900473ffffffffffffffffffffffffffffffffffffffff1673ffffffffffffffffffffffffffffffffffffffff163373ffffffffffffffffffffffffffffffffffffffff16146110cd576040517f08c379a00000000000000000000000000000000000000000000000000000000081526004016110c49061445d565b60405180910390fd5b6000600460009054906101000a900473ffffffffffffffffffffffffffffffffffffffff1673ffffffffffffffffffffffffffffffffffffffff16633f6c923a87876040518363ffffffff1660e01b815260040161112c92919061424b565b60006040518083038186803b15801561114457600080fd5b505afa158015611158573d6000803e3d6000fd5b505050506040513d6000823e3d601f19601f820116820180604052508101906111819190613d86565b90506111d5816060015187878080601f016020809104026020016040519081016040528093929190818152602001838380828437600081840152601f19601f82011690508083019250505050505050612e33565b93506111e48160600151613002565b60016000826060015173ffffffffffffffffffffffffffffffffffffffff1673ffffffffffffffffffffffffffffffffffffffff16815260200190815260200160002060006101000a8154906bffffffffffffffffffffffff02191690555050509998505050505050505050565b60026000541415611298576040517f08c379a000000000000000000000000000000000000000000000000000000000815260040161128f9061461d565b60405180910390fd5b60026000819055506112a933612596565b3373ffffffffffffffffffffffffffffffffffffffff16600260008473ffffffffffffffffffffffffffffffffffffffff1673ffffffffffffffffffffffffffffffffffffffff168152602001908152602001600020600083815260200190815260200160002060000160009054906101000a900473ffffffffffffffffffffffffffffffffffffffff1673ffffffffffffffffffffffffffffffffffffffff161461138a576040517f08c379a0000000000000000000000000000000000000000000000000000000008152600401611381906145fd565b60405180910390fd5b600073ffffffffffffffffffffffffffffffffffffffff16600260008473ffffffffffffffffffffffffffffffffffffffff1673ffffffffffffffffffffffffffffffffffffffff168152602001908152602001600020600083815260200190815260200160002060010160009054906101000a900473ffffffffffffffffffffffffffffffffffffffff1673ffffffffffffffffffffffffffffffffffffffff161461146c576040517f08c379a0000000000000000000000000000000000000000000000000000000008152600401611463906144fd565b60405180910390fd5b600260008373ffffffffffffffffffffffffffffffffffffffff1673ffffffffffffffffffffffffffffffffffffffff1681526020019081526020016000206000828152602001908152602001600020600080820160006101000a81549073ffffffffffffffffffffffffffffffffffffffff02191690556001820160006101000a81549073ffffffffffffffffffffffffffffffffffffffff02191690556001820160146101000a8154906bffffffffffffffffffffffff0219169055505060008290508073ffffffffffffffffffffffffffffffffffffffff16636198e339836040518263ffffffff1660e01b815260040161156a919061467d565b600060405180830381600087803b15801561158457600080fd5b505af1158015611598573d6000803e3d6000fd5b505050508273ffffffffffffffffffffffffffffffffffffffff167f0fe624bdb1c444156271e1d47d195d7bd35a3338eabea1cbc3393d40cee4c84c836040516115e2919061467d565b60405180910390a25060016000819055505050565b60606040517f08c379a000000000000000000000000000000000000000000000000000000000815260040161162b9061441d565b60405180910390fd5b6002600054141561167a576040517f08c379a00000000000000000000000000000000000000000000000000000000081526004016116719061461d565b60405180910390fd5b600260008190555061168b33612596565b6000600260008473ffffffffffffffffffffffffffffffffffffffff1673ffffffffffffffffffffffffffffffffffffffff16815260200190815260200160002060008381526020019081526020016000206040518060600160405290816000820160009054906101000a900473ffffffffffffffffffffffffffffffffffffffff1673ffffffffffffffffffffffffffffffffffffffff1673ffffffffffffffffffffffffffffffffffffffff1681526020016001820160009054906101000a900473ffffffffffffffffffffffffffffffffffffffff1673ffffffffffffffffffffffffffffffffffffffff1673ffffffffffffffffffffffffffffffffffffffff1681526020016001820160149054906101000a9004600b0b600b0b600b0b8152505090503373ffffffffffffffffffffffffffffffffffffffff16816020015173ffffffffffffffffffffffffffffffffffffffff1614611825576040517f08c379a000000000000000000000000000000000000000000000000000000000815260040161181c906145fd565b60405180910390fd5b61186c81600001516118677fffffffffffffffffffffffffffffffffffffffffffffffffffffffffffffffff8460400151600b0b61270d90919063ffffffff16565b612828565b6000600260008573ffffffffffffffffffffffffffffffffffffffff1673ffffffffffffffffffffffffffffffffffffffff168152602001908152602001600020600084815260200190815260200160002060010160006101000a81548173ffffffffffffffffffffffffffffffffffffffff021916908373ffffffffffffffffffffffffffffffffffffffff16021790555060005b600360003373ffffffffffffffffffffffffffffffffffffffff1673ffffffffffffffffffffffffffffffffffffffff16815260200190815260200160002080549050811015611d14578373ffffffffffffffffffffffffffffffffffffffff16600360003373ffffffffffffffffffffffffffffffffffffffff1673ffffffffffffffffffffffffffffffffffffffff16815260200190815260200160002082815481106119b4576119b3614c8b565b5b906000526020600020906002020160000160009054906101000a900473ffffffffffffffffffffffffffffffffffffffff1673ffffffffffffffffffffffffffffffffffffffff16148015611a6a575082600360003373ffffffffffffffffffffffffffffffffffffffff1673ffffffffffffffffffffffffffffffffffffffff1681526020019081526020016000208281548110611a5657611a55614c8b565b5b906000526020600020906002020160010154145b15611d015760008190505b6001600360003373ffffffffffffffffffffffffffffffffffffffff1673ffffffffffffffffffffffffffffffffffffffff16815260200190815260200160002080549050611ac49190614a2f565b811015611c1c57600360003373ffffffffffffffffffffffffffffffffffffffff1673ffffffffffffffffffffffffffffffffffffffff168152602001908152602001600020600182611b179190614800565b81548110611b2857611b27614c8b565b5b9060005260206000209060020201600360003373ffffffffffffffffffffffffffffffffffffffff1673ffffffffffffffffffffffffffffffffffffffff1681526020019081526020016000208281548110611b8757611b86614c8b565b5b90600052602060002090600202016000820160009054906101000a900473ffffffffffffffffffffffffffffffffffffffff168160000160006101000a81548173ffffffffffffffffffffffffffffffffffffffff021916908373ffffffffffffffffffffffffffffffffffffffff160217905550600182015481600101559050508080611c1490614be4565b915050611a75565b50600360003373ffffffffffffffffffffffffffffffffffffffff1673ffffffffffffffffffffffffffffffffffffffff1681526020019081526020016000206001600360003373ffffffffffffffffffffffffffffffffffffffff1673ffffffffffffffffffffffffffffffffffffffff16815260200190815260200160002080549050611cab9190614a2f565b81548110611cbc57611cbb614c8b565b5b9060005260206000209060020201600080820160006101000a81549073ffffffffffffffffffffffffffffffffffffffff021916905560018201600090555050611d14565b8080611d0c90614be4565b915050611902565b50611d23338260400151612828565b8273ffffffffffffffffffffffffffffffffffffffff167f095bd1d20746d0513acf2a85fa1f8ed7de89ff83285974a106ca40499e16c9c883604051611d69919061467d565b60405180910390a25060016000819055505050565b60606040517f08c379a0000000000000000000000000000000000000000000000000000000008152600401611db29061457d565b60405180910390fd5b60608989611dc882612a5d565b611e07576040517f08c379a0000000000000000000000000000000000000000000000000000000008152600401611dfe906145dd565b60405180910390fd5b611e1081612ab7565b611e4f576040517f08c379a0000000000000000000000000000000000000000000000000000000008152600401611e469061465d565b60405180910390fd5b600460009054906101000a900473ffffffffffffffffffffffffffffffffffffffff1673ffffffffffffffffffffffffffffffffffffffff163373ffffffffffffffffffffffffffffffffffffffff1614611edf576040517f08c379a0000000000000000000000000000000000000000000000000000000008152600401611ed69061445d565b60405180910390fd5b6000600460009054906101000a900473ffffffffffffffffffffffffffffffffffffffff1673ffffffffffffffffffffffffffffffffffffffff16633f6c923a87876040518363ffffffff1660e01b8152600401611f3e92919061424b565b60006040518083038186803b158015611f5657600080fd5b505afa158015611f6a573d6000803e3d6000fd5b505050506040513d6000823e3d601f19601f82011682018060405250810190611f939190613d86565b90506000600560009054906101000a900473ffffffffffffffffffffffffffffffffffffffff1673ffffffffffffffffffffffffffffffffffffffff1663e6a1e888600660009054906101000a900473ffffffffffffffffffffffffffffffffffffffff168460600151306040518463ffffffff1660e01b815260040161201c9392919061432c565b60806040518083038186803b15801561203457600080fd5b505afa158015612048573d6000803e3d6000fd5b505050506040513d601f19601f8201168201806040525081019061206c9190613dcf565b50509150508060016000846060015173ffffffffffffffffffffffffffffffffffffffff1673ffffffffffffffffffffffffffffffffffffffff16815260200190815260200160002060006101000a8154816bffffffffffffffffffffffff0219169083600b0b6bffffffffffffffffffffffff16021790555061213982606001518289898080601f016020809104026020016040519081016040528093929190818152602001838380828437600081840152601f19601f82011690508083019250505050505050613393565b9450505050509998505050505050505050565b60026000541415612192576040517f08c379a00000000000000000000000000000000000000000000000000000000081526004016121899061461d565b60405180910390fd5b60026000819055506121a333612596565b60008390508073ffffffffffffffffffffffffffffffffffffffff1663f8fbea34338560006040518463ffffffff1660e01b81526004016121e693929190614214565b60206040518083038186803b1580156121fe57600080fd5b505afa158015612212573d6000803e3d6000fd5b505050506040513d601f19601f820116820180604052508101906122369190613a77565b612275576040517f08c379a000000000000000000000000000000000000000000000000000000000815260040161226c906145fd565b60405180910390fd5b8073ffffffffffffffffffffffffffffffffffffffff1663fa12317230856040518363ffffffff1660e01b81526004016122b09291906141eb565b60206040518083038186803b1580156122c857600080fd5b505afa1580156122dc573d6000803e3d6000fd5b505050506040513d601f19601f820116820180604052508101906123009190613a77565b61233f576040517f08c379a00000000000000000000000000000000000000000000000000000000081526004016123369061451d565b60405180910390fd5b600073ffffffffffffffffffffffffffffffffffffffff16600260008673ffffffffffffffffffffffffffffffffffffffff1673ffffffffffffffffffffffffffffffffffffffff168152602001908152602001600020600085815260200190815260200160002060000160009054906101000a900473ffffffffffffffffffffffffffffffffffffffff1673ffffffffffffffffffffffffffffffffffffffff1614612421576040517f08c379a00000000000000000000000000000000000000000000000000000000081526004016124189061447d565b60405180910390fd5b33600260008673ffffffffffffffffffffffffffffffffffffffff1673ffffffffffffffffffffffffffffffffffffffff168152602001908152602001600020600085815260200190815260200160002060000160006101000a81548173ffffffffffffffffffffffffffffffffffffffff021916908373ffffffffffffffffffffffffffffffffffffffff16021790555081600260008673ffffffffffffffffffffffffffffffffffffffff1673ffffffffffffffffffffffffffffffffffffffff168152602001908152602001600020600085815260200190815260200160002060010160146101000a8154816bffffffffffffffffffffffff0219169083600b0b6bffffffffffffffffffffffff1602179055508373ffffffffffffffffffffffffffffffffffffffff167f8126ca6c2dab910210aeba64d5f5da4194e9aa907729cfa157503188651ccc9a8484604051612580929190614698565b60405180910390a2506001600081905550505050565b6000600160008373ffffffffffffffffffffffffffffffffffffffff1673ffffffffffffffffffffffffffffffffffffffff16815260200190815260200160002060009054906101000a9004600b0b600b0b13612628576040517f08c379a000000000000000000000000000000000000000000000000000000000815260040161261f9061463d565b60405180910390fd5b50565b600080600560009054906101000a900473ffffffffffffffffffffffffffffffffffffffff1673ffffffffffffffffffffffffffffffffffffffff1663e6a1e888600660009054906101000a900473ffffffffffffffffffffffffffffffffffffffff1630866040518463ffffffff1660e01b81526004016126af9392919061432c565b60806040518083038186803b1580156126c757600080fd5b505afa1580156126db573d6000803e3d6000fd5b505050506040513d601f19601f820116820180604052508101906126ff9190613dcf565b505091505080915050919050565b60008083600b0b14156127235760009050612822565b7fffffffffffffffffffffffffffffffffffffffffffffffffffffffffffffffff83600b0b14801561277a57507fffffffffffffffffffffffffffffffffffffffff800000000000000000000000600b0b82600b0b145b156127ba576040517f08c379a00000000000000000000000000000000000000000000000000000000081526004016127b19061455d565b60405180910390fd5b600082846127c891906148c0565b905082600b0b84826127da9190614856565b600b0b1461281d576040517f08c379a00000000000000000000000000000000000000000000000000000000081526004016128149061455d565b60405180910390fd5b809150505b92915050565b60006128338361262b565b9050600061284d8383600b0b61356390919063ffffffff16565b9050600081600b0b1215612896576040517f08c379a000000000000000000000000000000000000000000000000000000000815260040161288d906144dd565b60405180910390fd5b600460009054906101000a900473ffffffffffffffffffffffffffffffffffffffff1673ffffffffffffffffffffffffffffffffffffffff166339255d5b600560009054906101000a900473ffffffffffffffffffffffffffffffffffffffff166350209a6260e01b600660009054906101000a900473ffffffffffffffffffffffffffffffffffffffff168886600067ffffffffffffffff81111561293f5761293e614cba565b5b6040519080825280601f01601f1916602001820160405280156129715781602001600182028036833780820191505090505b5060405160240161298594939291906143af565b604051602081830303815290604052907bffffffffffffffffffffffffffffffffffffffffffffffffffffffff19166020820180517bffffffffffffffffffffffffffffffffffffffffffffffffffffffff83818316178352505050506040518363ffffffff1660e01b81526004016129ff929190614291565b600060405180830381600087803b158015612a1957600080fd5b505af1158015612a2d573d6000803e3d6000fd5b505050506040513d6000823e3d601f19601f82011682018060405250810190612a569190613ad1565b5050505050565b6000600660009054906101000a900473ffffffffffffffffffffffffffffffffffffffff1673ffffffffffffffffffffffffffffffffffffffff168273ffffffffffffffffffffffffffffffffffffffff16149050919050565b60007fa9214cc96615e0085d3bb077758db69497dc2dce3b2b1e97bc93c3d18d83efd38273ffffffffffffffffffffffffffffffffffffffff16637730599e6040518163ffffffff1660e01b815260040160206040518083038186803b158015612b2057600080fd5b505afa158015612b34573d6000803e3d6000fd5b505050506040513d601f19601f82011682018060405250810190612b589190613aa4565b149050919050565b6000808284612b6f91906149af565b9050600083600b0b12158015612b8b575083600b0b81600b0b13155b80612baa5750600083600b0b128015612ba9575083600b0b81600b0b135b5b612be9576040517f08c379a0000000000000000000000000000000000000000000000000000000008152600401612be0906145bd565b60405180910390fd5b8091505092915050565b60606000612c008561262b565b90506000612c1a8583600b0b61356390919063ffffffff16565b9050600081600b0b1215612c63576040517f08c379a0000000000000000000000000000000000000000000000000000000008152600401612c5a906144dd565b60405180910390fd5b600460009054906101000a900473ffffffffffffffffffffffffffffffffffffffff1673ffffffffffffffffffffffffffffffffffffffff16634329d293600560009054906101000a900473ffffffffffffffffffffffffffffffffffffffff166350209a6260e01b600660009054906101000a900473ffffffffffffffffffffffffffffffffffffffff168a86600067ffffffffffffffff811115612d0c57612d0b614cba565b5b6040519080825280601f01601f191660200182016040528015612d3e5781602001600182028036833780820191505090505b50604051602401612d5294939291906143af565b604051602081830303815290604052907bffffffffffffffffffffffffffffffffffffffffffffffffffffffff19166020820180517bffffffffffffffffffffffffffffffffffffffffffffffffffffffff8381831617835250505050876040518463ffffffff1660e01b8152600401612dce939291906142d4565b600060405180830381600087803b158015612de857600080fd5b505af1158015612dfc573d6000803e3d6000fd5b505050506040513d6000823e3d601f19601f82011682018060405250810190612e259190613b1a565b508093505050509392505050565b6060600460009054906101000a900473ffffffffffffffffffffffffffffffffffffffff1673ffffffffffffffffffffffffffffffffffffffff16634329d293600560009054906101000a900473ffffffffffffffffffffffffffffffffffffffff1663b4b333c660e01b600660009054906101000a900473ffffffffffffffffffffffffffffffffffffffff163088600067ffffffffffffffff811115612ede57612edd614cba565b5b6040519080825280601f01601f191660200182016040528015612f105781602001600182028036833780820191505090505b50604051602401612f249493929190614363565b604051602081830303815290604052907bffffffffffffffffffffffffffffffffffffffffffffffffffffffff19166020820180517bffffffffffffffffffffffffffffffffffffffffffffffffffffffff8381831617835250505050856040518463ffffffff1660e01b8152600401612fa0939291906142d4565b600060405180830381600087803b158015612fba57600080fd5b505af1158015612fce573d6000803e3d6000fd5b505050506040513d6000823e3d601f19601f82011682018060405250810190612ff79190613b1a565b508091505092915050565b60005b600360008373ffffffffffffffffffffffffffffffffffffffff1673ffffffffffffffffffffffffffffffffffffffff16815260200190815260200160002080549050811015613344576000600360008473ffffffffffffffffffffffffffffffffffffffff1673ffffffffffffffffffffffffffffffffffffffff16815260200190815260200160002082815481106130a2576130a1614c8b565b5b90600052602060002090600202016040518060400160405290816000820160009054906101000a900473ffffffffffffffffffffffffffffffffffffffff1673ffffffffffffffffffffffffffffffffffffffff1673ffffffffffffffffffffffffffffffffffffffff168152602001600182015481525050905061323f60026000836000015173ffffffffffffffffffffffffffffffffffffffff1673ffffffffffffffffffffffffffffffffffffffff16815260200190815260200160002060008360200151815260200190815260200160002060000160009054906101000a900473ffffffffffffffffffffffffffffffffffffffff1661323a7fffffffffffffffffffffffffffffffffffffffffffffffffffffffffffffffff60026000866000015173ffffffffffffffffffffffffffffffffffffffff1673ffffffffffffffffffffffffffffffffffffffff16815260200190815260200160002060008660200151815260200190815260200160002060010160149054906101000a9004600b0b600b0b61270d90919063ffffffff16565b612828565b600060026000836000015173ffffffffffffffffffffffffffffffffffffffff1673ffffffffffffffffffffffffffffffffffffffff16815260200190815260200160002060008360200151815260200190815260200160002060010160006101000a81548173ffffffffffffffffffffffffffffffffffffffff021916908373ffffffffffffffffffffffffffffffffffffffff160217905550806000015173ffffffffffffffffffffffffffffffffffffffff167f095bd1d20746d0513acf2a85fa1f8ed7de89ff83285974a106ca40499e16c9c88260200151604051613328919061467d565b60405180910390a250808061333c90614be4565b915050613005565b50600360008273ffffffffffffffffffffffffffffffffffffffff1673ffffffffffffffffffffffffffffffffffffffff168152602001908152602001600020600061339091906135f6565b50565b6060600460009054906101000a900473ffffffffffffffffffffffffffffffffffffffff1673ffffffffffffffffffffffffffffffffffffffff16634329d293600560009054906101000a900473ffffffffffffffffffffffffffffffffffffffff166362fc305e60e01b600660009054906101000a900473ffffffffffffffffffffffffffffffffffffffff168888600067ffffffffffffffff81111561343e5761343d614cba565b5b6040519080825280601f01601f1916602001820160405280156134705781602001600182028036833780820191505090505b5060405160240161348494939291906143af565b604051602081830303815290604052907bffffffffffffffffffffffffffffffffffffffffffffffffffffffff19166020820180517bffffffffffffffffffffffffffffffffffffffffffffffffffffffff8381831617835250505050856040518463ffffffff1660e01b8152600401613500939291906142d4565b600060405180830381600087803b15801561351a57600080fd5b505af115801561352e573d6000803e3d6000fd5b505050506040513d6000823e3d601f19601f820116820180604052508101906135579190613b1a565b50809150509392505050565b60008082846135729190614780565b9050600083600b0b1215801561358e575083600b0b81600b0b12155b806135ad5750600083600b0b1280156135ac575083600b0b81600b0b125b5b6135ec576040517f08c379a00000000000000000000000000000000000000000000000000000000081526004016135e39061443d565b60405180910390fd5b8091505092915050565b5080546000825560020290600052602060002090810190613617919061361a565b50565b5b8082111561365c57600080820160006101000a81549073ffffffffffffffffffffffffffffffffffffffff021916905560018201600090555060020161361b565b5090565b600061367361366e846146e6565b6146c1565b90508281526020810184848401111561368f5761368e614d02565b5b61369a848285614b80565b509392505050565b60006136b56136b084614717565b6146c1565b9050828152602081018484840111156136d1576136d0614d02565b5b6136dc848285614b80565b509392505050565b6000813590506136f38161513a565b92915050565b6000815190506137088161513a565b92915050565b60008151905061371d81615151565b92915050565b60008135905061373281615168565b92915050565b60008151905061374781615168565b92915050565b60008151905061375c8161517f565b92915050565b60008083601f84011261377857613777614cee565b5b8235905067ffffffffffffffff81111561379557613794614ce9565b5b6020830191508360018202830111156137b1576137b0614cfd565b5b9250929050565b600082601f8301126137cd576137cc614cee565b5b81516137dd848260208601613660565b91505092915050565b6000813590506137f581615196565b92915050565b60008151905061380a816151ad565b92915050565b60008151905061381f816151c4565b92915050565b600081359050613834816151db565b92915050565b600081519050613849816151db565b92915050565b600082601f83011261386457613863614cee565b5b81516138748482602086016136a2565b91505092915050565b6000610160828403121561389457613893614cf3565b5b61389f6101606146c1565b905060006138af848285016139cf565b60008301525060206138c3848285016139cf565b60208301525060406138d7848285016139ba565b60408301525060606138eb848285016136f9565b60608301525060806138ff8482850161374d565b60808301525060a082015167ffffffffffffffff81111561392357613922614cf8565b5b61392f848285016137b8565b60a08301525060c0613943848285016139ba565b60c08301525060e0613957848285016139ba565b60e08301525061010061396c84828501613810565b61010083015250610120613982848285016136f9565b61012083015250610140613998848285016137fb565b6101408301525092915050565b6000813590506139b4816151f2565b92915050565b6000815190506139c9816151f2565b92915050565b6000815190506139de81615209565b92915050565b600080604083850312156139fb576139fa614d0c565b5b6000613a09858286016136e4565b9250506020613a1a858286016139a5565b9150509250929050565b600080600060608486031215613a3d57613a3c614d0c565b5b6000613a4b868287016136e4565b9350506020613a5c868287016139a5565b9250506040613a6d86828701613825565b9150509250925092565b600060208284031215613a8d57613a8c614d0c565b5b6000613a9b8482850161370e565b91505092915050565b600060208284031215613aba57613ab9614d0c565b5b6000613ac884828501613738565b91505092915050565b600060208284031215613ae757613ae6614d0c565b5b600082015167ffffffffffffffff811115613b0557613b04614d07565b5b613b11848285016137b8565b91505092915050565b60008060408385031215613b3157613b30614d0c565b5b600083015167ffffffffffffffff811115613b4f57613b4e614d07565b5b613b5b858286016137b8565b925050602083015167ffffffffffffffff811115613b7c57613b7b614d07565b5b613b88858286016137b8565b9150509250929050565b600080600080600080600060a0888a031215613bb157613bb0614d0c565b5b6000613bbf8a828b016137e6565b9750506020613bd08a828b016136e4565b9650506040613be18a828b01613723565b955050606088013567ffffffffffffffff811115613c0257613c01614d07565b5b613c0e8a828b01613762565b9450945050608088013567ffffffffffffffff811115613c3157613c30614d07565b5b613c3d8a828b01613762565b925092505092959891949750929550565b600080600080600080600080600060c08a8c031215613c7057613c6f614d0c565b5b6000613c7e8c828d016137e6565b9950506020613c8f8c828d016136e4565b9850506040613ca08c828d01613723565b97505060608a013567ffffffffffffffff811115613cc157613cc0614d07565b5b613ccd8c828d01613762565b965096505060808a013567ffffffffffffffff811115613cf057613cef614d07565b5b613cfc8c828d01613762565b945094505060a08a013567ffffffffffffffff811115613d1f57613d1e614d07565b5b613d2b8c828d01613762565b92509250509295985092959850929598565b600060208284031215613d5357613d52614d0c565b5b600082015167ffffffffffffffff811115613d7157613d70614d07565b5b613d7d8482850161384f565b91505092915050565b600060208284031215613d9c57613d9b614d0c565b5b600082015167ffffffffffffffff811115613dba57613db9614d07565b5b613dc68482850161387d565b91505092915050565b60008060008060808587031215613de957613de8614d0c565b5b6000613df7878288016139ba565b9450506020613e088782880161383a565b9350506040613e19878288016139ba565b9250506060613e2a878288016139ba565b91505092959194509250565b613e3f81614a63565b82525050565b613e4e81614a75565b82525050565b6000613e60838561475e565b9350613e6d838584614b71565b613e7683614d11565b840190509392505050565b6000613e8c82614748565b613e96818561475e565b9350613ea6818560208601614b80565b613eaf81614d11565b840191505092915050565b613ec381614b29565b82525050565b613ed281614b3b565b82525050565b613ee181614ae5565b82525050565b6000613ef282614753565b613efc818561476f565b9350613f0c818560208601614b80565b613f1581614d11565b840191505092915050565b6000613f2d60338361476f565b9150613f3882614d22565b604082019050919050565b6000613f5060028361475e565b9150613f5b82614d71565b602082019050919050565b6000613f7360218361476f565b9150613f7e82614d9a565b604082019050919050565b6000613f9660158361476f565b9150613fa182614de9565b602082019050919050565b6000613fb9600f8361476f565b9150613fc482614e12565b602082019050919050565b6000613fdc60168361476f565b9150613fe782614e3b565b602082019050919050565b6000613fff600e8361476f565b915061400a82614e64565b602082019050919050565b600061402260188361476f565b915061402d82614e8d565b602082019050919050565b600061404560118361476f565b915061405082614eb6565b602082019050919050565b6000614068600f8361476f565b915061407382614edf565b602082019050919050565b600061408b60198361476f565b915061409682614f08565b602082019050919050565b60006140ae60278361476f565b91506140b982614f31565b604082019050919050565b60006140d1602f8361476f565b91506140dc82614f80565b604082019050919050565b60006140f4602f8361476f565b91506140ff82614fcf565b604082019050919050565b600061411760248361476f565b91506141228261501e565b604082019050919050565b600061413a60128361476f565b91506141458261506d565b602082019050919050565b600061415d60158361476f565b915061416882615096565b602082019050919050565b6000614180601f8361476f565b915061418b826150bf565b602082019050919050565b60006141a360148361476f565b91506141ae826150e8565b602082019050919050565b60006141c660148361476f565b91506141d182615111565b602082019050919050565b6141e581614b12565b82525050565b60006040820190506142006000830185613e36565b61420d60208301846141dc565b9392505050565b60006060820190506142296000830186613e36565b61423660208301856141dc565b6142436040830184613e45565b949350505050565b60006020820190508181036000830152614266818486613e54565b90509392505050565b600060208201905081810360008301526142898184613e81565b905092915050565b60006060820190506142a66000830185613eba565b81810360208301526142b88184613e81565b905081810360408301526142cb81613f43565b90509392505050565b60006080820190506142e96000830186613eba565b81810360208301526142fb8185613e81565b9050818103604083015261430e81613f43565b905081810360608301526143228184613e81565b9050949350505050565b60006060820190506143416000830186613ec9565b61434e6020830185613e36565b61435b6040830184613e36565b949350505050565b60006080820190506143786000830187613ec9565b6143856020830186613e36565b6143926040830185613e36565b81810360608301526143a48184613e81565b905095945050505050565b60006080820190506143c46000830187613ec9565b6143d16020830186613e36565b6143de6040830185613ed8565b81810360608301526143f08184613e81565b905095945050505050565b600060208201905081810360008301526144158184613ee7565b905092915050565b6000602082019050818103600083015261443681613f20565b9050919050565b6000602082019050818103600083015261445681613f66565b9050919050565b6000602082019050818103600083015261447681613f89565b9050919050565b6000602082019050818103600083015261449681613fac565b9050919050565b600060208201905081810360008301526144b681613fcf565b9050919050565b600060208201905081810360008301526144d681613ff2565b9050919050565b600060208201905081810360008301526144f681614015565b9050919050565b6000602082019050818103600083015261451681614038565b9050919050565b600060208201905081810360008301526145368161405b565b9050919050565b600060208201905081810360008301526145568161407e565b9050919050565b60006020820190508181036000830152614576816140a1565b9050919050565b60006020820190508181036000830152614596816140c4565b9050919050565b600060208201905081810360008301526145b6816140e7565b9050919050565b600060208201905081810360008301526145d68161410a565b9050919050565b600060208201905081810360008301526145f68161412d565b9050919050565b6000602082019050818103600083015261461681614150565b9050919050565b6000602082019050818103600083015261463681614173565b9050919050565b6000602082019050818103600083015261465681614196565b9050919050565b60006020820190508181036000830152614676816141b9565b9050919050565b600060208201905061469260008301846141dc565b92915050565b60006040820190506146ad60008301856141dc565b6146ba6020830184613ed8565b9392505050565b60006146cb6146dc565b90506146d78282614bb3565b919050565b6000604051905090565b600067ffffffffffffffff82111561470157614700614cba565b5b61470a82614d11565b9050602081019050919050565b600067ffffffffffffffff82111561473257614731614cba565b5b61473b82614d11565b9050602081019050919050565b600081519050919050565b600081519050919050565b600082825260208201905092915050565b600082825260208201905092915050565b600061478b82614ae5565b915061479683614ae5565b9250816b7fffffffffffffffffffffff038313600083121516156147bd576147bc614c2d565b5b817fffffffffffffffffffffffffffffffffffffffff8000000000000000000000000383126000831216156147f5576147f4614c2d565b5b828201905092915050565b600061480b82614b12565b915061481683614b12565b9250827fffffffffffffffffffffffffffffffffffffffffffffffffffffffffffffffff0382111561484b5761484a614c2d565b5b828201905092915050565b600061486182614ae5565b915061486c83614ae5565b92508261487c5761487b614c5c565b5b600160000383147fffffffffffffffffffffffffffffffffffffffff800000000000000000000000831416156148b5576148b4614c2d565b5b828205905092915050565b60006148cb82614ae5565b91506148d683614ae5565b9250826b7fffffffffffffffffffffff048211600084136000841316161561490157614900614c2d565b5b817fffffffffffffffffffffffffffffffffffffffff800000000000000000000000058312600084126000841316161561493e5761493d614c2d565b5b827fffffffffffffffffffffffffffffffffffffffff800000000000000000000000058212600084136000841216161561497b5761497a614c2d565b5b826b7fffffffffffffffffffffff05821260008412600084121616156149a4576149a3614c2d565b5b828202905092915050565b60006149ba82614ae5565b91506149c583614ae5565b9250827fffffffffffffffffffffffffffffffffffffffff80000000000000000000000001821260008412151615614a00576149ff614c2d565b5b826b7fffffffffffffffffffffff018213600084121615614a2457614a23614c2d565b5b828203905092915050565b6000614a3a82614b12565b9150614a4583614b12565b925082821015614a5857614a57614c2d565b5b828203905092915050565b6000614a6e82614af2565b9050919050565b60008115159050919050565b6000819050919050565b60007fffffffff0000000000000000000000000000000000000000000000000000000082169050919050565b6000614ac282614a63565b9050919050565b6000614ad482614a63565b9050919050565b6000819050919050565b600081600b0b9050919050565b600073ffffffffffffffffffffffffffffffffffffffff82169050919050565b6000819050919050565b600060ff82169050919050565b6000614b3482614b4d565b9050919050565b6000614b4682614b4d565b9050919050565b6000614b5882614b5f565b9050919050565b6000614b6a82614af2565b9050919050565b82818337600083830152505050565b60005b83811015614b9e578082015181840152602081019050614b83565b83811115614bad576000848401525b50505050565b614bbc82614d11565b810181811067ffffffffffffffff82111715614bdb57614bda614cba565b5b80604052505050565b6000614bef82614b12565b91507fffffffffffffffffffffffffffffffffffffffffffffffffffffffffffffffff821415614c2257614c21614c2d565b5b600182019050919050565b7f4e487b7100000000000000000000000000000000000000000000000000000000600052601160045260246000fd5b7f4e487b7100000000000000000000000000000000000000000000000000000000600052601260045260246000fd5b7f4e487b7100000000000000000000000000000000000000000000000000000000600052603260045260246000fd5b7f4e487b7100000000000000000000000000000000000000000000000000000000600052604160045260246000fd5b600080fd5b600080fd5b600080fd5b600080fd5b600080fd5b600080fd5b600080fd5b600080fd5b6000601f19601f8301169050919050565b7f556e737570706f727465642063616c6c6261636b202d20204265666f7265204160008201527f677265656d656e74205465726d696e6174656400000000000000000000000000602082015250565b7f3078000000000000000000000000000000000000000000000000000000000000600082015250565b7f5369676e6564536166654d6174683a206164646974696f6e206f766572666c6f60008201527f7700000000000000000000000000000000000000000000000000000000000000602082015250565b7f537570706f7274204f6e6c79204f6e6520486f73740000000000000000000000600082015250565b7f416c7265616479204f6e2052656e740000000000000000000000000000000000600082015250565b7f4e6f7420417661696c61626c6520466f722052656e7400000000000000000000600082015250565b7f416c72656164792052656e746564000000000000000000000000000000000000600082015250565b7f496e737566666963656e7420466c6f772042616c616e63650000000000000000600082015250565b7f5065726d697373696f6e2044656e696564000000000000000000000000000000600082015250565b7f496e76616c696420526571756573740000000000000000000000000000000000600082015250565b7f496e73756666696369656e7420466c6f772042616c616e636500000000000000600082015250565b7f5369676e6564536166654d6174683a206d756c7469706c69636174696f6e206f60008201527f766572666c6f7700000000000000000000000000000000000000000000000000602082015250565b7f556e737570706f727465642063616c6c6261636b202d204265666f726520416760008201527f7265656d656e7420757064617465640000000000000000000000000000000000602082015250565b7f556e737570706f727465642063616c6c6261636b202d204265666f726520416760008201527f7265656d656e7420437265617465640000000000000000000000000000000000602082015250565b7f5369676e6564536166654d6174683a207375627472616374696f6e206f76657260008201527f666c6f7700000000000000000000000000000000000000000000000000000000602082015250565b7f4e6f7420416363657074656420546f6b656e0000000000000000000000000000600082015250565b7f556e2d617574686f72697a656420526571756573740000000000000000000000600082015250565b7f5265656e7472616e637947756172643a207265656e7472616e742063616c6c00600082015250565b7f466c6f7720446f6573204e6f7420457869737473000000000000000000000000600082015250565b7f4f6e6c7920434641763120537570706f72746564000000000000000000000000600082015250565b61514381614a63565b811461514e57600080fd5b50565b61515a81614a75565b811461516557600080fd5b50565b61517181614a81565b811461517c57600080fd5b50565b61518881614a8b565b811461519357600080fd5b50565b61519f81614ab7565b81146151aa57600080fd5b50565b6151b681614ac9565b81146151c157600080fd5b50565b6151cd81614adb565b81146151d857600080fd5b50565b6151e481614ae5565b81146151ef57600080fd5b50565b6151fb81614b12565b811461520657600080fd5b50565b61521281614b1c565b811461521d57600080fd5b5056fea2646970667358221220cd20aa7a643c760581a6e3052124253df6b2228510d9d550cac03c58972b099564736f6c63430008070033",
    "linkReferences": {},
    "deployedLinkReferences": {}
}