{
  "_format": "hh-sol-artifact-1",
  "contractName": "Rentor",
  "sourceName": "contracts/v3/Rentor.sol",
  "abi": [
    {
      "inputs": [
        {
          "internalType": "contract ISuperfluid",
          "name": "host",
          "type": "address"
        },
        {
          "internalType": "contract IConstantFlowAgreementV1",
          "name": "cfa",
          "type": "address"
        },
        {
          "internalType": "contract ISuperToken",
          "name": "acceptedToken",
          "type": "address"
        }
      ],
      "stateMutability": "nonpayable",
      "type": "constructor"
    },
    {
      "anonymous": false,
      "inputs": [
        {
          "indexed": false,
          "internalType": "address",
          "name": "bookAddress",
          "type": "address"
        },
        {
          "indexed": false,
          "internalType": "uint256",
          "name": "copyUid",
          "type": "uint256"
        }
      ],
      "name": "AddedToWaitingList",
      "type": "event"
    },
    {
      "anonymous": false,
      "inputs": [],
      "name": "AllBooksReturned",
      "type": "event"
    },
    {
      "anonymous": false,
      "inputs": [],
      "name": "BookPutOnRent",
      "type": "event"
    },
    {
      "anonymous": false,
      "inputs": [],
      "name": "BookRemovedFromRent",
      "type": "event"
    },
    {
      "anonymous": false,
      "inputs": [],
      "name": "BookReturned",
      "type": "event"
    },
    {
      "anonymous": false,
      "inputs": [],
      "name": "BookTakenOnRent",
      "type": "event"
    },
    {
      "anonymous": false,
      "inputs": [
        {
          "indexed": false,
          "internalType": "address",
          "name": "bookAddress",
          "type": "address"
        },
        {
          "indexed": false,
          "internalType": "uint256",
          "name": "copyUid",
          "type": "uint256"
        }
      ],
      "name": "RemovedFromWaitingList",
      "type": "event"
    },
    {
      "inputs": [
        {
          "internalType": "address",
          "name": "bookAddress",
          "type": "address"
        },
        {
          "internalType": "uint256",
          "name": "copyUid",
          "type": "uint256"
        }
      ],
      "name": "addToWaitingList",
      "outputs": [],
      "stateMutability": "nonpayable",
      "type": "function"
    },
    {
      "inputs": [
        {
          "internalType": "contract ISuperToken",
          "name": "_superToken",
          "type": "address"
        },
        {
          "internalType": "address",
          "name": "_agreementClass",
          "type": "address"
        },
        {
          "internalType": "bytes32",
          "name": "",
          "type": "bytes32"
        },
        {
          "internalType": "bytes",
          "name": "",
          "type": "bytes"
        },
        {
          "internalType": "bytes",
          "name": "",
          "type": "bytes"
        },
        {
          "internalType": "bytes",
          "name": "_ctx",
          "type": "bytes"
        }
      ],
      "name": "afterAgreementCreated",
      "outputs": [
        {
          "internalType": "bytes",
          "name": "newCtx",
          "type": "bytes"
        }
      ],
      "stateMutability": "nonpayable",
      "type": "function"
    },
    {
      "inputs": [
        {
          "internalType": "contract ISuperToken",
          "name": "_superToken",
          "type": "address"
        },
        {
          "internalType": "address",
          "name": "_agreementClass",
          "type": "address"
        },
        {
          "internalType": "bytes32",
          "name": "",
          "type": "bytes32"
        },
        {
          "internalType": "bytes",
          "name": "",
          "type": "bytes"
        },
        {
          "internalType": "bytes",
          "name": "",
          "type": "bytes"
        },
        {
          "internalType": "bytes",
          "name": "_ctx",
          "type": "bytes"
        }
      ],
      "name": "afterAgreementTerminated",
      "outputs": [
        {
          "internalType": "bytes",
          "name": "newCtx",
          "type": "bytes"
        }
      ],
      "stateMutability": "nonpayable",
      "type": "function"
    },
    {
      "inputs": [
        {
          "internalType": "contract ISuperToken",
          "name": "_superToken",
          "type": "address"
        },
        {
          "internalType": "address",
          "name": "_agreementClass",
          "type": "address"
        },
        {
          "internalType": "bytes32",
          "name": "",
          "type": "bytes32"
        },
        {
          "internalType": "bytes",
          "name": "",
          "type": "bytes"
        },
        {
          "internalType": "bytes",
          "name": "",
          "type": "bytes"
        },
        {
          "internalType": "bytes",
          "name": "_ctx",
          "type": "bytes"
        }
      ],
      "name": "afterAgreementUpdated",
      "outputs": [
        {
          "internalType": "bytes",
          "name": "newCtx",
          "type": "bytes"
        }
      ],
      "stateMutability": "nonpayable",
      "type": "function"
    },
    {
      "inputs": [
        {
          "internalType": "contract ISuperToken",
          "name": "",
          "type": "address"
        },
        {
          "internalType": "address",
          "name": "",
          "type": "address"
        },
        {
          "internalType": "bytes32",
          "name": "",
          "type": "bytes32"
        },
        {
          "internalType": "bytes",
          "name": "",
          "type": "bytes"
        },
        {
          "internalType": "bytes",
          "name": "",
          "type": "bytes"
        }
      ],
      "name": "beforeAgreementCreated",
      "outputs": [
        {
          "internalType": "bytes",
          "name": "",
          "type": "bytes"
        }
      ],
      "stateMutability": "view",
      "type": "function"
    },
    {
      "inputs": [
        {
          "internalType": "contract ISuperToken",
          "name": "",
          "type": "address"
        },
        {
          "internalType": "address",
          "name": "",
          "type": "address"
        },
        {
          "internalType": "bytes32",
          "name": "",
          "type": "bytes32"
        },
        {
          "internalType": "bytes",
          "name": "",
          "type": "bytes"
        },
        {
          "internalType": "bytes",
          "name": "",
          "type": "bytes"
        }
      ],
      "name": "beforeAgreementTerminated",
      "outputs": [
        {
          "internalType": "bytes",
          "name": "",
          "type": "bytes"
        }
      ],
      "stateMutability": "view",
      "type": "function"
    },
    {
      "inputs": [
        {
          "internalType": "contract ISuperToken",
          "name": "",
          "type": "address"
        },
        {
          "internalType": "address",
          "name": "",
          "type": "address"
        },
        {
          "internalType": "bytes32",
          "name": "",
          "type": "bytes32"
        },
        {
          "internalType": "bytes",
          "name": "",
          "type": "bytes"
        },
        {
          "internalType": "bytes",
          "name": "",
          "type": "bytes"
        }
      ],
      "name": "beforeAgreementUpdated",
      "outputs": [
        {
          "internalType": "bytes",
          "name": "",
          "type": "bytes"
        }
      ],
      "stateMutability": "view",
      "type": "function"
    },
    {
      "inputs": [
        {
          "internalType": "address",
          "name": "bookAddress",
          "type": "address"
        },
        {
          "internalType": "uint256",
          "name": "copyUid",
          "type": "uint256"
        },
        {
          "internalType": "int96",
          "name": "flowRate",
          "type": "int96"
        }
      ],
      "name": "putOnRent",
      "outputs": [],
      "stateMutability": "nonpayable",
      "type": "function"
    },
    {
      "inputs": [
        {
          "internalType": "address",
          "name": "bookAddress",
          "type": "address"
        },
        {
          "internalType": "uint256",
          "name": "copyUid",
          "type": "uint256"
        }
      ],
      "name": "removeFromRent",
      "outputs": [],
      "stateMutability": "nonpayable",
      "type": "function"
    },
    {
      "inputs": [
        {
          "internalType": "address",
          "name": "bookAddress",
          "type": "address"
        },
        {
          "internalType": "uint256",
          "name": "copyUid",
          "type": "uint256"
        }
      ],
      "name": "removeFromWaitingList",
      "outputs": [],
      "stateMutability": "nonpayable",
      "type": "function"
    },
    {
      "inputs": [
        {
          "internalType": "address",
          "name": "bookAddress",
          "type": "address"
        },
        {
          "internalType": "uint256",
          "name": "copyUid",
          "type": "uint256"
        }
      ],
      "name": "returnBook",
      "outputs": [],
      "stateMutability": "nonpayable",
      "type": "function"
    },
    {
      "inputs": [
        {
          "internalType": "address",
          "name": "bookAddress",
          "type": "address"
        },
        {
          "internalType": "uint256",
          "name": "copyUid",
          "type": "uint256"
        }
      ],
      "name": "takeOnRent",
      "outputs": [],
      "stateMutability": "nonpayable",
      "type": "function"
    },
    {
      "inputs": [
        {
          "internalType": "address",
          "name": "bookAddress",
          "type": "address"
        },
        {
          "internalType": "uint256",
          "name": "copyUid",
          "type": "uint256"
        }
      ],
      "name": "uri",
      "outputs": [
        {
          "internalType": "string",
          "name": "",
          "type": "string"
        }
      ],
      "stateMutability": "nonpayable",
      "type": "function"
    }
  ],
  "bytecode": "0x60806040523480156200001157600080fd5b50604051620059f8380380620059f8833981810160405281019062000037919062000356565b6001600081905550600073ffffffffffffffffffffffffffffffffffffffff168373ffffffffffffffffffffffffffffffffffffffff161415620000b2576040517f08c379a0000000000000000000000000000000000000000000000000000000008152600401620000a990620003ea565b60405180910390fd5b600073ffffffffffffffffffffffffffffffffffffffff168273ffffffffffffffffffffffffffffffffffffffff16141562000125576040517f08c379a00000000000000000000000000000000000000000000000000000000081526004016200011c90620003ea565b60405180910390fd5b600073ffffffffffffffffffffffffffffffffffffffff168173ffffffffffffffffffffffffffffffffffffffff16141562000198576040517f08c379a00000000000000000000000000000000000000000000000000000000081526004016200018f90620003ea565b60405180910390fd5b82600460006101000a81548173ffffffffffffffffffffffffffffffffffffffff021916908373ffffffffffffffffffffffffffffffffffffffff16021790555081600560006101000a81548173ffffffffffffffffffffffffffffffffffffffff021916908373ffffffffffffffffffffffffffffffffffffffff16021790555080600660006101000a81548173ffffffffffffffffffffffffffffffffffffffff021916908373ffffffffffffffffffffffffffffffffffffffff160217905550600064100000000064040000000064010000000060011717179050600460009054906101000a900473ffffffffffffffffffffffffffffffffffffffff1673ffffffffffffffffffffffffffffffffffffffff1663ad3915c8826040518263ffffffff1660e01b8152600401620002d391906200040c565b600060405180830381600087803b158015620002ee57600080fd5b505af115801562000303573d6000803e3d6000fd5b505050505050505062000530565b6000815190506200032281620004e2565b92915050565b6000815190506200033981620004fc565b92915050565b600081519050620003508162000516565b92915050565b600080600060608486031215620003725762000371620004b4565b5b600062000382868287016200033f565b9350506020620003958682870162000311565b9250506040620003a88682870162000328565b9150509250925092565b6000620003c160188362000429565b9150620003ce82620004b9565b602082019050919050565b620003e481620004aa565b82525050565b600060208201905081810360008301526200040581620003b2565b9050919050565b6000602082019050620004236000830184620003d9565b92915050565b600082825260208201905092915050565b600062000447826200048a565b9050919050565b60006200045b826200043a565b9050919050565b60006200046f826200043a565b9050919050565b600062000483826200043a565b9050919050565b600073ffffffffffffffffffffffffffffffffffffffff82169050919050565b6000819050919050565b600080fd5b7f5a65726f2041646472657373204e6f7420416c6c6f7765640000000000000000600082015250565b620004ed816200044e565b8114620004f957600080fd5b50565b620005078162000462565b81146200051357600080fd5b50565b620005218162000476565b81146200052d57600080fd5b50565b6154b880620005406000396000f3fe608060405234801561001057600080fd5b50600436106100cf5760003560e01c8063596d79641161008c578063884d1f4011610066578063884d1f40146102345780639a5fb1f114610264578063d86ed3e514610280578063e1b20416146102b0576100cf565b8063596d7964146101cc5780635f9e7d77146101e857806383a41e3c14610218576100cf565b80631071ebc7146100d4578063230dbd29146100f057806328205a93146101205780632e1f2df51461015057806330d9c9151461016c57806353c11f991461019c575b600080fd5b6100ee60048036038101906100e99190613c6f565b6102cc565b005b61010a60048036038101906101059190613ed9565b61078d565b60405161011791906144fa565b60405180910390f35b61013a60048036038101906101359190613c6f565b610c7f565b6040516101479190614686565b60405180910390f35b61016a60048036038101906101659190613c6f565b610f8b565b005b61018660048036038101906101819190613e1d565b611027565b60405161019391906144fa565b60405180910390f35b6101b660048036038101906101b19190613ed9565b611064565b6040516101c391906144fa565b60405180910390f35b6101e660048036038101906101e19190613c6f565b61130d565b005b61020260048036038101906101fd9190613e1d565b611690565b60405161020f91906144fa565b60405180910390f35b610232600480360381019061022d9190613c6f565b6116cd565b005b61024e60048036038101906102499190613e1d565b611df5565b60405161025b91906144fa565b60405180910390f35b61027e60048036038101906102799190613c6f565b611e32565b005b61029a60048036038101906102959190613ed9565b611ece565b6040516102a791906144fa565b60405180910390f35b6102ca60048036038101906102c59190613caf565b61225f565b005b60026000541415610312576040517f08c379a0000000000000000000000000000000000000000000000000000000008152600401610309906148a8565b60405180910390fd5b600260008190555061032333612686565b6000600260008473ffffffffffffffffffffffffffffffffffffffff1673ffffffffffffffffffffffffffffffffffffffff16815260200190815260200160002060008381526020019081526020016000206040518060600160405290816000820160009054906101000a900473ffffffffffffffffffffffffffffffffffffffff1673ffffffffffffffffffffffffffffffffffffffff1673ffffffffffffffffffffffffffffffffffffffff1681526020016001820160009054906101000a900473ffffffffffffffffffffffffffffffffffffffff1673ffffffffffffffffffffffffffffffffffffffff1673ffffffffffffffffffffffffffffffffffffffff1681526020016001820160149054906101000a9004600b0b600b0b600b0b815250509050600073ffffffffffffffffffffffffffffffffffffffff16816000015173ffffffffffffffffffffffffffffffffffffffff1614156104bf576040517f08c379a00000000000000000000000000000000000000000000000000000000081526004016104b690614728565b60405180910390fd5b600073ffffffffffffffffffffffffffffffffffffffff16816020015173ffffffffffffffffffffffffffffffffffffffff1614610532576040517f08c379a000000000000000000000000000000000000000000000000000000000815260040161052990614748565b60405180910390fd5b8060400151600b0b6105433361271b565b600b0b1215610587576040517f08c379a000000000000000000000000000000000000000000000000000000000815260040161057e906147c8565b60405180910390fd5b33600260008573ffffffffffffffffffffffffffffffffffffffff1673ffffffffffffffffffffffffffffffffffffffff168152602001908152602001600020600084815260200190815260200160002060010160006101000a81548173ffffffffffffffffffffffffffffffffffffffff021916908373ffffffffffffffffffffffffffffffffffffffff160217905550600360003373ffffffffffffffffffffffffffffffffffffffff1673ffffffffffffffffffffffffffffffffffffffff16815260200190815260200160002060405180604001604052808573ffffffffffffffffffffffffffffffffffffffff16815260200184815250908060018154018082558091505060019003906000526020600020906002020160009091909190915060008201518160000160006101000a81548173ffffffffffffffffffffffffffffffffffffffff021916908373ffffffffffffffffffffffffffffffffffffffff1602179055506020820151816001015550506107423361073d7fffffffffffffffffffffffffffffffffffffffffffffffffffffffffffffffff8460400151600b0b6127fd90919063ffffffff16565b612918565b61075481600001518260400151612918565b7f16635825f3096ef2a4a10c7683500587f2f009e32b6bd5be581a368f2710353e60405160405180910390a15060016000819055505050565b6060898961079a82612b4d565b6107d9576040517f08c379a00000000000000000000000000000000000000000000000000000000081526004016107d090614868565b60405180910390fd5b6107e281612ba7565b610821576040517f08c379a0000000000000000000000000000000000000000000000000000000008152600401610818906148e8565b60405180910390fd5b600460009054906101000a900473ffffffffffffffffffffffffffffffffffffffff1673ffffffffffffffffffffffffffffffffffffffff163373ffffffffffffffffffffffffffffffffffffffff16146108b1576040517f08c379a00000000000000000000000000000000000000000000000000000000081526004016108a8906146e8565b60405180910390fd5b6000600460009054906101000a900473ffffffffffffffffffffffffffffffffffffffff1673ffffffffffffffffffffffffffffffffffffffff16633f6c923a87876040518363ffffffff1660e01b81526004016109109291906144d6565b60006040518083038186803b15801561092857600080fd5b505afa15801561093c573d6000803e3d6000fd5b505050506040513d6000823e3d601f19601f820116820180604052508101906109659190614011565b90506000600560009054906101000a900473ffffffffffffffffffffffffffffffffffffffff1673ffffffffffffffffffffffffffffffffffffffff1663e6a1e888600660009054906101000a900473ffffffffffffffffffffffffffffffffffffffff168460600151306040518463ffffffff1660e01b81526004016109ee939291906145b7565b60806040518083038186803b158015610a0657600080fd5b505afa158015610a1a573d6000803e3d6000fd5b505050506040513d601f19601f82011682018060405250810190610a3e919061405a565b50509150506000610a52836060015161271b565b9050610aba8160016000866060015173ffffffffffffffffffffffffffffffffffffffff1673ffffffffffffffffffffffffffffffffffffffff16815260200190815260200160002060009054906101000a9004600b0b600b0b612c5090919063ffffffff16565b600b0b82600b0b12610b8557610b7e8360600151610b3460016000876060015173ffffffffffffffffffffffffffffffffffffffff1673ffffffffffffffffffffffffffffffffffffffff16815260200190815260200160002060009054906101000a9004600b0b85600b0b612c5090919063ffffffff16565b8a8a8080601f016020809104026020016040519081016040528093929190818152602001838380828437600081840152601f19601f82011690508083019250505050505050612ce3565b9550610bf8565b610bd7836060015189898080601f016020809104026020016040519081016040528093929190818152602001838380828437600081840152601f19601f82011690508083019250505050505050612f23565b9550610be683606001516130f2565b610bf58360600151838861361e565b95505b8160016000856060015173ffffffffffffffffffffffffffffffffffffffff1673ffffffffffffffffffffffffffffffffffffffff16815260200190815260200160002060006101000a8154816bffffffffffffffffffffffff0219169083600b0b6bffffffffffffffffffffffff16021790555050505050509998505050505050505050565b606060026000541415610cc7576040517f08c379a0000000000000000000000000000000000000000000000000000000008152600401610cbe906148a8565b60405180910390fd5b6002600081905550610cd833612686565b6000600260008573ffffffffffffffffffffffffffffffffffffffff1673ffffffffffffffffffffffffffffffffffffffff16815260200190815260200160002060008481526020019081526020016000206040518060600160405290816000820160009054906101000a900473ffffffffffffffffffffffffffffffffffffffff1673ffffffffffffffffffffffffffffffffffffffff1673ffffffffffffffffffffffffffffffffffffffff1681526020016001820160009054906101000a900473ffffffffffffffffffffffffffffffffffffffff1673ffffffffffffffffffffffffffffffffffffffff1673ffffffffffffffffffffffffffffffffffffffff1681526020016001820160149054906101000a9004600b0b600b0b600b0b815250509050600073ffffffffffffffffffffffffffffffffffffffff16816000015173ffffffffffffffffffffffffffffffffffffffff161415610e74576040517f08c379a0000000000000000000000000000000000000000000000000000000008152600401610e6b90614728565b60405180910390fd5b3373ffffffffffffffffffffffffffffffffffffffff16816020015173ffffffffffffffffffffffffffffffffffffffff1614610ee6576040517f08c379a0000000000000000000000000000000000000000000000000000000008152600401610edd90614888565b60405180910390fd5b60008490508073ffffffffffffffffffffffffffffffffffffffff16630e89341c856040518263ffffffff1660e01b8152600401610f249190614908565b60006040518083038186803b158015610f3c57600080fd5b505afa158015610f50573d6000803e3d6000fd5b505050506040513d6000823e3d601f19601f82011682018060405250810190610f799190613fc8565b92505050600160008190555092915050565b60026000541415610fd1576040517f08c379a0000000000000000000000000000000000000000000000000000000008152600401610fc8906148a8565b60405180910390fd5b6002600081905550610fe233612686565b7f68bf9728079a47aa9e2e48e5a4db990a54e498856633b751fe487637042a3fa18282604051611013929190614476565b60405180910390a160016000819055505050565b60606040517f08c379a000000000000000000000000000000000000000000000000000000000815260040161105b90614828565b60405180910390fd5b6060898961107182612b4d565b6110b0576040517f08c379a00000000000000000000000000000000000000000000000000000000081526004016110a790614868565b60405180910390fd5b6110b981612ba7565b6110f8576040517f08c379a00000000000000000000000000000000000000000000000000000000081526004016110ef906148e8565b60405180910390fd5b600460009054906101000a900473ffffffffffffffffffffffffffffffffffffffff1673ffffffffffffffffffffffffffffffffffffffff163373ffffffffffffffffffffffffffffffffffffffff1614611188576040517f08c379a000000000000000000000000000000000000000000000000000000000815260040161117f906146e8565b60405180910390fd5b6000600460009054906101000a900473ffffffffffffffffffffffffffffffffffffffff1673ffffffffffffffffffffffffffffffffffffffff16633f6c923a87876040518363ffffffff1660e01b81526004016111e79291906144d6565b60006040518083038186803b1580156111ff57600080fd5b505afa158015611213573d6000803e3d6000fd5b505050506040513d6000823e3d601f19601f8201168201806040525081019061123c9190614011565b9050611290816060015187878080601f016020809104026020016040519081016040528093929190818152602001838380828437600081840152601f19601f82011690508083019250505050505050612f23565b935061129f81606001516130f2565b60016000826060015173ffffffffffffffffffffffffffffffffffffffff1673ffffffffffffffffffffffffffffffffffffffff16815260200190815260200160002060006101000a8154906bffffffffffffffffffffffff02191690555050509998505050505050505050565b60026000541415611353576040517f08c379a000000000000000000000000000000000000000000000000000000000815260040161134a906148a8565b60405180910390fd5b600260008190555061136433612686565b3373ffffffffffffffffffffffffffffffffffffffff16600260008473ffffffffffffffffffffffffffffffffffffffff1673ffffffffffffffffffffffffffffffffffffffff168152602001908152602001600020600083815260200190815260200160002060000160009054906101000a900473ffffffffffffffffffffffffffffffffffffffff1673ffffffffffffffffffffffffffffffffffffffff1614611445576040517f08c379a000000000000000000000000000000000000000000000000000000000815260040161143c90614888565b60405180910390fd5b600073ffffffffffffffffffffffffffffffffffffffff16600260008473ffffffffffffffffffffffffffffffffffffffff1673ffffffffffffffffffffffffffffffffffffffff168152602001908152602001600020600083815260200190815260200160002060010160009054906101000a900473ffffffffffffffffffffffffffffffffffffffff1673ffffffffffffffffffffffffffffffffffffffff1614611527576040517f08c379a000000000000000000000000000000000000000000000000000000000815260040161151e90614788565b60405180910390fd5b600260008373ffffffffffffffffffffffffffffffffffffffff1673ffffffffffffffffffffffffffffffffffffffff1681526020019081526020016000206000828152602001908152602001600020600080820160006101000a81549073ffffffffffffffffffffffffffffffffffffffff02191690556001820160006101000a81549073ffffffffffffffffffffffffffffffffffffffff02191690556001820160146101000a8154906bffffffffffffffffffffffff0219169055505060008290508073ffffffffffffffffffffffffffffffffffffffff16636198e339836040518263ffffffff1660e01b81526004016116259190614908565b600060405180830381600087803b15801561163f57600080fd5b505af1158015611653573d6000803e3d6000fd5b505050507fd728226a9e4b9f6c3b72aedf07853109890865886a7e2eef520303933f017d7f60405160405180910390a15060016000819055505050565b60606040517f08c379a00000000000000000000000000000000000000000000000000000000081526004016116c4906146a8565b60405180910390fd5b60026000541415611713576040517f08c379a000000000000000000000000000000000000000000000000000000000815260040161170a906148a8565b60405180910390fd5b600260008190555061172433612686565b6000600260008473ffffffffffffffffffffffffffffffffffffffff1673ffffffffffffffffffffffffffffffffffffffff16815260200190815260200160002060008381526020019081526020016000206040518060600160405290816000820160009054906101000a900473ffffffffffffffffffffffffffffffffffffffff1673ffffffffffffffffffffffffffffffffffffffff1673ffffffffffffffffffffffffffffffffffffffff1681526020016001820160009054906101000a900473ffffffffffffffffffffffffffffffffffffffff1673ffffffffffffffffffffffffffffffffffffffff1673ffffffffffffffffffffffffffffffffffffffff1681526020016001820160149054906101000a9004600b0b600b0b600b0b8152505090503373ffffffffffffffffffffffffffffffffffffffff16816020015173ffffffffffffffffffffffffffffffffffffffff16146118be576040517f08c379a00000000000000000000000000000000000000000000000000000000081526004016118b590614888565b60405180910390fd5b61190581600001516119007fffffffffffffffffffffffffffffffffffffffffffffffffffffffffffffffff8460400151600b0b6127fd90919063ffffffff16565b612918565b6000600260008573ffffffffffffffffffffffffffffffffffffffff1673ffffffffffffffffffffffffffffffffffffffff168152602001908152602001600020600084815260200190815260200160002060010160006101000a81548173ffffffffffffffffffffffffffffffffffffffff021916908373ffffffffffffffffffffffffffffffffffffffff16021790555060005b600360003373ffffffffffffffffffffffffffffffffffffffff1673ffffffffffffffffffffffffffffffffffffffff16815260200190815260200160002080549050811015611dad578373ffffffffffffffffffffffffffffffffffffffff16600360003373ffffffffffffffffffffffffffffffffffffffff1673ffffffffffffffffffffffffffffffffffffffff1681526020019081526020016000208281548110611a4d57611a4c614eed565b5b906000526020600020906002020160000160009054906101000a900473ffffffffffffffffffffffffffffffffffffffff1673ffffffffffffffffffffffffffffffffffffffff16148015611b03575082600360003373ffffffffffffffffffffffffffffffffffffffff1673ffffffffffffffffffffffffffffffffffffffff1681526020019081526020016000208281548110611aef57611aee614eed565b5b906000526020600020906002020160010154145b15611d9a5760008190505b6001600360003373ffffffffffffffffffffffffffffffffffffffff1673ffffffffffffffffffffffffffffffffffffffff16815260200190815260200160002080549050611b5d9190614c91565b811015611cb557600360003373ffffffffffffffffffffffffffffffffffffffff1673ffffffffffffffffffffffffffffffffffffffff168152602001908152602001600020600182611bb09190614a62565b81548110611bc157611bc0614eed565b5b9060005260206000209060020201600360003373ffffffffffffffffffffffffffffffffffffffff1673ffffffffffffffffffffffffffffffffffffffff1681526020019081526020016000208281548110611c2057611c1f614eed565b5b90600052602060002090600202016000820160009054906101000a900473ffffffffffffffffffffffffffffffffffffffff168160000160006101000a81548173ffffffffffffffffffffffffffffffffffffffff021916908373ffffffffffffffffffffffffffffffffffffffff160217905550600182015481600101559050508080611cad90614e46565b915050611b0e565b50600360003373ffffffffffffffffffffffffffffffffffffffff1673ffffffffffffffffffffffffffffffffffffffff1681526020019081526020016000206001600360003373ffffffffffffffffffffffffffffffffffffffff1673ffffffffffffffffffffffffffffffffffffffff16815260200190815260200160002080549050611d449190614c91565b81548110611d5557611d54614eed565b5b9060005260206000209060020201600080820160006101000a81549073ffffffffffffffffffffffffffffffffffffffff021916905560018201600090555050611dad565b8080611da590614e46565b91505061199b565b50611dbc338260400151612918565b7f889e12980650874a46b6f9163fd909abfdd7bd4617b9656ef7da94c0f4baa2e160405160405180910390a15060016000819055505050565b60606040517f08c379a0000000000000000000000000000000000000000000000000000000008152600401611e2990614808565b60405180910390fd5b60026000541415611e78576040517f08c379a0000000000000000000000000000000000000000000000000000000008152600401611e6f906148a8565b60405180910390fd5b6002600081905550611e8933612686565b7f89c4132bd693e8f4611111a67a5c1956b38aff59ae0b613b03184efa8c5a742b8282604051611eba929190614476565b60405180910390a160016000819055505050565b60608989611edb82612b4d565b611f1a576040517f08c379a0000000000000000000000000000000000000000000000000000000008152600401611f1190614868565b60405180910390fd5b611f2381612ba7565b611f62576040517f08c379a0000000000000000000000000000000000000000000000000000000008152600401611f59906148e8565b60405180910390fd5b600460009054906101000a900473ffffffffffffffffffffffffffffffffffffffff1673ffffffffffffffffffffffffffffffffffffffff163373ffffffffffffffffffffffffffffffffffffffff1614611ff2576040517f08c379a0000000000000000000000000000000000000000000000000000000008152600401611fe9906146e8565b60405180910390fd5b6000600460009054906101000a900473ffffffffffffffffffffffffffffffffffffffff1673ffffffffffffffffffffffffffffffffffffffff16633f6c923a87876040518363ffffffff1660e01b81526004016120519291906144d6565b60006040518083038186803b15801561206957600080fd5b505afa15801561207d573d6000803e3d6000fd5b505050506040513d6000823e3d601f19601f820116820180604052508101906120a69190614011565b90506000600560009054906101000a900473ffffffffffffffffffffffffffffffffffffffff1673ffffffffffffffffffffffffffffffffffffffff1663e6a1e888600660009054906101000a900473ffffffffffffffffffffffffffffffffffffffff168460600151306040518463ffffffff1660e01b815260040161212f939291906145b7565b60806040518083038186803b15801561214757600080fd5b505afa15801561215b573d6000803e3d6000fd5b505050506040513d601f19601f8201168201806040525081019061217f919061405a565b50509150508060016000846060015173ffffffffffffffffffffffffffffffffffffffff1673ffffffffffffffffffffffffffffffffffffffff16815260200190815260200160002060006101000a8154816bffffffffffffffffffffffff0219169083600b0b6bffffffffffffffffffffffff16021790555061224c82606001518289898080601f016020809104026020016040519081016040528093929190818152602001838380828437600081840152601f19601f8201169050808301925050505050505061361e565b9450505050509998505050505050505050565b600260005414156122a5576040517f08c379a000000000000000000000000000000000000000000000000000000000815260040161229c906148a8565b60405180910390fd5b60026000819055506122b633612686565b60008390508073ffffffffffffffffffffffffffffffffffffffff1663f8fbea34338560006040518463ffffffff1660e01b81526004016122f99392919061449f565b60206040518083038186803b15801561231157600080fd5b505afa158015612325573d6000803e3d6000fd5b505050506040513d601f19601f820116820180604052508101906123499190613d02565b612388576040517f08c379a000000000000000000000000000000000000000000000000000000000815260040161237f90614888565b60405180910390fd5b8073ffffffffffffffffffffffffffffffffffffffff1663fa12317230856040518363ffffffff1660e01b81526004016123c3929190614476565b60206040518083038186803b1580156123db57600080fd5b505afa1580156123ef573d6000803e3d6000fd5b505050506040513d601f19601f820116820180604052508101906124139190613d02565b612452576040517f08c379a0000000000000000000000000000000000000000000000000000000008152600401612449906147a8565b60405180910390fd5b600073ffffffffffffffffffffffffffffffffffffffff16600260008673ffffffffffffffffffffffffffffffffffffffff1673ffffffffffffffffffffffffffffffffffffffff168152602001908152602001600020600085815260200190815260200160002060000160009054906101000a900473ffffffffffffffffffffffffffffffffffffffff1673ffffffffffffffffffffffffffffffffffffffff161415612535576040517f08c379a000000000000000000000000000000000000000000000000000000000815260040161252c90614708565b60405180910390fd5b33600260008673ffffffffffffffffffffffffffffffffffffffff1673ffffffffffffffffffffffffffffffffffffffff168152602001908152602001600020600085815260200190815260200160002060000160006101000a81548173ffffffffffffffffffffffffffffffffffffffff021916908373ffffffffffffffffffffffffffffffffffffffff16021790555081600260008673ffffffffffffffffffffffffffffffffffffffff1673ffffffffffffffffffffffffffffffffffffffff168152602001908152602001600020600085815260200190815260200160002060010160146101000a8154816bffffffffffffffffffffffff0219169083600b0b6bffffffffffffffffffffffff1602179055507fb046c7ba13bfcce7b088d712153941ee5f069a39d7f265296990a1613b3ea39660405160405180910390a1506001600081905550505050565b6000600160008373ffffffffffffffffffffffffffffffffffffffff1673ffffffffffffffffffffffffffffffffffffffff16815260200190815260200160002060009054906101000a9004600b0b600b0b13612718576040517f08c379a000000000000000000000000000000000000000000000000000000000815260040161270f906148c8565b60405180910390fd5b50565b600080600560009054906101000a900473ffffffffffffffffffffffffffffffffffffffff1673ffffffffffffffffffffffffffffffffffffffff1663e6a1e888600660009054906101000a900473ffffffffffffffffffffffffffffffffffffffff1630866040518463ffffffff1660e01b815260040161279f939291906145b7565b60806040518083038186803b1580156127b757600080fd5b505afa1580156127cb573d6000803e3d6000fd5b505050506040513d601f19601f820116820180604052508101906127ef919061405a565b505091505080915050919050565b60008083600b0b14156128135760009050612912565b7fffffffffffffffffffffffffffffffffffffffffffffffffffffffffffffffff83600b0b14801561286a57507fffffffffffffffffffffffffffffffffffffffff800000000000000000000000600b0b82600b0b145b156128aa576040517f08c379a00000000000000000000000000000000000000000000000000000000081526004016128a1906147e8565b60405180910390fd5b600082846128b89190614b22565b905082600b0b84826128ca9190614ab8565b600b0b1461290d576040517f08c379a0000000000000000000000000000000000000000000000000000000008152600401612904906147e8565b60405180910390fd5b809150505b92915050565b60006129238361271b565b9050600061293d8383600b0b6137ee90919063ffffffff16565b9050600081600b0b1215612986576040517f08c379a000000000000000000000000000000000000000000000000000000000815260040161297d90614768565b60405180910390fd5b600460009054906101000a900473ffffffffffffffffffffffffffffffffffffffff1673ffffffffffffffffffffffffffffffffffffffff166339255d5b600560009054906101000a900473ffffffffffffffffffffffffffffffffffffffff166350209a6260e01b600660009054906101000a900473ffffffffffffffffffffffffffffffffffffffff168886600067ffffffffffffffff811115612a2f57612a2e614f1c565b5b6040519080825280601f01601f191660200182016040528015612a615781602001600182028036833780820191505090505b50604051602401612a75949392919061463a565b604051602081830303815290604052907bffffffffffffffffffffffffffffffffffffffffffffffffffffffff19166020820180517bffffffffffffffffffffffffffffffffffffffffffffffffffffffff83818316178352505050506040518363ffffffff1660e01b8152600401612aef92919061451c565b600060405180830381600087803b158015612b0957600080fd5b505af1158015612b1d573d6000803e3d6000fd5b505050506040513d6000823e3d601f19601f82011682018060405250810190612b469190613d5c565b5050505050565b6000600660009054906101000a900473ffffffffffffffffffffffffffffffffffffffff1673ffffffffffffffffffffffffffffffffffffffff168273ffffffffffffffffffffffffffffffffffffffff16149050919050565b60007fa9214cc96615e0085d3bb077758db69497dc2dce3b2b1e97bc93c3d18d83efd38273ffffffffffffffffffffffffffffffffffffffff16637730599e6040518163ffffffff1660e01b815260040160206040518083038186803b158015612c1057600080fd5b505afa158015612c24573d6000803e3d6000fd5b505050506040513d601f19601f82011682018060405250810190612c489190613d2f565b149050919050565b6000808284612c5f9190614c11565b9050600083600b0b12158015612c7b575083600b0b81600b0b13155b80612c9a5750600083600b0b128015612c99575083600b0b81600b0b135b5b612cd9576040517f08c379a0000000000000000000000000000000000000000000000000000000008152600401612cd090614848565b60405180910390fd5b8091505092915050565b60606000612cf08561271b565b90506000612d0a8583600b0b6137ee90919063ffffffff16565b9050600081600b0b1215612d53576040517f08c379a0000000000000000000000000000000000000000000000000000000008152600401612d4a90614768565b60405180910390fd5b600460009054906101000a900473ffffffffffffffffffffffffffffffffffffffff1673ffffffffffffffffffffffffffffffffffffffff16634329d293600560009054906101000a900473ffffffffffffffffffffffffffffffffffffffff166350209a6260e01b600660009054906101000a900473ffffffffffffffffffffffffffffffffffffffff168a86600067ffffffffffffffff811115612dfc57612dfb614f1c565b5b6040519080825280601f01601f191660200182016040528015612e2e5781602001600182028036833780820191505090505b50604051602401612e42949392919061463a565b604051602081830303815290604052907bffffffffffffffffffffffffffffffffffffffffffffffffffffffff19166020820180517bffffffffffffffffffffffffffffffffffffffffffffffffffffffff8381831617835250505050876040518463ffffffff1660e01b8152600401612ebe9392919061455f565b600060405180830381600087803b158015612ed857600080fd5b505af1158015612eec573d6000803e3d6000fd5b505050506040513d6000823e3d601f19601f82011682018060405250810190612f159190613da5565b508093505050509392505050565b6060600460009054906101000a900473ffffffffffffffffffffffffffffffffffffffff1673ffffffffffffffffffffffffffffffffffffffff16634329d293600560009054906101000a900473ffffffffffffffffffffffffffffffffffffffff1663b4b333c660e01b600660009054906101000a900473ffffffffffffffffffffffffffffffffffffffff163088600067ffffffffffffffff811115612fce57612fcd614f1c565b5b6040519080825280601f01601f1916602001820160405280156130005781602001600182028036833780820191505090505b5060405160240161301494939291906145ee565b604051602081830303815290604052907bffffffffffffffffffffffffffffffffffffffffffffffffffffffff19166020820180517bffffffffffffffffffffffffffffffffffffffffffffffffffffffff8381831617835250505050856040518463ffffffff1660e01b81526004016130909392919061455f565b600060405180830381600087803b1580156130aa57600080fd5b505af11580156130be573d6000803e3d6000fd5b505050506040513d6000823e3d601f19601f820116820180604052508101906130e79190613da5565b508091505092915050565b60005b600360008373ffffffffffffffffffffffffffffffffffffffff1673ffffffffffffffffffffffffffffffffffffffff168152602001908152602001600020805490508110156135a35761341960026000600360008673ffffffffffffffffffffffffffffffffffffffff1673ffffffffffffffffffffffffffffffffffffffff168152602001908152602001600020848154811061319757613196614eed565b5b906000526020600020906002020160000160009054906101000a900473ffffffffffffffffffffffffffffffffffffffff1673ffffffffffffffffffffffffffffffffffffffff1673ffffffffffffffffffffffffffffffffffffffff1681526020019081526020016000206000600360008673ffffffffffffffffffffffffffffffffffffffff1673ffffffffffffffffffffffffffffffffffffffff168152602001908152602001600020848154811061325657613255614eed565b5b906000526020600020906002020160010154815260200190815260200160002060000160009054906101000a900473ffffffffffffffffffffffffffffffffffffffff166134147fffffffffffffffffffffffffffffffffffffffffffffffffffffffffffffffff60026000600360008973ffffffffffffffffffffffffffffffffffffffff1673ffffffffffffffffffffffffffffffffffffffff168152602001908152602001600020878154811061331357613312614eed565b5b906000526020600020906002020160000160009054906101000a900473ffffffffffffffffffffffffffffffffffffffff1673ffffffffffffffffffffffffffffffffffffffff1673ffffffffffffffffffffffffffffffffffffffff1681526020019081526020016000206000600360008973ffffffffffffffffffffffffffffffffffffffff1673ffffffffffffffffffffffffffffffffffffffff16815260200190815260200160002087815481106133d2576133d1614eed565b5b906000526020600020906002020160010154815260200190815260200160002060010160149054906101000a9004600b0b600b0b6127fd90919063ffffffff16565b612918565b600060026000600360008673ffffffffffffffffffffffffffffffffffffffff1673ffffffffffffffffffffffffffffffffffffffff16815260200190815260200160002084815481106134705761346f614eed565b5b906000526020600020906002020160000160009054906101000a900473ffffffffffffffffffffffffffffffffffffffff1673ffffffffffffffffffffffffffffffffffffffff1673ffffffffffffffffffffffffffffffffffffffff1681526020019081526020016000206000600360008673ffffffffffffffffffffffffffffffffffffffff1673ffffffffffffffffffffffffffffffffffffffff168152602001908152602001600020848154811061352f5761352e614eed565b5b906000526020600020906002020160010154815260200190815260200160002060010160006101000a81548173ffffffffffffffffffffffffffffffffffffffff021916908373ffffffffffffffffffffffffffffffffffffffff160217905550808061359b90614e46565b9150506130f5565b50600360008273ffffffffffffffffffffffffffffffffffffffff1673ffffffffffffffffffffffffffffffffffffffff16815260200190815260200160002060006135ef9190613881565b7fb33d8ce765101106be33329754bab11da1c08d365e11fd0f7962fd2cf4f3daff60405160405180910390a150565b6060600460009054906101000a900473ffffffffffffffffffffffffffffffffffffffff1673ffffffffffffffffffffffffffffffffffffffff16634329d293600560009054906101000a900473ffffffffffffffffffffffffffffffffffffffff166362fc305e60e01b600660009054906101000a900473ffffffffffffffffffffffffffffffffffffffff168888600067ffffffffffffffff8111156136c9576136c8614f1c565b5b6040519080825280601f01601f1916602001820160405280156136fb5781602001600182028036833780820191505090505b5060405160240161370f949392919061463a565b604051602081830303815290604052907bffffffffffffffffffffffffffffffffffffffffffffffffffffffff19166020820180517bffffffffffffffffffffffffffffffffffffffffffffffffffffffff8381831617835250505050856040518463ffffffff1660e01b815260040161378b9392919061455f565b600060405180830381600087803b1580156137a557600080fd5b505af11580156137b9573d6000803e3d6000fd5b505050506040513d6000823e3d601f19601f820116820180604052508101906137e29190613da5565b50809150509392505050565b60008082846137fd91906149e2565b9050600083600b0b12158015613819575083600b0b81600b0b12155b806138385750600083600b0b128015613837575083600b0b81600b0b125b5b613877576040517f08c379a000000000000000000000000000000000000000000000000000000000815260040161386e906146c8565b60405180910390fd5b8091505092915050565b50805460008255600202906000526020600020908101906138a291906138a5565b50565b5b808211156138e757600080820160006101000a81549073ffffffffffffffffffffffffffffffffffffffff02191690556001820160009055506002016138a6565b5090565b60006138fe6138f984614948565b614923565b90508281526020810184848401111561391a57613919614f64565b5b613925848285614de2565b509392505050565b600061394061393b84614979565b614923565b90508281526020810184848401111561395c5761395b614f64565b5b613967848285614de2565b509392505050565b60008135905061397e8161539c565b92915050565b6000815190506139938161539c565b92915050565b6000815190506139a8816153b3565b92915050565b6000813590506139bd816153ca565b92915050565b6000815190506139d2816153ca565b92915050565b6000815190506139e7816153e1565b92915050565b60008083601f840112613a0357613a02614f50565b5b8235905067ffffffffffffffff811115613a2057613a1f614f4b565b5b602083019150836001820283011115613a3c57613a3b614f5f565b5b9250929050565b600082601f830112613a5857613a57614f50565b5b8151613a688482602086016138eb565b91505092915050565b600081359050613a80816153f8565b92915050565b600081519050613a958161540f565b92915050565b600081519050613aaa81615426565b92915050565b600081359050613abf8161543d565b92915050565b600081519050613ad48161543d565b92915050565b600082601f830112613aef57613aee614f50565b5b8151613aff84826020860161392d565b91505092915050565b60006101608284031215613b1f57613b1e614f55565b5b613b2a610160614923565b90506000613b3a84828501613c5a565b6000830152506020613b4e84828501613c5a565b6020830152506040613b6284828501613c45565b6040830152506060613b7684828501613984565b6060830152506080613b8a848285016139d8565b60808301525060a082015167ffffffffffffffff811115613bae57613bad614f5a565b5b613bba84828501613a43565b60a08301525060c0613bce84828501613c45565b60c08301525060e0613be284828501613c45565b60e083015250610100613bf784828501613a9b565b61010083015250610120613c0d84828501613984565b61012083015250610140613c2384828501613a86565b6101408301525092915050565b600081359050613c3f81615454565b92915050565b600081519050613c5481615454565b92915050565b600081519050613c698161546b565b92915050565b60008060408385031215613c8657613c85614f6e565b5b6000613c948582860161396f565b9250506020613ca585828601613c30565b9150509250929050565b600080600060608486031215613cc857613cc7614f6e565b5b6000613cd68682870161396f565b9350506020613ce786828701613c30565b9250506040613cf886828701613ab0565b9150509250925092565b600060208284031215613d1857613d17614f6e565b5b6000613d2684828501613999565b91505092915050565b600060208284031215613d4557613d44614f6e565b5b6000613d53848285016139c3565b91505092915050565b600060208284031215613d7257613d71614f6e565b5b600082015167ffffffffffffffff811115613d9057613d8f614f69565b5b613d9c84828501613a43565b91505092915050565b60008060408385031215613dbc57613dbb614f6e565b5b600083015167ffffffffffffffff811115613dda57613dd9614f69565b5b613de685828601613a43565b925050602083015167ffffffffffffffff811115613e0757613e06614f69565b5b613e1385828601613a43565b9150509250929050565b600080600080600080600060a0888a031215613e3c57613e3b614f6e565b5b6000613e4a8a828b01613a71565b9750506020613e5b8a828b0161396f565b9650506040613e6c8a828b016139ae565b955050606088013567ffffffffffffffff811115613e8d57613e8c614f69565b5b613e998a828b016139ed565b9450945050608088013567ffffffffffffffff811115613ebc57613ebb614f69565b5b613ec88a828b016139ed565b925092505092959891949750929550565b600080600080600080600080600060c08a8c031215613efb57613efa614f6e565b5b6000613f098c828d01613a71565b9950506020613f1a8c828d0161396f565b9850506040613f2b8c828d016139ae565b97505060608a013567ffffffffffffffff811115613f4c57613f4b614f69565b5b613f588c828d016139ed565b965096505060808a013567ffffffffffffffff811115613f7b57613f7a614f69565b5b613f878c828d016139ed565b945094505060a08a013567ffffffffffffffff811115613faa57613fa9614f69565b5b613fb68c828d016139ed565b92509250509295985092959850929598565b600060208284031215613fde57613fdd614f6e565b5b600082015167ffffffffffffffff811115613ffc57613ffb614f69565b5b61400884828501613ada565b91505092915050565b60006020828403121561402757614026614f6e565b5b600082015167ffffffffffffffff81111561404557614044614f69565b5b61405184828501613b08565b91505092915050565b6000806000806080858703121561407457614073614f6e565b5b600061408287828801613c45565b945050602061409387828801613ac5565b93505060406140a487828801613c45565b92505060606140b587828801613c45565b91505092959194509250565b6140ca81614cc5565b82525050565b6140d981614cd7565b82525050565b60006140eb83856149c0565b93506140f8838584614dd3565b61410183614f73565b840190509392505050565b6000614117826149aa565b61412181856149c0565b9350614131818560208601614de2565b61413a81614f73565b840191505092915050565b61414e81614d8b565b82525050565b61415d81614d9d565b82525050565b61416c81614d47565b82525050565b600061417d826149b5565b61418781856149d1565b9350614197818560208601614de2565b6141a081614f73565b840191505092915050565b60006141b86033836149d1565b91506141c382614f84565b604082019050919050565b60006141db6002836149c0565b91506141e682614fd3565b602082019050919050565b60006141fe6021836149d1565b915061420982614ffc565b604082019050919050565b60006142216015836149d1565b915061422c8261504b565b602082019050919050565b6000614244600f836149d1565b915061424f82615074565b602082019050919050565b60006142676016836149d1565b91506142728261509d565b602082019050919050565b600061428a600e836149d1565b9150614295826150c6565b602082019050919050565b60006142ad6018836149d1565b91506142b8826150ef565b602082019050919050565b60006142d06011836149d1565b91506142db82615118565b602082019050919050565b60006142f3600f836149d1565b91506142fe82615141565b602082019050919050565b60006143166019836149d1565b91506143218261516a565b602082019050919050565b60006143396027836149d1565b915061434482615193565b604082019050919050565b600061435c602f836149d1565b9150614367826151e2565b604082019050919050565b600061437f602f836149d1565b915061438a82615231565b604082019050919050565b60006143a26024836149d1565b91506143ad82615280565b604082019050919050565b60006143c56012836149d1565b91506143d0826152cf565b602082019050919050565b60006143e86015836149d1565b91506143f3826152f8565b602082019050919050565b600061440b601f836149d1565b915061441682615321565b602082019050919050565b600061442e6014836149d1565b91506144398261534a565b602082019050919050565b60006144516014836149d1565b915061445c82615373565b602082019050919050565b61447081614d74565b82525050565b600060408201905061448b60008301856140c1565b6144986020830184614467565b9392505050565b60006060820190506144b460008301866140c1565b6144c16020830185614467565b6144ce60408301846140d0565b949350505050565b600060208201905081810360008301526144f18184866140df565b90509392505050565b60006020820190508181036000830152614514818461410c565b905092915050565b60006060820190506145316000830185614145565b8181036020830152614543818461410c565b90508181036040830152614556816141ce565b90509392505050565b60006080820190506145746000830186614145565b8181036020830152614586818561410c565b90508181036040830152614599816141ce565b905081810360608301526145ad818461410c565b9050949350505050565b60006060820190506145cc6000830186614154565b6145d960208301856140c1565b6145e660408301846140c1565b949350505050565b60006080820190506146036000830187614154565b61461060208301866140c1565b61461d60408301856140c1565b818103606083015261462f818461410c565b905095945050505050565b600060808201905061464f6000830187614154565b61465c60208301866140c1565b6146696040830185614163565b818103606083015261467b818461410c565b905095945050505050565b600060208201905081810360008301526146a08184614172565b905092915050565b600060208201905081810360008301526146c1816141ab565b9050919050565b600060208201905081810360008301526146e1816141f1565b9050919050565b6000602082019050818103600083015261470181614214565b9050919050565b6000602082019050818103600083015261472181614237565b9050919050565b600060208201905081810360008301526147418161425a565b9050919050565b600060208201905081810360008301526147618161427d565b9050919050565b60006020820190508181036000830152614781816142a0565b9050919050565b600060208201905081810360008301526147a1816142c3565b9050919050565b600060208201905081810360008301526147c1816142e6565b9050919050565b600060208201905081810360008301526147e181614309565b9050919050565b600060208201905081810360008301526148018161432c565b9050919050565b600060208201905081810360008301526148218161434f565b9050919050565b6000602082019050818103600083015261484181614372565b9050919050565b6000602082019050818103600083015261486181614395565b9050919050565b60006020820190508181036000830152614881816143b8565b9050919050565b600060208201905081810360008301526148a1816143db565b9050919050565b600060208201905081810360008301526148c1816143fe565b9050919050565b600060208201905081810360008301526148e181614421565b9050919050565b6000602082019050818103600083015261490181614444565b9050919050565b600060208201905061491d6000830184614467565b92915050565b600061492d61493e565b90506149398282614e15565b919050565b6000604051905090565b600067ffffffffffffffff82111561496357614962614f1c565b5b61496c82614f73565b9050602081019050919050565b600067ffffffffffffffff82111561499457614993614f1c565b5b61499d82614f73565b9050602081019050919050565b600081519050919050565b600081519050919050565b600082825260208201905092915050565b600082825260208201905092915050565b60006149ed82614d47565b91506149f883614d47565b9250816b7fffffffffffffffffffffff03831360008312151615614a1f57614a1e614e8f565b5b817fffffffffffffffffffffffffffffffffffffffff800000000000000000000000038312600083121615614a5757614a56614e8f565b5b828201905092915050565b6000614a6d82614d74565b9150614a7883614d74565b9250827fffffffffffffffffffffffffffffffffffffffffffffffffffffffffffffffff03821115614aad57614aac614e8f565b5b828201905092915050565b6000614ac382614d47565b9150614ace83614d47565b925082614ade57614add614ebe565b5b600160000383147fffffffffffffffffffffffffffffffffffffffff80000000000000000000000083141615614b1757614b16614e8f565b5b828205905092915050565b6000614b2d82614d47565b9150614b3883614d47565b9250826b7fffffffffffffffffffffff0482116000841360008413161615614b6357614b62614e8f565b5b817fffffffffffffffffffffffffffffffffffffffff8000000000000000000000000583126000841260008413161615614ba057614b9f614e8f565b5b827fffffffffffffffffffffffffffffffffffffffff8000000000000000000000000582126000841360008412161615614bdd57614bdc614e8f565b5b826b7fffffffffffffffffffffff0582126000841260008412161615614c0657614c05614e8f565b5b828202905092915050565b6000614c1c82614d47565b9150614c2783614d47565b9250827fffffffffffffffffffffffffffffffffffffffff80000000000000000000000001821260008412151615614c6257614c61614e8f565b5b826b7fffffffffffffffffffffff018213600084121615614c8657614c85614e8f565b5b828203905092915050565b6000614c9c82614d74565b9150614ca783614d74565b925082821015614cba57614cb9614e8f565b5b828203905092915050565b6000614cd082614d54565b9050919050565b60008115159050919050565b6000819050919050565b60007fffffffff0000000000000000000000000000000000000000000000000000000082169050919050565b6000614d2482614cc5565b9050919050565b6000614d3682614cc5565b9050919050565b6000819050919050565b600081600b0b9050919050565b600073ffffffffffffffffffffffffffffffffffffffff82169050919050565b6000819050919050565b600060ff82169050919050565b6000614d9682614daf565b9050919050565b6000614da882614daf565b9050919050565b6000614dba82614dc1565b9050919050565b6000614dcc82614d54565b9050919050565b82818337600083830152505050565b60005b83811015614e00578082015181840152602081019050614de5565b83811115614e0f576000848401525b50505050565b614e1e82614f73565b810181811067ffffffffffffffff82111715614e3d57614e3c614f1c565b5b80604052505050565b6000614e5182614d74565b91507fffffffffffffffffffffffffffffffffffffffffffffffffffffffffffffffff821415614e8457614e83614e8f565b5b600182019050919050565b7f4e487b7100000000000000000000000000000000000000000000000000000000600052601160045260246000fd5b7f4e487b7100000000000000000000000000000000000000000000000000000000600052601260045260246000fd5b7f4e487b7100000000000000000000000000000000000000000000000000000000600052603260045260246000fd5b7f4e487b7100000000000000000000000000000000000000000000000000000000600052604160045260246000fd5b600080fd5b600080fd5b600080fd5b600080fd5b600080fd5b600080fd5b600080fd5b600080fd5b6000601f19601f8301169050919050565b7f556e737570706f727465642063616c6c6261636b202d20204265666f7265204160008201527f677265656d656e74205465726d696e6174656400000000000000000000000000602082015250565b7f3078000000000000000000000000000000000000000000000000000000000000600082015250565b7f5369676e6564536166654d6174683a206164646974696f6e206f766572666c6f60008201527f7700000000000000000000000000000000000000000000000000000000000000602082015250565b7f537570706f7274204f6e6c79204f6e6520486f73740000000000000000000000600082015250565b7f416c7265616479204f6e2052656e740000000000000000000000000000000000600082015250565b7f4e6f7420417661696c61626c6520466f722052656e7400000000000000000000600082015250565b7f416c72656164792052656e746564000000000000000000000000000000000000600082015250565b7f496e737566666963656e7420466c6f772042616c616e63650000000000000000600082015250565b7f5065726d697373696f6e2044656e696564000000000000000000000000000000600082015250565b7f496e76616c696420526571756573740000000000000000000000000000000000600082015250565b7f496e73756666696369656e7420466c6f772042616c616e636500000000000000600082015250565b7f5369676e6564536166654d6174683a206d756c7469706c69636174696f6e206f60008201527f766572666c6f7700000000000000000000000000000000000000000000000000602082015250565b7f556e737570706f727465642063616c6c6261636b202d204265666f726520416760008201527f7265656d656e7420757064617465640000000000000000000000000000000000602082015250565b7f556e737570706f727465642063616c6c6261636b202d204265666f726520416760008201527f7265656d656e7420437265617465640000000000000000000000000000000000602082015250565b7f5369676e6564536166654d6174683a207375627472616374696f6e206f76657260008201527f666c6f7700000000000000000000000000000000000000000000000000000000602082015250565b7f4e6f7420416363657074656420546f6b656e0000000000000000000000000000600082015250565b7f556e2d617574686f72697a656420526571756573740000000000000000000000600082015250565b7f5265656e7472616e637947756172643a207265656e7472616e742063616c6c00600082015250565b7f466c6f7720446f6573204e6f7420457869737473000000000000000000000000600082015250565b7f4f6e6c7920434641763120537570706f72746564000000000000000000000000600082015250565b6153a581614cc5565b81146153b057600080fd5b50565b6153bc81614cd7565b81146153c757600080fd5b50565b6153d381614ce3565b81146153de57600080fd5b50565b6153ea81614ced565b81146153f557600080fd5b50565b61540181614d19565b811461540c57600080fd5b50565b61541881614d2b565b811461542357600080fd5b50565b61542f81614d3d565b811461543a57600080fd5b50565b61544681614d47565b811461545157600080fd5b50565b61545d81614d74565b811461546857600080fd5b50565b61547481614d7e565b811461547f57600080fd5b5056fea2646970667358221220019974c9fa6a9af62ba544afdfa96c599a0c6ea9e9635a51396c72c0f25d25ae64736f6c63430008070033",
  "linkReferences": {},
  "deployedLinkReferences": {}
}