{
  "_format": "hh-sol-artifact-1",
  "contractName": "Rentor",
  "sourceName": "contracts/v3/Rentor.sol",
  "abi": [
    {
      "inputs": [
        {
          "internalType": "contract ISuperfluid",
          "name": "host",
          "type": "address"
        },
        {
          "internalType": "contract IConstantFlowAgreementV1",
          "name": "cfa",
          "type": "address"
        },
        {
          "internalType": "contract ISuperToken",
          "name": "acceptedToken",
          "type": "address"
        }
      ],
      "stateMutability": "nonpayable",
      "type": "constructor"
    },
    {
      "anonymous": false,
      "inputs": [
        {
          "indexed": false,
          "internalType": "address",
          "name": "bookAddress",
          "type": "address"
        },
        {
          "indexed": false,
          "internalType": "uint256",
          "name": "copyUid",
          "type": "uint256"
        }
      ],
      "name": "AddedToWaitingList",
      "type": "event"
    },
    {
      "anonymous": false,
      "inputs": [],
      "name": "AllBooksReturned",
      "type": "event"
    },
    {
      "anonymous": false,
      "inputs": [],
      "name": "BookPutOnRent",
      "type": "event"
    },
    {
      "anonymous": false,
      "inputs": [],
      "name": "BookRemovedFromRent",
      "type": "event"
    },
    {
      "anonymous": false,
      "inputs": [],
      "name": "BookReturned",
      "type": "event"
    },
    {
      "anonymous": false,
      "inputs": [],
      "name": "BookTakenOnRent",
      "type": "event"
    },
    {
      "anonymous": false,
      "inputs": [
        {
          "indexed": false,
          "internalType": "address",
          "name": "bookAddress",
          "type": "address"
        },
        {
          "indexed": false,
          "internalType": "uint256",
          "name": "copyUid",
          "type": "uint256"
        }
      ],
      "name": "RemovedFromWaitingList",
      "type": "event"
    },
    {
      "inputs": [
        {
          "internalType": "address",
          "name": "bookAddress",
          "type": "address"
        },
        {
          "internalType": "uint256",
          "name": "copyUid",
          "type": "uint256"
        }
      ],
      "name": "addToWaitingList",
      "outputs": [],
      "stateMutability": "nonpayable",
      "type": "function"
    },
    {
      "inputs": [
        {
          "internalType": "contract ISuperToken",
          "name": "_superToken",
          "type": "address"
        },
        {
          "internalType": "address",
          "name": "_agreementClass",
          "type": "address"
        },
        {
          "internalType": "bytes32",
          "name": "",
          "type": "bytes32"
        },
        {
          "internalType": "bytes",
          "name": "",
          "type": "bytes"
        },
        {
          "internalType": "bytes",
          "name": "",
          "type": "bytes"
        },
        {
          "internalType": "bytes",
          "name": "_ctx",
          "type": "bytes"
        }
      ],
      "name": "afterAgreementCreated",
      "outputs": [
        {
          "internalType": "bytes",
          "name": "newCtx",
          "type": "bytes"
        }
      ],
      "stateMutability": "nonpayable",
      "type": "function"
    },
    {
      "inputs": [
        {
          "internalType": "contract ISuperToken",
          "name": "_superToken",
          "type": "address"
        },
        {
          "internalType": "address",
          "name": "_agreementClass",
          "type": "address"
        },
        {
          "internalType": "bytes32",
          "name": "",
          "type": "bytes32"
        },
        {
          "internalType": "bytes",
          "name": "",
          "type": "bytes"
        },
        {
          "internalType": "bytes",
          "name": "",
          "type": "bytes"
        },
        {
          "internalType": "bytes",
          "name": "_ctx",
          "type": "bytes"
        }
      ],
      "name": "afterAgreementTerminated",
      "outputs": [
        {
          "internalType": "bytes",
          "name": "newCtx",
          "type": "bytes"
        }
      ],
      "stateMutability": "nonpayable",
      "type": "function"
    },
    {
      "inputs": [
        {
          "internalType": "contract ISuperToken",
          "name": "_superToken",
          "type": "address"
        },
        {
          "internalType": "address",
          "name": "_agreementClass",
          "type": "address"
        },
        {
          "internalType": "bytes32",
          "name": "",
          "type": "bytes32"
        },
        {
          "internalType": "bytes",
          "name": "",
          "type": "bytes"
        },
        {
          "internalType": "bytes",
          "name": "",
          "type": "bytes"
        },
        {
          "internalType": "bytes",
          "name": "_ctx",
          "type": "bytes"
        }
      ],
      "name": "afterAgreementUpdated",
      "outputs": [
        {
          "internalType": "bytes",
          "name": "newCtx",
          "type": "bytes"
        }
      ],
      "stateMutability": "nonpayable",
      "type": "function"
    },
    {
      "inputs": [
        {
          "internalType": "contract ISuperToken",
          "name": "",
          "type": "address"
        },
        {
          "internalType": "address",
          "name": "",
          "type": "address"
        },
        {
          "internalType": "bytes32",
          "name": "",
          "type": "bytes32"
        },
        {
          "internalType": "bytes",
          "name": "",
          "type": "bytes"
        },
        {
          "internalType": "bytes",
          "name": "",
          "type": "bytes"
        }
      ],
      "name": "beforeAgreementCreated",
      "outputs": [
        {
          "internalType": "bytes",
          "name": "",
          "type": "bytes"
        }
      ],
      "stateMutability": "view",
      "type": "function"
    },
    {
      "inputs": [
        {
          "internalType": "contract ISuperToken",
          "name": "",
          "type": "address"
        },
        {
          "internalType": "address",
          "name": "",
          "type": "address"
        },
        {
          "internalType": "bytes32",
          "name": "",
          "type": "bytes32"
        },
        {
          "internalType": "bytes",
          "name": "",
          "type": "bytes"
        },
        {
          "internalType": "bytes",
          "name": "",
          "type": "bytes"
        }
      ],
      "name": "beforeAgreementTerminated",
      "outputs": [
        {
          "internalType": "bytes",
          "name": "",
          "type": "bytes"
        }
      ],
      "stateMutability": "view",
      "type": "function"
    },
    {
      "inputs": [
        {
          "internalType": "contract ISuperToken",
          "name": "",
          "type": "address"
        },
        {
          "internalType": "address",
          "name": "",
          "type": "address"
        },
        {
          "internalType": "bytes32",
          "name": "",
          "type": "bytes32"
        },
        {
          "internalType": "bytes",
          "name": "",
          "type": "bytes"
        },
        {
          "internalType": "bytes",
          "name": "",
          "type": "bytes"
        }
      ],
      "name": "beforeAgreementUpdated",
      "outputs": [
        {
          "internalType": "bytes",
          "name": "",
          "type": "bytes"
        }
      ],
      "stateMutability": "view",
      "type": "function"
    },
    {
      "inputs": [
        {
          "internalType": "address",
          "name": "bookAddress",
          "type": "address"
        },
        {
          "internalType": "uint256",
          "name": "copyUid",
          "type": "uint256"
        },
        {
          "internalType": "int96",
          "name": "flowRate",
          "type": "int96"
        }
      ],
      "name": "putOnRent",
      "outputs": [],
      "stateMutability": "nonpayable",
      "type": "function"
    },
    {
      "inputs": [
        {
          "internalType": "address",
          "name": "bookAddress",
          "type": "address"
        },
        {
          "internalType": "uint256",
          "name": "copyUid",
          "type": "uint256"
        }
      ],
      "name": "removeFromRent",
      "outputs": [],
      "stateMutability": "nonpayable",
      "type": "function"
    },
    {
      "inputs": [
        {
          "internalType": "address",
          "name": "bookAddress",
          "type": "address"
        },
        {
          "internalType": "uint256",
          "name": "copyUid",
          "type": "uint256"
        }
      ],
      "name": "removeFromWaitingList",
      "outputs": [],
      "stateMutability": "nonpayable",
      "type": "function"
    },
    {
      "inputs": [
        {
          "internalType": "address",
          "name": "bookAddress",
          "type": "address"
        },
        {
          "internalType": "uint256",
          "name": "copyUid",
          "type": "uint256"
        }
      ],
      "name": "returnBook",
      "outputs": [],
      "stateMutability": "nonpayable",
      "type": "function"
    },
    {
      "inputs": [
        {
          "internalType": "address",
          "name": "bookAddress",
          "type": "address"
        },
        {
          "internalType": "uint256",
          "name": "copyUid",
          "type": "uint256"
        }
      ],
      "name": "takeOnRent",
      "outputs": [],
      "stateMutability": "nonpayable",
      "type": "function"
    },
    {
      "inputs": [
        {
          "internalType": "address",
          "name": "bookAddress",
          "type": "address"
        },
        {
          "internalType": "uint256",
          "name": "copyUid",
          "type": "uint256"
        }
      ],
      "name": "uri",
      "outputs": [
        {
          "internalType": "bytes32",
          "name": "",
          "type": "bytes32"
        }
      ],
      "stateMutability": "nonpayable",
      "type": "function"
    }
  ],
  "bytecode": "0x60806040523480156200001157600080fd5b50604051620058cd380380620058cd833981810160405281019062000037919062000356565b6001600081905550600073ffffffffffffffffffffffffffffffffffffffff168373ffffffffffffffffffffffffffffffffffffffff161415620000b2576040517f08c379a0000000000000000000000000000000000000000000000000000000008152600401620000a990620003ea565b60405180910390fd5b600073ffffffffffffffffffffffffffffffffffffffff168273ffffffffffffffffffffffffffffffffffffffff16141562000125576040517f08c379a00000000000000000000000000000000000000000000000000000000081526004016200011c90620003ea565b60405180910390fd5b600073ffffffffffffffffffffffffffffffffffffffff168173ffffffffffffffffffffffffffffffffffffffff16141562000198576040517f08c379a00000000000000000000000000000000000000000000000000000000081526004016200018f90620003ea565b60405180910390fd5b82600460006101000a81548173ffffffffffffffffffffffffffffffffffffffff021916908373ffffffffffffffffffffffffffffffffffffffff16021790555081600560006101000a81548173ffffffffffffffffffffffffffffffffffffffff021916908373ffffffffffffffffffffffffffffffffffffffff16021790555080600660006101000a81548173ffffffffffffffffffffffffffffffffffffffff021916908373ffffffffffffffffffffffffffffffffffffffff160217905550600064100000000064040000000064010000000060011717179050600460009054906101000a900473ffffffffffffffffffffffffffffffffffffffff1673ffffffffffffffffffffffffffffffffffffffff1663ad3915c8826040518263ffffffff1660e01b8152600401620002d391906200040c565b600060405180830381600087803b158015620002ee57600080fd5b505af115801562000303573d6000803e3d6000fd5b505050505050505062000530565b6000815190506200032281620004e2565b92915050565b6000815190506200033981620004fc565b92915050565b600081519050620003508162000516565b92915050565b600080600060608486031215620003725762000371620004b4565b5b600062000382868287016200033f565b9350506020620003958682870162000311565b9250506040620003a88682870162000328565b9150509250925092565b6000620003c160188362000429565b9150620003ce82620004b9565b602082019050919050565b620003e481620004aa565b82525050565b600060208201905081810360008301526200040581620003b2565b9050919050565b6000602082019050620004236000830184620003d9565b92915050565b600082825260208201905092915050565b600062000447826200048a565b9050919050565b60006200045b826200043a565b9050919050565b60006200046f826200043a565b9050919050565b600062000483826200043a565b9050919050565b600073ffffffffffffffffffffffffffffffffffffffff82169050919050565b6000819050919050565b600080fd5b7f5a65726f2041646472657373204e6f7420416c6c6f7765640000000000000000600082015250565b620004ed816200044e565b8114620004f957600080fd5b50565b620005078162000462565b81146200051357600080fd5b50565b620005218162000476565b81146200052d57600080fd5b50565b61538d80620005406000396000f3fe608060405234801561001057600080fd5b50600436106100cf5760003560e01c8063596d79641161008c578063884d1f4011610066578063884d1f40146102345780639a5fb1f114610264578063d86ed3e514610280578063e1b20416146102b0576100cf565b8063596d7964146101cc5780635f9e7d77146101e857806383a41e3c14610218576100cf565b80631071ebc7146100d4578063230dbd29146100f057806328205a93146101205780632e1f2df51461015057806330d9c9151461016c57806353c11f991461019c575b600080fd5b6100ee60048036038101906100e99190613bfa565b6102cc565b005b61010a60048036038101906101059190613e64565b61078d565b604051610117919061442d565b60405180910390f35b61013a60048036038101906101359190613bfa565b610c7f565b60405161014791906143ee565b60405180910390f35b61016a60048036038101906101659190613bfa565b610f86565b005b61018660048036038101906101819190613da8565b611022565b604051610193919061442d565b60405180910390f35b6101b660048036038101906101b19190613e64565b61105f565b6040516101c3919061442d565b60405180910390f35b6101e660048036038101906101e19190613bfa565b611308565b005b61020260048036038101906101fd9190613da8565b61168b565b60405161020f919061442d565b60405180910390f35b610232600480360381019061022d9190613bfa565b6116c8565b005b61024e60048036038101906102499190613da8565b611df0565b60405161025b919061442d565b60405180910390f35b61027e60048036038101906102799190613bfa565b611e2d565b005b61029a60048036038101906102959190613e64565b611ec9565b6040516102a7919061442d565b60405180910390f35b6102ca60048036038101906102c59190613c3a565b61225a565b005b60026000541415610312576040517f08c379a0000000000000000000000000000000000000000000000000000000008152600401610309906147b9565b60405180910390fd5b600260008190555061032333612681565b6000600260008473ffffffffffffffffffffffffffffffffffffffff1673ffffffffffffffffffffffffffffffffffffffff16815260200190815260200160002060008381526020019081526020016000206040518060600160405290816000820160009054906101000a900473ffffffffffffffffffffffffffffffffffffffff1673ffffffffffffffffffffffffffffffffffffffff1673ffffffffffffffffffffffffffffffffffffffff1681526020016001820160009054906101000a900473ffffffffffffffffffffffffffffffffffffffff1673ffffffffffffffffffffffffffffffffffffffff1673ffffffffffffffffffffffffffffffffffffffff1681526020016001820160149054906101000a9004600b0b600b0b600b0b815250509050600073ffffffffffffffffffffffffffffffffffffffff16816000015173ffffffffffffffffffffffffffffffffffffffff1614156104bf576040517f08c379a00000000000000000000000000000000000000000000000000000000081526004016104b690614639565b60405180910390fd5b600073ffffffffffffffffffffffffffffffffffffffff16816020015173ffffffffffffffffffffffffffffffffffffffff1614610532576040517f08c379a000000000000000000000000000000000000000000000000000000000815260040161052990614659565b60405180910390fd5b8060400151600b0b61054333612716565b600b0b1215610587576040517f08c379a000000000000000000000000000000000000000000000000000000000815260040161057e906146d9565b60405180910390fd5b33600260008573ffffffffffffffffffffffffffffffffffffffff1673ffffffffffffffffffffffffffffffffffffffff168152602001908152602001600020600084815260200190815260200160002060010160006101000a81548173ffffffffffffffffffffffffffffffffffffffff021916908373ffffffffffffffffffffffffffffffffffffffff160217905550600360003373ffffffffffffffffffffffffffffffffffffffff1673ffffffffffffffffffffffffffffffffffffffff16815260200190815260200160002060405180604001604052808573ffffffffffffffffffffffffffffffffffffffff16815260200184815250908060018154018082558091505060019003906000526020600020906002020160009091909190915060008201518160000160006101000a81548173ffffffffffffffffffffffffffffffffffffffff021916908373ffffffffffffffffffffffffffffffffffffffff1602179055506020820151816001015550506107423361073d7fffffffffffffffffffffffffffffffffffffffffffffffffffffffffffffffff8460400151600b0b6127f890919063ffffffff16565b612913565b61075481600001518260400151612913565b7f16635825f3096ef2a4a10c7683500587f2f009e32b6bd5be581a368f2710353e60405160405180910390a15060016000819055505050565b6060898961079a82612b48565b6107d9576040517f08c379a00000000000000000000000000000000000000000000000000000000081526004016107d090614779565b60405180910390fd5b6107e281612ba2565b610821576040517f08c379a0000000000000000000000000000000000000000000000000000000008152600401610818906147f9565b60405180910390fd5b600460009054906101000a900473ffffffffffffffffffffffffffffffffffffffff1673ffffffffffffffffffffffffffffffffffffffff163373ffffffffffffffffffffffffffffffffffffffff16146108b1576040517f08c379a00000000000000000000000000000000000000000000000000000000081526004016108a8906145f9565b60405180910390fd5b6000600460009054906101000a900473ffffffffffffffffffffffffffffffffffffffff1673ffffffffffffffffffffffffffffffffffffffff16633f6c923a87876040518363ffffffff1660e01b8152600401610910929190614409565b60006040518083038186803b15801561092857600080fd5b505afa15801561093c573d6000803e3d6000fd5b505050506040513d6000823e3d601f19601f820116820180604052508101906109659190613f53565b90506000600560009054906101000a900473ffffffffffffffffffffffffffffffffffffffff1673ffffffffffffffffffffffffffffffffffffffff1663e6a1e888600660009054906101000a900473ffffffffffffffffffffffffffffffffffffffff168460600151306040518463ffffffff1660e01b81526004016109ee939291906144ea565b60806040518083038186803b158015610a0657600080fd5b505afa158015610a1a573d6000803e3d6000fd5b505050506040513d601f19601f82011682018060405250810190610a3e9190613f9c565b50509150506000610a528360600151612716565b9050610aba8160016000866060015173ffffffffffffffffffffffffffffffffffffffff1673ffffffffffffffffffffffffffffffffffffffff16815260200190815260200160002060009054906101000a9004600b0b600b0b612c4b90919063ffffffff16565b600b0b82600b0b12610b8557610b7e8360600151610b3460016000876060015173ffffffffffffffffffffffffffffffffffffffff1673ffffffffffffffffffffffffffffffffffffffff16815260200190815260200160002060009054906101000a9004600b0b85600b0b612c4b90919063ffffffff16565b8a8a8080601f016020809104026020016040519081016040528093929190818152602001838380828437600081840152601f19601f82011690508083019250505050505050612cde565b9550610bf8565b610bd7836060015189898080601f016020809104026020016040519081016040528093929190818152602001838380828437600081840152601f19601f82011690508083019250505050505050612f1e565b9550610be683606001516130ed565b610bf583606001518388613619565b95505b8160016000856060015173ffffffffffffffffffffffffffffffffffffffff1673ffffffffffffffffffffffffffffffffffffffff16815260200190815260200160002060006101000a8154816bffffffffffffffffffffffff0219169083600b0b6bffffffffffffffffffffffff16021790555050505050509998505050505050505050565b600060026000541415610cc7576040517f08c379a0000000000000000000000000000000000000000000000000000000008152600401610cbe906147b9565b60405180910390fd5b6002600081905550610cd833612681565b6000600260008573ffffffffffffffffffffffffffffffffffffffff1673ffffffffffffffffffffffffffffffffffffffff16815260200190815260200160002060008481526020019081526020016000206040518060600160405290816000820160009054906101000a900473ffffffffffffffffffffffffffffffffffffffff1673ffffffffffffffffffffffffffffffffffffffff1673ffffffffffffffffffffffffffffffffffffffff1681526020016001820160009054906101000a900473ffffffffffffffffffffffffffffffffffffffff1673ffffffffffffffffffffffffffffffffffffffff1673ffffffffffffffffffffffffffffffffffffffff1681526020016001820160149054906101000a9004600b0b600b0b600b0b815250509050600073ffffffffffffffffffffffffffffffffffffffff16816000015173ffffffffffffffffffffffffffffffffffffffff161415610e74576040517f08c379a0000000000000000000000000000000000000000000000000000000008152600401610e6b90614639565b60405180910390fd5b3373ffffffffffffffffffffffffffffffffffffffff16816020015173ffffffffffffffffffffffffffffffffffffffff1614610ee6576040517f08c379a0000000000000000000000000000000000000000000000000000000008152600401610edd90614799565b60405180910390fd5b60008490508073ffffffffffffffffffffffffffffffffffffffff16630e89341c856040518263ffffffff1660e01b8152600401610f249190614819565b60206040518083038186803b158015610f3c57600080fd5b505afa158015610f50573d6000803e3d6000fd5b505050506040513d601f19601f82011682018060405250810190610f749190613cba565b92505050600160008190555092915050565b60026000541415610fcc576040517f08c379a0000000000000000000000000000000000000000000000000000000008152600401610fc3906147b9565b60405180910390fd5b6002600081905550610fdd33612681565b7f68bf9728079a47aa9e2e48e5a4db990a54e498856633b751fe487637042a3fa1828260405161100e92919061438e565b60405180910390a160016000819055505050565b60606040517f08c379a000000000000000000000000000000000000000000000000000000000815260040161105690614739565b60405180910390fd5b6060898961106c82612b48565b6110ab576040517f08c379a00000000000000000000000000000000000000000000000000000000081526004016110a290614779565b60405180910390fd5b6110b481612ba2565b6110f3576040517f08c379a00000000000000000000000000000000000000000000000000000000081526004016110ea906147f9565b60405180910390fd5b600460009054906101000a900473ffffffffffffffffffffffffffffffffffffffff1673ffffffffffffffffffffffffffffffffffffffff163373ffffffffffffffffffffffffffffffffffffffff1614611183576040517f08c379a000000000000000000000000000000000000000000000000000000000815260040161117a906145f9565b60405180910390fd5b6000600460009054906101000a900473ffffffffffffffffffffffffffffffffffffffff1673ffffffffffffffffffffffffffffffffffffffff16633f6c923a87876040518363ffffffff1660e01b81526004016111e2929190614409565b60006040518083038186803b1580156111fa57600080fd5b505afa15801561120e573d6000803e3d6000fd5b505050506040513d6000823e3d601f19601f820116820180604052508101906112379190613f53565b905061128b816060015187878080601f016020809104026020016040519081016040528093929190818152602001838380828437600081840152601f19601f82011690508083019250505050505050612f1e565b935061129a81606001516130ed565b60016000826060015173ffffffffffffffffffffffffffffffffffffffff1673ffffffffffffffffffffffffffffffffffffffff16815260200190815260200160002060006101000a8154906bffffffffffffffffffffffff02191690555050509998505050505050505050565b6002600054141561134e576040517f08c379a0000000000000000000000000000000000000000000000000000000008152600401611345906147b9565b60405180910390fd5b600260008190555061135f33612681565b3373ffffffffffffffffffffffffffffffffffffffff16600260008473ffffffffffffffffffffffffffffffffffffffff1673ffffffffffffffffffffffffffffffffffffffff168152602001908152602001600020600083815260200190815260200160002060000160009054906101000a900473ffffffffffffffffffffffffffffffffffffffff1673ffffffffffffffffffffffffffffffffffffffff1614611440576040517f08c379a000000000000000000000000000000000000000000000000000000000815260040161143790614799565b60405180910390fd5b600073ffffffffffffffffffffffffffffffffffffffff16600260008473ffffffffffffffffffffffffffffffffffffffff1673ffffffffffffffffffffffffffffffffffffffff168152602001908152602001600020600083815260200190815260200160002060010160009054906101000a900473ffffffffffffffffffffffffffffffffffffffff1673ffffffffffffffffffffffffffffffffffffffff1614611522576040517f08c379a000000000000000000000000000000000000000000000000000000000815260040161151990614699565b60405180910390fd5b600260008373ffffffffffffffffffffffffffffffffffffffff1673ffffffffffffffffffffffffffffffffffffffff1681526020019081526020016000206000828152602001908152602001600020600080820160006101000a81549073ffffffffffffffffffffffffffffffffffffffff02191690556001820160006101000a81549073ffffffffffffffffffffffffffffffffffffffff02191690556001820160146101000a8154906bffffffffffffffffffffffff0219169055505060008290508073ffffffffffffffffffffffffffffffffffffffff16636198e339836040518263ffffffff1660e01b81526004016116209190614819565b600060405180830381600087803b15801561163a57600080fd5b505af115801561164e573d6000803e3d6000fd5b505050507fd728226a9e4b9f6c3b72aedf07853109890865886a7e2eef520303933f017d7f60405160405180910390a15060016000819055505050565b60606040517f08c379a00000000000000000000000000000000000000000000000000000000081526004016116bf906145b9565b60405180910390fd5b6002600054141561170e576040517f08c379a0000000000000000000000000000000000000000000000000000000008152600401611705906147b9565b60405180910390fd5b600260008190555061171f33612681565b6000600260008473ffffffffffffffffffffffffffffffffffffffff1673ffffffffffffffffffffffffffffffffffffffff16815260200190815260200160002060008381526020019081526020016000206040518060600160405290816000820160009054906101000a900473ffffffffffffffffffffffffffffffffffffffff1673ffffffffffffffffffffffffffffffffffffffff1673ffffffffffffffffffffffffffffffffffffffff1681526020016001820160009054906101000a900473ffffffffffffffffffffffffffffffffffffffff1673ffffffffffffffffffffffffffffffffffffffff1673ffffffffffffffffffffffffffffffffffffffff1681526020016001820160149054906101000a9004600b0b600b0b600b0b8152505090503373ffffffffffffffffffffffffffffffffffffffff16816020015173ffffffffffffffffffffffffffffffffffffffff16146118b9576040517f08c379a00000000000000000000000000000000000000000000000000000000081526004016118b090614799565b60405180910390fd5b61190081600001516118fb7fffffffffffffffffffffffffffffffffffffffffffffffffffffffffffffffff8460400151600b0b6127f890919063ffffffff16565b612913565b6000600260008573ffffffffffffffffffffffffffffffffffffffff1673ffffffffffffffffffffffffffffffffffffffff168152602001908152602001600020600084815260200190815260200160002060010160006101000a81548173ffffffffffffffffffffffffffffffffffffffff021916908373ffffffffffffffffffffffffffffffffffffffff16021790555060005b600360003373ffffffffffffffffffffffffffffffffffffffff1673ffffffffffffffffffffffffffffffffffffffff16815260200190815260200160002080549050811015611da8578373ffffffffffffffffffffffffffffffffffffffff16600360003373ffffffffffffffffffffffffffffffffffffffff1673ffffffffffffffffffffffffffffffffffffffff1681526020019081526020016000208281548110611a4857611a47614dc2565b5b906000526020600020906002020160000160009054906101000a900473ffffffffffffffffffffffffffffffffffffffff1673ffffffffffffffffffffffffffffffffffffffff16148015611afe575082600360003373ffffffffffffffffffffffffffffffffffffffff1673ffffffffffffffffffffffffffffffffffffffff1681526020019081526020016000208281548110611aea57611ae9614dc2565b5b906000526020600020906002020160010154145b15611d955760008190505b6001600360003373ffffffffffffffffffffffffffffffffffffffff1673ffffffffffffffffffffffffffffffffffffffff16815260200190815260200160002080549050611b589190614b66565b811015611cb057600360003373ffffffffffffffffffffffffffffffffffffffff1673ffffffffffffffffffffffffffffffffffffffff168152602001908152602001600020600182611bab9190614937565b81548110611bbc57611bbb614dc2565b5b9060005260206000209060020201600360003373ffffffffffffffffffffffffffffffffffffffff1673ffffffffffffffffffffffffffffffffffffffff1681526020019081526020016000208281548110611c1b57611c1a614dc2565b5b90600052602060002090600202016000820160009054906101000a900473ffffffffffffffffffffffffffffffffffffffff168160000160006101000a81548173ffffffffffffffffffffffffffffffffffffffff021916908373ffffffffffffffffffffffffffffffffffffffff160217905550600182015481600101559050508080611ca890614d1b565b915050611b09565b50600360003373ffffffffffffffffffffffffffffffffffffffff1673ffffffffffffffffffffffffffffffffffffffff1681526020019081526020016000206001600360003373ffffffffffffffffffffffffffffffffffffffff1673ffffffffffffffffffffffffffffffffffffffff16815260200190815260200160002080549050611d3f9190614b66565b81548110611d5057611d4f614dc2565b5b9060005260206000209060020201600080820160006101000a81549073ffffffffffffffffffffffffffffffffffffffff021916905560018201600090555050611da8565b8080611da090614d1b565b915050611996565b50611db7338260400151612913565b7f889e12980650874a46b6f9163fd909abfdd7bd4617b9656ef7da94c0f4baa2e160405160405180910390a15060016000819055505050565b60606040517f08c379a0000000000000000000000000000000000000000000000000000000008152600401611e2490614719565b60405180910390fd5b60026000541415611e73576040517f08c379a0000000000000000000000000000000000000000000000000000000008152600401611e6a906147b9565b60405180910390fd5b6002600081905550611e8433612681565b7f89c4132bd693e8f4611111a67a5c1956b38aff59ae0b613b03184efa8c5a742b8282604051611eb592919061438e565b60405180910390a160016000819055505050565b60608989611ed682612b48565b611f15576040517f08c379a0000000000000000000000000000000000000000000000000000000008152600401611f0c90614779565b60405180910390fd5b611f1e81612ba2565b611f5d576040517f08c379a0000000000000000000000000000000000000000000000000000000008152600401611f54906147f9565b60405180910390fd5b600460009054906101000a900473ffffffffffffffffffffffffffffffffffffffff1673ffffffffffffffffffffffffffffffffffffffff163373ffffffffffffffffffffffffffffffffffffffff1614611fed576040517f08c379a0000000000000000000000000000000000000000000000000000000008152600401611fe4906145f9565b60405180910390fd5b6000600460009054906101000a900473ffffffffffffffffffffffffffffffffffffffff1673ffffffffffffffffffffffffffffffffffffffff16633f6c923a87876040518363ffffffff1660e01b815260040161204c929190614409565b60006040518083038186803b15801561206457600080fd5b505afa158015612078573d6000803e3d6000fd5b505050506040513d6000823e3d601f19601f820116820180604052508101906120a19190613f53565b90506000600560009054906101000a900473ffffffffffffffffffffffffffffffffffffffff1673ffffffffffffffffffffffffffffffffffffffff1663e6a1e888600660009054906101000a900473ffffffffffffffffffffffffffffffffffffffff168460600151306040518463ffffffff1660e01b815260040161212a939291906144ea565b60806040518083038186803b15801561214257600080fd5b505afa158015612156573d6000803e3d6000fd5b505050506040513d601f19601f8201168201806040525081019061217a9190613f9c565b50509150508060016000846060015173ffffffffffffffffffffffffffffffffffffffff1673ffffffffffffffffffffffffffffffffffffffff16815260200190815260200160002060006101000a8154816bffffffffffffffffffffffff0219169083600b0b6bffffffffffffffffffffffff16021790555061224782606001518289898080601f016020809104026020016040519081016040528093929190818152602001838380828437600081840152601f19601f82011690508083019250505050505050613619565b9450505050509998505050505050505050565b600260005414156122a0576040517f08c379a0000000000000000000000000000000000000000000000000000000008152600401612297906147b9565b60405180910390fd5b60026000819055506122b133612681565b60008390508073ffffffffffffffffffffffffffffffffffffffff1663f8fbea34338560006040518463ffffffff1660e01b81526004016122f4939291906143b7565b60206040518083038186803b15801561230c57600080fd5b505afa158015612320573d6000803e3d6000fd5b505050506040513d601f19601f820116820180604052508101906123449190613c8d565b612383576040517f08c379a000000000000000000000000000000000000000000000000000000000815260040161237a90614799565b60405180910390fd5b8073ffffffffffffffffffffffffffffffffffffffff1663fa12317230856040518363ffffffff1660e01b81526004016123be92919061438e565b60206040518083038186803b1580156123d657600080fd5b505afa1580156123ea573d6000803e3d6000fd5b505050506040513d601f19601f8201168201806040525081019061240e9190613c8d565b61244d576040517f08c379a0000000000000000000000000000000000000000000000000000000008152600401612444906146b9565b60405180910390fd5b600073ffffffffffffffffffffffffffffffffffffffff16600260008673ffffffffffffffffffffffffffffffffffffffff1673ffffffffffffffffffffffffffffffffffffffff168152602001908152602001600020600085815260200190815260200160002060000160009054906101000a900473ffffffffffffffffffffffffffffffffffffffff1673ffffffffffffffffffffffffffffffffffffffff161415612530576040517f08c379a000000000000000000000000000000000000000000000000000000000815260040161252790614619565b60405180910390fd5b33600260008673ffffffffffffffffffffffffffffffffffffffff1673ffffffffffffffffffffffffffffffffffffffff168152602001908152602001600020600085815260200190815260200160002060000160006101000a81548173ffffffffffffffffffffffffffffffffffffffff021916908373ffffffffffffffffffffffffffffffffffffffff16021790555081600260008673ffffffffffffffffffffffffffffffffffffffff1673ffffffffffffffffffffffffffffffffffffffff168152602001908152602001600020600085815260200190815260200160002060010160146101000a8154816bffffffffffffffffffffffff0219169083600b0b6bffffffffffffffffffffffff1602179055507fb046c7ba13bfcce7b088d712153941ee5f069a39d7f265296990a1613b3ea39660405160405180910390a1506001600081905550505050565b6000600160008373ffffffffffffffffffffffffffffffffffffffff1673ffffffffffffffffffffffffffffffffffffffff16815260200190815260200160002060009054906101000a9004600b0b600b0b13612713576040517f08c379a000000000000000000000000000000000000000000000000000000000815260040161270a906147d9565b60405180910390fd5b50565b600080600560009054906101000a900473ffffffffffffffffffffffffffffffffffffffff1673ffffffffffffffffffffffffffffffffffffffff1663e6a1e888600660009054906101000a900473ffffffffffffffffffffffffffffffffffffffff1630866040518463ffffffff1660e01b815260040161279a939291906144ea565b60806040518083038186803b1580156127b257600080fd5b505afa1580156127c6573d6000803e3d6000fd5b505050506040513d601f19601f820116820180604052508101906127ea9190613f9c565b505091505080915050919050565b60008083600b0b141561280e576000905061290d565b7fffffffffffffffffffffffffffffffffffffffffffffffffffffffffffffffff83600b0b14801561286557507fffffffffffffffffffffffffffffffffffffffff800000000000000000000000600b0b82600b0b145b156128a5576040517f08c379a000000000000000000000000000000000000000000000000000000000815260040161289c906146f9565b60405180910390fd5b600082846128b391906149f7565b905082600b0b84826128c5919061498d565b600b0b14612908576040517f08c379a00000000000000000000000000000000000000000000000000000000081526004016128ff906146f9565b60405180910390fd5b809150505b92915050565b600061291e83612716565b905060006129388383600b0b6137e990919063ffffffff16565b9050600081600b0b1215612981576040517f08c379a000000000000000000000000000000000000000000000000000000000815260040161297890614679565b60405180910390fd5b600460009054906101000a900473ffffffffffffffffffffffffffffffffffffffff1673ffffffffffffffffffffffffffffffffffffffff166339255d5b600560009054906101000a900473ffffffffffffffffffffffffffffffffffffffff166350209a6260e01b600660009054906101000a900473ffffffffffffffffffffffffffffffffffffffff168886600067ffffffffffffffff811115612a2a57612a29614df1565b5b6040519080825280601f01601f191660200182016040528015612a5c5781602001600182028036833780820191505090505b50604051602401612a70949392919061456d565b604051602081830303815290604052907bffffffffffffffffffffffffffffffffffffffffffffffffffffffff19166020820180517bffffffffffffffffffffffffffffffffffffffffffffffffffffffff83818316178352505050506040518363ffffffff1660e01b8152600401612aea92919061444f565b600060405180830381600087803b158015612b0457600080fd5b505af1158015612b18573d6000803e3d6000fd5b505050506040513d6000823e3d601f19601f82011682018060405250810190612b419190613ce7565b5050505050565b6000600660009054906101000a900473ffffffffffffffffffffffffffffffffffffffff1673ffffffffffffffffffffffffffffffffffffffff168273ffffffffffffffffffffffffffffffffffffffff16149050919050565b60007fa9214cc96615e0085d3bb077758db69497dc2dce3b2b1e97bc93c3d18d83efd38273ffffffffffffffffffffffffffffffffffffffff16637730599e6040518163ffffffff1660e01b815260040160206040518083038186803b158015612c0b57600080fd5b505afa158015612c1f573d6000803e3d6000fd5b505050506040513d601f19601f82011682018060405250810190612c439190613cba565b149050919050565b6000808284612c5a9190614ae6565b9050600083600b0b12158015612c76575083600b0b81600b0b13155b80612c955750600083600b0b128015612c94575083600b0b81600b0b135b5b612cd4576040517f08c379a0000000000000000000000000000000000000000000000000000000008152600401612ccb90614759565b60405180910390fd5b8091505092915050565b60606000612ceb85612716565b90506000612d058583600b0b6137e990919063ffffffff16565b9050600081600b0b1215612d4e576040517f08c379a0000000000000000000000000000000000000000000000000000000008152600401612d4590614679565b60405180910390fd5b600460009054906101000a900473ffffffffffffffffffffffffffffffffffffffff1673ffffffffffffffffffffffffffffffffffffffff16634329d293600560009054906101000a900473ffffffffffffffffffffffffffffffffffffffff166350209a6260e01b600660009054906101000a900473ffffffffffffffffffffffffffffffffffffffff168a86600067ffffffffffffffff811115612df757612df6614df1565b5b6040519080825280601f01601f191660200182016040528015612e295781602001600182028036833780820191505090505b50604051602401612e3d949392919061456d565b604051602081830303815290604052907bffffffffffffffffffffffffffffffffffffffffffffffffffffffff19166020820180517bffffffffffffffffffffffffffffffffffffffffffffffffffffffff8381831617835250505050876040518463ffffffff1660e01b8152600401612eb993929190614492565b600060405180830381600087803b158015612ed357600080fd5b505af1158015612ee7573d6000803e3d6000fd5b505050506040513d6000823e3d601f19601f82011682018060405250810190612f109190613d30565b508093505050509392505050565b6060600460009054906101000a900473ffffffffffffffffffffffffffffffffffffffff1673ffffffffffffffffffffffffffffffffffffffff16634329d293600560009054906101000a900473ffffffffffffffffffffffffffffffffffffffff1663b4b333c660e01b600660009054906101000a900473ffffffffffffffffffffffffffffffffffffffff163088600067ffffffffffffffff811115612fc957612fc8614df1565b5b6040519080825280601f01601f191660200182016040528015612ffb5781602001600182028036833780820191505090505b5060405160240161300f9493929190614521565b604051602081830303815290604052907bffffffffffffffffffffffffffffffffffffffffffffffffffffffff19166020820180517bffffffffffffffffffffffffffffffffffffffffffffffffffffffff8381831617835250505050856040518463ffffffff1660e01b815260040161308b93929190614492565b600060405180830381600087803b1580156130a557600080fd5b505af11580156130b9573d6000803e3d6000fd5b505050506040513d6000823e3d601f19601f820116820180604052508101906130e29190613d30565b508091505092915050565b60005b600360008373ffffffffffffffffffffffffffffffffffffffff1673ffffffffffffffffffffffffffffffffffffffff1681526020019081526020016000208054905081101561359e5761341460026000600360008673ffffffffffffffffffffffffffffffffffffffff1673ffffffffffffffffffffffffffffffffffffffff168152602001908152602001600020848154811061319257613191614dc2565b5b906000526020600020906002020160000160009054906101000a900473ffffffffffffffffffffffffffffffffffffffff1673ffffffffffffffffffffffffffffffffffffffff1673ffffffffffffffffffffffffffffffffffffffff1681526020019081526020016000206000600360008673ffffffffffffffffffffffffffffffffffffffff1673ffffffffffffffffffffffffffffffffffffffff168152602001908152602001600020848154811061325157613250614dc2565b5b906000526020600020906002020160010154815260200190815260200160002060000160009054906101000a900473ffffffffffffffffffffffffffffffffffffffff1661340f7fffffffffffffffffffffffffffffffffffffffffffffffffffffffffffffffff60026000600360008973ffffffffffffffffffffffffffffffffffffffff1673ffffffffffffffffffffffffffffffffffffffff168152602001908152602001600020878154811061330e5761330d614dc2565b5b906000526020600020906002020160000160009054906101000a900473ffffffffffffffffffffffffffffffffffffffff1673ffffffffffffffffffffffffffffffffffffffff1673ffffffffffffffffffffffffffffffffffffffff1681526020019081526020016000206000600360008973ffffffffffffffffffffffffffffffffffffffff1673ffffffffffffffffffffffffffffffffffffffff16815260200190815260200160002087815481106133cd576133cc614dc2565b5b906000526020600020906002020160010154815260200190815260200160002060010160149054906101000a9004600b0b600b0b6127f890919063ffffffff16565b612913565b600060026000600360008673ffffffffffffffffffffffffffffffffffffffff1673ffffffffffffffffffffffffffffffffffffffff168152602001908152602001600020848154811061346b5761346a614dc2565b5b906000526020600020906002020160000160009054906101000a900473ffffffffffffffffffffffffffffffffffffffff1673ffffffffffffffffffffffffffffffffffffffff1673ffffffffffffffffffffffffffffffffffffffff1681526020019081526020016000206000600360008673ffffffffffffffffffffffffffffffffffffffff1673ffffffffffffffffffffffffffffffffffffffff168152602001908152602001600020848154811061352a57613529614dc2565b5b906000526020600020906002020160010154815260200190815260200160002060010160006101000a81548173ffffffffffffffffffffffffffffffffffffffff021916908373ffffffffffffffffffffffffffffffffffffffff160217905550808061359690614d1b565b9150506130f0565b50600360008273ffffffffffffffffffffffffffffffffffffffff1673ffffffffffffffffffffffffffffffffffffffff16815260200190815260200160002060006135ea919061387c565b7fb33d8ce765101106be33329754bab11da1c08d365e11fd0f7962fd2cf4f3daff60405160405180910390a150565b6060600460009054906101000a900473ffffffffffffffffffffffffffffffffffffffff1673ffffffffffffffffffffffffffffffffffffffff16634329d293600560009054906101000a900473ffffffffffffffffffffffffffffffffffffffff166362fc305e60e01b600660009054906101000a900473ffffffffffffffffffffffffffffffffffffffff168888600067ffffffffffffffff8111156136c4576136c3614df1565b5b6040519080825280601f01601f1916602001820160405280156136f65781602001600182028036833780820191505090505b5060405160240161370a949392919061456d565b604051602081830303815290604052907bffffffffffffffffffffffffffffffffffffffffffffffffffffffff19166020820180517bffffffffffffffffffffffffffffffffffffffffffffffffffffffff8381831617835250505050856040518463ffffffff1660e01b815260040161378693929190614492565b600060405180830381600087803b1580156137a057600080fd5b505af11580156137b4573d6000803e3d6000fd5b505050506040513d6000823e3d601f19601f820116820180604052508101906137dd9190613d30565b50809150509392505050565b60008082846137f891906148b7565b9050600083600b0b12158015613814575083600b0b81600b0b12155b806138335750600083600b0b128015613832575083600b0b81600b0b125b5b613872576040517f08c379a0000000000000000000000000000000000000000000000000000000008152600401613869906145d9565b60405180910390fd5b8091505092915050565b508054600082556002029060005260206000209081019061389d91906138a0565b50565b5b808211156138e257600080820160006101000a81549073ffffffffffffffffffffffffffffffffffffffff02191690556001820160009055506002016138a1565b5090565b60006138f96138f484614859565b614834565b90508281526020810184848401111561391557613914614e39565b5b613920848285614cb7565b509392505050565b60008135905061393781615271565b92915050565b60008151905061394c81615271565b92915050565b60008151905061396181615288565b92915050565b6000813590506139768161529f565b92915050565b60008151905061398b8161529f565b92915050565b6000815190506139a0816152b6565b92915050565b60008083601f8401126139bc576139bb614e25565b5b8235905067ffffffffffffffff8111156139d9576139d8614e20565b5b6020830191508360018202830111156139f5576139f4614e34565b5b9250929050565b600082601f830112613a1157613a10614e25565b5b8151613a218482602086016138e6565b91505092915050565b600081359050613a39816152cd565b92915050565b600081519050613a4e816152e4565b92915050565b600081519050613a63816152fb565b92915050565b600081359050613a7881615312565b92915050565b600081519050613a8d81615312565b92915050565b60006101608284031215613aaa57613aa9614e2a565b5b613ab5610160614834565b90506000613ac584828501613be5565b6000830152506020613ad984828501613be5565b6020830152506040613aed84828501613bd0565b6040830152506060613b018482850161393d565b6060830152506080613b1584828501613991565b60808301525060a082015167ffffffffffffffff811115613b3957613b38614e2f565b5b613b45848285016139fc565b60a08301525060c0613b5984828501613bd0565b60c08301525060e0613b6d84828501613bd0565b60e083015250610100613b8284828501613a54565b61010083015250610120613b988482850161393d565b61012083015250610140613bae84828501613a3f565b6101408301525092915050565b600081359050613bca81615329565b92915050565b600081519050613bdf81615329565b92915050565b600081519050613bf481615340565b92915050565b60008060408385031215613c1157613c10614e43565b5b6000613c1f85828601613928565b9250506020613c3085828601613bbb565b9150509250929050565b600080600060608486031215613c5357613c52614e43565b5b6000613c6186828701613928565b9350506020613c7286828701613bbb565b9250506040613c8386828701613a69565b9150509250925092565b600060208284031215613ca357613ca2614e43565b5b6000613cb184828501613952565b91505092915050565b600060208284031215613cd057613ccf614e43565b5b6000613cde8482850161397c565b91505092915050565b600060208284031215613cfd57613cfc614e43565b5b600082015167ffffffffffffffff811115613d1b57613d1a614e3e565b5b613d27848285016139fc565b91505092915050565b60008060408385031215613d4757613d46614e43565b5b600083015167ffffffffffffffff811115613d6557613d64614e3e565b5b613d71858286016139fc565b925050602083015167ffffffffffffffff811115613d9257613d91614e3e565b5b613d9e858286016139fc565b9150509250929050565b600080600080600080600060a0888a031215613dc757613dc6614e43565b5b6000613dd58a828b01613a2a565b9750506020613de68a828b01613928565b9650506040613df78a828b01613967565b955050606088013567ffffffffffffffff811115613e1857613e17614e3e565b5b613e248a828b016139a6565b9450945050608088013567ffffffffffffffff811115613e4757613e46614e3e565b5b613e538a828b016139a6565b925092505092959891949750929550565b600080600080600080600080600060c08a8c031215613e8657613e85614e43565b5b6000613e948c828d01613a2a565b9950506020613ea58c828d01613928565b9850506040613eb68c828d01613967565b97505060608a013567ffffffffffffffff811115613ed757613ed6614e3e565b5b613ee38c828d016139a6565b965096505060808a013567ffffffffffffffff811115613f0657613f05614e3e565b5b613f128c828d016139a6565b945094505060a08a013567ffffffffffffffff811115613f3557613f34614e3e565b5b613f418c828d016139a6565b92509250509295985092959850929598565b600060208284031215613f6957613f68614e43565b5b600082015167ffffffffffffffff811115613f8757613f86614e3e565b5b613f9384828501613a93565b91505092915050565b60008060008060808587031215613fb657613fb5614e43565b5b6000613fc487828801613bd0565b9450506020613fd587828801613a7e565b9350506040613fe687828801613bd0565b9250506060613ff787828801613bd0565b91505092959194509250565b61400c81614b9a565b82525050565b61401b81614bac565b82525050565b61402a81614bb8565b82525050565b600061403c8385614895565b9350614049838584614ca8565b61405283614e48565b840190509392505050565b60006140688261488a565b6140728185614895565b9350614082818560208601614cb7565b61408b81614e48565b840191505092915050565b61409f81614c60565b82525050565b6140ae81614c72565b82525050565b6140bd81614c1c565b82525050565b60006140d06033836148a6565b91506140db82614e59565b604082019050919050565b60006140f3600283614895565b91506140fe82614ea8565b602082019050919050565b60006141166021836148a6565b915061412182614ed1565b604082019050919050565b60006141396015836148a6565b915061414482614f20565b602082019050919050565b600061415c600f836148a6565b915061416782614f49565b602082019050919050565b600061417f6016836148a6565b915061418a82614f72565b602082019050919050565b60006141a2600e836148a6565b91506141ad82614f9b565b602082019050919050565b60006141c56018836148a6565b91506141d082614fc4565b602082019050919050565b60006141e86011836148a6565b91506141f382614fed565b602082019050919050565b600061420b600f836148a6565b915061421682615016565b602082019050919050565b600061422e6019836148a6565b91506142398261503f565b602082019050919050565b60006142516027836148a6565b915061425c82615068565b604082019050919050565b6000614274602f836148a6565b915061427f826150b7565b604082019050919050565b6000614297602f836148a6565b91506142a282615106565b604082019050919050565b60006142ba6024836148a6565b91506142c582615155565b604082019050919050565b60006142dd6012836148a6565b91506142e8826151a4565b602082019050919050565b60006143006015836148a6565b915061430b826151cd565b602082019050919050565b6000614323601f836148a6565b915061432e826151f6565b602082019050919050565b60006143466014836148a6565b91506143518261521f565b602082019050919050565b60006143696014836148a6565b915061437482615248565b602082019050919050565b61438881614c49565b82525050565b60006040820190506143a36000830185614003565b6143b0602083018461437f565b9392505050565b60006060820190506143cc6000830186614003565b6143d9602083018561437f565b6143e66040830184614012565b949350505050565b60006020820190506144036000830184614021565b92915050565b60006020820190508181036000830152614424818486614030565b90509392505050565b60006020820190508181036000830152614447818461405d565b905092915050565b60006060820190506144646000830185614096565b8181036020830152614476818461405d565b90508181036040830152614489816140e6565b90509392505050565b60006080820190506144a76000830186614096565b81810360208301526144b9818561405d565b905081810360408301526144cc816140e6565b905081810360608301526144e0818461405d565b9050949350505050565b60006060820190506144ff60008301866140a5565b61450c6020830185614003565b6145196040830184614003565b949350505050565b600060808201905061453660008301876140a5565b6145436020830186614003565b6145506040830185614003565b8181036060830152614562818461405d565b905095945050505050565b600060808201905061458260008301876140a5565b61458f6020830186614003565b61459c60408301856140b4565b81810360608301526145ae818461405d565b905095945050505050565b600060208201905081810360008301526145d2816140c3565b9050919050565b600060208201905081810360008301526145f281614109565b9050919050565b600060208201905081810360008301526146128161412c565b9050919050565b600060208201905081810360008301526146328161414f565b9050919050565b6000602082019050818103600083015261465281614172565b9050919050565b6000602082019050818103600083015261467281614195565b9050919050565b60006020820190508181036000830152614692816141b8565b9050919050565b600060208201905081810360008301526146b2816141db565b9050919050565b600060208201905081810360008301526146d2816141fe565b9050919050565b600060208201905081810360008301526146f281614221565b9050919050565b6000602082019050818103600083015261471281614244565b9050919050565b6000602082019050818103600083015261473281614267565b9050919050565b600060208201905081810360008301526147528161428a565b9050919050565b60006020820190508181036000830152614772816142ad565b9050919050565b60006020820190508181036000830152614792816142d0565b9050919050565b600060208201905081810360008301526147b2816142f3565b9050919050565b600060208201905081810360008301526147d281614316565b9050919050565b600060208201905081810360008301526147f281614339565b9050919050565b600060208201905081810360008301526148128161435c565b9050919050565b600060208201905061482e600083018461437f565b92915050565b600061483e61484f565b905061484a8282614cea565b919050565b6000604051905090565b600067ffffffffffffffff82111561487457614873614df1565b5b61487d82614e48565b9050602081019050919050565b600081519050919050565b600082825260208201905092915050565b600082825260208201905092915050565b60006148c282614c1c565b91506148cd83614c1c565b9250816b7fffffffffffffffffffffff038313600083121516156148f4576148f3614d64565b5b817fffffffffffffffffffffffffffffffffffffffff80000000000000000000000003831260008312161561492c5761492b614d64565b5b828201905092915050565b600061494282614c49565b915061494d83614c49565b9250827fffffffffffffffffffffffffffffffffffffffffffffffffffffffffffffffff0382111561498257614981614d64565b5b828201905092915050565b600061499882614c1c565b91506149a383614c1c565b9250826149b3576149b2614d93565b5b600160000383147fffffffffffffffffffffffffffffffffffffffff800000000000000000000000831416156149ec576149eb614d64565b5b828205905092915050565b6000614a0282614c1c565b9150614a0d83614c1c565b9250826b7fffffffffffffffffffffff0482116000841360008413161615614a3857614a37614d64565b5b817fffffffffffffffffffffffffffffffffffffffff8000000000000000000000000583126000841260008413161615614a7557614a74614d64565b5b827fffffffffffffffffffffffffffffffffffffffff8000000000000000000000000582126000841360008412161615614ab257614ab1614d64565b5b826b7fffffffffffffffffffffff0582126000841260008412161615614adb57614ada614d64565b5b828202905092915050565b6000614af182614c1c565b9150614afc83614c1c565b9250827fffffffffffffffffffffffffffffffffffffffff80000000000000000000000001821260008412151615614b3757614b36614d64565b5b826b7fffffffffffffffffffffff018213600084121615614b5b57614b5a614d64565b5b828203905092915050565b6000614b7182614c49565b9150614b7c83614c49565b925082821015614b8f57614b8e614d64565b5b828203905092915050565b6000614ba582614c29565b9050919050565b60008115159050919050565b6000819050919050565b60007fffffffff0000000000000000000000000000000000000000000000000000000082169050919050565b6000614bf982614b9a565b9050919050565b6000614c0b82614b9a565b9050919050565b6000819050919050565b600081600b0b9050919050565b600073ffffffffffffffffffffffffffffffffffffffff82169050919050565b6000819050919050565b600060ff82169050919050565b6000614c6b82614c84565b9050919050565b6000614c7d82614c84565b9050919050565b6000614c8f82614c96565b9050919050565b6000614ca182614c29565b9050919050565b82818337600083830152505050565b60005b83811015614cd5578082015181840152602081019050614cba565b83811115614ce4576000848401525b50505050565b614cf382614e48565b810181811067ffffffffffffffff82111715614d1257614d11614df1565b5b80604052505050565b6000614d2682614c49565b91507fffffffffffffffffffffffffffffffffffffffffffffffffffffffffffffffff821415614d5957614d58614d64565b5b600182019050919050565b7f4e487b7100000000000000000000000000000000000000000000000000000000600052601160045260246000fd5b7f4e487b7100000000000000000000000000000000000000000000000000000000600052601260045260246000fd5b7f4e487b7100000000000000000000000000000000000000000000000000000000600052603260045260246000fd5b7f4e487b7100000000000000000000000000000000000000000000000000000000600052604160045260246000fd5b600080fd5b600080fd5b600080fd5b600080fd5b600080fd5b600080fd5b600080fd5b600080fd5b6000601f19601f8301169050919050565b7f556e737570706f727465642063616c6c6261636b202d20204265666f7265204160008201527f677265656d656e74205465726d696e6174656400000000000000000000000000602082015250565b7f3078000000000000000000000000000000000000000000000000000000000000600082015250565b7f5369676e6564536166654d6174683a206164646974696f6e206f766572666c6f60008201527f7700000000000000000000000000000000000000000000000000000000000000602082015250565b7f537570706f7274204f6e6c79204f6e6520486f73740000000000000000000000600082015250565b7f416c7265616479204f6e2052656e740000000000000000000000000000000000600082015250565b7f4e6f7420417661696c61626c6520466f722052656e7400000000000000000000600082015250565b7f416c72656164792052656e746564000000000000000000000000000000000000600082015250565b7f496e737566666963656e7420466c6f772042616c616e63650000000000000000600082015250565b7f5065726d697373696f6e2044656e696564000000000000000000000000000000600082015250565b7f496e76616c696420526571756573740000000000000000000000000000000000600082015250565b7f496e73756666696369656e7420466c6f772042616c616e636500000000000000600082015250565b7f5369676e6564536166654d6174683a206d756c7469706c69636174696f6e206f60008201527f766572666c6f7700000000000000000000000000000000000000000000000000602082015250565b7f556e737570706f727465642063616c6c6261636b202d204265666f726520416760008201527f7265656d656e7420757064617465640000000000000000000000000000000000602082015250565b7f556e737570706f727465642063616c6c6261636b202d204265666f726520416760008201527f7265656d656e7420437265617465640000000000000000000000000000000000602082015250565b7f5369676e6564536166654d6174683a207375627472616374696f6e206f76657260008201527f666c6f7700000000000000000000000000000000000000000000000000000000602082015250565b7f4e6f7420416363657074656420546f6b656e0000000000000000000000000000600082015250565b7f556e2d617574686f72697a656420526571756573740000000000000000000000600082015250565b7f5265656e7472616e637947756172643a207265656e7472616e742063616c6c00600082015250565b7f466c6f7720446f6573204e6f7420457869737473000000000000000000000000600082015250565b7f4f6e6c7920434641763120537570706f72746564000000000000000000000000600082015250565b61527a81614b9a565b811461528557600080fd5b50565b61529181614bac565b811461529c57600080fd5b50565b6152a881614bb8565b81146152b357600080fd5b50565b6152bf81614bc2565b81146152ca57600080fd5b50565b6152d681614bee565b81146152e157600080fd5b50565b6152ed81614c00565b81146152f857600080fd5b50565b61530481614c12565b811461530f57600080fd5b50565b61531b81614c1c565b811461532657600080fd5b50565b61533281614c49565b811461533d57600080fd5b50565b61534981614c53565b811461535457600080fd5b5056fea2646970667358221220b37fdab4dc15b05518e34392a431e0c1689234c76dee12c03eaf6f85496c4ab064736f6c63430008070033",
  "linkReferences": {},
  "deployedLinkReferences": {}
}